:020000040800F2
:1000000000000220ED6A0008D9570008DF570008F9
:10001000E5570008EB570008F15700080000000002
:10002000000000000000000000000000F75700087A
:100030000558000800000000135800082158000867
:100040003D6B00083D6B00083D6B00083D6B0008F0
:100050003D6B00083D6B00083D6B00083D6B0008E0
:100060003D6B00083D6B00083D6B00083D6B0008D0
:100070003D6B00083D6B00083D6B00083D6B0008C0
:100080003D6B00083D6B00083D6B00080000000060
:100090000000000000000000000000002D580008D3
:1000A0003D6B00083D5800083D6B00083D6B0008A3
:1000B0003D6B00083D6B00083D6B0008515800087F
:1000C000655800083D6B00083D6B00083D6B00085B
:1000D0003D6B0008795800083D6B000800000000E7
:1000E0008D5800083D6B00083D6B000800000000C3
:1000F0000000000000000000000000003D6B000850
:10010000000000003D6B00083D6B00083D6B0008DF
:1001100000000000000000000000000000000000DF
:100120003D6B00089D5800083D6B00083D6B0008C2
:100130003D6B00080000000000000000000000000F
:100140000000000000000000000000003D6B0008FF
:100150003D6B00083D6B00083D6B0008B15800087E
:100160003D6B00083D6B000800000000000000002F
:10017000000000000000000000000000000000007F
:10018000000000003D6B00080000000000000000BF
:080190003D6B00083D6B000807
:1001A00010B5054C237833B9044B13B10448AFF3B1
:1001B00000800123237010BD2004002000000000F7
:1001C0002800010808B5034B1BB103490348AFF3EE
:1001D000008008BD00000000240400202800010861
:1001E000034613F8012B002AFBD1181A0138704777
:1001F00001F0FF01102A2BDB10F0070F08D010F8D8
:10020000013B013A8B422DD010F0070F42B3F6D1DB
:10021000F0B441EA012141EA014122F007047FF0F4
:1002200000070023F0E80256083C85EA010586EA4B
:10023000010685FA47F5A3FA87F586FA47F6A5FA87
:1002400087F68EB9EED1F0BC01F0FF0102F0070293
:1002500032B110F8013B013A83EA010313B1F8D13E
:100260000020704701387047002D06BF354603381F
:10027000073815F0010F07D1013015F4807F02BF58
:10028000013015F4C03F0130F0BC0138704700BFA9
:1002900081F0004102E000BF83F0004330B54FEA37
:1002A00041044FEA430594EA050F08BF90EA020FA4
:1002B0001FBF54EA000C55EA020C7FEA645C7FEA37
:1002C000655C00F0E2804FEA5454D4EB5555B8BF5A
:1002D0006D420CDD2C4480EA020281EA030382EACB
:1002E000000083EA010180EA020281EA0303362D5D
:1002F00088BF30BD11F0004F4FEA01314FF4801C30
:100300004CEA113102D0404261EB410113F0004F41
:100310004FEA03334CEA133302D0524263EB4303F8
:1003200094EA050F00F0A780A4F10104D5F1200E96
:100330000DDB02FA0EFC22FA05F2801841F10001F1
:1003400003FA0EF2801843FA05F359410EE0A5F1C5
:1003500020050EF1200E012A03FA0EFC28BF4CF0F6
:10036000020C43FA05F3C01851EBE37101F00045AC
:1003700007D54FF0000EDCF1000C7EEB00006EEBB9
:100380000101B1F5801F1BD3B1F5001F0CD3490843
:100390005FEA30004FEA3C0C04F101044FEA44529A
:1003A00012F5800F80F09A80BCF1004F08BF5FEA21
:1003B000500C50F1000041EB045141EA050130BD01
:1003C0005FEA4C0C404141EB0101013C28BFB1F513
:1003D000801FE9D291F0000F04BF01460020B1FA5E
:1003E00081F308BF2033A3F10B03B3F120020CDA31
:1003F0000C3208DD02F1140CC2F10C0201FA0CF00F
:1004000021FA02F10CE002F11402D8BFC2F1200C73
:1004100001FA02F120FA0CFCDCBF41EA0C01904029
:10042000E41AA2BF01EB0451294330BD6FEA040472
:100430001F3C1CDA0C340EDC04F11404C4F120025D
:1004400020FA04F001FA02F340EA030021FA04F36F
:1004500045EA030130BDC4F10C04C4F1200220FAC6
:1004600002F001FA04F340EA0300294630BD21FA04
:1004700004F0294630BD94F0000F83F4801306BFCA
:1004800081F480110134013D4EE77FEA645C18BFBE
:100490007FEA655C29D094EA050F08BF90EA020F55
:1004A00005D054EA000C04BF1946104630BD91EA4D
:1004B000030F1EBF0021002030BD5FEA545C05D150
:1004C0004000494128BF41F0004130BD14F580048F
:1004D0003CBF01F5801130BD01F0004545F0FE4103
:1004E00041F470014FF0000030BD7FEA645C1ABF38
:1004F000194610467FEA655C1CBF0B46024650EA6F
:10050000013406BF52EA033591EA030F41F400219A
:1005100030BD00BF90F0000F04BF0021704730B520
:100520004FF4806404F132044FF000054FF00001F5
:1005300050E700BF90F0000F04BF0021704730B5B6
:100540004FF4806404F1320410F0004548BF40428B
:100550004FF000013EE700BF42004FEAE2014FEAE0
:1005600031014FEA02701FBF12F07F4393F07F4FBB
:1005700081F06051704732F07F4208BF704793F0BE
:100580007F4F04BF41F40021704730B54FF46074D1
:1005900001F0004521F000411CE700BF50EA0102D4
:1005A00008BF704730B54FF000050AE050EA01027D
:1005B00008BF704730B511F0004502D5404261EBED
:1005C00041014FF4806404F132045FEA915C3FF42E
:1005D000D8AE4FF003025FEADC0C18BF03325FEACB
:1005E000DC0C18BF033202EBDC02C2F1200300FA7C
:1005F00003FC20FA02F001FA03FE40EA0E0021FAA1
:1006000002F11444BDE600BF70B54FF0FF0C4CF48E
:10061000E06C1CEA11541DBF1CEA135594EA0C0F40
:1006200095EA0C0F00F0DEF82C4481EA030621EA7B
:100630004C5123EA4C5350EA013518BF52EA0335B6
:1006400041F4801143F4801338D0A0FB02CE4FF068
:100650000005E1FB02E506F00042E0FB03E54FF098
:100660000006E1FB03569CF0000F18BF4EF0010E90
:10067000A4F1FF04B6F5007F64F5407404D25FEA8C
:100680004E0E6D4146EB060642EAC62141EA55513F
:100690004FEAC52040EA5E504FEACE2EB4F1FD0C81
:1006A00088BFBCF5E06F1ED8BEF1004F08BF5FEAFF
:1006B000500E50F1000041EB045170BD06F00046B1
:1006C00046EA010140EA020081EA0301B4EB5C045E
:1006D000C2BFD4EB0C0541EA045170BD41F4801156
:1006E0004FF0000E013C00F3AB8014F1360FDEBF7B
:1006F000002001F0004170BDC4F10004203C35DA57
:100700000C341BDC04F11404C4F1200500FA05F3D9
:1007100020FA04F001FA05F240EA020001F000427A
:1007200021F0004110EBD37021FA04F642EB0601F0
:100730005EEA430E08BF20EAD37070BDC4F10C041A
:10074000C4F1200500FA04F320FA05F001FA04F2DE
:1007500040EA020001F0004110EBD37041F10001CA
:100760005EEA430E08BF20EAD37070BDC4F12005D5
:1007700000FA05F24EEA020E20FA04F301FA05F23D
:1007800043EA020321FA04F001F0004121FA04F2E5
:1007900020EA020000EBD3705EEA430E08BF20EAB5
:1007A000D37070BD94F0000F0FD101F000464000EF
:1007B00041EB010111F4801F08BF013CF7D041EA71
:1007C000060195F0000F18BF704703F00046520075
:1007D00043EB030313F4801F08BF013DF7D043EA46
:1007E0000603704794EA0C0F0CEA135518BF95EAFC
:1007F0000C0F0CD050EA410618BF52EA4306D1D183
:1008000081EA030101F000414FF0000070BD50EAA1
:10081000410606BF1046194652EA430619D094EA2B
:100820000C0F02D150EA013613D195EA0C0F05D115
:1008300052EA03361CBF104619460AD181EA030169
:1008400001F0004141F0FE4141F470014FF0000021
:1008500070BD41F0FE4141F4780170BD70B54FF0BC
:10086000FF0C4CF4E06C1CEA11541DBF1CEA13553C
:1008700094EA0C0F95EA0C0F00F0A7F8A4EB05041E
:1008800081EA030E52EA03354FEA013100F0888015
:100890004FEA03334FF0805545EA131343EA1263DE
:1008A0004FEA022245EA111545EA10654FEA002693
:1008B0000EF000419D4208BF964244F1FD0404F54C
:1008C000407402D25B084FEA3202B61A65EB0305A8
:1008D0005B084FEA32024FF480104FF4002CB6EB65
:1008E000020E75EB030E22BFB61A754640EA0C00E5
:1008F0005B084FEA3202B6EB020E75EB030E22BF25
:10090000B61A754640EA5C005B084FEA3202B6EB65
:10091000020E75EB030E22BFB61A754640EA9C0024
:100920005B084FEA3202B6EB020E75EB030E22BFF4
:10093000B61A754640EADC0055EA060E18D04FEAB2
:10094000051545EA16754FEA06164FEAC30343EA52
:1009500052734FEAC2025FEA1C1CC0D111F4801F1F
:100960000BD141EA00014FF000004FF0004CB6E718
:1009700011F4801F04BF01430020B4F1FD0C88BFB7
:10098000BCF5E06F3FF6AFAEB5EB030C04BFB6EBC2
:10099000020C5FEA500C50F1000041EB045170BDB5
:1009A0000EF0004E4EEA113114EB5C04C2BFD4EBE2
:1009B0000C0541EA045170BD41F480114FF0000E66
:1009C000013C90E645EA060E8DE60CEA135594EAE2
:1009D0000C0F08BF95EA0C0F3FF43BAF94EA0C0FE5
:1009E0000AD150EA01347FF434AF95EA0C0F7FF45A
:1009F00025AF104619462CE795EA0C0F06D152EAAE
:100A000003353FF4FDAE1046194622E750EA410691
:100A100018BF52EA43067FF4C5AE50EA41047FF4A2
:100A20000DAF52EA43057FF4EBAE12E74FF0FF3C07
:100A300006E000BF4FF0010C02E000BF4FF0010CD8
:100A40004DF804CD4FEA410C7FEA6C5C4FEA430C51
:100A500018BF7FEA6C5C1BD001B050EA410C0CBFA0
:100A600052EA430C91EA030F02BF90EA020F002002
:100A7000704710F1000F91EA030F58BF994208BF69
:100A800090422CBFD8176FEAE37040F00100704726
:100A90004FEA410C7FEA6C5C02D150EA013C07D17D
:100AA0004FEA430C7FEA6C5CD6D152EA033CD3D0C8
:100AB0005DF8040B704700BF8446104662468C46C2
:100AC0001946634600E000BF01B5FFF7B7FF0028F5
:100AD00048BF10F1000F01BD4DF808EDFFF7F4FF1E
:100AE0000CBF012000205DF808FB00BF4DF808EDA9
:100AF000FFF7EAFF34BF012000205DF808FB00BFCC
:100B00004DF808EDFFF7E0FF94BF012000205DF8ED
:100B100008FB00BF4DF808EDFFF7CEFF94BF0120A2
:100B200000205DF808FB00BF4DF808EDFFF7C4FF9B
:100B300034BF012000205DF808FB00BF4FEA410CE4
:100B40007FEA6C5C02D150EA013C0AD14FEA430CC7
:100B50007FEA6C5C02D152EA033C02D14FF0000004
:100B600070474FF0010070474FEA410212F5001242
:100B700015D211D56FF47873B3EB625212D94FEAE4
:100B8000C12343F0004343EA505311F0004F23FACE
:100B900002F018BF404270474FF00000704750EA23
:100BA000013005D111F0004008BF6FF000407047E0
:100BB0004FF00000704700BF4A0011D212F500123A
:100BC00011D20DD56FF47873B3EB62520ED44FEAA5
:100BD000C12343F0004343EA505323FA02F0704725
:100BE0004FF00000704750EA013002D14FF0FF3063
:100BF00070474FF0000070474FEA4102B2F1E04306
:100C000024BFB3F5001CDCF1FE5C0DD901F0004CF3
:100C10004FEAC0024CEA5070B2F1004F40EB830043
:100C200008BF20F00100704711F0804F21D113F16F
:100C30003872BCBF01F00040704741F480114FEAA8
:100C40005252C2F11802C2F1200C10FA0CF320FA31
:100C500002F018BF40F001004FEAC1234FEAD3234E
:100C600003FA0CFC40EA0C0023FA02F34FEA4303B8
:100C7000CCE77FEA625307D150EA01331EBF4FF041
:100C8000FE4040F44000704701F0004040F0FE405C
:100C900040F40000704700BF53B94AB9002908BFAB
:100CA00000281CBF4FF0FF314FF0FF3000F074B947
:100CB000ADF1080C6DE904CE00F006F8DDF804E0B3
:100CC000DDE9022304B070472DE9F047089D044692
:100CD0008E46002B4DD18A42944669D9B2FA82F2EF
:100CE00052B101FA02F3C2F1200120FA01F10CFA2B
:100CF00002FC41EA030E94404FEA1C48210CBEFB63
:100D0000F8F61FFA8CF708FB16E341EA034306FBEB
:100D100007F199420AD91CEB030306F1FF3080F07A
:100D20001F81994240F21C81023E63445B1AA4B2C7
:100D3000B3FBF8F008FB103344EA034400FB07F769
:100D4000A7420AD91CEB040400F1FF3380F00A81AA
:100D5000A74240F207816444023840EA0640E41B9F
:100D600000261DB1D4400023C5E900433146BDE84B
:100D7000F0878B4209D9002D00F0EF800026C5E9ED
:100D8000000130463146BDE8F087B3FA83F6002E05
:100D90004AD18B4202D3824200F2F980841A61EB7D
:100DA000030301209E46002DE0D0C5E9004EDDE79B
:100DB00002B9FFDEB2FA82F2002A40F09280A1EB83
:100DC0000C014FEA1C471FFA8CFE0126200CB1FBD8
:100DD000F7F307FB131140EA01410EFB03F08842D1
:100DE00008D91CEB010103F1FF3802D2884200F25E
:100DF000CB804346091AA4B2B1FBF7F007FB1011F0
:100E000044EA01440EFB00FEA64508D91CEB04048D
:100E100000F1FF3102D2A64500F2BB800846A4EBE8
:100E20000E0440EA03409CE7C6F12007B34022FAD3
:100E300007FC4CEA030C20FA07F401FA06F31C4302
:100E4000F9404FEA1C4900FA06F3B1FBF9F8200C0F
:100E50001FFA8CFE09FB181140EA014108FB0EF055
:100E6000884202FA06F20BD91CEB010108F1FF3AA5
:100E700080F08880884240F28580A8F102086144B1
:100E8000091AA4B2B1FBF9F009FB101144EA0141BF
:100E900000FB0EFE8E4508D91CEB010100F1FF346A
:100EA0006CD28E456AD90238614440EA0840A0FB02
:100EB0000294A1EB0E01A142C846A64656D353D0D8
:100EC0005DB1B3EB080261EB0E0101FA07F722FAFC
:100ED00006F3F1401F43C5E9007100263146BDE825
:100EE000F087C2F12003D8400CFA02FC21FA03F388
:100EF000914001434FEA1C471FFA8CFEB3FBF7F009
:100F000007FB10360B0C43EA064300FB0EF69E422D
:100F100004FA02F408D91CEB030300F1FF382FD2C6
:100F20009E422DD9023863449B1B89B2B3FBF7F66E
:100F300007FB163341EA034106FB0EF38B4208D947
:100F40001CEB010106F1FF3816D28B4214D9023E88
:100F50006144C91A46EA004638E72E46284605E7A6
:100F60000646E3E61846F8E64B45A9D2B9EB020877
:100F700064EB0C0E0138A3E74646EAE7204694E707
:100F80004046D1E7D0467BE7023B614432E730463A
:100F900009E76444023842E7704700BF00000000E0
:100FA00080B58AB004AF78600B46FB70524A537824
:100FB0006FF3C7135370504A537843F020035370B4
:100FC0004D4A5378022161F3C40353704A4A13888F
:100FD000032161F3CA131380474A1378032161F395
:100FE000C6031370444A137843F007031370424B4F
:100FF0005B783B75404B1B787B75FB7899B20A2375
:1010000002930223019307F11403009301230022AA
:10101000786806F079FE394B1B681846FFF79CFA92
:101020002DA3D3E90023FFF7EFFA02460B462CA1CC
:10103000D1E90001FFF712FC02460B4643EC172BE7
:10104000B0EE470AF0EE670A0EF07AFF53EC102B71
:1010500010461946FFF7B0FD03469BB23B823B8A20
:101060001846FFF767FA20A3D3E90023FFF7CCFA6D
:1010700002460B46104619461DA3D3E90023FFF78D
:10108000EDFB02460B4643EC172BB0EE470AF0EEA1
:10109000670A0EF055FF53EC102B10461946FFF768
:1010A0008BFD03469BB23B827B7C3B733B7C7B731B
:1010B000FB7899B20A2302930223019307F10C03F0
:1010C000009301230522786806F01EFE00BF183742
:1010D000BD4680BDAFF300809A9999999999B93F1F
:1010E000F168E388B5F8A43F9A9999999999E93FED
:1010F0009A99999999990540400400200000002090
:1011000080B586B004AF78600B46FB700E4B0022B2
:101110001A60FB7899B20A230293022301930B4BC6
:10112000009301230222786806F0E8FE064B5A88F5
:10113000054B1B8813439BB2DB089BB29B009BB201
:1011400018460837BD4680BD3C0400203D04002001
:1011500080B586B004AF78600B46FB700C4B002264
:101160001A60FB7899B20A23029302230193094B78
:10117000009301230422786806F0C0FE044B5A88CD
:10118000034B1B8813439BB218460837BD4680BDEE
:101190003C0400203D04002080B588B004AF786096
:1011A0000B46FB70174B00221A60FB7899B20A239A
:1011B000029302230193144B0093012301227868C8
:1011C00006F09CFE0F4B5A880E4B1B8813439BB2B4
:1011D000FB81B7F90E301846FFF7ACF94FF000026B
:1011E0000A4BFFF73BFB02460B4610461946FFF73A
:1011F00003FD034607EE903AB0EE670A1037BD468E
:1012000080BD00BF3C0400203D0400200000594088
:10121000B0B586B004AF78600B46FB701E4B002261
:101220001A60FB7899B20A230293022301931B4BA5
:10123000009301230322786806F060FE164B5A885B
:10124000154B1B8813439BB21846FFF773F90446EE
:101250000D46134B1B681846FFF77EF90CA3D3E924
:101260000023FFF7D1F902460B4620462946FFF737
:10127000CBF902460B4610461946FFF7BDFC034664
:1012800007EE903AB0EE670A0837BD46B0BD00BF22
:10129000000000000088D3403C0400203D040020F2
:1012A0000000002080B586B002AF78600B46FB706E
:1012B000FB789B08DBB23B73FB789B01DBB27B7353
:1012C00000220421104806F08FFB07F1080207F105
:1012D0000C01642300930323786809F08CFD01223C
:1012E0000421094806F080FB7B7A9BB21B029AB26C
:1012F000BB7A9BB213449BB2C3F30B039BB2184659
:101300001037BD4680BD00BF000C02400000000049
:1013100080B582B000AF0346FB80FB881846FFF71C
:1013200009F909A3D3E90023FFF76EF902460B463A
:1013300010461946FFF760FC034607EE903AB0EE00
:10134000670A0837BD4680BD05C078060DFD533FCE
:1013500090B484B000AF786039600023BB81744BD7
:101360001B781A467B6813441B78562B40F0C580C7
:101370006F4B1B7801337A6813441B78522B40F073
:10138000BC806B4B1B7802337A6813441B78542B58
:1013900040F0B380002409E0654B1B7823440333FD
:1013A0007A6813441A78634B1A550134062CF3DD1E
:1013B000002406E03A7B5F4B1B5D1344DBB23B73BA
:1013C0000134042CF6DD3B7BDB43DBB27B737A7BA1
:1013D000584B5B799A4240F08E80554B1B781A46E9
:1013E0007B681344FF221A70514B1B780933DAB221
:1013F0004F4B1A704E4B1A784F4BA3FB02135908F0
:101400000B46DB000B44D31ADAB2494B1A70494B36
:101410005B783B72474B9B787B72464BDB78BB72A9
:10142000444B1B79FB72434B1B78202B08D8414B54
:101430001B781946BA683B6843F82120912372E073
:101440003C4B1B788F2B6CD93A4B1B78913B132B61
:101450002AD801A252F823F0AD140008B1140008F4
:10146000B5140008B9140008A9140008A91400084C
:10147000A9140008A9140008A9140008A914000858
:10148000A9140008A9140008A9140008A914000848
:10149000A9140008BD140008C7140008D3140008DC
:1014A000DF140008EB14000890233CE091233AE09D
:1014B000922338E0932336E0942334E0BA683B6803
:1014C0001A6091232FE03A7A3B6883F84C209123ED
:1014D00029E03B68FF2283F84D20A22323E03A7ADB
:1014E0003B6883F84E20A3231DE03A7A3B6883F8DB
:1014F0004F20A42317E0932315E00D4B1B780933ED
:10150000DAB20B4B1A700A4B1A780B4BA3FB02137F
:1015100059080B46DB000B44D31ADAB2044B1A709D
:1015200000E000BF902318461037BD4690BC7047BE
:101530004204002044040020398EE33880B584B092
:1015400000AF786039603B685B88002B11D03B6846
:101550001B88FB73FA7B3B6853F82220FB7B194600
:10156000786800F00BF83B6800221A803B68002284
:101570005A80912318461037BD4680BD90B58BB078
:1015800000AFF8600B467A60FB7207F1140300228B
:101590001A605A609A60DA6056233B7552237B7555
:1015A0005423BB75FB7AFB75042387F8273000238F
:1015B00087F826307B683B6104240FE0231F283323
:1015C0003B4413F8182C04F128033B4403F8142C73
:1015D00097F82730013387F827300134072CEDDDE9
:1015E00003240AE004F128033B4413F8142C97F871
:1015F0002630134487F826300134072CF2DD97F8A3
:10160000273097F82620D243D2B228333B4403F840
:10161000142C97F827309BB201339AB207F11401CA
:101620003223F8680AF00FFB00BF2C37BD4690BD8F
:1016300090B589B000AF78600B46FB701346BB7065
:1016400007F10C0300221A605A609A60DA60562390
:101650003B7352237B735423BB73FB78FB73BB78C0
:101660003B74FF23BB74AA23FB740023FB77032482
:1016700008E004F120033B4413F8142CFB7F1344CF
:10168000FB770134072CF4DDFB7FDB43DBB23B75DA
:1016900007F10C011E23092278680AF0D4FA00BF72
:1016A0002437BD4690BD000080B584B000AF78609F
:1016B0007F23FB7301224FF48071114806F094F9E7
:1016C000012240210F4806F08FF9142005F0AAFAF4
:1016D000002240210B4806F087F9552005F0A2FAB8
:1016E00007F10F010A23012278680AF0ACFA1421ED
:1016F000786800F099F900BF1037BD4680BD00BF83
:10170000000002400008024080B500AF642005F0F0
:1017100089FA00224FF48071084806F065F9012229
:101720004021074806F060F9142005F07BFA0022FA
:101730004021034806F058F900BF80BD0000024078
:101740000008024090B5CBB000AF07F59474A4F543
:101750008E74206007F59470A0F5907001601146BA
:1017600007F59472A2F59472136007F59473A3F2CF
:1017700021130A461A704CF63163A7F8243100236E
:1017800087F827310023A7F820310023C7F8183144
:10179000002387F81C3107F59473A3F58A730022A0
:1017A0001A6004334FF48072002118460BF0CCFC11
:1017B00007F59473A3F590731B68774A934209D990
:1017C00007F59473A3F590731B68B3F1005F01D222
:1017D000BC23DCE007F59473A3F58C7307F59472D2
:1017E000A2F5907212681A6007F59473A3F58C73D2
:1017F000DB7887F8183107F59473A3F58C739B7821
:1018000087F8193107F59473A3F58C735B7887F823
:101810001A3107F59473A3F58C731B7887F81B3185
:1018200097F8182197F819315340DAB297F81A311E
:101830005340DAB297F81B315340DBB287F81C31C2
:1018400007F59473A3F221131B7887F8203107F56D
:101850009473A3F58A7307F59472A2F22112127899
:101860001A7007F59473A3F221131B7887F82131BE
:1018700000241CE097F82121214607F59473A3F575
:1018800094731B680B441B785340DBB287F82131FB
:10189000224607F59473A3F594731B681A44631CDE
:1018A000117807F59472A2F58A72D154013407F5C4
:1018B0009473A3F221131B789C42DBDD07F594732C
:1018C000A3F221131B78023397F8211107F59472C4
:1018D000A2F58A72D15407F5927107F59473A3F5B6
:1018E0008E700A23022200680AF0ADF907F594739E
:1018F000A3F58E730A21186800F096F8034687F85E
:10190000273197F82731792B40D107F58C7107F5EE
:101910009473A3F58E700F23052200680AF093F9E3
:1019200007F59473A3F58E730A21186800F07CF80C
:10193000034687F8273197F82731792B24D107F50B
:101940009473A3F221131B789BB203339AB207F16D
:10195000140107F59473A3F58E70642300680AF0F0
:1019600072F907F59473A3F58E730A21186800F0D5
:101970005BF8034687F8273197F82731792B01D197
:10198000792304E01F2302E01F2300E01F231846F1
:1019900007F59677BD4690BDFFFFFE1F80B586B068
:1019A00000AF78600B467B804BF64433BB8200234C
:1019B000FB751C4B1B883B820023BB747B88BB815F
:1019C0007B7B3B743B7B7B743A7B7B7B5340DBB202
:1019D000BB7407F114010A23022278680AF033F974
:1019E0000A21786800F020F80346FB75FB7D792B0F
:1019F00013D107F110010F23032278680AF023F9AD
:101A00001421786800F010F80346FB75FB7D792BF4
:101A100001D1792302E01F2300E01F231846183765
:101A2000BD4680BD4000010880B586B000AF78603B
:101A30000B467B800123FB750023FB7305F0E6F862
:101A400002467B8813443B6118E007F10F01022333
:101A5000012278680AF089F9FB7B792B01D179237F
:101A600010E0FB7B1F2B01D11F230BE005F0CEF80C
:101A700002463B69934201D8AB2303E0FB7D002B78
:101A8000E3D11F2318461837BD4680BD2DE9B04F5E
:101A90009AB000AF05F054F800F03CFA00F01EFCDC
:101AA00000F0FCFB00F0A6FB00F09CFA00F0CCFB81
:101AB00000F0C6FA00F04EFB00F070FB00F0F6FA02
:101AC0007B4809F055FC04217A4809F088FD7A4AE0
:101AD0004FF400435362784B5B6A9BB2774A1380A2
:101AE000774A01231370764AFA235380744A642399
:101AF0009380734A00239360724A00231370714AE3
:101B0000012353706F4A002393706F4A0023537070
:101B10006D4A002313706D4A002393706B4A0023B3
:101B200053706A4A0023137000224021684805F070
:101B30005BFF03F0BBFF03F09DFF80216548FFF7CB
:101B40002FFA88216348FFF72BFA634B07F12C0526
:101B50001C460FCC0FC50FCC0FC50FCC0FC594E89A
:101B6000070085E8070007F12C031846FEF738FB4D
:101B700003469AB207F12C010A2358480AF063F889
:101B80000922574957480AF092F900F055FD05F02F
:101B90003DF8034600229A469346534BD3E900236F
:101BA00092457BEB0303C0F0A5804F4BD3E90023A4
:101BB00012F11401396243F100037B624A4BD7E909
:101BC0000812C3E9001200F0A5FD484B1B78012B59
:101BD00045D03E4B1B78002B0BD03A4B9B78013302
:101BE000DBB2384A9370394A002313703F4A01230D
:101BF0001370364B5B78002B1DD0324B9B78002B3B
:101C00000DD1304B5B781946394A2A2301FB03F387
:101C100013441B78013BDBB22A4A937005E0294B41
:101C20009B78013BDBB2274A9370284A002353700C
:101C30002E4A01231370234B9878224B5B78194668
:101C40002B4A2A2301FB03F313441A78B0FBF2F367
:101C500002FB03F3C31ADBB21A4A93704BE0194B31
:101C60005B781846174B9B781C4621490246520068
:101C70000244D3009B1A23445B000B445D88114B44
:101C80005B7819460F4B9B781C4619480A46520050
:101C90000A44D3009B1A234408335B000344DB88C7
:101CA0001946284600F028FC104A0023137022E051
:101CB00044050020FC040020000400408C080020A3
:101CC00078080020AC08002094080020900800202C
:101CD000000802405004002044000108D005002004
:101CE000E80700201406002068080020A80800204B
:101CF0007C01002000BF04F089FF03460022BB6185
:101D0000FA61784BD3E90023D7E906452146914291
:101D1000294671EB030313D3724BD3E9002312F569
:101D2000FA71396143F100037B616E4BD7E904120C
:101D3000C3E9001220216C4805F06FFE00F050FF4F
:101D400004F064FF03460022BB60FA60674BD3E9EE
:101D5000002312F17D0843F10009D7E902120B4676
:101D60004345134673EB0903FFF40FAF04F04EFF36
:101D7000034600223B607A605C4BD7E90012C3E95E
:101D800000125B4B1B780C2B03D0594B1B780E2B8E
:101D900004D11122A0215748FFF74AFC8021564860
:101DA000FFF7AEF90346554A138280215248FFF7E8
:101DB000CFF903461BB2514A138180214E48FFF7E9
:101DC00027FAF0EE407A4D4BC3ED037A80214A4862
:101DD000FFF7E2F9F0EE407A484BC3ED017A882133
:101DE0004548FFF78DF90346454A1382882142484A
:101DF000FFF7AEF903461BB2414A138188213E48E2
:101E0000FFF706FAF0EE407A3D4BC3ED037A8821E6
:101E10003948FFF7C1F9F0EE407A394BC3ED017A4A
:101E200018213848FFF73EFA0346374A1380192134
:101E30003448FFF737FA0346334A53801A213148B2
:101E4000FFF730FA0346304A93801B212D48FFF7F5
:101E500029FA03462C4AD3801C212A48FFF722FA8C
:101E60000346294A13811D212648FFF71BFA034622
:101E7000254A53811E212348FFF714FA0346224ABC
:101E800093811F211F48FFF70DFA03461E4AD38195
:101E900000240EE01C4B33F814301846FFF738FAD4
:101EA000F0EE407A184A231D9B001344C3ED007ADC
:101EB0000134072CEEDD154BB3F84430184603F01F
:101EC00037F9F0EE407AB0EE670A03F061F9F0EE10
:101ED000407A0F4BC3ED007A00F06EFC00F0B8FCC6
:101EE00053E600BF580800200000024060080020B0
:101EF000060000201406002050040020F8070020EF
:101F000010080020A40400202808002084070020D6
:101F1000F407002080B594B000AF07F12003302211
:101F2000002118460BF010F907F10C0300221A608B
:101F30005A609A60DA601A610023BB60274B1B6C01
:101F4000264A43F080531364244B1B6C03F08053E8
:101F5000BB60BB6800237B60214B1B68204A43F4B5
:101F6000404313601E4B1B6803F440437B607B6857
:101F700002233B620123FB6210233B630223BB630A
:101F80000023FB6308233B6464237B640223BB645C
:101F90000423FB6407F12003184608F00BFA0346FC
:101FA000002B01D003F0D4F90F23FB6002233B6127
:101FB00000237B614FF48053BB610023FB6107F179
:101FC0000C030321184608F06DFC0346002B01D0DA
:101FD00003F0BEF900BF5037BD4680BD0038024057
:101FE0000070004080B500AF124B134A1A60114BCD
:101FF000124A5A600F4B00229A600E4B0022DA60A0
:102000000C4B4FF480421A610A4B00225A61094B73
:1020100000229A61074B0022DA61064B00221A6205
:10202000044805F02DFD0346002B01D003F090F984
:1020300000BF80BD5004002000540040801A0600FC
:1020400080B500AF174B184A1A60164B4FF48272D6
:102050005A60144B00229A60124B0022DA60114B36
:1020600000221A610F4B00225A610E4B4FF400728E
:102070009A610C4B2022DA610A4B00221A62094B4A
:1020800000225A62074B00229A62064B0A22DA6249
:10209000044808F027FE0346002B01D003F058F94E
:1020A00000BF80BDA4040020003C004080B58CB07F
:1020B00000AF07F10C032422002118460BF044F86E
:1020C0003B1D00221A605A60204B214A1A601F4BA8
:1020D00003225A601D4B10229A601C4B4FF6FF7270
:1020E000DA601A4B00221A61184B80229A6103238E
:1020F000FB6002233B6101237B610423BB61082356
:10210000FB6102233B6201237B620423BB62082341
:10211000FB6207F10C0319460C4809F0BAF90346B3
:10212000002B01D003F014F900237B600023BB6077
:102130003B1D1946054809F0B7FC0346002B01D0AA
:1021400003F006F900BF3037BD4680BDFC04002017
:102150000004004080B500AF0E4B0F4A1A600D4BD3
:1021600040F2E7325A600B4B00229A60094B41F271
:102170008732DA60074B00221A61064B80229A618F
:10218000044809F0A5F80346002B01D003F0E0F85D
:1021900000BF80BD440500200044014080B500AF71
:1021A000124B134A1A60114B4FF4E1325A600F4B35
:1021B0004FF480529A600D4B0022DA600B4B4FF4C3
:1021C00080621A61094B0C225A61084B00229A6105
:1021D000064B0022DA61054809F0E8FC0346002BB3
:1021E00001D003F0B5F800BF80BD00BF8C05002012
:1021F0000010014080B500AF114B124A1A60104B1D
:102200004FF4E1325A600E4B00229A600C4B0022D0
:10221000DA600B4B00221A61094B0C225A61084B01
:1022200000229A61064B0022DA61054809F0BEFCE3
:102230000346002B01D003F08BF800BF80BD00BF28
:10224000D00500200044004080B500AF114B124A79
:102250001A60104B4FF4E1325A600E4B00229A6024
:102260000C4B0022DA600B4B00221A61094B0C2246
:102270005A61084B00229A61064B0022DA61054838
:1022800009F094FC0346002B01D003F061F800BF75
:1022900080BD00BF140600200014014080B582B04C
:1022A00000AF00237B600C4B1B6B0B4A43F4800395
:1022B0001363094B1B6B03F480037B607B68002274
:1022C0000021392004F0ADFD392004F0C6FD00BF27
:1022D0000837BD4680BD00BF0038024080B58AB0D7
:1022E00000AF07F1140300221A605A609A60DA60A6
:1022F0001A6100233B617B4B1B6B7A4A43F004035A
:102300001363784B1B6B03F004033B613B690023B1
:10231000FB60744B1B6B734A43F080031363714B78
:102320001B6B03F08003FB60FB680023BB606D4BFD
:102330001B6B6C4A43F0010313636A4B1B6B03F086
:102340000103BB60BB6800237B60664B1B6B654A67
:1023500043F002031363634B1B6B03F002037B60C8
:102360007B6800233B605F4B1B6B5E4A43F00803B6
:1023700013635C4B1B6B03F008033B603B6800225C
:1023800040F24B31584805F02FFB00224FF4987172
:10239000564805F029FB00220121554805F024FB91
:1023A00000220421534805F01FFB4FF400537B61CA
:1023B0004FF40413BB610023FB6107F114031946BA
:1023C000494805F075F940F243337B610123BB6155
:1023D0000023FB6100233B6207F1140319464248C6
:1023E00005F066F904237B610023BB610023FB61D8
:1023F00007F1140319463C4805F05AF908237B619C
:102400000123BB610023FB6102233B6207F114033C
:102410001946354805F04CF94FF498737B61012358
:10242000BB610023FB6100233B6207F114031946E3
:102430002E4805F03DF901237B610123BB61002398
:10244000FB6101233B6207F114031946284805F09C
:102450002FF94FF470437B610023BB610023FB61C4
:1024600007F114031946224805F022F980237B6105
:102470004FF40413BB610123FB6107F114031946F8
:10248000194805F015F904237B610123BB61002382
:10249000FB6100233B6207F114031946154805F060
:1024A00007F940237B610023BB610123FB6107F136
:1024B000140319460E4805F0FBF8002200211720EE
:1024C00004F0AFFC172004F0C8FC002200212820F3
:1024D00004F0A7FC282004F0C0FC00BF2837BD464C
:1024E00080BD00BF003802400008024000000240EA
:1024F00000040240000C024080B584B002AF0346E5
:102500000A46FB801346BB80114B1B78002B09D079
:10251000104B18880F4B5988002300930F230F226C
:1025200003F0F2FCB988F8884FF6E07300930F23AC
:102530000F2203F0E9FC074AFB881380054ABB8899
:102540005380034B01221A7000BF0837BD4680BD7F
:10255000A7080020B008002080B584B004AF2B4B42
:102560005B781946294B9B781846284BDB781A462E
:10257000274B1B880193009203460A4625492648AB
:102580000BF054FA254B002202924FF6E0720192B2
:102590005A6800921B68204AB921DC2003F05DFED6
:1025A0001F4B1B881A461F4B9B7819461D4B1B78E7
:1025B00000930B461C4918480BF038FA174B0022C1
:1025C00002924FF6FF7201925A6800921B68124AFB
:1025D000C821DC2003F041FE144B5A6A144B9B784F
:1025E00014490D480BF022FA0C4B002202924FF6D0
:1025F000FF7201925A6800921B68074AD721FA209D
:1026000003F02BFE00BFBD4680BD00BF8408002044
:102610008808002080000108B80600202802002059
:102620008C08002090080020900001080004004061
:10263000AC080020A000010880B400AF2D4B1A7830
:102640002C4B5A702C4B1B691B0BDBB2DB43DBB2F0
:1026500003F00F03DAB2274B1A70264B1B78002BBE
:1026600030D0244B5B78002B2CD1224B1B789AB2B4
:10267000224B1B8813449AB2204B1A801D4B1A78A8
:102680001C4B9A701B4B1A781A4BDA70194B9B78BB
:10269000012B02D11A4B01221A70164B9B78082B82
:1026A00006D1184B1B780A2B02D0164B01221A7048
:1026B000104B9B78042B05D1134B9B780133DAB276
:1026C000114B9A70114B1B88102B05D90F4B1B888F
:1026D0004FF6F772934207D90D4B4FF400425A62FE
:1026E0000A4B4FF400421A8000BFBD465DF8047BE0
:1026F000704700BF840800200004024088080020C2
:102700007408002006000020900800208C0800209B
:102710000004004080B500AF214B5B6A9AB2214BA8
:102720001B889A4219D9204B01221A701C4B5B6AF4
:102730009AB21C4B1A801B4B1B881A461B491C481B
:102740000BF074F91A48FDF74BFD03469AB20A23C1
:102750001749184809F077FA1FE0114B5B6A9AB2E3
:10276000104B1B889A4218D20F4B01225A700C4B07
:102770005B6A9AB20B4B1A800A4B1B881A460B49AC
:102780000B480BF053F90A48FDF72AFD03469AB2AD
:102790000A230749074809F056FA00BF80BD00BF69
:1027A000000400408C08002090080020A8000108C8
:1027B0001C070020D005002080B500AF1E4BB3F9E8
:1027C0000830B3F5167F05DA1C4BB3F90830B3F5C2
:1027D000167F2ADB1A4B5B780133DAB2184B5A703A
:1027E000174B5B78012B24D9164B1B780F2B20D06D
:1027F000144B1B78102B1CD0114B00225A70104B1D
:1028000000221A7000224FF400710F4805F0ECF816
:102810000E4B03221A700D4B4FF47A725A8000F05F
:1028200067F9084B0F221A7003E0054B00225A701B
:1028300000E000BF00BF80BDF807002010080020A6
:1028400094080020060000200008024078080020BC
:1028500080B500AF084B1B78002B0BD0074B1B78C3
:102860000C2B04D14FF40071054805F0D6F8024B4B
:1028700000221A7000BF80BD7408002006000020EE
:102880000008024090B589B000AFF860B9603B60C5
:102890001346FB71FB68BB83FB681B0C7B83002327
:1028A000FB77002481E023465B00BA6813441B8851
:1028B000132B7ED8BB8B22465200B9680A4412887B
:1028C0001341DBB203F001037B767B8B224652007F
:1028D000B9680A4412881341DBB203F001033B7666
:1028E0007A7E3B7E9A425FD1FB7F0133FB77FB7997
:1028F000012B0FD0022B1BD023465B00BA68134478
:102900001B88DBB21A4607F11003344918460BF056
:102910008DF81BE023465B00BA6813441B88DBB2CA
:102920001A4607F110032E4918460BF07FF80DE008
:1029300023465B00BA6813441B88DBB21A4607F1D2
:102940001003284918460BF071F800BF07F1100377
:102950000422194638680BF089F87B7E012B06D1DA
:1029600007F11003204918460BF060F808E07B7E61
:10297000002B05D107F110031C4918460BF056F83F
:1029800007F110030222194638680BF06FF807F1BF
:102990001003174918460BF049F807F110030122FC
:1029A000194638680BF062F801340F2C7FF77BAFC3
:1029B00000E000BFFB7F002B0CD107F110030D4995
:1029C00018460BF033F807F1100307221946386850
:1029D0000BF04CF800BF2437BD4690BDB400010891
:1029E000BC000108C4000108CC000108D0000108A7
:1029F000D4000108D800010880B500AF324B002296
:102A00001A70324BDB795F2B05D12F4B1B780133CA
:102A1000DAB22D4B1A702E4BDB795F2B05D12A4B86
:102A20001B780133DAB2284B1A702A48FDF7D8FB1D
:102A300003460F2B09D8274B1B7A432B05D1224B7A
:102A40001B780133DAB2204B1A70234BDB795F2BF2
:102A500005D11D4B1B780133DAB21B4B1A701F4B8B
:102A6000DB795F2B05D1184B1B780133DAB2164B9B
:102A70001A701B4BDB795F2B05D1134B1B7801338D
:102A8000DAB2114B1A70174BDB795F2B05D10E4B65
:102A90001B780133DAB20C4B1A70134BDB795F2BC6
:102AA00005D1094B1B780133DAB2074B1A700F4B73
:102AB000DB795F2B05D1044B1B780133DAB2024B73
:102AC0001A7000BF80BD00BFA60800205C00002077
:102AD0007C0000209C000020BC000020DC000020C6
:102AE000FC0000201C0100203C0100205C010020B3
:102AF00098B500AF354B1B78012B39D0022B1DD078
:102B0000334B1B78002B15D0324808F031FC304B8A
:102B10005B881C4604F07AF8034623442C4A9360F1
:102B20002A4B02221A702A4B1B78013BDAB2284B3F
:102B30001A7048E0274808F07DFC44E001224FF479
:102B40008071254804F050FF04F060F80246204BE5
:102B50009B689A4234D31E4B9B881C4604F056F85F
:102B6000034623441A4A9360184B01221A7027E047
:102B700000224FF48071184804F036FF04F046F844
:102B80000246134B9B689A421CD3114B1B78002BB7
:102B900012D00F4B5B881C4604F038F803462344E0
:102BA0000B4A93600A4B1B78013BDAB2084B1A7050
:102BB000064B02221A7005E0044B00221A7001E055
:102BC00000BF00E000BF00BF98BD00BFB4080020F8
:102BD00078080020440500200008024000000000A2
:102BE00090B587B004AF9C4B1B78162B00F2D580B4
:102BF00001A252F823F000BF352E0008552C000822
:102C00009B2D00089132000895340008A12E000881
:102C1000CB2F000833300008A13B0008AB3C000874
:102C2000D13C0008B1440008C74700083D3F0008F8
:102C30006B4300087B4A0008434C0008A14C000885
:102C4000F34D00081D4E0008EF4E0008694F0008C4
:102C50009B500008814B01225A7000230093F023FF
:102C60004FF4A0720021002003F04EF945F6EB234B
:102C7000009320234FF4A0720021002003F044F9B8
:102C8000774978480AF0D2FE774B002201925A68C1
:102C900000921B68734A0A21192003F02BFB4FF4A2
:102CA000A073212200214FF6A01003F07FF86F4996
:102CB0006C480AF0BBFE6E4B1F2202924FF6FF7269
:102CC00001925A6800921B68664A2421B92003F0D9
:102CD000C4FA4FF6A0130093F0230F220021002026
:102CE00003F012F9F02300220E21002003F0B5F8C2
:102CF00060495C480AF09AFE5D4B40F2FF72019217
:102D00005A6800921B68574A3C213C2003F0F2FAB3
:102D1000594954480AF08AFE554B40F2FF7201921D
:102D20005A6800921B684F4A5A213C2003F0E2FA8D
:102D300052494C480AF07AFE4D4B40F2FF72019224
:102D40005A6800921B68474A78213C2003F0D2FA67
:102D50004B4944480AF06AFE454B40F2FF7201922B
:102D60005A6800921B683F4A96213C2003F0C2FA41
:102D700044493C480AF05AFE3D4B40F2FF72019232
:102D80005A6800921B68374AB4213C2003F0B2FA1B
:102D9000314B02221A7002F0A4B9304B01225A7052
:102DA000394B5A6A2D4B9B7838492E480AF03EFE23
:102DB000374B002202924FF6FF7201925A6800923E
:102DC0001B68284ADC21F02003F047FA314B9B783E
:102DD000002B02F07381214B9B78012B06D12E4BE7
:102DE00003221A701C4B03221A701EE01B4B9B78A7
:102DF000022B03D1184B0B221A7016E0174B9B784D
:102E0000032B03D1144B03221A700EE0134B9B7853
:102E1000042B03D1104B05221A7006E00F4B9B7850
:102E2000052B02D10C4B11221A701A4B00229A70FA
:102E300002F044B9094B00225A701848FEF734FCDE
:102E40004FF6FF711548FEF7A9FDFEF75DFC024B3A
:102E500002221A7002F045B906000020AC080020DA
:102E6000E0000108B806002038020020F800010840
:102E700030020020080101081401010824010108A2
:102E8000340101084401010800040040A0000108C9
:102E90002802002090080020940800208C050020C3
:102EA000984B02225A7000230093D2234FF4A07251
:102EB0001E21002003F028F847F60F0300931E237D
:102EC0004FF4A0720021002003F01EF800224FF4FE
:102ED00000718D4804F088FD8C498D480AF0A6FDEC
:102EE0008C4B4FF6FF7201925A6800921B68884A19
:102EF00005213C2003F0FEF9874985480AF096FD3C
:102F0000864B40F2FF7201925A6800921B68804A19
:102F10003C21322003F0EEF9814A82497C480AF0D4
:102F200085FD814B4FF6FF7201925A6800921B6833
:102F3000774A5021412003F0DDF97C4974480AF0BA
:102F400075FD764B40F2FF7201925A6800921B6841
:102F50006F4A6421322003F0CDF975496C480AF0BC
:102F600065FD6E4B40F2FF7201925A6800921B6839
:102F7000674A8C21322003F0BDF96E4964480AF09B
:102F800055FD694B4FF6FF7201925A6800921B681B
:102F90005F4AA021412003F0ADF967495C480AF07F
:102FA00045FD5E4B4FF6FF7201925A6800921B6816
:102FB000574ADC211E2003F09DF9604B00229A70D5
:102FC0005F4B06221A7002F08CB85C4B9B78002B8A
:102FD00002F076804B4B9B78012B02D1584B082294
:102FE0001A70484B9B78022B02D1554B07221A705E
:102FF000444B9B78032B10D1514B0D221A700122A8
:103000004FF40071404804F0EFFC03F0FFFD03466D
:1030100003F58C5314334B4A53603A4B9B78042B83
:1030200002D1474B01221A70444B00229A7002F0E1
:1030300047B8344B03225A7000230093D2234FF435
:10304000A0721E21002002F05FFF47F60F030093DD
:103050001E234FF4A0720021002002F055FF2B49DF
:103060002B480AF0E3FC2B4B4FF6FF7201925A6893
:1030700000921B68264A05213C2003F03BF9314BA6
:103080001B78032B12D1304921480AF0CFFC214B89
:103090004FF6E07202924FF4784201925A68009221
:1030A0001B681B4A0521FA2003F0D7F8224918486B
:1030B0000AF0BCFC194B4FF6FF7201925A6800925D
:1030C0001B68134ADC211E2003F014F91F49104825
:1030D0000AF0ACFC0F4B40F2FF7201925A6800926A
:1030E0001B680B4A3221462003F004F94FF40071AB
:1030F000054804F061FC0346002B29D0142003F09E
:1031000091FD2FE0AC0800200008024054010108A6
:10311000B8060020380200206401010830020020B7
:1031200023053111740101082802002084010108DF
:10313000900101089C010108C001010890080020CD
:103140000600002094080020C8010108D0010108F1
:1031500001224FF40071434804F046FC40F6980009
:1031600003F060FD4048FEF79FFA404940480AF0EE
:103170005DFC404B40F2FF7201925A6800921B685E
:103180003B4A32214FF4827003F0B4F84FF6FF71DE
:103190003548FEF703FC03461A46374B1A70364B88
:1031A0001B78792B0FD1354931480AF03FFC314B60
:1031B0004FF6E07201925A6800921B682C4A502127
:1031C000462003F097F800237B601BE04FF6FF7367
:1031D00000930A230A2264219B2002F095FE4FF4FB
:1031E000FA7003F01FFD002300930A230A226421D2
:1031F0009B2002F089FE4FF4FA7003F013FD7B6808
:1032000001337B607B68052BE0DDFEF77DFA1C490E
:1032100017480AF00BFC174B4FF6E07201925A6800
:1032200000921B68124A6E21462003F063F84FF4A7
:10323000FA7003F0F7FC00224FF40071094804F023
:10324000D3FB104B00229A700F4B1B78032B04D139
:103250000E4B08221A7001F044BF0C4B05221A7065
:1032600001F03FBF000802408C050020E00101088A
:10327000B80600203802002081070020E401010880
:10328000F0010108900800209408002006000020AA
:10329000A54B00225A7000230093D2234FF4A07252
:1032A0001E21002002F030FE4FF6A01300931E23D3
:1032B0004FF4A0720021002002F026FE9B4B1B78E9
:1032C000032B12D19A499B480AF0B0FB9A4B4FF658
:1032D000E07202924FF4784201925A6800921B68A1
:1032E000944A0521FA2002F0B8FF01224FF4007140
:1032F000924804F079FB92498E480AF097FB8E4B76
:103300004FF6FF7201925A6800921B68894A0521A4
:10331000502002F0EFFF8B4986480AF087FB8A4B6A
:103320004FF6FF7201925A6800921B68814A32215F
:103330000F2002F0DFFF85497E480AF077FB824BC1
:103340004FF6FF7201925A6800921B68794A4B212E
:103350000F2002F0CFFF7D4976480AF067FB7A4BD9
:103360004FF6FF7201925A6800921B68714A5F2102
:103370000F2002F0BFFF76496E480AF057FB754BED
:103380004FF6FF7201925A6800921B68694A6A21DF
:103390000F2002F0AFFF704966480AF047FB6A4B06
:1033A0004FF6FF7201925A6800921B68614A7D21B4
:1033B0000F2002F09FFF69495E480AF037FB624B1D
:1033C0004FF6FF7201925A6800921B68594A962183
:1033D0000F2002F08FFF624956480AF027FB5D4B31
:1033E0004FF6FF7201925A6800921B68514A3621CB
:1033F000A52002F07FFF5A494E480AF017FB554BB3
:103400004FF6FF7201925A6800921B68494A4F2199
:10341000A52002F06FFF524946480AF007FB4D4BCA
:103420004FF6FF7201925A6800921B68414A682168
:10343000A52002F05FFF4B493E480AF0F7FA454BE2
:103440004FF6FF7201925A6800921B68394A812137
:10345000A52002F04FFF434936480AF0E7FA3D4BFA
:103460004FF6FF7201925A6800921B68314A9A2106
:10347000A52002F03FFF03F0C9FB034603F6AC535F
:103480002A4A5360384B00229A70384B04221A7033
:1034900001F027BE244B00225A70354BD3ED057A3C
:1034A0009FED347A67EE877AFCEEE77A17EE903A72
:1034B0009BB21A4630491F480AF0B8FA2C4B5B6998
:1034C0001846FDF749F816A3D3E90023FDF718FBCA
:1034D0000346002B56D0184B002202924FF478423C
:1034E00001925A6800921B68124A3221642002F04D
:1034F000B4FE22490F480AF099FA0F4B00220292BB
:103500004FF4784201925A6800921B68094A3221AE
:10351000DC2002F0A2FE1A4B00221A7055E000BF18
:103520003333333333331140AC0800209408002088
:10353000C8010108B8060020380200200008024037
:1035400000020108100201083002002014020108E4
:103550001C02010828020020240201082C02010894
:1035600034020108380201089008002006000020FB
:103570002808002000007A443C02010840020108AB
:10358000A00800209C4B002202924FF6FF7201928D
:103590005A6800921B68994A3221642002F05DFE4D
:1035A000974996480AF042FA934B002202924FF450
:1035B000FC6201925A6800921B68904A3221DC201A
:1035C00002F04BFE8F4B01221A708F4B1B8A1A465A
:1035D0008E498A480AF02AFA8B4B1B8A40F65432ED
:1035E000934223D8844B002202924FF478420192F6
:1035F0005A6800921B68814A4B21642002F02DFE1C
:1036000083497E480AF012FA7B4B002202924FF463
:10361000784201925A6800921B68784A4B21DC205C
:1036200002F01BFE774B00225A7022E0724B002200
:1036300002924FF6FF7201925A6800921B686F4A1D
:103640004B21642002F009FE6D496C480AF0EEF946
:10365000694B002202924FF4FC6201925A68009278
:103660001B68664A4B21DC2002F0F7FD654B012206
:103670005A70684BD3ED047A9FED677A67EE877ACC
:10368000FCEEE77A17EE903A9BB21A465F495B4828
:103690000AF0CCF95F4B1B691846FCF75DFF54A399
:1036A000D3E90023FDF72CFA0346002B23D0524B1D
:1036B000002202924FF4784201925A6800921B68ED
:1036C0004E4A6421642002F0C8FD51494B480AF07B
:1036D000ADF9494B002202924FF4784201925A68A8
:1036E00000921B68454A6421DC2002F0B6FD454B80
:1036F00000229A7022E0404B002202924FF6FF72A5
:1037000001925A6800921B683C4A6421642002F0CE
:10371000A4FD3B4939480AF089F9374B002202924F
:103720004FF4FC6201925A6800921B68334A64218C
:10373000DC2002F092FD334B01229A70374BB3F933
:1037400008301A4631492D480AF070F9334BB3F965
:103750000830F92B23DD284B002202924FF47842E7
:1037600001925A6800921B68244A7D21642002F06D
:1037700074FD274921480AF059F91F4B0022029293
:103780004FF4784201925A6800921B681B4A7D21CF
:10379000DC2002F062FD1B4B0022DA7065E01F4B5B
:1037A000B3F90830012B3DDC134B002202924FF697
:1037B000FF7201925A6800921B68104A7D216420B2
:1037C00002F04BFD16490D480AF030F90A4B002271
:1037D00002924FF6A01201925A6800921B68074AA3
:1037E0007D21DC2002F039FD3FE000BFAFF3008017
:1037F000333333333333074038020020B806002018
:1038000048020108A0080020F80700203C02010837
:10381000400201082808002000007A441008002017
:1038200050020108924B002202924FF6FF72019261
:103830005A6800921B688F4A7D21642002F00DFDBA
:103840008D498C480AF0F2F8894B002202924FF41D
:10385000FC6201925A6800921B68864A7D21DC2036
:1038600002F0FBFC854B0122DA70854BB3F908307E
:103870001A4684497F480AF0D9F8814BB3F90830D9
:10388000F92B23DD7A4B002202924FF47842019209
:103890005A6800921B68774A9621642002F0DDFC8A
:1038A000794974480AF0C2F8714B002202924FF431
:1038B000784201925A6800921B686E4A9621DC2079
:1038C00002F0CBFC6D4B00221A717AE06C4BB3F91D
:1038D0000830032B49DC664B002202924FF6FF7240
:1038E00001925A6800921B68624A9621642002F095
:1038F000B4FC66495F480AF099F85D4B00220292D9
:103900004FF6A01201925A6800921B68594A9621FC
:10391000DC2002F0A2FC5E4956480AF087F85D4BB5
:10392000002202924AF6E57201925A6800921B68E0
:10393000504A912140F2131002F08FFC56494D4835
:103940000AF074F8534B002202924AF6E572019293
:103950005A6800921B68474A9D2140F2131002F0FA
:103960007CFC464B00221A712BE0414B0022029254
:103970004FF6FF7201925A6800921B683D4A9621E9
:10398000642002F06AFC3C493A480AF04FF8384B90
:10399000002202924FF4FC6201925A6800921B6866
:1039A000344A9621DC2002F058FC002300931E23A9
:1039B0002D228C2140F2131002F0A6FA2F4B012287
:1039C0001A7136492B480AF031F8354B4FF6FF7221
:1039D00001925A6800921B68264ADC211E2002F0E0
:1039E00089FC03F013F902462E4B5B689A42C0F043
:1039F000BC80224B5B781A46204B9B7813441F4AAD
:103A0000D27813441D4A127913441C4A1278134485
:103A1000042B4DDD194B5B790133DAB2174B5A7128
:103A2000164B5B79012B40F2A080144B00225A7197
:103A30001D49104809F0FAFF194B4FF4FC6202923D
:103A40001F2201925A6800921B680A4AAA21DC20B0
:103A500002F003FC4FF4FA7003F0E4F8114B1B780A
:103A6000032B40F08280114B07221A707DE000BFCB
:103A700038020020B806002048020108A0080020F3
:103A8000F80700203C02010840020108500201082A
:103A900054020108280200205C020108C00101084C
:103AA0003002002094080020640201080600002073
:103AB0009F4B00225A719F4BB3F908301A469E4B18
:103AC000B3F90830D31A952B16DD9A4BB3F90830A9
:103AD000F92B11DD99499A4809F0A8FF994B00226A
:103AE00002924FF6E07201925A6800921B68944A63
:103AF000B4216E2002F0B1FB8F4BB3F90830F92BE3
:103B000011DD91498E4809F091FF8E4B00220292FF
:103B10004FF6E07201925A6800921B68884AB421FD
:103B2000142002F09AFB8949854809F07FFF884BF1
:103B3000002202924FF6E07201925A6800921B68CE
:103B40007F4ACD21142002F088FB824B9B78002B0A
:103B50000BD0804B00229A7000224FF400717E48F7
:103B600003F042FF7D4B01221A707A4B9B78002BA9
:103B700001F0A8827A4B9B78012B41F0A382774B0E
:103B800001221A70734B00229A70764B00221A7031
:103B900000224FF40071704803F026FF01F092BA42
:103BA0006F4B03225A704FF6E07300931E234FF4BD
:103BB000A0720021002002F0A7F900230093D22375
:103BC0004FF4A0721E21002002F09EF966495C4865
:103BD00009F02CFF654B002201925A6800921B6885
:103BE000574A05213C2002F085FB5E4B1B78032BD6
:103BF00012D15F49524809F019FF5C4B4FF6E07251
:103C000002924FF4784201925A6800921B684C4A23
:103C10000521FA2002F021FB5649494809F006FF28
:103C2000484B4FF6FF7201925A6800921B68444A53
:103C30003C21142002F05EFB4F4A5049404809F0F5
:103C4000F5FE404B47F6EF3201925A6800921B682E
:103C50003B4A5021282002F04DFB4949384809F0E1
:103C6000E5FE424B4FF6FF7201925A6800921B68C4
:103C7000334A6E21282002F03DFB4249304809F0CA
:103C8000D5FE3A4B4FF6A01201925A6800921B687B
:103C90002B4A8721282002F02DFB2E4B00229A7000
:103CA0002E4B0A221A7001F01CBA01224FF4007147
:103CB000294803F099FE02F0A9FF0246294B5B68F0
:103CC0009A42C1F00182254B0A221A7001F0FCB918
:103CD000234B00225A704FF400711F4803F06CFE12
:103CE0000346002B03D0962002F09CFF09E001223E
:103CF0004FF40071184803F077FE40F6AC5002F024
:103D000091FF214B1B881B0A9BB2DBB21E4A128813
:103D1000D2B292B2002A14BF01220022D2B21344BE
:103D2000DAB21A4B1A701A48FDF7BEFC002489E07B
:103D3000A008002010080020F807002070020108E9
:103D4000B8060020300200207C020108840201082D
:103D500028020020900800200008024006000020F1
:103D6000AC08002094080020A802010838020020B6
:103D7000C8010108B802010823053111D402010865
:103D8000E8020108FC02010804000020800700206E
:103D90008C05002004F500231B0219462302574A14
:103DA0001344FF225648FDF7CDFC03461A46554BF7
:103DB0001A70544B1B78792B12D15349534809F090
:103DC00035FE534B002202924FF6E07201925A6880
:103DD00000921B684D4AB421282002F03EFA28E0E8
:103DE000484B1B781F2B12D14A49484809F01EFE48
:103DF000474B002202924FF6E07201925A680092FD
:103E00001B68424AB421282002F027FA11E04249F7
:103E10003E4809F00BFE3E4B0022029245F6EB2293
:103E200001925A6800921B68384AB421282002F097
:103E300014FA002300931E230F22B421282002F03D
:103E400063F80134354B1B78013B9C42A2DB334BBA
:103E50001B7803F5FF2303F2FF731B021846304B58
:103E60001B88DAB22D4B1B78013B1B0223490B4404
:103E700001462348FDF766FCFDF746FC2949234827
:103E800009F0D4FD284B4FF4FC6201925A6800926D
:103E90001B681E4AA0218C2002F02CFA4FF47A7085
:103EA00002F0C0FE2149194809F0C0FD1E4B4FF435
:103EB000FC6201925A6800921B68144ABE218C2051
:103EC00002F018FA4FF47A7002F0ACFE184B0022A0
:103ED0009A70184B1B78032B0BD1174B0D221A70BD
:103EE00002F094FE034603F6AC53124A536001F00D
:103EF000F8B8114B05221A7001F0F3B86C030308EF
:103F00008C0500208107002010030108B80600205E
:103F10003002002014030108180301088007002064
:103F2000040000201C0301084002002024030108B3
:103F3000900800209408002006000020AC4B0022CE
:103F40005A700222A121AB48FDF772FB40F2EF3319
:103F500000931E234FF4A0720021002001F0D4FF33
:103F600000230093D2234FF4A0721E21002001F001
:103F7000CBFFA149A14809F059FDA14B4FF6FF72B3
:103F800001925A6800921B689C4A05213C2002F06D
:103F9000B1F99C4B1B78032B12D19B49974809F030
:103FA00045FD974B4FF6E07202924FF47842019232
:103FB0005A6800921B68914A0521FA2002F04DF9D7
:103FC00092498E4809F032FD914B4FF6FF720192F3
:103FD0005A6800921B68894AAF21FA2002F08AF9D8
:103FE0008C49864809F022FD894B4FF6FF720192F9
:103FF0005A6800921B68814AD221FA2002F07AF9AD
:1040000085497E4809F012FD844B4AF6E57201921B
:104010005A6800921B68794ADC211E2002F06AF976
:104020007F4B93F84D30002B00F068810422A121D2
:104030007048FDF7FDFA642002F0F4FD784B93F828
:104040004C30042B40F03F8101F0DCF8744B586891
:10405000744B00227449FEF715FC714B9868734B42
:1040600000227149FEF70EFC6D4BD868704B0022A0
:104070006D49FEF707FC6A4B18696E4B01226E49C9
:10408000FEF700FC664B58696C4B01226A49FEF74B
:10409000F9FB634B98696A4B01226749FEF7F2FB13
:1040A0005F4BD869674B02226749FEF7EBFB5C4B1D
:1040B000186A664B02226449FEF7E4FB584B586AC3
:1040C000634B02226049FEF7DDFB052002F0AAFDEA
:1040D000FEF792FC5F4B1B78082B1FD95E494748BF
:1040E00009F0A4FC464B4FF4FC6201925A6800921E
:1040F0001B68424A5021CD2002F0FCF857493F4846
:1041000009F094FC3E4B4FF4FC6201925A68009215
:104110001B683A4A6E21C82002F0ECF84149374842
:1041200009F084FC3D4B4FF6FF7201925A680092F1
:104130001B68324A23210A2002F0DCF83B492F4851
:1041400009F074FC354B4FF6FF7201925A680092E9
:104150001B682A4A37210A2002F0CCF83449274844
:1041600009F064FC2D4B4FF6FF7201925A680092E1
:104170001B68224A4B210A2002F0BCF82D491F4837
:1041800009F054FC254B4FF6FF7201925A680092D9
:104190001B681A4A5F210A2002F0ACF82749174829
:1041A00009F044FC1D4B4FF6FF7201925A680092D1
:1041B0001B68124A73210A2002F09CF820490F481C
:1041C00009F034FC154B4FF6FF7201925A680092C9
:1041D0001B680A4A87210A2002F08CF8194907480F
:1041E00009F024FC0D4B4FF6FF72019238E000BF3E
:1041F000AC080020140600202C030108B80600209B
:104200003802002094080020C80101083C0301087E
:104210002802002048030108500301083002002052
:10422000840700205C00002008000020BC00002063
:104230001C0100207C0000201C000020DC0000206D
:104240003C0100209C0000203C000020FC000020DD
:104250005C010020A60800205C0301084802010858
:104260005A6800921B687F4A9B210A2002F042F89C
:104270007D497C4809F0DAFB7C4B4FF6FF720192D6
:104280005A6800921B68774AAF210A2002F032F880
:104290007749744809F0CAFB744B4FF6FF720192DC
:1042A0005A6800921B686F4AC3210A2002F022F864
:1042B000704B002283F84C206E4B002283F84D2077
:1042C0006D4B0E221A706D4B03221A706B4B4FF41C
:1042D00096725A80FEF70CFC01224021684803F0D8
:1042E00083FB4FF4967002F09DFC0022402164484D
:1042F00003F07AFB604B0E221A7031E002F086FC6C
:104300000246604B5B689A422AD35F49554809F0E0
:104310008DFB5E4B4FF6FF7201925A6800921B684C
:10432000504A3221502001F0E5FF59494D4809F02B
:104330007DFB564B4FF6FF7201925A6800921B6844
:10434000484A4B215F2001F0D5FF4A4B002283F8F9
:104350004C20484B002283F84D20474B0E221A7008
:104360004C4B00229A7000F0BCBE4B4B00225A709E
:104370004A4BD3ED007AF5EEC07AF1EE10FA04D58F
:104380004FF000024FF0000306E0444B1B68184654
:10439000FCF7E2F802460B464149324809F046FB79
:1043A0003E4BD3ED007A9FED3F7AF4EEC77AF1EE03
:1043B00010FA0ED52D4B002202924CF21862019297
:1043C0005A6800921B68274ABE21FA2001F045FF77
:1043D0000DE0264B002202924FF4784201925A6877
:1043E00000921B681F4ABE21FA2001F036FF214BC4
:1043F0009B6C1A462C491B4809F018FB2B4B4FF6B7
:10440000FF7201925A6800921B68164AE121FA2055
:1044100001F070FF1F4B9B78002B00F05786194B63
:104420001B78032B03D0144B05221A7002E0124BA9
:1044300001221A70174B00229A700E4B00229A64C8
:104440000C4B0022A3F8442000F0DCFE0D4B0022B0
:104450001A7000224FF40071094803F0C5FA00F009
:1044600035BE00BFB8060020FC000020300200204E
:104470005C0100208407002006000020780800204E
:104480000008024094080020600301083802002060
:104490006C03010890080020AC080020F4070020FD
:1044A00074030108000070427C0301082802002008
:1044B000964B00225A7000230093D2234FF4A0722F
:1044C0001E21002001F020FD1F2300931E234FF426
:1044D000A0720021002001F017FD01224FF40071AD
:1044E0008B4803F081FA8B498B4809F09FFA8B4B7C
:1044F0004FF6FF7201925A6800921B68864A0521A6
:10450000502001F0F7FE8649834809F08FFA854B69
:104510004FF6FF7201925A6800921B687E4ADC21B6
:104520001E2001F0E7FE80497B4809F07FFA7D4BB1
:104530004FF6FF7201925A6800921B68764A322148
:104540000F2001F0D7FE7949734809F06FFA754BD7
:104550004FF6FF7201925A6800921B686E4A4B2117
:104560000F2001F0C7FE72496B4809F05FFA6D4BEE
:104570004FF6FF7201925A6800921B68664A6421E6
:104580000F2001F0B7FE6B49634809F04FFA654B05
:104590004FF6FF7201925A6800921B685E4A7D21B5
:1045A0000F2001F0A7FE64495B4809F03FFA5D4B1C
:1045B0004FF6FF7201925A6800921B68564A962184
:1045C0000F2001F097FE5D49534809F02FFA5C4B2C
:1045D0004FF6FF7201925A6800921B684E4A96216C
:1045E0003C2001F087FE57494B4809F01FFA544B15
:1045F0004FF6FF7201925A6800921B68464AAA2140
:104600003C2001F077FE5049434809F00FFA454B32
:104610004FF6FF7201925A6800921B683E4A2821A9
:10462000DC2001F067FE49493B4809F0FFF9444BA3
:104630004FF6FF7201925A6800921B68364A382181
:10464000DC2001F057FE4249334809F0EFF93C4BBA
:104650004FF6FF7201925A6800921B682E4A36216B
:10466000962001F047FE3A492B4809F0DFF9344B18
:104670004FF6FF7201925A6800921B68264A4F213A
:10468000962001F037FE3349234809F0CFF92C4B2F
:104690004FF6FF7201925A6800921B681E4A682109
:1046A000962001F027FE2B491B4809F0BFF9244B47
:1046B0004FF6FF7201925A6800921B68164A8121D8
:1046C000962001F017FE2449134809F0AFF91C4B5E
:1046D0004FF6FF7201925A6800921B680E4A9A21A7
:1046E000AA2001F007FE1C490B4809F09FF9144B62
:1046F0004FF6FF7201925A6800921B68064AAE217B
:10470000AA2001F0F7FD002441E000BFAC08002022
:104710000008024084030108B80600203802002087
:10472000C0010108300200209003010814020108B2
:104730002C02010824020108980301089C030108C7
:1047400028020020A0030108A4030108AC0301080B
:104750003402010838020108B80301082246A149C1
:10476000A14809F063F9A3B21A46520013449B0012
:104770009BB24B3399B29D4B4FF6E07201925A684F
:1047800000921B68984ADC2001F0B4FD0134072C2C
:10479000E4DD9749944809F049F9944B00220292CC
:1047A0004FF6FF7201925A6800921B688E4ABE2132
:1047B000142001F052FD8F4B00229A708E4B0C2278
:1047C0001A7000F08EBC8D4B00225A70FDF7C4FEAB
:1047D0008B4B1B8A1A468B49834809F027F9884B73
:1047E0001B8AB3F5FA6F0ED2874B002202924FF468
:1047F000784201925A6800921B687B4A32215A2003
:1048000001F02BFD0DE0804B002202924FF4FC6280
:1048100001925A6800921B68734A32215A2001F0B3
:104820001CFD7A4B1B8A1A4676496F4809F0FEF840
:10483000764B1B8AB3F5FA6F0ED2734B00220292AD
:104840004FF4784201925A6800921B68664A4B21E5
:104850005A2001F002FD0DE06B4B002202924FF452
:10486000FC6201925A6800921B685F4A4B215A20F1
:1048700001F0F3FC654BB3F908301A4661495A4818
:1048800009F0D4F8604B0022029240F2FF720192CC
:104890005A6800921B68544A64215A2001F0DDFCDA
:1048A000574BB3F908301A4656494F4809F0BEF83D
:1048B000554B0022029240F2FF7201925A68009218
:1048C0001B68494A7D215A2001F0C7FC4F4BDB6829
:1048D0001846FBF741FE02460B464D49424809F097
:1048E000A5F8494B002202924FF6A01201925A6895
:1048F00000921B683C4A96215F2001F0AEFC404BC1
:10490000DB681846FBF728FE02460B46404936484E
:1049100009F08CF83C4B002202924FF6A012019253
:104920005A6800921B68304AAA215F2001F095FC6A
:10493000002423E0374A231D9B0013441B681846BC
:10494000FBF70AFE02460B463349274809F06EF88A
:10495000A3B21A46520013449B009BB24B3399B248
:10496000224B002202924FF6FF7201925A68009287
:104970001B681D4AFA2001F070FC0134072CD9DDB8
:10498000264BD3ED007AF5EEC07AF1EE10FA04D59D
:104990004FF000024FF0000306E0204B1B68184662
:1049A000FBF7DAFD02460B461D490F4809F03EF8B9
:1049B0001A4BD3ED007A9FED1B7AF4EEC77AF1EE35
:1049C00010FA31D5104B002202924CF2186201927B
:1049D0005A6800921B68044ABE21642001F03DFC25
:1049E00030E000BFBC030108B80600202802002008
:1049F000C40301089008002006000020AC08002035
:104A0000100800203C02010830020020F8070020B6
:104A1000D003010828080020D8030108F40700206B
:104A200074030108000070428C4B002202924FF484
:104A3000784201925A6800921B68894ABE2164201C
:104A400001F00BFC874B9B78002B00F04183864BD9
:104A50009B78012B40F03C83844B01221A70844BDD
:104A60000022A3F8442000224FF40071814802F094
:104A7000BBFF7C4B00229A702AE37B4B00225A70CA
:104A800000230093D2234FF4A0721E21002001F0D6
:104A90003BFA4FF4784300931E234FF4A072002199
:104AA000002001F031FA74496D4808F0BFFF734BE4
:104AB0004FF6FF7201925A6800921B68684A0521FE
:104AC000692001F017FC6E49654808F0AFFF634BA1
:104AD0004FF6FF7201925A6800921B68604ADC210F
:104AE0001E2001F007FC67495D4808F09FFF634BFB
:104AF0004FF6FF7201925A6800921B68584A46218D
:104B0000282001F0F7FB6049554808F08FFF534B10
:104B1000002202924FF6FF7201925A6800921B68BF
:104B20004F4A6421142001F098FB58494C4808F082
:104B30007DFF4A4B002202924FF6FF7201925A68A3
:104B400000921B68464A8221142001F086FB504BDC
:104B5000B3F908301A464F49414808F067FF4C4BFB
:104B6000B3F90830B3F5167F1EDB444B00220292E6
:104B70004FF4784201925A6800921B68384A6421C7
:104B8000782001F06AFB4449354808F04FFF3B4B61
:104B90004FF4784201925A6800921B68304A6421AF
:104BA000DC2001F0A7FB0DE0344B002202924FF60F
:104BB000FF7201925A6800921B68294A642178208A
:104BC00001F04BFB354BB3F908301A463149244804
:104BD00008F02CFF314BB3F90830B3F5167F1EDB1C
:104BE000264B002202924FF4784201925A680092BA
:104BF0001B681B4A8221782001F02FFB26491848A8
:104C000008F014FF1D4B4FF4784201925A6800924D
:104C10001B68134A8221DC2001F06CFB0DE0174B6E
:104C2000002202924FF6FF7201925A6800921B68AE
:104C30000B4A8221782001F010FB0C4B10221A70D5
:104C40004FE2084B9B78002B00F04482074B012277
:104C50001A70044B00229A703CE200BF3002002020
:104C6000B806002090080020AC08002006000020B4
:104C70008407002000080240E003010838020020F9
:104C8000EC030108FC0301082C02010824020108BE
:104C9000F80700203C02010840020108100800202B
:104CA000994B03225A7000230093D2234FF4A07231
:104CB0001E21002001F028F94FF4787300931E2381
:104CC0004FF4A0720021002001F01EF98F49904896
:104CD00008F0ACFE8F4B002201925A6800921B68CC
:104CE0008B4A0521502001F005FB8B49884808F0CC
:104CF0009DFE8A4B4FF6FF7201925A6800921B6824
:104D0000834ADC211E2001F0F5FA8549804808F02D
:104D10008DFE824B4FF6FF7201925A6800921B681B
:104D20007B4A2321142001F0E5FA7E49784808F0F7
:104D30007DFE7A4B4FF6FF7201925A6800921B6813
:104D4000734A6421142001F0D5FA7749704808F0BD
:104D50006DFE724B40F2FF7201925A6800921B681E
:104D60006B4A7D21142001F0C5FA7049684808F0AB
:104D70005DFE6A4B40F2FF7201925A6800921B6816
:104D8000634A8C21142001F0B5FA6949604808F0A3
:104D90004DFE624B40F2FF7201925A6800921B680E
:104DA0005B4AA521142001F0A5FA6249584808F091
:104DB0003DFE5A4B40F2FF7201925A6800921B6806
:104DC000534AB421142001F095FA5B4A5B495048DC
:104DD00008F02CFE5A4B0F2201925A6800921B6871
:104DE0004B4AD721872001F085FA564B12221A70C0
:104DF00077E1454B00225A70534B9B78002B00F013
:104E00006B81504B13221A7000224FF400714F48EF
:104E100002F0EAFD4C4B00229A705DE13A4B002211
:104E20005A7000230093D2234FF4A0721E21002059
:104E300001F06AF84FF4787300931E234FF4A072C8
:104E40000021002001F060F84149314808F0EEFDF2
:104E5000304B002201925A6800921B682C4A0521AF
:104E6000642001F047FA3B49294808F0DFFD2B4B4D
:104E70004FF6FF7201925A6800921B68244A232160
:104E8000192001F037FA3449214808F0CFFD234BAF
:104E90004FF6FF7201925A6800921B681C4A372134
:104EA000192001F027FA2D49194808F0BFFD244BBD
:104EB0004FF6FF7201925A6800921B68144ADC2177
:104EC000282001F017FA264B0093802380225A21D4
:104ED000142001F07CF8234B0093802380225A2178
:104EE000AA2001F074F8174B14221A70F9E0164B3F
:104EF0009B78002B00F0F280124B15221A70124B97
:104F000000229A70EAE000BFAC08002044010108CA
:104F1000B8060020380200201004010830020020EA
:104F20001804010860040108700401087C040108E9
:104F300098040108AC04010823052610C8040108E0
:104F400028020020060000209008002000080240EF
:104F5000E0040108E8040108FC0401081405010844
:104F60006C8302086C030208604B03225A70002312
:104F70000093D2234FF4A0721E21002000F0C4FF42
:104F80004FF4787300931E234FF4A0720021002089
:104F900000F0BAFF5649574808F048FD564B00222A
:104FA00001925A6800921B68524A0521642001F060
:104FB000A1F952494F4808F039FD514B40F2FF72B8
:104FC00001925A6800921B684A4A23210A2001F084
:104FD00091F94A49474808F029FD494B40F2FF72D0
:104FE00001925A6800921B68424A34210A2001F05B
:104FF00081F944493F4808F019FD414B4FF6FF72D3
:1050000001925A6800921B683A4A23214B2001F012
:1050100071F93D49374808F009FD394B4FF6FF72E9
:1050200001925A6800921B68324A34214B2001F0E9
:1050300061F936492F4808F0F9FC314B4FF6FF7201
:1050400001925A6800921B682A4ADC21282001F04C
:1050500051F92F49274808F0E9FC2E4B4AF6E57232
:1050600001925A6800921B68224A46211E2001F0D4
:1050700041F9294B0093802380225A21142000F00B
:10508000A6FF264B00937F237E225A21AA2000F000
:105090009EFF234B16221A7023E0224B9B78002B95
:1050A0001ED01F4B01221A7000224FF400711E48BF
:1050B00002F09AFC1B4B00229A7011E000BF10E036
:1050C00000BF0EE000BF0CE000BF0AE000BF08E038
:1050D00000BF06E000BF04E000BF02E000BF00E048
:1050E00000BF00BF0C37BD4690BD00BFAC0800201C
:1050F0002C050108B80600203802002038050108F8
:105100002802002044050108600501088005010807
:105110009C05010830020020680601086886010825
:105120000600002090080020000802400000000057
:1051300080B582B000AF0346FB80FB881846FBF7C2
:10514000F9F94FF00002104BFBF788FB02460B46C3
:10515000104619460AA3D3E90023FBF755FA024685
:105160000B4610461946FBF747FD034607EE903AFB
:10517000B0EE670A0837BD4680BD00BFAFF30080C0
:105180006666666666660A400000B0400000000081
:1051900080B582B000AF87ED010A7868FBF7DCF9D3
:1051A00014A3D3E90023FBF777F802460B46104619
:1051B000194612A3D3E90023FBF750FB02460B4626
:1051C000104619464FF00002094BFBF767F80246FC
:1051D0000B4610461946FBF70FFD034607EE903AC3
:1051E000B0EE670A0837BD4680BD00BFAFF3008050
:1051F0000000394052B81E85EB51E83F7B14AE47A2
:10520000E17A643F80B500AF1249134808F00EFC04
:105210001249134808F00AFC1249134808F006FC2A
:105220001249134808F002FC1249134808F0FEFB2B
:105230001249134808F0FAFB1249134808F0F6FB2C
:105240001249134808F0F2FB1249134808F0EEFB2C
:1052500000BF80BDB40501085C000020BC0501084A
:105260007C000020C40501089C000020CC0501083A
:10527000BC000020D4050108DC000020DC0501088A
:10528000FC000020E40501081C010020EC050108D9
:105290003C010020F40501085C01002080B582B0CB
:1052A00000AF0346FB80FB88B3F5005F0FD10E4BC8
:1052B00008221A700C4BFA225A800B4B64229A80F7
:1052C000FDF716FC0222A1210848FCF7B1F9FB8882
:1052D000802B05D1064B9B780133DAB2044B9A70D0
:1052E00000BF0837BD4680BD7808002014060020A6
:1052F0009008002080B582B000AF78607B68074AD4
:10530000934206D1064B1B680133054A1360FDF733
:10531000EFFB00BF0837BD4680BD00BF440500203D
:105320007008002080B582B000AF7860054906485B
:10533000FCF70EF803490548FCF700F900BF0837F1
:10534000BD4680BD84070020E80700201406002029
:1053500080B400AF72B600BFFEE7000080B582B037
:1053600000AF00237B60104B5B6C0F4A43F480431B
:1053700053640D4B5B6C03F480437B607B680023BC
:105380003B60094B1B6C084A43F080531364064B87
:105390001B6C03F080533B603B68072001F036FD37
:1053A00000BF0837BD4680BD0038024080B58AB0D6
:1053B00000AF786007F1140300221A605A609A6007
:1053C000DA601A617B681B68214A93423CD1002352
:1053D0003B61204B1B6B1F4A43F0020313631D4BC1
:1053E0001B6B03F002033B613B694FF440737B612D
:1053F0001223BB610023FB6103233B6204237B6216
:1054000007F114031946144802F052F90023FB6017
:10541000104B1B6C0F4A43F4001313640D4B1B6CB1
:1054200003F40013FB60FB68002200211F2001F041
:10543000F8FC1F2001F011FD00220021202001F0C6
:10544000F0FC202001F009FD00BF2837BD4680BDDB
:1054500000540040003802400004024080B58AB089
:1054600000AF786007F1140300221A605A609A6056
:10547000DA601A617B681B68194A93422CD10023B9
:105480003B61184B1B6C174A43F400431364154BE4
:105490001B6C03F400433B613B690023FB60114B31
:1054A0001B6B104A43F0040313630E4B1B6B03F09A
:1054B0000403FB60FB684FF4E0537B610223BB6194
:1054C0000023FB6103233B6206237B6207F1140385
:1054D0001946054802F0ECF800BF2837BD4680BDEC
:1054E000003C0040003802400008024080B58AB00D
:1054F00000AF786007F1140300221A605A609A60C6
:10550000DA601A617B681B68194A93422BD1002329
:105510003B61184B1B6C174A43F002031364154B95
:105520001B6C03F002033B613B690023FB60114BE2
:105530001B6B104A43F0010313630E4B1B6B03F00C
:105540000103FB60FB68C0237B610223BB61002376
:10555000FB6100233B6202237B6207F114031946BF
:10556000054802F0A5F800BF2837BD4680BD00BF42
:1055700000040040003802400000024080B584B0C2
:1055800000AF78607B681B680E4A934215D10023F8
:10559000FB600D4B5B6C0C4A43F4003353640A4BC5
:1055A0005B6C03F40033FB60FB68002200211920D0
:1055B00001F037FC192001F050FC00BF1037BD4648
:1055C00080BD00BF004401400038024080B58EB06D
:1055D00000AF786007F1240300221A605A609A60D5
:1055E000DA601A617B681B68744A934235D10023E4
:1055F0003B62734B5B6C724A43F010035364704B15
:105600005B6C03F010033B623B6A0023FB616C4B55
:105610001B6B6B4A43F001031363694B1B6B03F075
:105620000103FB61FB694FF4C0637B620223BB6231
:105630000023FB6203233B6307237B6307F12403FF
:105640001946604802F034F800220021252001F0BC
:10565000E8FB252001F001FCABE07B681B685A4A9F
:1056600093422CD10023BB61554B1B6C544A43F42D
:1056700000331364524B1B6C03F40033BB61BB69F2
:1056800000237B614E4B1B6B4D4A43F001031363B8
:105690004B4B1B6B03F001037B617B690C237B622B
:1056A0000223BB620023FB6203233B6307237B636C
:1056B00007F124031946434801F0FAFF79E07B68BB
:1056C0001B68424A934274D100233B613C4B5B6CA4
:1056D0003B4A43F020035364394B5B6C03F02003D7
:1056E0003B613B690023FB60354B1B6B344A43F045
:1056F00001031363324B1B6B03F00103FB60FB6878
:105700004FF400637B620223BB620023FB6203232E
:105710003B6308237B6307F124031946294801F002
:10572000C7FF4FF480537B620223BB620123FB62FD
:1057300003233B6308237B6307F1240319462148B5
:1057400001F0B6FF224B234A1A60214B4FF0206232
:105750005A601F4B00229A601D4B0022DA601C4BDE
:105760004FF480621A611A4B00225A61184B0022D2
:105770009A61174B4FF48072DA61154B00221A625E
:10578000134B00225A62124801F082FB0346002BA1
:1057900001D0FFF7DDFD7B680D4A9A630C4A7B68F8
:1057A000936300220021472001F03BFB472001F0DA
:1057B00054FB00BF3837BD4680BD00BF001001401C
:1057C0000038024000000240004400400014014044
:1057D000580600202864024080B400AFFEE780B481
:1057E00000AFFEE780B400AFFEE780B400AFFEE795
:1057F00080B400AFFEE780B400AF00BFBD465DF8E7
:10580000047B704780B400AF00BFBD465DF8047BE9
:10581000704780B400AF00BFBD465DF8047B7047A1
:1058200080B500AF01F0DEF900BF80BD80B500AFEC
:10583000802002F00DF900BF80BD000080B500AFF0
:10584000024805F05AFF00BF80BD00BF440500209C
:1058500080B500AF024802F077FD00BF80BD00BFF9
:105860005004002080B500AF024802F0DEFE00BF09
:1058700080BD00BF5004002080B500AF024806F094
:1058800047FB00BF80BD00BF8C05002080B500AF86
:105890004FF4005002F0DCF800BF80BD80B500AFCF
:1058A000024801F08DFC00BF80BD00BF58060020FB
:1058B00080B500AF024806F02BFB00BF80BD00BFE3
:1058C0001406002080B400AF01231846BD465DF8E1
:1058D000047B704780B582B000AF7860396007F014
:1058E00009FC034616221A604FF0FF3318460837AA
:1058F000BD4680BD80B582B000AF78604FF0FF310B
:105900007868FFF7E7FFFEE780B586B000AFF86084
:10591000B9607A6000237B610AE0AFF30080014642
:10592000BB685A1CBA60CAB21A707B6901337B61CA
:105930007A697B689A42F0DB7B6818461837BD4667
:1059400080BD80B586B000AFF860B9607A60002392
:105950007B6109E0BB685A1CBA601B781846AFF33C
:1059600000807B6901337B617A697B689A42F1DB55
:105970007B6818461837BD4680BD80B483B000AF41
:1059800078604FF0FF3318460C37BD465DF8047B56
:10599000704780B483B000AF786039603B684FF4E3
:1059A00000525A60002318460C37BD465DF8047B50
:1059B000704780B483B000AF7860012318460C377D
:1059C000BD465DF8047B704780B485B000AFF860D9
:1059D000B9607A60002318461437BD465DF8047B31
:1059E0007047000080B586B000AF7860144A154B50
:1059F000D31A7B617B693B61134B1B68002B02D17F
:105A0000114B124A1A60104B1A687B6813443A69AA
:105A10009A4207D207F06EFB03460C221A604FF041
:105A2000FF3309E0084B1B68FB60074B1A687B6873
:105A30001344054A1360FB6818461837BD4680BDFD
:105A40000000022000040000B8080020D808002050
:105A500080B400AF064BD3F88830054A43F4700396
:105A6000C2F8883000BFBD465DF8047B704700BFB8
:105A700000ED00E080B500AF012000F0FEFE112037
:105A800000F082FF00BF80BD80B400AF4FF4A07370
:105A90001846BD465DF8047B704780B400AFF02324
:105AA0001846BD465DF8047B7047000080B582B0A3
:105AB00002AF524B1B7803F00103002B15D14F4B63
:105AC0001B7843F00103DAB24C4B1A704B4B1B7836
:105AD00003F00203002B01D100F0DAFE474B1B78E4
