:020000040800F2
:100000000000022015690008015600080756000884
:100010000D5600081356000819560008000000008D
:100020000000000000000000000000001F56000853
:100030002D560008000000003B56000849560008F5
:100040006569000865690008656900086569000858
:100050006569000865690008656900086569000848
:100060006569000865690008656900086569000838
:100070006569000865690008656900086569000828
:1000800065690008656900086569000800000000EE
:1000900000000000000000000000000055560008AD
:1000A000656900086556000865690008656900080B
:1000B00065690008656900086569000879560008E7
:1000C0008D560008656900086569000865690008C3
:1000D00065690008A1560008656900080000000075
:1000E000B556000865690008656900080000000051
:1000F000000000000000000000000000656900082A
:10010000000000006569000865690008656900086D
:1001100000000000000000000000000000000000DF
:1001200065690008C556000865690008656900082A
:1001300065690008000000000000000000000000E9
:1001400000000000000000000000000065690008D9
:10015000656900086569000865690008D9560008E6
:1001600065690008656900080000000000000000E3
:10017000000000000000000000000000000000007F
:100180000000000065690008000000000000000099
:080190006569000865690008BB
:1001A00010B5054C237833B9044B13B10448AFF3B1
:1001B00000800123237010BD2004002000000000F7
:1001C00050FE000808B5034B1BB103490348AFF3C9
:1001D000008008BD000000002404002050FE00083C
:1001E000034613F8012B002AFBD1181A0138704777
:1001F00001F0FF01102A2BDB10F0070F08D010F8D8
:10020000013B013A8B422DD010F0070F42B3F6D1DB
:10021000F0B441EA012141EA014122F007047FF0F4
:1002200000070023F0E80256083C85EA010586EA4B
:10023000010685FA47F5A3FA87F586FA47F6A5FA87
:1002400087F68EB9EED1F0BC01F0FF0102F0070293
:1002500032B110F8013B013A83EA010313B1F8D13E
:100260000020704701387047002D06BF354603381F
:10027000073815F0010F07D1013015F4807F02BF58
:10028000013015F4C03F0130F0BC0138704700BFA9
:1002900081F0004102E000BF83F0004330B54FEA37
:1002A00041044FEA430594EA050F08BF90EA020FA4
:1002B0001FBF54EA000C55EA020C7FEA645C7FEA37
:1002C000655C00F0E2804FEA5454D4EB5555B8BF5A
:1002D0006D420CDD2C4480EA020281EA030382EACB
:1002E000000083EA010180EA020281EA0303362D5D
:1002F00088BF30BD11F0004F4FEA01314FF4801C30
:100300004CEA113102D0404261EB410113F0004F41
:100310004FEA03334CEA133302D0524263EB4303F8
:1003200094EA050F00F0A780A4F10104D5F1200E96
:100330000DDB02FA0EFC22FA05F2801841F10001F1
:1003400003FA0EF2801843FA05F359410EE0A5F1C5
:1003500020050EF1200E012A03FA0EFC28BF4CF0F6
:10036000020C43FA05F3C01851EBE37101F00045AC
:1003700007D54FF0000EDCF1000C7EEB00006EEBB9
:100380000101B1F5801F1BD3B1F5001F0CD3490843
:100390005FEA30004FEA3C0C04F101044FEA44529A
:1003A00012F5800F80F09A80BCF1004F08BF5FEA21
:1003B000500C50F1000041EB045141EA050130BD01
:1003C0005FEA4C0C404141EB0101013C28BFB1F513
:1003D000801FE9D291F0000F04BF01460020B1FA5E
:1003E00081F308BF2033A3F10B03B3F120020CDA31
:1003F0000C3208DD02F1140CC2F10C0201FA0CF00F
:1004000021FA02F10CE002F11402D8BFC2F1200C73
:1004100001FA02F120FA0CFCDCBF41EA0C01904029
:10042000E41AA2BF01EB0451294330BD6FEA040472
:100430001F3C1CDA0C340EDC04F11404C4F120025D
:1004400020FA04F001FA02F340EA030021FA04F36F
:1004500045EA030130BDC4F10C04C4F1200220FAC6
:1004600002F001FA04F340EA0300294630BD21FA04
:1004700004F0294630BD94F0000F83F4801306BFCA
:1004800081F480110134013D4EE77FEA645C18BFBE
:100490007FEA655C29D094EA050F08BF90EA020F55
:1004A00005D054EA000C04BF1946104630BD91EA4D
:1004B000030F1EBF0021002030BD5FEA545C05D150
:1004C0004000494128BF41F0004130BD14F580048F
:1004D0003CBF01F5801130BD01F0004545F0FE4103
:1004E00041F470014FF0000030BD7FEA645C1ABF38
:1004F000194610467FEA655C1CBF0B46024650EA6F
:10050000013406BF52EA033591EA030F41F400219A
:1005100030BD00BF90F0000F04BF0021704730B520
:100520004FF4806404F132044FF000054FF00001F5
:1005300050E700BF90F0000F04BF0021704730B5B6
:100540004FF4806404F1320410F0004548BF40428B
:100550004FF000013EE700BF42004FEAE2014FEAE0
:1005600031014FEA02701FBF12F07F4393F07F4FBB
:1005700081F06051704732F07F4208BF704793F0BE
:100580007F4F04BF41F40021704730B54FF46074D1
:1005900001F0004521F000411CE700BF50EA0102D4
:1005A00008BF704730B54FF000050AE050EA01027D
:1005B00008BF704730B511F0004502D5404261EBED
:1005C00041014FF4806404F132045FEA915C3FF42E
:1005D000D8AE4FF003025FEADC0C18BF03325FEACB
:1005E000DC0C18BF033202EBDC02C2F1200300FA7C
:1005F00003FC20FA02F001FA03FE40EA0E0021FAA1
:1006000002F11444BDE600BF70B54FF0FF0C4CF48E
:10061000E06C1CEA11541DBF1CEA135594EA0C0F40
:1006200095EA0C0F00F0DEF82C4481EA030621EA7B
:100630004C5123EA4C5350EA013518BF52EA0335B6
:1006400041F4801143F4801338D0A0FB02CE4FF068
:100650000005E1FB02E506F00042E0FB03E54FF098
:100660000006E1FB03569CF0000F18BF4EF0010E90
:10067000A4F1FF04B6F5007F64F5407404D25FEA8C
:100680004E0E6D4146EB060642EAC62141EA55513F
:100690004FEAC52040EA5E504FEACE2EB4F1FD0C81
:1006A00088BFBCF5E06F1ED8BEF1004F08BF5FEAFF
:1006B000500E50F1000041EB045170BD06F00046B1
:1006C00046EA010140EA020081EA0301B4EB5C045E
:1006D000C2BFD4EB0C0541EA045170BD41F4801156
:1006E0004FF0000E013C00F3AB8014F1360FDEBF7B
:1006F000002001F0004170BDC4F10004203C35DA57
:100700000C341BDC04F11404C4F1200500FA05F3D9
:1007100020FA04F001FA05F240EA020001F000427A
:1007200021F0004110EBD37021FA04F642EB0601F0
:100730005EEA430E08BF20EAD37070BDC4F10C041A
:10074000C4F1200500FA04F320FA05F001FA04F2DE
:1007500040EA020001F0004110EBD37041F10001CA
:100760005EEA430E08BF20EAD37070BDC4F12005D5
:1007700000FA05F24EEA020E20FA04F301FA05F23D
:1007800043EA020321FA04F001F0004121FA04F2E5
:1007900020EA020000EBD3705EEA430E08BF20EAB5
:1007A000D37070BD94F0000F0FD101F000464000EF
:1007B00041EB010111F4801F08BF013CF7D041EA71
:1007C000060195F0000F18BF704703F00046520075
:1007D00043EB030313F4801F08BF013DF7D043EA46
:1007E0000603704794EA0C0F0CEA135518BF95EAFC
:1007F0000C0F0CD050EA410618BF52EA4306D1D183
:1008000081EA030101F000414FF0000070BD50EAA1
:10081000410606BF1046194652EA430619D094EA2B
:100820000C0F02D150EA013613D195EA0C0F05D115
:1008300052EA03361CBF104619460AD181EA030169
:1008400001F0004141F0FE4141F470014FF0000021
:1008500070BD41F0FE4141F4780170BD70B54FF0BC
:10086000FF0C4CF4E06C1CEA11541DBF1CEA13553C
:1008700094EA0C0F95EA0C0F00F0A7F8A4EB05041E
:1008800081EA030E52EA03354FEA013100F0888015
:100890004FEA03334FF0805545EA131343EA1263DE
:1008A0004FEA022245EA111545EA10654FEA002693
:1008B0000EF000419D4208BF964244F1FD0404F54C
:1008C000407402D25B084FEA3202B61A65EB0305A8
:1008D0005B084FEA32024FF480104FF4002CB6EB65
:1008E000020E75EB030E22BFB61A754640EA0C00E5
:1008F0005B084FEA3202B6EB020E75EB030E22BF25
:10090000B61A754640EA5C005B084FEA3202B6EB65
:10091000020E75EB030E22BFB61A754640EA9C0024
:100920005B084FEA3202B6EB020E75EB030E22BFF4
:10093000B61A754640EADC0055EA060E18D04FEAB2
:10094000051545EA16754FEA06164FEAC30343EA52
:1009500052734FEAC2025FEA1C1CC0D111F4801F1F
:100960000BD141EA00014FF000004FF0004CB6E718
:1009700011F4801F04BF01430020B4F1FD0C88BFB7
:10098000BCF5E06F3FF6AFAEB5EB030C04BFB6EBC2
:10099000020C5FEA500C50F1000041EB045170BDB5
:1009A0000EF0004E4EEA113114EB5C04C2BFD4EBE2
:1009B0000C0541EA045170BD41F480114FF0000E66
:1009C000013C90E645EA060E8DE60CEA135594EAE2
:1009D0000C0F08BF95EA0C0F3FF43BAF94EA0C0FE5
:1009E0000AD150EA01347FF434AF95EA0C0F7FF45A
:1009F00025AF104619462CE795EA0C0F06D152EAAE
:100A000003353FF4FDAE1046194622E750EA410691
:100A100018BF52EA43067FF4C5AE50EA41047FF4A2
:100A20000DAF52EA43057FF4EBAE12E74FF0FF3C07
:100A300006E000BF4FF0010C02E000BF4FF0010CD8
:100A40004DF804CD4FEA410C7FEA6C5C4FEA430C51
:100A500018BF7FEA6C5C1BD001B050EA410C0CBFA0
:100A600052EA430C91EA030F02BF90EA020F002002
:100A7000704710F1000F91EA030F58BF994208BF69
:100A800090422CBFD8176FEAE37040F00100704726
:100A90004FEA410C7FEA6C5C02D150EA013C07D17D
:100AA0004FEA430C7FEA6C5CD6D152EA033CD3D0C8
:100AB0005DF8040B704700BF8446104662468C46C2
:100AC0001946634600E000BF01B5FFF7B7FF0028F5
:100AD00048BF10F1000F01BD4DF808EDFFF7F4FF1E
:100AE0000CBF012000205DF808FB00BF4DF808EDA9
:100AF000FFF7EAFF34BF012000205DF808FB00BFCC
:100B00004DF808EDFFF7E0FF94BF012000205DF8ED
:100B100008FB00BF4DF808EDFFF7CEFF94BF0120A2
:100B200000205DF808FB00BF4DF808EDFFF7C4FF9B
:100B300034BF012000205DF808FB00BF4FEA410CE4
:100B40007FEA6C5C02D150EA013C0AD14FEA430CC7
:100B50007FEA6C5C02D152EA033C02D14FF0000004
:100B600070474FF0010070474FEA410212F5001242
:100B700015D211D56FF47873B3EB625212D94FEAE4
:100B8000C12343F0004343EA505311F0004F23FACE
:100B900002F018BF404270474FF00000704750EA23
:100BA000013005D111F0004008BF6FF000407047E0
:100BB0004FF00000704700BF4A0011D212F500123A
:100BC00011D20DD56FF47873B3EB62520ED44FEAA5
:100BD000C12343F0004343EA505323FA02F0704725
:100BE0004FF00000704750EA013002D14FF0FF3063
:100BF00070474FF0000070474FEA4102B2F1E04306
:100C000024BFB3F5001CDCF1FE5C0DD901F0004CF3
:100C10004FEAC0024CEA5070B2F1004F40EB830043
:100C200008BF20F00100704711F0804F21D113F16F
:100C30003872BCBF01F00040704741F480114FEAA8
:100C40005252C2F11802C2F1200C10FA0CF320FA31
:100C500002F018BF40F001004FEAC1234FEAD3234E
:100C600003FA0CFC40EA0C0023FA02F34FEA4303B8
:100C7000CCE77FEA625307D150EA01331EBF4FF041
:100C8000FE4040F44000704701F0004040F0FE405C
:100C900040F40000704700BF53B94AB9002908BFAB
:100CA00000281CBF4FF0FF314FF0FF3000F074B947
:100CB000ADF1080C6DE904CE00F006F8DDF804E0B3
:100CC000DDE9022304B070472DE9F047089D044692
:100CD0008E46002B4DD18A42944669D9B2FA82F2EF
:100CE00052B101FA02F3C2F1200120FA01F10CFA2B
:100CF00002FC41EA030E94404FEA1C48210CBEFB63
:100D0000F8F61FFA8CF708FB16E341EA034306FBEB
:100D100007F199420AD91CEB030306F1FF3080F07A
:100D20001F81994240F21C81023E63445B1AA4B2C7
:100D3000B3FBF8F008FB103344EA034400FB07F769
:100D4000A7420AD91CEB040400F1FF3380F00A81AA
:100D5000A74240F207816444023840EA0640E41B9F
:100D600000261DB1D4400023C5E900433146BDE84B
:100D7000F0878B4209D9002D00F0EF800026C5E9ED
:100D8000000130463146BDE8F087B3FA83F6002E05
:100D90004AD18B4202D3824200F2F980841A61EB7D
:100DA000030301209E46002DE0D0C5E9004EDDE79B
:100DB00002B9FFDEB2FA82F2002A40F09280A1EB83
:100DC0000C014FEA1C471FFA8CFE0126200CB1FBD8
:100DD000F7F307FB131140EA01410EFB03F08842D1
:100DE00008D91CEB010103F1FF3802D2884200F25E
:100DF000CB804346091AA4B2B1FBF7F007FB1011F0
:100E000044EA01440EFB00FEA64508D91CEB04048D
:100E100000F1FF3102D2A64500F2BB800846A4EBE8
:100E20000E0440EA03409CE7C6F12007B34022FAD3
:100E300007FC4CEA030C20FA07F401FA06F31C4302
:100E4000F9404FEA1C4900FA06F3B1FBF9F8200C0F
:100E50001FFA8CFE09FB181140EA014108FB0EF055
:100E6000884202FA06F20BD91CEB010108F1FF3AA5
:100E700080F08880884240F28580A8F102086144B1
:100E8000091AA4B2B1FBF9F009FB101144EA0141BF
:100E900000FB0EFE8E4508D91CEB010100F1FF346A
:100EA0006CD28E456AD90238614440EA0840A0FB02
:100EB0000294A1EB0E01A142C846A64656D353D0D8
:100EC0005DB1B3EB080261EB0E0101FA07F722FAFC
:100ED00006F3F1401F43C5E9007100263146BDE825
:100EE000F087C2F12003D8400CFA02FC21FA03F388
:100EF000914001434FEA1C471FFA8CFEB3FBF7F009
:100F000007FB10360B0C43EA064300FB0EF69E422D
:100F100004FA02F408D91CEB030300F1FF382FD2C6
:100F20009E422DD9023863449B1B89B2B3FBF7F66E
:100F300007FB163341EA034106FB0EF38B4208D947
:100F40001CEB010106F1FF3816D28B4214D9023E88
:100F50006144C91A46EA004638E72E46284605E7A6
:100F60000646E3E61846F8E64B45A9D2B9EB020877
:100F700064EB0C0E0138A3E74646EAE7204694E707
:100F80004046D1E7D0467BE7023B614432E730463A
:100F900009E76444023842E7704700BF00000000E0
:100FA00080B58AB004AF78600B46FB70524A537824
:100FB0006FF3C7135370504A537843F020035370B4
:100FC0004D4A5378022161F3C40353704A4A13888F
:100FD000032161F3CA131380474A1378032161F395
:100FE000C6031370444A137843F007031370424B4F
:100FF0005B783B75404B1B787B75FB7899B20A2375
:1010000002930223019307F11403009301230022AA
:10101000786806F08DFD394B1B681846FFF79CFA7F
:101020002DA3D3E90023FFF7EFFA02460B462CA1CC
:10103000D1E90001FFF712FC02460B4643EC172BE7
:10104000B0EE470AF0EE670A0EF08EFE53EC102B5E
:1010500010461946FFF7B0FD03469BB23B823B8A20
:101060001846FFF767FA20A3D3E90023FFF7CCFA6D
:1010700002460B46104619461DA3D3E90023FFF78D
:10108000EDFB02460B4643EC172BB0EE470AF0EEA1
:10109000670A0EF069FE53EC102B10461946FFF755
:1010A0008BFD03469BB23B827B7C3B733B7C7B731B
:1010B000FB7899B20A2302930223019307F10C03F0
:1010C000009301230522786806F032FD00BF18372F
:1010D000BD4680BDAFF300809A9999999999B93F1F
:1010E000F168E388B5F8A43F9A9999999999E93FED
:1010F0009A99999999990540400400200000002090
:1011000080B586B004AF78600B46FB700E4B0022B2
:101110001A60FB7899B20A230293022301930B4BC6
:10112000009301230222786806F0FCFD064B5A88E2
:10113000054B1B8813439BB2DB089BB29B009BB201
:1011400018460837BD4680BD3C0400203D04002001
:1011500080B586B004AF78600B46FB700C4B002264
:101160001A60FB7899B20A23029302230193094B78
:10117000009301230422786806F0D4FD044B5A88BA
:10118000034B1B8813439BB218460837BD4680BDEE
:101190003C0400203D04002080B588B004AF786096
:1011A0000B46FB70174B00221A60FB7899B20A239A
:1011B000029302230193144B0093012301227868C8
:1011C00006F0B0FD0F4B5A880E4B1B8813439BB2A1
:1011D000FB81B7F90E301846FFF7ACF94FF000026B
:1011E0000A4BFFF73BFB02460B4610461946FFF73A
:1011F00003FD034607EE903AB0EE670A1037BD468E
:1012000080BD00BF3C0400203D0400200000594088
:10121000B0B586B004AF78600B46FB701E4B002261
:101220001A60FB7899B20A230293022301931B4BA5
:10123000009301230322786806F074FD164B5A8848
:10124000154B1B8813439BB21846FFF773F90446EE
:101250000D46134B1B681846FFF77EF90CA3D3E924
:101260000023FFF7D1F902460B4620462946FFF737
:10127000CBF902460B4610461946FFF7BDFC034664
:1012800007EE903AB0EE670A0837BD46B0BD00BF22
:10129000000000000088D3403C0400203D040020F2
:1012A0000000002080B586B002AF78600B46FB706E
:1012B000FB789B08DBB23B73FB789B01DBB27B7353
:1012C00000220421104806F0A3FA07F1080207F1F2
:1012D0000C01642300930323786809F0A0FC012229
:1012E0000421094806F094FA7B7A9BB21B029AB259
:1012F000BB7A9BB213449BB2C3F30B039BB2184659
:101300001037BD4680BD00BF000C02400000000049
:1013100080B582B000AF0346FB80FB881846FFF71C
:1013200009F909A3D3E90023FFF76EF902460B463A
:1013300010461946FFF760FC034607EE903AB0EE00
:10134000670A0837BD4680BD05C078060DFD533FCE
:1013500090B484B000AF786039600023BB81744BD7
:101360001B781A467B6813441B78562B40F0C580C7
:101370006F4B1B7801337A6813441B78522B40F073
:10138000BC806B4B1B7802337A6813441B78542B58
:1013900040F0B380002409E0654B1B7823440333FD
:1013A0007A6813441A78634B1A550134062CF3DD1E
:1013B000002406E03A7B5F4B1B5D1344DBB23B73BA
:1013C0000134042CF6DD3B7BDB43DBB27B737A7BA1
:1013D000584B5B799A4240F08E80554B1B781A46E9
:1013E0007B681344FF221A70514B1B780933DAB221
:1013F0004F4B1A704E4B1A784F4BA3FB02135908F0
:101400000B46DB000B44D31ADAB2494B1A70494B36
:101410005B783B72474B9B787B72464BDB78BB72A9
:10142000444B1B79FB72434B1B78202B08D8414B54
:101430001B781946BA683B6843F82120912372E073
:101440003C4B1B788F2B6CD93A4B1B78913B132B61
:101450002AD801A252F823F0AD140008B1140008F4
:10146000B5140008B9140008A9140008A91400084C
:10147000A9140008A9140008A9140008A914000858
:10148000A9140008A9140008A9140008A914000848
:10149000A9140008BD140008C7140008D3140008DC
:1014A000DF140008EB14000890233CE091233AE09D
:1014B000922338E0932336E0942334E0BA683B6803
:1014C0001A6091232FE03A7A3B6883F84C209123ED
:1014D00029E03B68FF2283F84D20A22323E03A7ADB
:1014E0003B6883F84E20A3231DE03A7A3B6883F8DB
:1014F0004F20A42317E0932315E00D4B1B780933ED
:10150000DAB20B4B1A700A4B1A780B4BA3FB02137F
:1015100059080B46DB000B44D31ADAB2044B1A709D
:1015200000E000BF902318461037BD4690BC7047BE
:101530004204002044040020398EE33880B584B092
:1015400000AF786039603B685B88002B11D03B6846
:101550001B88FB73FA7B3B6853F82220FB7B194600
:10156000786800F00BF83B6800221A803B68002284
:101570005A80912318461037BD4680BD90B58BB078
:1015800000AFF8600B467A60FB7207F1140300228B
:101590001A605A609A60DA6056233B7552237B7555
:1015A0005423BB75FB7AFB75042387F8273000238F
:1015B00087F826307B683B6104240FE0231F283323
:1015C0003B4413F8182C04F128033B4403F8142C73
:1015D00097F82730013387F827300134072CEDDDE9
:1015E00003240AE004F128033B4413F8142C97F871
:1015F0002630134487F826300134072CF2DD97F8A3
:10160000273097F82620D243D2B228333B4403F840
:10161000142C97F827309BB201339AB207F11401CA
:101620003223F8680AF023FA00BF2C37BD4690BD7C
:1016300090B589B000AF78600B46FB701346BB7065
:1016400007F10C0300221A605A609A60DA60562390
:101650003B7352237B735423BB73FB78FB73BB78C0
:101660003B74FF23BB74AA23FB740023FB77032482
:1016700008E004F120033B4413F8142CFB7F1344CF
:10168000FB770134072CF4DDFB7FDB43DBB23B75DA
:1016900007F10C011E23092278680AF0E8F900BF5F
:1016A0002437BD4690BD000080B584B000AF78609F
:1016B0007F23FB7301224FF48071114806F0A8F8D4
:1016C000012240210F4806F0A3F8142005F0BEF9CE
:1016D000002240210B4806F09BF8552005F0B6F992
:1016E00007F10F010A23012278680AF0C0F91421DA
:1016F000786800F099F900BF1037BD4680BD00BF83
:10170000000002400008024080B500AF642005F0F0
:101710009DF900224FF48071084806F079F8012203
:101720004021074806F074F8142005F08FF90022D4
:101730004021034806F06CF800BF80BD0000024065
:101740000008024090B5CBB000AF07F59474A4F543
:101750008E74206007F59470A0F5907001601146BA
:1017600007F59472A2F59472136007F59473A3F2CF
:1017700021130A461A704CF63163A7F8243100236E
:1017800087F827310023A7F820310023C7F8183144
:10179000002387F81C3107F59473A3F58A730022A0
:1017A0001A6004334FF48072002118460BF0E0FBFE
:1017B00007F59473A3F590731B68774A934209D990
:1017C00007F59473A3F590731B68B3F1005F01D222
:1017D000BC23DCE007F59473A3F58C7307F59472D2
:1017E000A2F5907212681A6007F59473A3F58C73D2
:1017F000DB7887F8183107F59473A3F58C739B7821
:1018000087F8193107F59473A3F58C735B7887F823
:101810001A3107F59473A3F58C731B7887F81B3185
:1018200097F8182197F819315340DAB297F81A311E
:101830005340DAB297F81B315340DBB287F81C31C2
:1018400007F59473A3F221131B7887F8203107F56D
:101850009473A3F58A7307F59472A2F22112127899
:101860001A7007F59473A3F221131B7887F82131BE
:1018700000241CE097F82121214607F59473A3F575
:1018800094731B680B441B785340DBB287F82131FB
:10189000224607F59473A3F594731B681A44631CDE
:1018A000117807F59472A2F58A72D154013407F5C4
:1018B0009473A3F221131B789C42DBDD07F594732C
:1018C000A3F221131B78023397F8211107F59472C4
:1018D000A2F58A72D15407F5927107F59473A3F5B6
:1018E0008E700A23022200680AF0C1F807F594738B
:1018F000A3F58E730A21186800F096F8034687F85E
:10190000273197F82731792B40D107F58C7107F5EE
:101910009473A3F58E700F23052200680AF0A7F8D0
:1019200007F59473A3F58E730A21186800F07CF80C
:10193000034687F8273197F82731792B24D107F50B
:101940009473A3F221131B789BB203339AB207F16D
:10195000140107F59473A3F58E70642300680AF0F0
:1019600086F807F59473A3F58E730A21186800F0C2
:101970005BF8034687F8273197F82731792B01D197
:10198000792304E01F2302E01F2300E01F231846F1
:1019900007F59677BD4690BDFFFFFE1F80B586B068
:1019A00000AF78600B467B804BF64433BB8200234C
:1019B000FB751C4B1B883B820023BB747B88BB815F
:1019C0007B7B3B743B7B7B743A7B7B7B5340DBB202
:1019D000BB7407F114010A23022278680AF047F861
:1019E0000A21786800F020F80346FB75FB7D792B0F
:1019F00013D107F110010F23032278680AF037F89A
:101A00001421786800F010F80346FB75FB7D792BF4
:101A100001D1792302E01F2300E01F231846183765
:101A2000BD4680BD68FE000880B586B000AF786016
:101A30000B467B800123FB750023FB7304F0FAFF48
:101A400002467B8813443B6118E007F10F01022333
:101A5000012278680AF09DF8FB7B792B01D179236C
:101A600010E0FB7B1F2B01D11F230BE004F0E2FFF2
:101A700002463B69934201D8AB2303E0FB7D002B78
:101A8000E3D11F2318461837BD4680BD2DE9B04F5E
:101A90009AB000AF04F068FF00F03CFA00F01EFCC2
:101AA00000F0FCFB00F0A6FB00F09CFA00F0CCFB81
:101AB00000F0C6FA00F04EFB00F070FB00F0F6FA02
:101AC0007B4809F069FB04217A4809F09CFC7A4ABA
:101AD0004FF400435362784B5B6A9BB2774A1380A2
:101AE000774A01231370764AFA235380744A642399
:101AF0009380734A00239360724A00231370714AE3
:101B0000012353706F4A002393706F4A0023537070
:101B10006D4A002313706D4A002393706B4A0023B3
:101B200053706A4A0023137000224021684805F070
:101B30006FFE03F0CFFE03F0B1FE80216548FFF792
:101B40002FFA88216348FFF72BFA634B07F12C0526
:101B50001C460FCC0FC50FCC0FC50FCC0FC594E89A
:101B6000070085E8070007F12C031846FEF738FB4D
:101B700003469AB207F12C010A23584809F077FF6F
:101B80000922574957480AF0A6F800F055FD04F01D
:101B900051FF034600229A469346534BD3E9002354
:101BA00092457BEB0303C0F0A5804F4BD3E90023A4
:101BB00012F11401396243F100037B624A4BD7E909
:101BC0000812C3E9001200F0A5FD484B1B78012B59
:101BD00045D03E4B1B78002B0BD03A4B9B78013302
:101BE000DBB2384A9370394A002313703F4A01230D
:101BF0001370364B5B78002B1DD0324B9B78002B3B
:101C00000DD1304B5B781946394A2A2301FB03F387
:101C100013441B78013BDBB22A4A937005E0294B41
:101C20009B78013BDBB2274A9370284A002353700C
:101C30002E4A01231370234B9878224B5B78194668
:101C40002B4A2A2301FB03F313441A78B0FBF2F367
:101C500002FB03F3C31ADBB21A4A93704BE0194B31
:101C60005B781846174B9B781C4621490246520068
:101C70000244D3009B1A23445B000B445D88114B44
:101C80005B7819460F4B9B781C4619480A46520050
:101C90000A44D3009B1A234408335B000344DB88C7
:101CA0001946284600F028FC104A0023137022E051
:101CB00044050020FC040020000400408C080020A3
:101CC00078080020AC08002094080020900800202C
:101CD00000080240500400206CFE0008D0050020DF
:101CE000E80700201406002068080020A80800204B
:101CF0007C01002000BF04F09DFE03460022BB6172
:101D0000FA61784BD3E90023D7E906452146914291
:101D1000294671EB030313D3724BD3E9002312F569
:101D2000FA71396143F100037B616E4BD7E904120C
:101D3000C3E9001220216C4805F083FD00F0D4FEB9
:101D400004F078FE03460022BB60FA60674BD3E9DB
:101D5000002312F17D0843F10009D7E902120B4676
:101D60004345134673EB0903FFF40FAF04F062FE23
:101D7000034600223B607A605C4BD7E90012C3E95E
:101D800000125B4B1B780C2B03D0594B1B780E2B8E
:101D900004D11122A0215748FFF74AFC8021564860
:101DA000FFF7AEF90346554A138280215248FFF7E8
:101DB000CFF903461BB2514A138180214E48FFF7E9
:101DC00027FAF0EE407A4D4BC3ED037A80214A4862
:101DD000FFF7E2F9F0EE407A484BC3ED017A882133
:101DE0004548FFF78DF90346454A1382882142484A
:101DF000FFF7AEF903461BB2414A138188213E48E2
:101E0000FFF706FAF0EE407A3D4BC3ED037A8821E6
:101E10003948FFF7C1F9F0EE407A394BC3ED017A4A
:101E200018213848FFF73EFA0346374A1380192134
:101E30003448FFF737FA0346334A53801A213148B2
:101E4000FFF730FA0346304A93801B212D48FFF7F5
:101E500029FA03462C4AD3801C212A48FFF722FA8C
:101E60000346294A13811D212648FFF71BFA034622
:101E7000254A53811E212348FFF714FA0346224ABC
:101E800093811F211F48FFF70DFA03461E4AD38195
:101E900000240EE01C4B33F814301846FFF738FAD4
:101EA000F0EE407A184A231D9B001344C3ED007ADC
:101EB0000134072CEEDD154BB3F84430184603F01F
:101EC0004BF8F0EE407AB0EE670A03F075F8F0EEEA
:101ED000407A0F4BC3ED007A00F06EFC00F0B8FCC6
:101EE00053E600BF580800200000024060080020B0
:101EF000060000201406002050040020F8070020EF
:101F000010080020A40400202808002084070020D6
:101F1000F407002080B594B000AF07F12003302211
:101F2000002118460BF024F807F10C0300221A6078
:101F30005A609A60DA601A610023BB60274B1B6C01
:101F4000264A43F080531364244B1B6C03F08053E8
:101F5000BB60BB6800237B60214B1B68204A43F4B5
:101F6000404313601E4B1B6803F440437B607B6857
:101F700002233B620123FB6210233B630223BB630A
:101F80000023FB6308233B6464237B640223BB645C
:101F90000423FB6407F12003184608F01FF90346E9
:101FA000002B01D003F0E8F80F23FB6002233B6114
:101FB00000237B614FF48053BB610023FB6107F179
:101FC0000C030321184608F081FB0346002B01D0C7
:101FD00003F0D2F800BF5037BD4680BD0038024044
:101FE0000070004080B500AF124B134A1A60114BCD
:101FF000124A5A600F4B00229A600E4B0022DA60A0
:102000000C4B4FF480421A610A4B00225A61094B73
:1020100000229A61074B0022DA61064B00221A6205
:10202000044805F041FC0346002B01D003F0A4F85E
:1020300000BF80BD5004002000540040801A0600FC
:1020400080B500AF174B184A1A60164B4FF48272D6
:102050005A60144B00229A60124B0022DA60114B36
:1020600000221A610F4B00225A610E4B4FF400728E
:102070009A610C4B2022DA610A4B00221A62094B4A
:1020800000225A62074B00229A62064B0A22DA6249
:10209000044808F03BFD0346002B01D003F06CF828
:1020A00000BF80BDA4040020003C004080B58CB07F
:1020B00000AF07F10C032422002118460AF058FF54
:1020C0003B1D00221A605A60204B214A1A601F4BA8
:1020D00003225A601D4B10229A601C4B4FF6FF7270
:1020E000DA601A4B00221A61184B80229A6103238E
:1020F000FB6002233B6101237B610423BB61082356
:10210000FB6102233B6201237B620423BB62082341
:10211000FB6207F10C0319460C4809F0CEF80346A0
:10212000002B01D003F028F800237B600023BB6064
:102130003B1D1946054809F0CBFB0346002B01D097
:1021400003F01AF800BF3037BD4680BDFC04002004
:102150000004004080B500AF0E4B0F4A1A600D4BD3
:1021600040F2E7325A600B4B00229A60094B41F271
:102170008732DA60074B00221A61064B80229A618F
:10218000044808F0B9FF0346002B01D002F0F4FF29
:1021900000BF80BD440500200044014080B500AF71
:1021A000124B134A1A60114B4FF4E1325A600F4B35
:1021B0004FF480529A600D4B0022DA600B4B4FF4C3
:1021C00080621A61094B0C225A61084B00229A6105
:1021D000064B0022DA61054809F0FCFB0346002BA0
:1021E00001D002F0C9FF00BF80BD00BF8C050020F8
:1021F0000010014080B500AF114B124A1A60104B1D
:102200004FF4E1325A600E4B00229A600C4B0022D0
:10221000DA600B4B00221A61094B0C225A61084B01
:1022200000229A61064B0022DA61054809F0D2FBD0
:102230000346002B01D002F09FFF00BF80BD00BF0E
:10224000D00500200044004080B500AF114B124A79
:102250001A60104B4FF4E1325A600E4B00229A6024
:102260000C4B0022DA600B4B00221A61094B0C2246
:102270005A61084B00229A61064B0022DA61054838
:1022800009F0A8FB0346002B01D002F075FF00BF48
:1022900080BD00BF140600200014014080B582B04C
:1022A00000AF00237B600C4B1B6B0B4A43F4800395
:1022B0001363094B1B6B03F480037B607B68002274
:1022C0000021392004F0C1FC392004F0DAFC00BF01
:1022D0000837BD4680BD00BF0038024080B58AB0D7
:1022E00000AF07F1140300221A605A609A60DA60A6
:1022F0001A6100233B617B4B1B6B7A4A43F004035A
:102300001363784B1B6B03F004033B613B690023B1
:10231000FB60744B1B6B734A43F080031363714B78
:102320001B6B03F08003FB60FB680023BB606D4BFD
:102330001B6B6C4A43F0010313636A4B1B6B03F086
:102340000103BB60BB6800237B60664B1B6B654A67
:1023500043F002031363634B1B6B03F002037B60C8
:102360007B6800233B605F4B1B6B5E4A43F00803B6
:1023700013635C4B1B6B03F008033B603B6800225C
:1023800040F24B31584805F043FA00224FF498715F
:10239000564805F03DFA00220121554805F038FA6B
:1023A00000220421534805F033FA4FF400537B61B7
:1023B0004FF40413BB610023FB6107F114031946BA
:1023C000494805F089F840F243337B610123BB6142
:1023D0000023FB6100233B6207F1140319464248C6
:1023E00005F07AF804237B610023BB610023FB61C5
:1023F00007F1140319463C4805F06EF808237B6189
:102400000123BB610023FB6102233B6207F114033C
:102410001946354805F060F84FF498737B61012345
:10242000BB610023FB6100233B6207F114031946E3
:102430002E4805F051F801237B610123BB61002385
:10244000FB6101233B6207F114031946284805F09C
:1024500043F84FF470437B610023BB610023FB61B1
:1024600007F114031946224805F036F880237B61F2
:102470004FF40413BB610123FB6107F114031946F8
:10248000194805F029F804237B610123BB6100236F
:10249000FB6100233B6207F114031946154805F060
:1024A0001BF840237B610023BB610123FB6107F123
:1024B000140319460E4805F00FF8002200211720DA
:1024C00004F0C3FB172004F0DCFB002200212820CD
:1024D00004F0BBFB282004F0D4FB00BF2837BD4626
:1024E00080BD00BF003802400008024000000240EA
:1024F00000040240000C024080B584B002AF0346E5
:102500000A46FB801346BB80114B1B78002B09D079
:10251000104B18880F4B5988002300930F230F226C
:1025200003F006FCB988F8884FF6E07300930F2398
:102530000F2203F0FDFB074AFB881380054ABB8886
:102540005380034B01221A7000BF0837BD4680BD7F
:10255000A7080020B008002080B584B004AF2B4B42
:102560005B781946294B9B781846284BDB781A462E
:10257000274B1B880193009203460A4625492648AB
:102580000BF068F9254B002202924FF6E07201929F
:102590005A6800921B68204AB921DC2003F071FDC3
:1025A0001F4B1B881A461F4B9B7819461D4B1B78E7
:1025B00000930B461C4918480BF04CF9174B0022AE
:1025C00002924FF6FF7201925A6800921B68124AFB
:1025D000C821DC2003F055FD144B5A6A144B9B783C
:1025E00014490D480BF036F90C4B002202924FF6BD
:1025F000FF7201925A6800921B68074AD721FA209D
:1026000003F03FFD00BFBD4680BD00BF8408002031
:1026100088080020A8FE0008B80600202802002034
:102620008C08002090080020B8FE0008000400403C
:10263000AC080020C8FE000880B400AF2D4B1A780B
:102640002C4B5A702C4B1B691B0BDBB2DB43DBB2F0
:1026500003F00F03DAB2274B1A70264B1B78002BBE
:1026600030D0244B5B78002B2CD1224B1B789AB2B4
:10267000224B1B8813449AB2204B1A801D4B1A78A8
:102680001C4B9A701B4B1A781A4BDA70194B9B78BB
:10269000012B02D11A4B01221A70164B9B78082B82
:1026A00006D1184B1B780A2B02D0164B01221A7048
:1026B000104B9B78042B05D1134B9B780133DAB276
:1026C000114B9A70114B1B88102B05D90F4B1B888F
:1026D0004FF6F772934207D90D4B4FF400425A62FE
:1026E0000A4B4FF400421A8000BFBD465DF8047BE0
:1026F000704700BF840800200004024088080020C2
:102700007408002006000020900800208C0800209B
:102710000004004080B500AF214B5B6A9AB2214BA8
:102720001B889A4219D9204B01221A701C4B5B6AF4
:102730009AB21C4B1A801B4B1B881A461B491C481B
:102740000BF088F81A48FDF74BFD03469AB20A23AE
:102750001749184809F08BF91FE0114B5B6A9AB2D0
:10276000104B1B889A4218D20F4B01225A700C4B07
:102770005B6A9AB20B4B1A800A4B1B881A460B49AC
:102780000B480BF067F80A48FDF72AFD03469AB29A
:102790000A230749074809F06AF900BF80BD00BF56
:1027A000000400408C08002090080020D0FE0008A3
:1027B0001C070020D005002080B500AF1E4BB3F9E8
:1027C0000830B3F5167F05DA1C4BB3F90830B3F5C2
:1027D000167F2ADB1A4B5B780133DAB2184B5A703A
:1027E000174B5B78012B24D9164B1B780F2B20D06D
:1027F000144B1B78102B1CD0114B00225A70104B1D
:1028000000221A7000224FF400710F4805F000F802
:102810000E4B03221A700D4B4FF47A725A8000F05F
:10282000EBF8084B0F221A7003E0054B00225A7098
:1028300000E000BF00BF80BDF807002010080020A6
:1028400094080020060000200008024078080020BC
:1028500080B500AF084B1B78002B0BD0074B1B78C3
:102860000C2B04D14FF40071054804F0EAFF024B31
:1028700000221A7000BF80BD7408002006000020EE
:102880000008024090B589B000AFF860B9603B60C5
:102890001346FB71FB68BB83FB681B0C7B83002327
:1028A000FB77002481E023465B00BA6813441B8851
:1028B000132B7ED8BB8B22465200B9680A4412887B
:1028C0001341DBB203F001037B767B8B224652007F
:1028D000B9680A4412881341DBB203F001033B7666
:1028E0007A7E3B7E9A425FD1FB7F0133FB77FB7997
:1028F000012B0FD0022B1BD023465B00BA68134478
:102900001B88DBB21A4607F11003344918460AF057
:10291000A1FF1BE023465B00BA6813441B88DBB2AF
:102920001A4607F110032E4918460AF093FF0DE0EE
:1029300023465B00BA6813441B88DBB21A4607F1D2
:102940001003284918460AF085FF00BF07F110035D
:102950000422194638680AF09DFF7B7E012B06D1C0
:1029600007F11003204918460AF074FF08E07B7E47
:10297000002B05D107F110031C4918460AF06AFF25
:1029800007F110030222194638680AF083FF07F1A5
:102990001003174918460AF05DFF07F110030122E2
:1029A000194638680AF076FF01340F2C7FF77BAFA9
:1029B00000E000BFFB7F002B0CD107F110030D4995
:1029C00018460AF047FF07F1100307221946386836
:1029D0000AF060FF00BF2437BD4690BDDCFE000852
:1029E000E4FE0008ECFE0008F4FE0008F8FE000813
:1029F000FCFE000800FF000898B500AF354B1B78BF
:102A0000012B39D0022B1DD0334B1B78002B15D056
:102A1000324808F0C1FB304B5B881C4604F00AF8D2
:102A2000034623442C4A93602A4B02221A702A4BF5
:102A30001B78013BDAB2284B1A7048E0274808F0AF
:102A40000DFC44E001224FF48071254804F0E0FEC3
:102A500003F0F0FF0246204B9B689A4234D31E4B92
:102A60009B881C4603F0E6FF034623441A4A936002
:102A7000184B01221A7027E000224FF48071184889
:102A800004F0C6FE03F0D6FF0246134B9B689A4241
:102A90001CD3114B1B78002B12D00F4B5B881C46AC
:102AA00003F0C8FF034623440B4A93600A4B1B788C
:102AB000013BDAB2084B1A70064B02221A7005E08D
:102AC000044B00221A7001E000BF00E000BF00BF0D
:102AD00098BD00BFB40800207808002044050020FD
:102AE000000802400000000090B587B004AF9C4B86
:102AF0001B78162B00F2D58001A252F823F000BFFC
:102B00003D2D00085D2B0008A32C00080D310008A6
:102B10005D330008A92D0008932E0008D12E00086F
:102B2000093A0008133B0008393B0008D942000865
:102B3000EF450008A53D0008A9410008A34800088A
:102B40006B4A0008C94A00081B4C0008454C0008A5
:102B5000174D0008914D0008C34E0008814B01221B
:102B60005A7000230093F0234FF4A072002100203C
:102B700003F0DEF845F6EB23009320234FF4A07218
:102B80000021002003F0D4F8774978480AF062FE6B
:102B9000774B002201925A6800921B68734A0A21FF
:102BA000192003F0BBFA4FF4A073212200214FF645
:102BB000A01003F00FF86F496C480AF04BFE6E4B03
:102BC0001F2202924FF6FF7201925A6800921B6810
:102BD000664A2421B92003F054FA4FF6A01300935B
:102BE000F0230F220021002003F0A2F8F02300229E
:102BF0000E21002003F045F860495C480AF02AFEE7
:102C00005D4B40F2FF7201925A6800921B68574A6E
:102C10003C213C2003F082FA594954480AF01AFE3C
:102C2000554B40F2FF7201925A6800921B684F4A5E
:102C30005A213C2003F072FA52494C480AF00AFE2D
:102C40004D4B40F2FF7201925A6800921B68474A4E
:102C500078213C2003F062FA4B4944480AF0FAFD1F
:102C6000454B40F2FF7201925A6800921B683F4A3E
:102C700096213C2003F052FA44493C480AF0EAFD10
:102C80003D4B40F2FF7201925A6800921B68374A2E
:102C9000B4213C2003F042FA314B02221A7002F0B8
:102CA00034B9304B01225A70394B5A6A2D4B9B78FC
:102CB00038492E480AF0CEFD374B002202924FF6DB
:102CC000FF7201925A6800921B68284ADC21F020AA
:102CD00003F0D7F9314B9B78002B02F00381214B95
:102CE0009B78012B06D12E4B03221A701C4B03221A
:102CF0001A701EE01B4B9B78022B03D1184B0B2242
:102D00001A7016E0174B9B78032B03D1144B032248
:102D10001A700EE0134B9B78042B03D1104B052245
:102D20001A7006E00F4B9B78052B02D10C4B112239
:102D30001A701A4B00229A7002F0D4B8094B002284
:102D40005A701848FEF7B0FC4FF6FF711548FEF7B1
:102D500025FEFEF7D9FC024B02221A7002F0D5B80C
:102D600006000020AC08002008FF0008B80600207C
:102D70003802002020FF00083002002030FF000849
:102D80003CFF00084CFF00085CFF00086CFF0008D7
:102D900000040040C8FE000828020020900800201F
:102DA000940800208C0500209D4B02225A700023BD
:102DB0000093D2234FF4A0721E21002002F0B8FF2E
:102DC00047F60F0300931E234FF4A072002100204A
:102DD00002F0AEFF00224FF40071924804F018FD9B
:102DE000914992480AF036FD914B4FF6FF720192DD
:102DF0005A6800921B688D4A05213C2003F08EF929
:102E00008C498A480AF026FD8B4B40F2FF720192F2
:102E10005A6800921B68854A3C21322003F07EF9F3
:102E2000864A874981480AF015FD864B4FF6FF72A6
:102E300001925A6800921B687C4A5021412003F09D
:102E40006DF9814979480AF005FD7B4B40F2FF722C
:102E500001925A6800921B68744A6421322003F080
:102E60005DF97A4971480AF0F5FC734B4FF6FF7231
:102E700001925A6800921B686C4ADC211E2003F004
:102E80004DF9734B00229A70724B06221A7002F0B1
:102E90003CB86F4B9B78002B02F02680604B9B78F0
:102EA000012B02D16B4B08221A705D4B9B78022BD1
:102EB00002D1684B07221A70594B9B78032B02D121
:102EC000644B01221A70624B00229A7002F00CB817
:102ED000534B03225A7000230093D2234FF4A07265
:102EE0001E21002002F024FF47F60F0300931E234B
:102EF0004FF4A0720021002002F01AFF4A494B480B
:102F00000AF0A8FC4A4B4FF6FF7201925A680092F1
:102F10001B68464A05213C2003F000F94E4B1B7804
:102F2000032B12D14D4941480AF094FC404B4FF617
:102F3000E07202924FF4784201925A6800921B6844
:102F40003A4A0521FA2003F09CF8404937480AF034
:102F500081FC394B4FF6FF7201925A6800921B6850
:102F6000324ADC211E2003F0D9F83D492F480AF0EF
:102F700071FC2F4B40F2FF7201925A6800921B685D
:102F80002A4A3221462003F0C9F84FF4007125483F
:102F900004F026FC0346002B03D0142003F056FD5A
:102FA00009E001224FF400711E4804F031FC40F6A4
:102FB000980003F04BFD2B48FEF776FB2A491B488F
:102FC0000AF048FC1A4B40F2FF7201925A680092D4
:102FD0001B68164A32214FF4827003F09FF84FF6B7
:102FE000FF712048FEF7DAFC03461A461F4B1A70A1
:102FF0001E4B1B78792B0FD11D490C480AF02AFC77
:103000000B4B4FF6E07201925A6800921B68074A18
:103010005021462003F082F800237B6046E000BF89
:10302000AC080020000802407CFF0008B806002021
:10303000380200208CFF0008300200202305010721
:103040009CFF000828020020ACFF0008B8FF000821
:10305000900800200600002094080020C0FF00080F
:10306000C8FF00088C050020D8FF00088107002059
:10307000DCFF00084FF6FF7300930A230A22642145
:103080009B2002F055FE4FF4FA7003F0DFFC0023A2
:1030900000930A230A2264219B2002F049FE4FF488
:1030A000FA7003F0D3FC7B6801337B607B68052BEF
:1030B000E0DDFEF729FB964996480AF0CBFB964BDC
:1030C0004FF6E07201925A6800921B68914A6E2195
:1030D000462003F023F84FF4FA7003F0B7FC002207
:1030E0004FF400718D4804F093FB8D4B00229A70D1
:1030F0008C4B1B78032B04D18B4B08221A7001F0E8
:1031000004BF894B05221A7001F0FFBE874B0022D5
:103110005A7000230093D2234FF4A0721E21002086
:1031200002F006FE4FF6A01300931E234FF4A07288
:103130000021002002F0FCFD7A4B1B78032B12D1FA
:103140007B4974480AF086FB734B4FF6E07202929B
:103150004FF4784201925A6800921B686D4A05212B
:10316000FA2002F08EFF01224FF400716B4804F048
:103170004FFB704967480AF06DFB674B4FF6FF72D3
:1031800001925A6800921B68624A0521502002F0A1
:10319000C5FF69495F480AF05DFB684B4FF6FF7257
:1031A00001925A6800921B685A4A32210F2002F09D
:1031B000B5FF634957480AF04DFB604B4FF6FF726D
:1031C00001925A6800921B68524A4B210F2002F06C
:1031D000A5FF5B494F480AF03DFB584B4FF6FF7285
:1031E00001925A6800921B684A4A5F210F2002F040
:1031F00095FF544947480AF02DFB534B4FF6FF7299
:1032000001925A6800921B68424A6A210F2002F01C
:1032100085FF4E493F480AF01DFB484B4FF6FF72B1
:1032200001925A6800921B683A4A7D210F2002F0F1
:1032300075FF474937480AF00DFB404B4FF6FF72C8
:1032400001925A6800921B68324A96210F2002F0C0
:1032500065FF40492F480AF0FDFA3B4B4FF6FF72DD
:1032600001925A6800921B682A4A3621A52002F072
:1032700055FF384927480AF0EDFA334B4FF6FF72F5
:1032800001925A6800921B68224A4F21A52002F041
:1032900045FF30491F480AF0DDFA2B4B4FF6FF720D
:1032A00001925A6800921B681A4A6821A52002F010
:1032B00035FF294917480AF0CDFA234B4FF6FF7224
:1032C00001925A6800921B68124A8121A52002F0DF
:1032D00025FF21490F480AF0BDFA1B4B4FF6FF723C
:1032E00001925A6800921B680A4A9A21A52002F0AE
:1032F00015FF03F09FFB034603F6AC53094A5360E6
:10330000074B00229A70084B04221A7001F0FDBD91
:10331000E8FF0008B806002038020020000802403C
:10332000900800209408002006000020AC0800202F
:10333000C0FF0008F8FF0008080001083002002064
:103340000C00010814000108280200201C000108DC
:10335000240001082C00010830000108AC4B0022B9
:103360005A70AC4BD3ED057A9FEDAB7A67EE877A56
:10337000FCEEE77A17EE903A9BB21A46A749A848A6
:103380000AF068FAA34B5B691846FDF7E5F89CA3C1
:10339000D3E90023FDF7B4FB0346002B23D0A14B58
:1033A000002202924FF4784201925A6800921B6800
:1033B0009B4A3221642002F064FE9B4998480AF03F
:1033C00049FA984B002202924FF4784201925A68CF
:1033D00000921B68924A3221DC2002F052FE934B8D
:1033E00000221A7022E08F4B002202924FF6FF72E9
:1033F00001925A6800921B68894A3221642002F0C7
:1034000040FE8B4986480AF025FA864B002202923C
:103410004FF4FC6201925A6800921B68804A322184
:10342000DC2002F02EFE814B01221A70814B1B8A98
:103430001A467A497A480AF00DFA7E4B1B8A40F602
:103440005432934223D8774B002202924FF47842B1
:1034500001925A6800921B68714A4B21642002F065
:1034600010FE71496E480AF0F5F96E4B0022029287
:103470004FF4784201925A6800921B68684A4B21C7
:10348000DC2002F0FEFD694B00225A7022E0654B01
:10349000002202924FF6FF7201925A6800921B6856
:1034A0005F4A4B21642002F0ECFD61495C480AF060
:1034B000D1F95C4B002202924FF4FC6201925A68EF
:1034C00000921B68564A4B21DC2002F0DAFD574B74
:1034D00001225A704F4BD3ED047A9FED4F7A67EE7D
:1034E000877AFCEEE77A17EE903A9BB21A464B4980
:1034F0004B480AF0AFF9474B1B691846FDF72CF80B
:1035000041A3D3E90023FDF7FBFA0346002B23D0A8
:10351000444B002202924FF4784201925A68009282
:103520001B683F4A6421642002F0ABFD3E493C48E1
:103530000AF090F93B4B002202924FF4784201923C
:103540005A6800921B68364A6421DC2002F099FD1B
:10355000364B00229A7022E0324B002202924FF644
:10356000FF7201925A6800921B682D4A6421642000
:1035700002F087FD2E492A480AF06CF9294B0022F7
:1035800002924FF4FC6201925A6800921B68244A2E
:103590006421DC2002F075FD244B01229A70264B39
:1035A000B3F908301A461D491D480AF053F9224B59
:1035B000B3F90830F92B41DD1A4B002202924FF487
:1035C000784201925A6800921B68154A7D21642056
:1035D00002F057FD144912480AF03CF9114B002241
:1035E00002924FF4784201925A6800921B680C4A8A
:1035F0007D21DC2002F045FD0C4B0022DA7066E0F4
:1036000033333333333311403333333333330740BE
:10361000AC0800202808002000007A44340001088B
:10362000B80600203802002038000108A008002059
:1036300040000108F807002010080020A54BB3F94E
:103640000830012B20DCA44B002202924FF6FF72BF
:1036500001925A6800921B68A04A7D21642002F002
:1036600010FD9F499D480AF0F5F89B4B00220292FD
:103670004FF6A01201925A6800921B68974A7D216A
:10368000DC2002F0FEFC22E0934B002202924FF677
:10369000FF7201925A6800921B68904A7D21642053
:1036A00002F0EFFC8F498D480AF0D4F88A4B0022D3
:1036B00002924FF4FC6201925A6800921B68874A9A
:1036C0007D21DC2002F0DDFC874B0122DA70874B84
:1036D000B3F908301A46864980480AF0BBF8834B94
:1036E000B3F90830F92B23DD7B4B002202924FF413
:1036F000784201925A6800921B68784A96216420A9
:1037000002F0BFFC7B4975480AF0A4F8724B002216
:1037100002924FF4784201925A6800921B686F4AF5
:103720009621DC2002F0ADFC6F4B00221A717AE08A
:103730006E4BB3F90830032B49DC674B0022029231
:103740004FF6FF7201925A6800921B68634A9621F5
:10375000642002F096FC624960480AF07BF85E4BF8
:10376000002202924FF6A01201925A6800921B6842
:103770005A4A9621DC2002F084FC5F4957480AF03F
:1037800069F85E4B002202924AF6E57201925A688D
:1037900000921B68514A912140F2131002F071FC13
:1037A00057494E480AF056F8544B002202924AF606
:1037B000E57201925A6800921B68484A9D2140F2C6
:1037C000131002F05EFC484B00221A712BE0424BB2
:1037D000002202924FF6FF7201925A6800921B6813
:1037E0003E4A9621642002F04CFC3E493B480AF0D8
:1037F00031F8394B002202924FF4FC6201925A6870
:1038000000921B68354A9621DC2002F03AFC002326
:1038100000931E232D228C2140F2131002F088FA0F
:10382000314B01221A7137492C480AF013F8364BF4
:103830004FF6FF7201925A6800921B68274ADC21FA
:103840001E2002F06BFC03F0F5F802462F4B5B687C
:103850009A42C0F0BE80244B5B781A46224B9B787C
:103860001344214AD27813441F4A127913441E4A42
:1038700012781344042B4FDD1B4B5B790133DAB212
:10388000194B5A71184B5B79012B40F2A280164BF1
:1038900000225A711E49114809F0DCFF1A4B4FF4FF
:1038A000FC6202921F2201925A6800921B680B4A26
:1038B000AA21DC2002F0E5FB4FF4FA7003F0C6F811
:1038C000124B1B78032B40F08480124B07221A7096
:1038D0007FE000BF1008002038020020B80600205A
:1038E0004800010840000108A0080020F807002057
:1038F00034000108380001084C00010828020020AB
:1039000054000108B8FF000830020020940800208D
:103910005C000108060000209F4B00225A719F4B5B
:10392000B3F908301A469E4BB3F90830D31A952BD9
:1039300016DD9A4BB3F90830F92B11DD99499A48F5
:1039400009F088FF994B002202924FF6E072019233
:103950005A6800921B68944AB4216E2002F091FBD1
:103960008F4BB3F90830F92B11DD91498E4809F0DE
:1039700071FF8E4B002202924FF6E07201925A685C
:1039800000921B68884AB421142002F07AFB89490E
:10399000854809F05FFF884B002202924FF6E072E3
:1039A00001925A6800921B687F4ACD21142002F0D0
:1039B00068FB824B9B78002B0BD0804B00229A70C7
:1039C00000224FF400717E4803F022FF7D4B01225C
:1039D0001A707A4B9B78002B01F088827A4B9B7887
:1039E000012B41F08382774B01221A70734B002226
:1039F0009A70764B00221A7000224FF400717048C2
:103A000003F006FF01F072BA6F4B03225A704FF6B3
:103A1000E07300931E234FF4A0720021002002F0F7
:103A200087F900230093D2234FF4A0721E210020B7
:103A300002F07EF966495C4809F00CFF654B0022F4
:103A400001925A6800921B68574A05213C2002F0F7
:103A500065FB5E4B1B78032B12D15F49524809F07E
:103A6000F9FE5C4B4FF6E07202924FF478420192FD
:103A70005A6800921B684C4A0521FA2002F001FBAB
:103A80005649494809F0E6FE484B4FF6FF7201924D
:103A90005A6800921B68444A3C21142002F03EFB05
:103AA0004F4A5049404809F0D5FE404B47F6EF32A7
:103AB00001925A6800921B683B4A5021282002F06C
:103AC0002DFB4949384809F0C5FE424B4FF6FF72BD
:103AD00001925A6800921B68334A6E21282002F036
:103AE0001DFB4249304809F0B5FE3A4B4FF6A01293
:103AF00001925A6800921B682B4A8721282002F005
:103B00000DFB2E4B00229A702E4B0A221A7001F0E8
:103B1000FCB901224FF40071294803F079FE02F04C
:103B200089FF0246294B5B689A42C1F0E181254B2F
:103B30000A221A7001F0DCB9234B00225A704FF4AC
:103B400000711F4803F04CFE0346002B03D0962063
:103B500002F07CFF09E001224FF40071184803F0E5
:103B600057FE40F6AC5002F071FF214B1B881B0A38
:103B70009BB2DBB21E4A1288D2B292B2002A14BFA4
:103B800001220022D2B21344DAB21A4B1A701A4838
:103B9000FDF78AFD002489E0A0080020100800201D
:103BA000F807002068000108B80600203002002055
:103BB000740001087C000108280200209008002001
:103BC0000008024006000020AC08002094080020F5
:103BD000A000010838020020C0FF0008B000010862
:103BE00023050107CC000108E0000108F4000108EA
:103BF00004000020800700208C05002004F500232D
:103C00001B0219462302574A1344FF225648FDF768
:103C100099FD03461A46554B1A70544B1B78792B65
:103C200012D15349534809F015FE534B002202921A
:103C30004FF6E07201925A6800921B684D4AB42117
:103C4000282002F01EFA28E0484B1B781F2B12D1C7
:103C50004A49484809F0FEFD474B002202924FF6C0
:103C6000E07201925A6800921B68424AB4212820EF
:103C700002F007FA11E042493E4809F0EBFD3E4BE5
:103C80000022029245F6EB2201925A6800921B68CC
:103C9000384AB421282002F0F4F9002300931E23AF
:103CA0000F22B421282002F043F80134354B1B7851
:103CB000013B9C42A2DB334B1B7803F5FF2303F24D
:103CC000FF731B021846304B1B88DAB22D4B1B7852
:103CD000013B1B0223490B4401462348FDF732FDFB
:103CE000FDF712FD2949234809F0B4FD284B4FF494
:103CF000FC6201925A6800921B681E4AA0218C2027
:103D000002F00CFA4FF47A7002F0A0FE2149194833
:103D100009F0A0FD1E4B4FF4FC6201925A6800921C
:103D20001B68144ABE218C2002F0F8F94FF47A7017
:103D300002F08CFE184B00229A70184B1B78032B54
:103D40000BD1174B0D221A7002F074FE034603F6D6
:103D5000AC53124A536001F0D8B8114B05221A70C7
:103D600001F0D3B8600103088C0500208107002012
:103D700008010108B8060020300200200C010108EB
:103D80001001010880070020040000201401010830
:103D9000400200201C010108900800209408002027
:103DA00006000020AB4B00225A700222A121AA4833
:103DB000FDF73EFC40F2EF3300931E234FF4A07258
:103DC0000021002001F0B4FF00230093D2234FF420
:103DD000A0721E21002001F0ABFFA049A04809F00D
:103DE00039FDA04B4FF6FF7201925A6800921B6892
:103DF0009B4A05213C2002F091F99B4B1B78032B39
:103E000012D19A49964809F025FD964B4FF6E0727B
:103E100002924FF4784201925A6800921B68904ACD
:103E20000521FA2002F02DF991498D4809F012FD83
:103E3000904B4FF6FF7201925A6800921B68884AB5
:103E4000AF21FA2002F06AF98B49854809F002FD9A
:103E5000884B4FF6FF7201925A6800921B68804AA5
:103E6000D221FA2002F05AF984497D4809F0F2FC87
:103E7000834B4AF6E57201925A6800921B68784AB1
:103E8000DC211E2002F04AF97E4B93F84D30002BC6
:103E900000F053810422A1216F48FDF7C9FB642083
:103EA00002F0D4FD774B93F84C30042B40F02A817C
:103EB00001F0BCF8734B5868734B00227349FEF74E
:103EC000E1FC704B9868724B00227049FEF7DAFCF7
:103ED0006C4BD8686F4B00226C49FEF7D3FC694BE2
:103EE00018696D4B01226D49FEF7CCFC654B586992
:103EF0006B4B01226949FEF7C5FC624B9869694B1F
:103F000001226649FEF7BEFC5E4BD869664B022271
:103F10006649FEF7B7FC5B4B186A654B02226349A2
:103F2000FEF7B0FC574B586A624B02225F49FEF71E
:103F3000A9FC052002F08AFD5F4B1B78082B0FD9E6
:103F40005E49474809F086FC464B4FF4FC620192FB
:103F50005A6800921B68424A6421C82002F0DEF8C9
:103F600049493F4809F076FC454B4FF6FF720192F4
:103F70005A6800921B683A4A23210A2002F0CEF8C0
:103F80004349374809F066FC3D4B4FF6FF720192FA
:103F90005A6800921B68324A37210A2002F0BEF8A4
:103FA0003C492F4809F056FC354B4FF6FF72019201
:103FB0005A6800921B682A4A4B210A2002F0AEF888
:103FC0003549274809F046FC2D4B4FF6FF72019208
:103FD0005A6800921B68224A5F210A2002F09EF86C
:103FE0002F491F4809F036FC254B4FF6FF7201920E
:103FF0005A6800921B681A4A73210A2002F08EF850
:104000002849174809F026FC1D4B4FF6FF72019214
:104010005A6800921B68124A87210A2002F07EF833
:1040200021490F4809F016FC154B4FF6FF7201921B
:104030005A6800921B680A4A9B210A2002F06EF817
:104040001B49074809F006FC0D4B4FF6FF72019221
:104050005A6835E0AC08002014060020240101084D
:10406000B80600203802002094080020C0FF000895
:10407000340101082802002040010108480101081C
:1040800030020020840700205C000020080000208F
:10409000BC0000201C0100207C0000201C0000202F
:1040A000DC0000203C0100209C0000203C0000209F
:1040B000FC0000205C010020A60800205C00010834
:1040C00000921B68724AAF210A2002F027F871495A
:1040D0006F4809F0BFFB704B4FF6FF7201925A68B0
:1040E00000921B686A4AC3210A2002F017F86B4B42
:1040F000002283F84C20694B002283F84D20684B46
:104100000E221A70674B03221A70664B4FF4967298
:104110005A80FEF771FC01224021634803F078FBCE
:104120004FF4967002F092FC002240215E4803F0AA
:104130006FFB5B4B0E221A7031E002F07BFC0246F3
:104140005A4B5B689A422AD35949514809F082FB7D
:10415000584B4FF6FF7201925A6800921B684C4A06
:104160003221502001F0DAFF5349494809F072FB2F
:10417000504B4FF6FF7201925A6800921B68444AF6
:104180004B215F2001F0CAFF444B002283F84C20F2
:10419000424B002283F84D20414B0E221A70474BB0
:1041A00000229A7000F0B1BE454B00225A70454B78
:1041B000D3ED007AF5EEC07AF1EE10FA04D54FF0A7
:1041C00000024FF0000306E03E4B1B681846FCF768
:1041D000C3F902460B463C492D4809F03BFB394BDD
:1041E000D3ED007A9FED397AF4EEC77AF1EE10FA4A
:1041F0000ED5294B002202924CF2186201925A68A5
:1042000000921B68224ABE21FA2001F03AFF0DE01D
:10421000214B002202924FF4784201925A68009298
:104220001B681B4ABE21FA2001F02BFF1B4B9B6C25
:104230001A462749164809F00DFB264B4FF6FF7228
:1042400001925A6800921B68114AE121FA2001F09C
:1042500065FF1A4B9B78002B00F04C86104B012217
:104260001A70164B00229A700C4B00229A640B4B6A
:104270000022A3F8442000F0D9FE0C4B00221A7053
:1042800000224FF40071084803F0C2FA00F032BE79
:10429000B80600205C0100203002002084070020C6
:1042A0000600002078080020000802409408002042
:1042B0005401010838020020600101089008002024
:1042C000AC080020F40700206801010800007042DB
:1042D0007001010828020020964B00225A7000232A
:1042E0000093D2234FF4A0721E21002001F020FD84
:1042F0001F2300931E234FF4A0720021002001F021
:1043000017FD01224FF400718B4803F081FA8B49AD
:104310008B4809F09FFA8B4B4FF6FF7201925A6857
:1043200000921B68864A0521502001F0F7FE86495D
:10433000834809F08FFA854B4FF6FF7201925A6855
:1043400000921B687E4ADC211E2001F0E7FE8049B6
:104350007B4809F07FFA7D4B4FF6FF7201925A6855
:1043600000921B68764A32210F2001F0D7FE79496E
:10437000734809F06FFA754B4FF6FF7201925A6855
:1043800000921B686E4A4B210F2001F0C7FE724954
:104390006B4809F05FFA6D4B4FF6FF7201925A6855
:1043A00000921B68664A64210F2001F0B7FE6B493A
:1043B000634809F04FFA654B4FF6FF7201925A6855
:1043C00000921B685E4A7D210F2001F0A7FE644920
:1043D0005B4809F03FFA5D4B4FF6FF7201925A6855
:1043E00000921B68564A96210F2001F097FE5D4906
:1043F000534809F02FFA5C4B4FF6FF7201925A684E
:1044000000921B684E4A96213C2001F087FE5749D6
:104410004B4809F01FFA544B4FF6FF7201925A684D
:1044200000921B68464AAA213C2001F077FE5049C1
:10443000434809F00FFA454B4FF6FF7201925A6854
:1044400000921B683E4A2821DC2001F067FE4949A2
:104450003B4809F0FFF9444B4FF6FF7201925A684E
:1044600000921B68364A3821DC2001F057FE424991
:10447000334809F0EFF93C4B4FF6FF7201925A684E
:1044800000921B682E4A3621962001F047FE3A49D9
:104490002B4809F0DFF9344B4FF6FF7201925A684E
:1044A00000921B68264A4F21962001F037FE3349BF
:1044B000234809F0CFF92C4B4FF6FF7201925A684E
:1044C00000921B681E4A6821962001F027FE2B49A6
:1044D0001B4809F0BFF9244B4FF6FF7201925A684E
:1044E00000921B68164A8121962001F017FE24498C
:1044F000134809F0AFF91C4B4FF6FF7201925A684E
:1045000000921B680E4A9A21AA2001F007FE1C495E
:104510000B4809F09FF9144B4FF6FF7201925A684D
:1045200000921B68064AAE21AA2001F0F7FD002484
:1045300041E000BFAC0800200008024078010108FB
:10454000B806002038020020B8FF00083002002022
:10455000840101080C000108240001081C00010866
:104560008C01010890010108280200209401010833
:1045700098010108A00101082C0001083000010881
:10458000AC0101082246A149A14809F063F9A3B290
:104590001A46520013449B009BB24B3399B29D4B79
:1045A0004FF6E07201925A6800921B68984ADC202C
:1045B00001F0B4FD0134072CE4DD9749944809F07B
:1045C00049F9944B002202924FF6FF7201925A6809
:1045D00000921B688E4ABE21142001F052FD8F4BC1
:1045E00000229A708E4B0C221A7000F08EBC8D4BFC
:1045F00000225A70FDF7B0FF8B4B1B8A1A468B497D
:10460000834809F027F9884B1B8AB3F5FA6F0ED25D
:10461000874B002202924FF4784201925A6800922E
:104620001B687B4A32215A2001F02BFD0DE0804BA4
:10463000002202924FF4FC6201925A6800921B68B9
:10464000734A32215A2001F01CFD7A4B1B8A1A460C
:1046500076496F4809F0FEF8764B1B8AB3F5FA6F7E
:104660000ED2734B002202924FF4784201925A68A4
:1046700000921B68664A4B215A2001F002FD0DE0B2
:104680006B4B002202924FF4FC6201925A68009236
:104690001B685F4A4B215A2001F0F3FC654BB3F9CC
:1046A00008301A4661495A4809F0D4F8604B002294
:1046B000029240F2FF7201925A6800921B68544ABB
:1046C00064215A2001F0DDFC574BB3F908301A463B
:1046D00056494F4809F0BEF8554B0022029240F26D
:1046E000FF7201925A6800921B68494A7D215A2044
:1046F00001F0C7FC4F4BDB681846FBF72DFF024665
:104700000B464D49424809F0A5F8494B0022029258
:104710004FF6A01201925A6800921B683C4A9621FB
:104720005F2001F0AEFC404BDB681846FBF714FF3E
:1047300002460B464049364809F08CF83C4B0022B3
:1047400002924FF6A01201925A6800921B68304AFA
:10475000AA215F2001F095FC002423E0374A231DA5
:104760009B0013441B681846FBF7F6FE02460B46F7
:104770003349274809F06EF8A3B21A465200134491
:104780009B009BB24B3399B2224B002202924FF610
:10479000FF7201925A6800921B681D4AFA2001F0CC
:1047A00070FC0134072CD9DD264BD3ED007AF5EEF1
:1047B000C07AF1EE10FA04D54FF000024FF000037A
:1047C00006E0204B1B681846FBF7C6FE02460B4668
:1047D0001D490F4809F03EF81A4BD3ED007A9FEDC2
:1047E0001B7AF4EEC77AF1EE10FA31D5104B0022A5
:1047F00002924CF2186201925A6800921B68044AB5
:10480000BE21642001F03DFC30E000BFB001010892
:10481000B806002028020020B801010890080020F6
:1048200006000020AC080020100800203400010819
:1048300030020020F8070020C401010828080020E9
:10484000CC010108F4070020680101080000704253
:104850008C4B002202924FF4784201925A680092E7
:104860001B68894ABE21642001F00BFC874B9B78B2
:10487000002B00F04183864B9B78012B40F03C835A
:10488000844B01221A70844B0022A3F8442000229A
:104890004FF40071814802F0BBFF7C4B00229A70FC
:1048A0002AE37B4B00225A7000230093D2234FF45B
:1048B000A0721E21002001F03BFA4FF478430093D0
:1048C0001E234FF4A0720021002001F031FA744938
:1048D0006D4808F0BFFF734B4FF6FF7201925A68A4
:1048E00000921B68684A0521692001F017FC6E4997
:1048F000654808F0AFFF634B4FF6FF7201925A68AC
:1049000000921B68604ADC211E2001F007FC674909
:104910005D4808F09FFF634B4FF6FF7201925A68A3
:1049200000921B68584A4621282001F0F7FB604995
:10493000554808F08FFF534B002202924FF6FF724A
:1049400001925A6800921B684F4A6421142001F0BA
:1049500098FB58494C4808F07DFF4A4B00220292D0
:104960004FF6FF7201925A6800921B68464A8221F4
:10497000142001F086FB504BB3F908301A464F491A
:10498000414808F067FF4C4BB3F90830B3F5167F88
:104990001EDB444B002202924FF4784201925A6887
:1049A00000921B68384A6421782001F06AFB444970
:1049B000354808F04FFF3B4B4FF4784201925A685C
:1049C00000921B68304A6421DC2001F0A7FB0DE057
:1049D000344B002202924FF6FF7201925A68009205
:1049E0001B68294A6421782001F04BFB354BB3F951
:1049F00008301A463149244808F02CFF314BB3F9EE
:104A00000830B3F5167F1EDB264B002202924FF4CE
:104A1000784201925A6800921B681B4A82217820D2
:104A200001F02FFB2649184808F014FF1D4B4FF4E6
:104A3000784201925A6800921B68134A8221DC2056
:104A400001F06CFB0DE0174B002202924FF6FF7253
:104A500001925A6800921B680B4A8221782001F06B
:104A600010FB0C4B10221A704FE2084B9B78002B66
:104A700000F04482074B01221A70044B00229A7006
:104A80003CE200BF30020020B80600209008002061
:104A9000AC08002006000020840700200008024027
:104AA000D401010838020020E0010108F0010108EA
:104AB000240001081C000108F80700203400010848
:104AC0003800010810080020994B03225A70002377
:104AD0000093D2234FF4A0721E21002001F028F988
:104AE0004FF4787300931E234FF4A072002100202E
:104AF00001F01EF98F49904808F0ACFE8F4B002260
:104B000001925A6800921B688B4A0521502001F0DF
:104B100005FB8B49884808F09DFE8A4B4FF6FF72D3
:104B200001925A6800921B68834ADC211E2001F022
:104B3000F5FA8549804808F08DFE824B4FF6FF72EA
:104B400001925A6800921B687B4A2321142001F0CD
:104B5000E5FA7E49784808F07DFE7A4B4FF6FF7201
:104B600001925A6800921B68734A6421142001F074
:104B7000D5FA7749704808F06DFE724B40F2FF722B
:104B800001925A6800921B686B4A7D21142001F043
:104B9000C5FA7049684808F05DFE6A4B40F2FF7242
:104BA00001925A6800921B68634A8C21142001F01C
:104BB000B5FA6949604808F04DFE624B40F2FF7259
:104BC00001925A6800921B685B4AA521142001F0EB
:104BD000A5FA6249584808F03DFE5A4B40F2FF7270
:104BE00001925A6800921B68534AB421142001F0C4
:104BF00095FA5B4A5B49504808F02CFE5A4B0F224D
:104C000001925A6800921B684B4AD721872001F015
:104C100085FA564B12221A7077E1454B00225A70E2
:104C2000534B9B78002B00F06B81504B13221A7072
:104C300000224FF400714F4802F0EAFD4C4B002275
:104C40009A705DE13A4B00225A7000230093D22300
:104C50004FF4A0721E21002001F06AF84FF478731F
:104C600000931E234FF4A0720021002001F060F891
:104C70004149314808F0EEFD304B002201925A685C
:104C800000921B682C4A0521642001F047FA3B4939
:104C9000294808F0DFFD2B4B4FF6FF7201925A684E
:104CA00000921B68244A2321192001F037FA344965
:104CB000214808F0CFFD234B4FF6FF7201925A684E
:104CC00000921B681C4A3721192001F027FA2D4950
:104CD000194808F0BFFD244B4FF6FF7201925A6845
:104CE00000921B68144ADC21282001F017FA264B99
:104CF0000093802380225A21142001F07CF8234B5A
:104D00000093802380225A21AA2001F074F8174BC7
:104D100014221A70F9E0164B9B78002B00F0F280F9
:104D2000124B15221A70124B00229A70EAE000BF53
:104D3000AC0800206CFF0008B806002038020020F4
:104D400004020108300200200C020108540201088C
:104D500064020108700201088C020108A002010827
:104D600023052610BC0201082802002006000020AE
:104D70009008002000080240D4020108DC0201086B
:104D8000F0020108080301086081020860010208BE
:104D9000604B03225A7000230093D2234FF4A07279
:104DA0001E21002000F0C4FF4FF4787300931E23EF
:104DB0004FF4A0720021002000F0BAFF5649574876
:104DC00008F048FD564B002201925A6800921B6879
:104DD000524A0521642001F0A1F952494F4808F0D8
:104DE00039FD514B40F2FF7201925A6800921B68E4
:104DF0004A4A23210A2001F091F94A49474808F01C
:104E000029FD494B40F2FF7201925A6800921B68DB
:104E1000424A34210A2001F081F944493F4808F010
:104E200019FD414B4FF6FF7201925A6800921B68C0
:104E30003A4A23214B2001F071F93D49374808F0E7
:104E400009FD394B4FF6FF7201925A6800921B68B8
:104E5000324A34214B2001F061F936492F4808F0DD
:104E6000F9FC314B4FF6FF7201925A6800921B68B1
:104E70002A4ADC21282001F051F92F49274808F05F
:104E8000E9FC2E4B4AF6E57201925A6800921B68C3
:104E9000224A46211E2001F041F9294B009380232C
:104EA00080225A21142000F0A6FF264B00937F2376
:104EB0007E225A21AA2000F09EFF234B16221A7050
:104EC00023E0224B9B78002B1ED01F4B01221A702F
:104ED00000224FF400711E4802F09AFC1B4B002286
:104EE0009A7011E000BF10E000BF0EE000BF0CE0C0
:104EF00000BF0AE000BF08E000BF06E000BF04E01A
:104F000000BF02E000BF00E000BF00BF0C37BD469D
:104F100090BD00BFAC08002020030108B8060020A7
:104F2000380200202C030108280200203803010861
:104F300054030108740301089003010830020020A3
:104F40005C0401085C840108060000209008002031
:104F5000000802400000000080B582B000AF0346A8
:104F6000FB80FB881846FBF7E5FA4FF00002104B78
:104F7000FBF774FC02460B46104619460AA3D3E918
:104F80000023FBF741FB02460B4610461946FBF790
:104F900033FE034607EE903AB0EE670A0837BD4687
:104FA00080BD00BFAFF300806666666666660A4035
:104FB0000000B0400000000080B582B000AF87ED77
:104FC000010A7868FBF7C8FA14A3D3E90023FBF7BA
:104FD00063F902460B461046194612A3D3E9002393
:104FE000FBF73CFC02460B46104619464FF0000208
:104FF000094BFBF753F902460B4610461946FBF7DF
:10500000FBFD034607EE903AB0EE670A0837BD464F
:1050100080BD00BFAFF300800000394052B81E854C
:10502000EB51E83F7B14AE47E17A643F80B500AFB7
:105030001249134808F00EFC1249134808F00AFC04
:105040001249134808F006FC1249134808F002FC04
:105050001249134808F0FEFB1249134808F0FAFB06
:105060001249134808F0F6FB1249134808F0F2FB06
:105070001249134808F0EEFB00BF80BDA8030108E9
:105080005C000020B00301087C000020B803010888
:105090009C000020C0030108BC000020C8030108D8
:1050A000DC000020D0030108FC000020D803010828
:1050B0001C010020E00301083C010020E803010876
:1050C0005C01002080B582B000AF0346FB80FB8806
:1050D000B3F5005F0FD10E4B08221A700C4BFA2269
:1050E0005A800B4B64229A80FDF786FC0222A12194
:1050F0000848FCF79DFAFB88802B05D1064B9B786E
:105100000133DAB2044B9A7000BF0837BD4680BD48
:1051100078080020140600209008002080B582B096
:1051200000AF78607B68074A934206D1064B1B6844
:105130000133054A1360FDF75FFC00BF0837BD4629
:1051400080BD00BF440500207008002080B582B0FB
:1051500000AF786005490648FCF7FAF803490548AE
:10516000FCF7ECF900BF0837BD4680BD840700207E
:10517000E80700201406002080B400AF72B600BF1C
:10518000FEE7000080B582B000AF00237B60104BCB
:105190005B6C0F4A43F4804353640D4B5B6C03F428
:1051A00080437B607B6800233B60094B1B6C084A93
:1051B00043F080531364064B1B6C03F080533B6039
:1051C0003B68072001F036FD00BF0837BD4680BDB3
:1051D0000038024080B58AB000AF786007F1140350
:1051E00000221A605A609A60DA601A617B681B6854
:1051F000214A93423CD100233B61204B1B6B1F4A49
:1052000043F0020313631D4B1B6B03F002033B616E
:105210003B694FF440737B611223BB610023FB6148
:1052200003233B6204237B6207F1140319461448ED
:1052300002F052F90023FB60104B1B6C0F4A43F441
:10524000001313640D4B1B6C03F40013FB60FB682D
:10525000002200211F2001F0F8FC1F2001F011FDA9
:1052600000220021202001F0F0FC202001F009FDA7
:1052700000BF2837BD4680BD0054004000380240C2
:105280000004024080B58AB000AF786007F11403D3
:1052900000221A605A609A60DA601A617B681B68A3
:1052A000194A93422CD100233B61184B1B6C174ABF
:1052B00043F400431364154B1B6C03F400433B6140
:1052C0003B690023FB60114B1B6B104A43F0040346
:1052D00013630E4B1B6B03F00403FB60FB684FF47E
:1052E000E0537B610223BB610023FB6103233B622C
:1052F00006237B6207F114031946054802F0ECF817
:1053000000BF2837BD4680BD003C00400038024049
:105310000008024080B58AB000AF786007F114033E
:1053200000221A605A609A60DA601A617B681B6812
:10533000194A93422BD100233B61184B1B6C174A2F
:1053400043F002031364154B1B6C03F002033B6133
:105350003B690023FB60114B1B6B104A43F00103B8
:1053600013630E4B1B6B03F00103FB60FB68C02350
:105370007B610223BB610023FB6100233B620223AC
:105380007B6207F114031946054802F0A5F800BF37
:105390002837BD4680BD00BF0004004000380240F1
:1053A0000000024080B584B000AF78607B681B6865
:1053B0000E4A934215D10023FB600D4B5B6C0C4AE7
:1053C00043F4003353640A4B5B6C03F40033FB601B
:1053D000FB6800220021192001F037FC192001F0A0
:1053E00050FC00BF1037BD4680BD00BF00440140E7
:1053F0000038024080B58EB000AF786007F124031A
:1054000000221A605A609A60DA601A617B681B6831
:10541000744A934235D100233B62734B5B6C724AF2
:1054200043F010035364704B5B6C03F010033B625A
:105430003B6A0023FB616C4B1B6B6B4A43F001031F
:105440001363694B1B6B03F00103FB61FB694FF4B2
:10545000C0637B620223BB620023FB6203233B63C6
:1054600007237B6307F124031946604802F034F8F0
:1054700000220021252001F0E8FB252001F001FC9D
:10548000ABE07B681B685A4A93422CD10023BB6176
:10549000554B1B6C544A43F400331364524B1B6C42
:1054A00003F40033BB61BB6900237B614E4B1B6B74
:1054B0004D4A43F0010313634B4B1B6B03F0010395
:1054C0007B617B690C237B620223BB620023FB624E
:1054D00003233B6307237B6307F1240319464348F7
:1054E00001F0FAFF79E07B681B68424A934274D16D
:1054F00000233B613C4B5B6C3B4A43F0200353640D
:10550000394B5B6C03F020033B613B690023FB607C
:10551000354B1B6B344A43F001031363324B1B6B57
:1055200003F00103FB60FB684FF400637B6202231E
:10553000BB620023FB6203233B6308237B6307F109
:1055400024031946294801F0C7FF4FF480537B62BA
:105550000223BB620123FB6203233B6308237B63BB
:1055600007F124031946214801F0B6FF224B234AD4
:105570001A60214B4FF020625A601F4B00229A6044
:105580001D4B0022DA601C4B4FF480621A611A4BEB
:1055900000225A61184B00229A61174B4FF4807217
:1055A000DA61154B00221A62134B00225A6212482C
:1055B00001F082FB0346002B01D0FFF7DDFD7B6885
:1055C0000D4A9A630C4A7B689363002200214720AE
:1055D00001F03BFB472001F054FB00BF3837BD46CC
:1055E00080BD00BF001001400038024000000240B2
:1055F0000044004000140140580600202864024086
:1056000080B400AFFEE780B400AFFEE780B400AF27
:10561000FEE780B400AFFEE780B400AFFEE780B4E1
:1056200000AF00BFBD465DF8047B704780B400AF9B
:1056300000BFBD465DF8047B704780B400AF00BF7B
:10564000BD465DF8047B704780B500AF01F0DEF920
:1056500000BF80BD80B500AF802002F00DF900BF13
:1056600080BD000080B500AF024805F05AFF00BFC2
:1056700080BD00BF4405002080B500AF024802F0A5
:1056800077FD00BF80BD00BF5004002080B500AF93
:10569000024802F0DEFE00BF80BD00BF50040020C3
:1056A00080B500AF024806F047FB00BF80BD00BFD9
:1056B0008C05002080B500AF4FF4005002F0DCF8FC
:1056C00000BF80BD80B500AF024801F08DFC00BF77
:1056D00080BD00BF5806002080B500AF024806F02C
:1056E0002BFB00BF80BD00BF1406002080B400AFBC
:1056F00001231846BD465DF8047B704780B582B033
:1057000000AF7860396007F009FC034616221A6082
:105710004FF0FF3318460837BD4680BD80B582B0D4
:1057200000AF78604FF0FF317868FFF7E7FFFEE7E2
:1057300080B586B000AFF860B9607A6000237B6105
:105740000AE0AFF300800146BB685A1CBA60CAB2D7
:105750001A707B6901337B617A697B689A42F0DB5E
:105760007B6818461837BD4680BD80B586B000AF4F
:10577000F860B9607A6000237B6109E0BB685A1C5D
:10578000BA601B781846AFF300807B6901337B61F8
:105790007A697B689A42F1DB7B6818461837BD4608
:1057A00080BD80B483B000AF78604FF0FF331846FF
:1057B0000C37BD465DF8047B704780B483B000AF02
:1057C000786039603B684FF400525A6000231846F5
:1057D0000C37BD465DF8047B704780B483B000AFE2
:1057E0007860012318460C37BD465DF8047B70478E
:1057F00080B485B000AFF860B9607A6000231846C5
:105800001437BD465DF8047B7047000080B586B054
:1058100000AF7860144A154BD31A7B617B693B61FA
:10582000134B1B68002B02D1114B124A1A60104B0C
:105830001A687B6813443A699A4207D207F06EFBF4
:1058400003460C221A604FF0FF3309E0084B1B6837
:10585000FB60074B1A687B681344054A1360FB68BA
:1058600018461837BD4680BD000002200004000025
:10587000B8080020D808002080B400AF064BD3F849
:105880008830054A43F47003C2F8883000BFBD4633
:105890005DF8047B704700BF00ED00E080B500AF0D
:1058A000012000F0FEFE112000F082FF00BF80BD4D
:1058B00080B400AF4FF4A0731846BD465DF8047B7A
:1058C000704780B400AFF0231846BD465DF8047BF6
:1058D0007047000080B582B002AF524B1B7803F0D6
:1058E0000103002B15D14F4B1B7843F00103DAB2B3
:1058F0004C4B1A704B4B1B7803F00203002B01D169
:1059000000F0DAFE474B1B7843F00203DAB2454B56
:105910001A700A2000F0BAFE012000F049FF0A20A8
:1059200000F0B4FE03224049EF2000F0AFFF032255
:105930003E49CF2000F0AAFF04223D49ED2000F0AF
:10594000A5FF03223B49E82000F0A0FF05223A49C9
:10595000CB2000F09BFF01223849F72000F096FF92
:1059600002223749EA2000F091FF01223549C02088
:1059700000F08CFF01223449C12000F087FF022291
:105980003249C52000F082FF01223149C72000F0D2
:105990007DFF01222F49372000F078FF01222E4998
:1059A0003A2000F073FF02222C49B12000F06EFF74
:1059B00003222B49B62000F069FF01222549F2207D
:1059C00000F064FF01222749262000F05FFF0F222C
:1059D0002549E02000F05AFF0F222449E12000F081
:1059E00055FF362000F0E4FE282000F0FFFE1120D5
:1059F00000F0DEFE0A2000F049FE00230093F023B1
:105A00004FF4A0720021002000F092F90A2000F06B
:105A10003DFE292000F0CCFE0A2000F037FE00BF3A
:105A2000BD4680BDBC080020F0030108F403010856
:105A3000F803010800040108040401080C0401082B
:105A40001004010814040108180401081C040108CA
:105A50002004010824040108280401082C0401087A
:105A6000300401083404010838040108480401081E
:105A700080B582B000AF0346FB800B46BB80134667
:105A80007B802A2000F094FEFB881B0A9BB2DBB2CD
:105A9000184600F0ABFEFB88DBB2184600F0A6FE0D
:105AA000FB881B0A9BB2DBB2184600F09FFEFB8806
:105AB000DBB2184600F09AFE2B2000F079FEBB887E
:105AC0001B0A9BB2DBB2184600F090FEBB88DBB22B
:105AD000184600F08BFEBB881B0A9BB2DBB218464F
