:020000040800F2
:10000000000002200D680008F9540008FF540008A1
:10001000055500080B5500081155000800000000A8
:10002000000000000000000000000000175500085C
:100030002555000800000000335500084155000810
:100040005D6800085D6800085D6800085D6800087C
:100050005D6800085D6800085D6800085D6800086C
:100060005D6800085D6800085D6800085D6800085C
:100070005D6800085D6800085D6800085D6800084C
:100080005D6800085D6800085D6800080000000009
:100090000000000000000000000000004D550008B6
:1000A0005D6800085D5500085D6800085D6800082F
:1000B0005D6800085D6800085D680008715500080B
:1000C000855500085D6800085D6800085D680008E7
:1000D0005D680008995500085D6800080000000090
:1000E000AD5500085D6800085D680008000000006C
:1000F0000000000000000000000000005D68000833
:10010000000000005D6800085D6800085D68000888
:1001100000000000000000000000000000000000DF
:100120005D680008BD5500085D6800085D6800084E
:100130005D680008000000000000000000000000F2
:100140000000000000000000000000005D680008E2
:100150005D6800085D6800085D680008D15500080A
:100160005D6800085D6800080000000000000000F5
:10017000000000000000000000000000000000007F
:10018000000000005D6800080000000000000000A2
:080190005D6800085D680008CD
:1001A00010B5054C237833B9044B13B10448AFF3B1
:1001B00000800123237010BD2004002000000000F7
:1001C00048FD000808B5034B1BB103490348AFF3D2
:1001D000008008BD000000002404002048FD000845
:1001E000034613F8012B002AFBD1181A0138704777
:1001F00001F0FF01102A2BDB10F0070F08D010F8D8
:10020000013B013A8B422DD010F0070F42B3F6D1DB
:10021000F0B441EA012141EA014122F007047FF0F4
:1002200000070023F0E80256083C85EA010586EA4B
:10023000010685FA47F5A3FA87F586FA47F6A5FA87
:1002400087F68EB9EED1F0BC01F0FF0102F0070293
:1002500032B110F8013B013A83EA010313B1F8D13E
:100260000020704701387047002D06BF354603381F
:10027000073815F0010F07D1013015F4807F02BF58
:10028000013015F4C03F0130F0BC0138704700BFA9
:1002900081F0004102E000BF83F0004330B54FEA37
:1002A00041044FEA430594EA050F08BF90EA020FA4
:1002B0001FBF54EA000C55EA020C7FEA645C7FEA37
:1002C000655C00F0E2804FEA5454D4EB5555B8BF5A
:1002D0006D420CDD2C4480EA020281EA030382EACB
:1002E000000083EA010180EA020281EA0303362D5D
:1002F00088BF30BD11F0004F4FEA01314FF4801C30
:100300004CEA113102D0404261EB410113F0004F41
:100310004FEA03334CEA133302D0524263EB4303F8
:1003200094EA050F00F0A780A4F10104D5F1200E96
:100330000DDB02FA0EFC22FA05F2801841F10001F1
:1003400003FA0EF2801843FA05F359410EE0A5F1C5
:1003500020050EF1200E012A03FA0EFC28BF4CF0F6
:10036000020C43FA05F3C01851EBE37101F00045AC
:1003700007D54FF0000EDCF1000C7EEB00006EEBB9
:100380000101B1F5801F1BD3B1F5001F0CD3490843
:100390005FEA30004FEA3C0C04F101044FEA44529A
:1003A00012F5800F80F09A80BCF1004F08BF5FEA21
:1003B000500C50F1000041EB045141EA050130BD01
:1003C0005FEA4C0C404141EB0101013C28BFB1F513
:1003D000801FE9D291F0000F04BF01460020B1FA5E
:1003E00081F308BF2033A3F10B03B3F120020CDA31
:1003F0000C3208DD02F1140CC2F10C0201FA0CF00F
:1004000021FA02F10CE002F11402D8BFC2F1200C73
:1004100001FA02F120FA0CFCDCBF41EA0C01904029
:10042000E41AA2BF01EB0451294330BD6FEA040472
:100430001F3C1CDA0C340EDC04F11404C4F120025D
:1004400020FA04F001FA02F340EA030021FA04F36F
:1004500045EA030130BDC4F10C04C4F1200220FAC6
:1004600002F001FA04F340EA0300294630BD21FA04
:1004700004F0294630BD94F0000F83F4801306BFCA
:1004800081F480110134013D4EE77FEA645C18BFBE
:100490007FEA655C29D094EA050F08BF90EA020F55
:1004A00005D054EA000C04BF1946104630BD91EA4D
:1004B000030F1EBF0021002030BD5FEA545C05D150
:1004C0004000494128BF41F0004130BD14F580048F
:1004D0003CBF01F5801130BD01F0004545F0FE4103
:1004E00041F470014FF0000030BD7FEA645C1ABF38
:1004F000194610467FEA655C1CBF0B46024650EA6F
:10050000013406BF52EA033591EA030F41F400219A
:1005100030BD00BF90F0000F04BF0021704730B520
:100520004FF4806404F132044FF000054FF00001F5
:1005300050E700BF90F0000F04BF0021704730B5B6
:100540004FF4806404F1320410F0004548BF40428B
:100550004FF000013EE700BF42004FEAE2014FEAE0
:1005600031014FEA02701FBF12F07F4393F07F4FBB
:1005700081F06051704732F07F4208BF704793F0BE
:100580007F4F04BF41F40021704730B54FF46074D1
:1005900001F0004521F000411CE700BF50EA0102D4
:1005A00008BF704730B54FF000050AE050EA01027D
:1005B00008BF704730B511F0004502D5404261EBED
:1005C00041014FF4806404F132045FEA915C3FF42E
:1005D000D8AE4FF003025FEADC0C18BF03325FEACB
:1005E000DC0C18BF033202EBDC02C2F1200300FA7C
:1005F00003FC20FA02F001FA03FE40EA0E0021FAA1
:1006000002F11444BDE600BF70B54FF0FF0C4CF48E
:10061000E06C1CEA11541DBF1CEA135594EA0C0F40
:1006200095EA0C0F00F0DEF82C4481EA030621EA7B
:100630004C5123EA4C5350EA013518BF52EA0335B6
:1006400041F4801143F4801338D0A0FB02CE4FF068
:100650000005E1FB02E506F00042E0FB03E54FF098
:100660000006E1FB03569CF0000F18BF4EF0010E90
:10067000A4F1FF04B6F5007F64F5407404D25FEA8C
:100680004E0E6D4146EB060642EAC62141EA55513F
:100690004FEAC52040EA5E504FEACE2EB4F1FD0C81
:1006A00088BFBCF5E06F1ED8BEF1004F08BF5FEAFF
:1006B000500E50F1000041EB045170BD06F00046B1
:1006C00046EA010140EA020081EA0301B4EB5C045E
:1006D000C2BFD4EB0C0541EA045170BD41F4801156
:1006E0004FF0000E013C00F3AB8014F1360FDEBF7B
:1006F000002001F0004170BDC4F10004203C35DA57
:100700000C341BDC04F11404C4F1200500FA05F3D9
:1007100020FA04F001FA05F240EA020001F000427A
:1007200021F0004110EBD37021FA04F642EB0601F0
:100730005EEA430E08BF20EAD37070BDC4F10C041A
:10074000C4F1200500FA04F320FA05F001FA04F2DE
:1007500040EA020001F0004110EBD37041F10001CA
:100760005EEA430E08BF20EAD37070BDC4F12005D5
:1007700000FA05F24EEA020E20FA04F301FA05F23D
:1007800043EA020321FA04F001F0004121FA04F2E5
:1007900020EA020000EBD3705EEA430E08BF20EAB5
:1007A000D37070BD94F0000F0FD101F000464000EF
:1007B00041EB010111F4801F08BF013CF7D041EA71
:1007C000060195F0000F18BF704703F00046520075
:1007D00043EB030313F4801F08BF013DF7D043EA46
:1007E0000603704794EA0C0F0CEA135518BF95EAFC
:1007F0000C0F0CD050EA410618BF52EA4306D1D183
:1008000081EA030101F000414FF0000070BD50EAA1
:10081000410606BF1046194652EA430619D094EA2B
:100820000C0F02D150EA013613D195EA0C0F05D115
:1008300052EA03361CBF104619460AD181EA030169
:1008400001F0004141F0FE4141F470014FF0000021
:1008500070BD41F0FE4141F4780170BD70B54FF0BC
:10086000FF0C4CF4E06C1CEA11541DBF1CEA13553C
:1008700094EA0C0F95EA0C0F00F0A7F8A4EB05041E
:1008800081EA030E52EA03354FEA013100F0888015
:100890004FEA03334FF0805545EA131343EA1263DE
:1008A0004FEA022245EA111545EA10654FEA002693
:1008B0000EF000419D4208BF964244F1FD0404F54C
:1008C000407402D25B084FEA3202B61A65EB0305A8
:1008D0005B084FEA32024FF480104FF4002CB6EB65
:1008E000020E75EB030E22BFB61A754640EA0C00E5
:1008F0005B084FEA3202B6EB020E75EB030E22BF25
:10090000B61A754640EA5C005B084FEA3202B6EB65
:10091000020E75EB030E22BFB61A754640EA9C0024
:100920005B084FEA3202B6EB020E75EB030E22BFF4
:10093000B61A754640EADC0055EA060E18D04FEAB2
:10094000051545EA16754FEA06164FEAC30343EA52
:1009500052734FEAC2025FEA1C1CC0D111F4801F1F
:100960000BD141EA00014FF000004FF0004CB6E718
:1009700011F4801F04BF01430020B4F1FD0C88BFB7
:10098000BCF5E06F3FF6AFAEB5EB030C04BFB6EBC2
:10099000020C5FEA500C50F1000041EB045170BDB5
:1009A0000EF0004E4EEA113114EB5C04C2BFD4EBE2
:1009B0000C0541EA045170BD41F480114FF0000E66
:1009C000013C90E645EA060E8DE60CEA135594EAE2
:1009D0000C0F08BF95EA0C0F3FF43BAF94EA0C0FE5
:1009E0000AD150EA01347FF434AF95EA0C0F7FF45A
:1009F00025AF104619462CE795EA0C0F06D152EAAE
:100A000003353FF4FDAE1046194622E750EA410691
:100A100018BF52EA43067FF4C5AE50EA41047FF4A2
:100A20000DAF52EA43057FF4EBAE12E74FF0FF3C07
:100A300006E000BF4FF0010C02E000BF4FF0010CD8
:100A40004DF804CD4FEA410C7FEA6C5C4FEA430C51
:100A500018BF7FEA6C5C1BD001B050EA410C0CBFA0
:100A600052EA430C91EA030F02BF90EA020F002002
:100A7000704710F1000F91EA030F58BF994208BF69
:100A800090422CBFD8176FEAE37040F00100704726
:100A90004FEA410C7FEA6C5C02D150EA013C07D17D
:100AA0004FEA430C7FEA6C5CD6D152EA033CD3D0C8
:100AB0005DF8040B704700BF8446104662468C46C2
:100AC0001946634600E000BF01B5FFF7B7FF0028F5
:100AD00048BF10F1000F01BD4DF808EDFFF7F4FF1E
:100AE0000CBF012000205DF808FB00BF4DF808EDA9
:100AF000FFF7EAFF34BF012000205DF808FB00BFCC
:100B00004DF808EDFFF7E0FF94BF012000205DF8ED
:100B100008FB00BF4DF808EDFFF7CEFF94BF0120A2
:100B200000205DF808FB00BF4DF808EDFFF7C4FF9B
:100B300034BF012000205DF808FB00BF4FEA410CE4
:100B40007FEA6C5C02D150EA013C0AD14FEA430CC7
:100B50007FEA6C5C02D152EA033C02D14FF0000004
:100B600070474FF0010070474FEA410212F5001242
:100B700015D211D56FF47873B3EB625212D94FEAE4
:100B8000C12343F0004343EA505311F0004F23FACE
:100B900002F018BF404270474FF00000704750EA23
:100BA000013005D111F0004008BF6FF000407047E0
:100BB0004FF00000704700BF4A0011D212F500123A
:100BC00011D20DD56FF47873B3EB62520ED44FEAA5
:100BD000C12343F0004343EA505323FA02F0704725
:100BE0004FF00000704750EA013002D14FF0FF3063
:100BF00070474FF0000070474FEA4102B2F1E04306
:100C000024BFB3F5001CDCF1FE5C0DD901F0004CF3
:100C10004FEAC0024CEA5070B2F1004F40EB830043
:100C200008BF20F00100704711F0804F21D113F16F
:100C30003872BCBF01F00040704741F480114FEAA8
:100C40005252C2F11802C2F1200C10FA0CF320FA31
:100C500002F018BF40F001004FEAC1234FEAD3234E
:100C600003FA0CFC40EA0C0023FA02F34FEA4303B8
:100C7000CCE77FEA625307D150EA01331EBF4FF041
:100C8000FE4040F44000704701F0004040F0FE405C
:100C900040F40000704700BF53B94AB9002908BFAB
:100CA00000281CBF4FF0FF314FF0FF3000F074B947
:100CB000ADF1080C6DE904CE00F006F8DDF804E0B3
:100CC000DDE9022304B070472DE9F047089D044692
:100CD0008E46002B4DD18A42944669D9B2FA82F2EF
:100CE00052B101FA02F3C2F1200120FA01F10CFA2B
:100CF00002FC41EA030E94404FEA1C48210CBEFB63
:100D0000F8F61FFA8CF708FB16E341EA034306FBEB
:100D100007F199420AD91CEB030306F1FF3080F07A
:100D20001F81994240F21C81023E63445B1AA4B2C7
:100D3000B3FBF8F008FB103344EA034400FB07F769
:100D4000A7420AD91CEB040400F1FF3380F00A81AA
:100D5000A74240F207816444023840EA0640E41B9F
:100D600000261DB1D4400023C5E900433146BDE84B
:100D7000F0878B4209D9002D00F0EF800026C5E9ED
:100D8000000130463146BDE8F087B3FA83F6002E05
:100D90004AD18B4202D3824200F2F980841A61EB7D
:100DA000030301209E46002DE0D0C5E9004EDDE79B
:100DB00002B9FFDEB2FA82F2002A40F09280A1EB83
:100DC0000C014FEA1C471FFA8CFE0126200CB1FBD8
:100DD000F7F307FB131140EA01410EFB03F08842D1
:100DE00008D91CEB010103F1FF3802D2884200F25E
:100DF000CB804346091AA4B2B1FBF7F007FB1011F0
:100E000044EA01440EFB00FEA64508D91CEB04048D
:100E100000F1FF3102D2A64500F2BB800846A4EBE8
:100E20000E0440EA03409CE7C6F12007B34022FAD3
:100E300007FC4CEA030C20FA07F401FA06F31C4302
:100E4000F9404FEA1C4900FA06F3B1FBF9F8200C0F
:100E50001FFA8CFE09FB181140EA014108FB0EF055
:100E6000884202FA06F20BD91CEB010108F1FF3AA5
:100E700080F08880884240F28580A8F102086144B1
:100E8000091AA4B2B1FBF9F009FB101144EA0141BF
:100E900000FB0EFE8E4508D91CEB010100F1FF346A
:100EA0006CD28E456AD90238614440EA0840A0FB02
:100EB0000294A1EB0E01A142C846A64656D353D0D8
:100EC0005DB1B3EB080261EB0E0101FA07F722FAFC
:100ED00006F3F1401F43C5E9007100263146BDE825
:100EE000F087C2F12003D8400CFA02FC21FA03F388
:100EF000914001434FEA1C471FFA8CFEB3FBF7F009
:100F000007FB10360B0C43EA064300FB0EF69E422D
:100F100004FA02F408D91CEB030300F1FF382FD2C6
:100F20009E422DD9023863449B1B89B2B3FBF7F66E
:100F300007FB163341EA034106FB0EF38B4208D947
:100F40001CEB010106F1FF3816D28B4214D9023E88
:100F50006144C91A46EA004638E72E46284605E7A6
:100F60000646E3E61846F8E64B45A9D2B9EB020877
:100F700064EB0C0E0138A3E74646EAE7204694E707
:100F80004046D1E7D0467BE7023B614432E730463A
:100F900009E76444023842E7704700BF00000000E0
:100FA00080B58AB004AF78600B46FB70524A537824
:100FB0006FF3C7135370504A537843F020035370B4
:100FC0004D4A5378022161F3C40353704A4A13888F
:100FD000032161F3CA131380474A1378032161F395
:100FE000C6031370444A137843F007031370424B4F
:100FF0005B783B75404B1B787B75FB7899B20A2375
:1010000002930223019307F11403009301230022AA
:10101000786806F009FD394B1B681846FFF79CFA03
:101020002DA3D3E90023FFF7EFFA02460B462CA1CC
:10103000D1E90001FFF712FC02460B4643EC172BE7
:10104000B0EE470AF0EE670A0EF00AFE53EC102BE2
:1010500010461946FFF7B0FD03469BB23B823B8A20
:101060001846FFF767FA20A3D3E90023FFF7CCFA6D
:1010700002460B46104619461DA3D3E90023FFF78D
:10108000EDFB02460B4643EC172BB0EE470AF0EEA1
:10109000670A0EF0E5FD53EC102B10461946FFF7DA
:1010A0008BFD03469BB23B827B7C3B733B7C7B731B
:1010B000FB7899B20A2302930223019307F10C03F0
:1010C000009301230522786806F0AEFC00BF1837B4
:1010D000BD4680BDAFF300809A9999999999B93F1F
:1010E000F168E388B5F8A43F9A9999999999E93FED
:1010F0009A99999999990540400400200000002090
:1011000080B586B004AF78600B46FB700E4B0022B2
:101110001A60FB7899B20A230293022301930B4BC6
:10112000009301230222786806F078FD064B5A8866
:10113000054B1B8813439BB2DB089BB29B009BB201
:1011400018460837BD4680BD3C0400203D04002001
:1011500080B586B004AF78600B46FB700C4B002264
:101160001A60FB7899B20A23029302230193094B78
:10117000009301230422786806F050FD044B5A883E
:10118000034B1B8813439BB218460837BD4680BDEE
:101190003C0400203D04002080B588B004AF786096
:1011A0000B46FB70174B00221A60FB7899B20A239A
:1011B000029302230193144B0093012301227868C8
:1011C00006F02CFD0F4B5A880E4B1B8813439BB225
:1011D000FB81B7F90E301846FFF7ACF94FF000026B
:1011E0000A4BFFF73BFB02460B4610461946FFF73A
:1011F00003FD034607EE903AB0EE670A1037BD468E
:1012000080BD00BF3C0400203D0400200000594088
:10121000B0B586B004AF78600B46FB701E4B002261
:101220001A60FB7899B20A230293022301931B4BA5
:10123000009301230322786806F0F0FC164B5A88CD
:10124000154B1B8813439BB21846FFF773F90446EE
:101250000D46134B1B681846FFF77EF90CA3D3E924
:101260000023FFF7D1F902460B4620462946FFF737
:10127000CBF902460B4610461946FFF7BDFC034664
:1012800007EE903AB0EE670A0837BD46B0BD00BF22
:10129000000000000088D3403C0400203D040020F2
:1012A0000000002080B586B002AF78600B46FB706E
:1012B000FB789B08DBB23B73FB789B01DBB27B7353
:1012C00000220421104806F01FFA07F1080207F176
:1012D0000C01642300930323786809F01CFC0122AD
:1012E0000421094806F010FA7B7A9BB21B029AB2DD
:1012F000BB7A9BB213449BB2C3F30B039BB2184659
:101300001037BD4680BD00BF000C02400000000049
:1013100080B582B000AF0346FB80FB881846FFF71C
:1013200009F909A3D3E90023FFF76EF902460B463A
:1013300010461946FFF760FC034607EE903AB0EE00
:10134000670A0837BD4680BD05C078060DFD533FCE
:1013500090B484B000AF786039600023BB81744BD7
:101360001B781A467B6813441B78562B40F0C580C7
:101370006F4B1B7801337A6813441B78522B40F073
:10138000BC806B4B1B7802337A6813441B78542B58
:1013900040F0B380002409E0654B1B7823440333FD
:1013A0007A6813441A78634B1A550134062CF3DD1E
:1013B000002406E03A7B5F4B1B5D1344DBB23B73BA
:1013C0000134042CF6DD3B7BDB43DBB27B737A7BA1
:1013D000584B5B799A4240F08E80554B1B781A46E9
:1013E0007B681344FF221A70514B1B780933DAB221
:1013F0004F4B1A704E4B1A784F4BA3FB02135908F0
:101400000B46DB000B44D31ADAB2494B1A70494B36
:101410005B783B72474B9B787B72464BDB78BB72A9
:10142000444B1B79FB72434B1B78202B08D8414B54
:101430001B781946BA683B6843F82120912372E073
:101440003C4B1B788F2B6CD93A4B1B78913B132B61
:101450002AD801A252F823F0AD140008B1140008F4
:10146000B5140008B9140008A9140008A91400084C
:10147000A9140008A9140008A9140008A914000858
:10148000A9140008A9140008A9140008A914000848
:10149000A9140008BD140008C7140008D3140008DC
:1014A000DF140008EB14000890233CE091233AE09D
:1014B000922338E0932336E0942334E0BA683B6803
:1014C0001A6091232FE03A7A3B6883F84C209123ED
:1014D00029E03B68FF2283F84D20A22323E03A7ADB
:1014E0003B6883F84E20A3231DE03A7A3B6883F8DB
:1014F0004F20A42317E0932315E00D4B1B780933ED
:10150000DAB20B4B1A700A4B1A780B4BA3FB02137F
:1015100059080B46DB000B44D31ADAB2044B1A709D
:1015200000E000BF902318461037BD4690BC7047BE
:101530004204002044040020398EE33880B584B092
:1015400000AF786039603B685B88002B11D03B6846
:101550001B88FB73FA7B3B6853F82220FB7B194600
:10156000786800F00BF83B6800221A803B68002284
:101570005A80912318461037BD4680BD90B58BB078
:1015800000AFF8600B467A60FB7207F1140300228B
:101590001A605A609A60DA6056233B7552237B7555
:1015A0005423BB75FB7AFB75042387F8273000238F
:1015B00087F826307B683B6104240FE0231F283323
:1015C0003B4413F8182C04F128033B4403F8142C73
:1015D00097F82730013387F827300134072CEDDDE9
:1015E00003240AE004F128033B4413F8142C97F871
:1015F0002630134487F826300134072CF2DD97F8A3
:10160000273097F82620D243D2B228333B4403F840
:10161000142C97F827309BB201339AB207F11401CA
:101620003223F8680AF09FF900BF2C37BD4690BD01
:1016300090B589B000AF78600B46FB701346BB7065
:1016400007F10C0300221A605A609A60DA60562390
:101650003B7352237B735423BB73FB78FB73BB78C0
:101660003B74FF23BB74AA23FB740023FB77032482
:1016700008E004F120033B4413F8142CFB7F1344CF
:10168000FB770134072CF4DDFB7FDB43DBB23B75DA
:1016900007F10C011E23092278680AF064F900BFE3
:1016A0002437BD4690BD000080B584B000AF78609F
:1016B0007F23FB7301224FF48071114806F024F858
:1016C000012240210F4806F01FF8142005F03AF9D6
:1016D000002240210B4806F017F8552005F032F99A
:1016E00007F10F010A23012278680AF03CF914215E
:1016F000786800F099F900BF1037BD4680BD00BF83
:10170000000002400008024080B500AF642005F0F0
:1017100019F900224FF48071084805F0F5FF012205
:101720004021074805F0F0FF142005F00BF90022D6
:101730004021034805F0E8FF00BF80BD00000240E3
:101740000008024090B5CBB000AF07F59474A4F543
:101750008E74206007F59470A0F5907001601146BA
:1017600007F59472A2F59472136007F59473A3F2CF
:1017700021130A461A704CF63163A7F8243100236E
:1017800087F827310023A7F820310023C7F8183144
:10179000002387F81C3107F59473A3F58A730022A0
:1017A0001A6004334FF48072002118460BF05CFB82
:1017B00007F59473A3F590731B68774A934209D990
:1017C00007F59473A3F590731B68B3F1005F01D222
:1017D000BC23DCE007F59473A3F58C7307F59472D2
:1017E000A2F5907212681A6007F59473A3F58C73D2
:1017F000DB7887F8183107F59473A3F58C739B7821
:1018000087F8193107F59473A3F58C735B7887F823
:101810001A3107F59473A3F58C731B7887F81B3185
:1018200097F8182197F819315340DAB297F81A311E
:101830005340DAB297F81B315340DBB287F81C31C2
:1018400007F59473A3F221131B7887F8203107F56D
:101850009473A3F58A7307F59472A2F22112127899
:101860001A7007F59473A3F221131B7887F82131BE
:1018700000241CE097F82121214607F59473A3F575
:1018800094731B680B441B785340DBB287F82131FB
:10189000224607F59473A3F594731B681A44631CDE
:1018A000117807F59472A2F58A72D154013407F5C4
:1018B0009473A3F221131B789C42DBDD07F594732C
:1018C000A3F221131B78023397F8211107F59472C4
:1018D000A2F58A72D15407F5927107F59473A3F5B6
:1018E0008E700A23022200680AF03DF807F594730F
:1018F000A3F58E730A21186800F096F8034687F85E
:10190000273197F82731792B40D107F58C7107F5EE
:101910009473A3F58E700F23052200680AF023F854
:1019200007F59473A3F58E730A21186800F07CF80C
:10193000034687F8273197F82731792B24D107F50B
:101940009473A3F221131B789BB203339AB207F16D
:10195000140107F59473A3F58E70642300680AF0F0
:1019600002F807F59473A3F58E730A21186800F046
:101970005BF8034687F8273197F82731792B01D197
:10198000792304E01F2302E01F2300E01F231846F1
:1019900007F59677BD4690BDFFFFFE1F80B586B068
:1019A00000AF78600B467B804BF64433BB8200234C
:1019B000FB751C4B1B883B820023BB747B88BB815F
:1019C0007B7B3B743B7B7B743A7B7B7B5340DBB202
:1019D000BB7407F114010A230222786809F0C3FFDF
:1019E0000A21786800F020F80346FB75FB7D792B0F
:1019F00013D107F110010F230322786809F0B3FF18
:101A00001421786800F010F80346FB75FB7D792BF4
:101A100001D1792302E01F2300E01F231846183765
:101A2000BD4680BD60FD000880B586B000AF78601F
:101A30000B467B800123FB750023FB7304F076FFCC
:101A400002467B8813443B6118E007F10F01022333
:101A5000012278680AF019F8FB7B792B01D17923F0
:101A600010E0FB7B1F2B01D11F230BE004F05EFF76
:101A700002463B69934201D8AB2303E0FB7D002B78
:101A8000E3D11F2318461837BD4680BD2DE9B04F5E
:101A90009AB000AF04F0E4FE00F03CFA00F01EFC47
:101AA00000F0FCFB00F0A6FB00F09CFA00F0CCFB81
:101AB00000F0C6FA00F04EFB00F070FB00F0F6FA02
:101AC0007B4809F0E5FA04217A4809F018FC7A4AC3
:101AD0004FF400435362784B5B6A9BB2774A1380A2
:101AE000774A01231370764AFA235380744A642399
:101AF0009380734A00239360724A00231370714AE3
:101B0000012353706F4A002393706F4A0023537070
:101B10006D4A002313706D4A002393706B4A0023B3
:101B200053706A4A0023137000224021684805F070
:101B3000EBFD03F04BFE03F02DFE80216548FFF71F
:101B40002FFA88216348FFF72BFA634B07F12C0526
:101B50001C460FCC0FC50FCC0FC50FCC0FC594E89A
:101B6000070085E8070007F12C031846FEF738FB4D
:101B700003469AB207F12C010A23584809F0F3FEF4
:101B80000922574957480AF022F800F055FD04F0A1
:101B9000CDFE034600229A469346534BD3E90023D9
:101BA00092457BEB0303C0F0A5804F4BD3E90023A4
:101BB00012F11401396243F100037B624A4BD7E909
:101BC0000812C3E9001200F0A5FD484B1B78012B59
:101BD00045D03E4B1B78002B0BD03A4B9B78013302
:101BE000DBB2384A9370394A002313703F4A01230D
:101BF0001370364B5B78002B1DD0324B9B78002B3B
:101C00000DD1304B5B781946394A2A2301FB03F387
:101C100013441B78013BDBB22A4A937005E0294B41
:101C20009B78013BDBB2274A9370284A002353700C
:101C30002E4A01231370234B9878224B5B78194668
:101C40002B4A2A2301FB03F313441A78B0FBF2F367
:101C500002FB03F3C31ADBB21A4A93704BE0194B31
:101C60005B781846174B9B781C4621490246520068
:101C70000244D3009B1A23445B000B445D88114B44
:101C80005B7819460F4B9B781C4619480A46520050
:101C90000A44D3009B1A234408335B000344DB88C7
:101CA0001946284600F028FC104A0023137022E051
:101CB00044050020FC040020000400408C080020A3
:101CC00078080020AC08002094080020900800202C
:101CD000000802405004002064FD0008D0050020E8
:101CE000E80700201406002068080020A80800204B
:101CF0007C01002000BF04F019FE03460022BB61F6
:101D0000FA61784BD3E90023D7E906452146914291
:101D1000294671EB030313D3724BD3E9002312F569
:101D2000FA71396143F100037B616E4BD7E904120C
:101D3000C3E9001220216C4805F0FFFC00F050FFC1
:101D400004F0F4FD03460022BB60FA60674BD3E960
:101D5000002312F17D0843F10009D7E902120B4676
:101D60004345134673EB0903FFF40FAF04F0DEFDA8
:101D7000034600223B607A605C4BD7E90012C3E95E
:101D800000125B4B1B780C2B03D0594B1B780E2B8E
:101D900004D11122A0215748FFF74AFC8021564860
:101DA000FFF7AEF90346554A138280215248FFF7E8
:101DB000CFF903461BB2514A138180214E48FFF7E9
:101DC00027FAF0EE407A4D4BC3ED037A80214A4862
:101DD000FFF7E2F9F0EE407A484BC3ED017A882133
:101DE0004548FFF78DF90346454A1382882142484A
:101DF000FFF7AEF903461BB2414A138188213E48E2
:101E0000FFF706FAF0EE407A3D4BC3ED037A8821E6
:101E10003948FFF7C1F9F0EE407A394BC3ED017A4A
:101E200018213848FFF73EFA0346374A1380192134
:101E30003448FFF737FA0346334A53801A213148B2
:101E4000FFF730FA0346304A93801B212D48FFF7F5
:101E500029FA03462C4AD3801C212A48FFF722FA8C
:101E60000346294A13811D212648FFF71BFA034622
:101E7000254A53811E212348FFF714FA0346224ABC
:101E800093811F211F48FFF70DFA03461E4AD38195
:101E900000240EE01C4B33F814301846FFF738FAD4
:101EA000F0EE407A184A231D9B001344C3ED007ADC
:101EB0000134072CEEDD154BB3F84430184602F020
:101EC000C7FFF0EE407AB0EE670A02F0F1FFF0EEE5
:101ED000407A0F4BC3ED007A00F06EFC00F0B8FCC6
:101EE00053E600BF580800200000024060080020B0
:101EF000060000201406002050040020F8070020EF
:101F000010080020A40400202808002084070020D6
:101F1000F407002080B594B000AF07F12003302211
:101F2000002118460AF0A0FF07F10C0300221A60F6
:101F30005A609A60DA601A610023BB60274B1B6C01
:101F4000264A43F080531364244B1B6C03F08053E8
:101F5000BB60BB6800237B60214B1B68204A43F4B5
:101F6000404313601E4B1B6803F440437B607B6857
:101F700002233B620123FB6210233B630223BB630A
:101F80000023FB6308233B6464237B640223BB645C
:101F90000423FB6407F12003184608F09BF803466E
:101FA000002B01D003F064F80F23FB6002233B6198
:101FB00000237B614FF48053BB610023FB6107F179
:101FC0000C030321184608F0FDFA0346002B01D04C
:101FD00003F04EF800BF5037BD4680BD00380240C8
:101FE0000070004080B500AF124B134A1A60114BCD
:101FF000124A5A600F4B00229A600E4B0022DA60A0
:102000000C4B4FF480421A610A4B00225A61094B73
:1020100000229A61074B0022DA61064B00221A6205
:10202000044805F0BDFB0346002B01D003F020F867
:1020300000BF80BD5004002000540040801A0600FC
:1020400080B500AF174B184A1A60164B4FF48272D6
:102050005A60144B00229A60124B0022DA60114B36
:1020600000221A610F4B00225A610E4B4FF400728E
:102070009A610C4B2022DA610A4B00221A62094B4A
:1020800000225A62074B00229A62064B0A22DA6249
:10209000044808F0B7FC0346002B01D002F0E8FF2B
:1020A00000BF80BDA4040020003C004080B58CB07F
:1020B00000AF07F10C032422002118460AF0D4FED9
:1020C0003B1D00221A605A60204B214A1A601F4BA8
:1020D00003225A601D4B10229A601C4B4FF6FF7270
:1020E000DA601A4B00221A61184B80229A6103238E
:1020F000FB6002233B6101237B610423BB61082356
:10210000FB6102233B6201237B620423BB62082341
:10211000FB6207F10C0319460C4809F04AF8034624
:10212000002B01D002F0A4FF00237B600023BB60E2
:102130003B1D1946054809F047FB0346002B01D01B
:1021400002F096FF00BF3037BD4680BDFC04002082
:102150000004004080B500AF0E4B0F4A1A600D4BD3
:1021600040F2E7325A600B4B00229A60094B41F271
:102170008732DA60074B00221A61064B80229A618F
:10218000044808F035FF0346002B01D002F070FF31
:1021900000BF80BD440500200044014080B500AF71
:1021A000124B134A1A60114B4FF4E1325A600F4B35
:1021B0004FF480529A600D4B0022DA600B4B4FF4C3
:1021C00080621A61094B0C225A61084B00229A6105
:1021D000064B0022DA61054809F078FB0346002B24
:1021E00001D002F045FF00BF80BD00BF8C0500207C
:1021F0000010014080B500AF114B124A1A60104B1D
:102200004FF4E1325A600E4B00229A600C4B0022D0
:10221000DA600B4B00221A61094B0C225A61084B01
:1022200000229A61064B0022DA61054809F04EFB54
:102230000346002B01D002F01BFF00BF80BD00BF92
:10224000D00500200044004080B500AF114B124A79
:102250001A60104B4FF4E1325A600E4B00229A6024
:102260000C4B0022DA600B4B00221A61094B0C2246
:102270005A61084B00229A61064B0022DA61054838
:1022800009F024FB0346002B01D002F0F1FE00BF51
:1022900080BD00BF140600200014014080B582B04C
:1022A00000AF00237B600C4B1B6B0B4A43F4800395
:1022B0001363094B1B6B03F480037B607B68002274
:1022C0000021392004F03DFC392004F056FC00BF09
:1022D0000837BD4680BD00BF0038024080B58AB0D7
:1022E00000AF07F1140300221A605A609A60DA60A6
:1022F0001A6100233B617B4B1B6B7A4A43F004035A
:102300001363784B1B6B03F004033B613B690023B1
:10231000FB60744B1B6B734A43F080031363714B78
:102320001B6B03F08003FB60FB680023BB606D4BFD
:102330001B6B6C4A43F0010313636A4B1B6B03F086
:102340000103BB60BB6800237B60664B1B6B654A67
:1023500043F002031363634B1B6B03F002037B60C8
:102360007B6800233B605F4B1B6B5E4A43F00803B6
:1023700013635C4B1B6B03F008033B603B6800225C
:1023800040F24B31584805F0BFF900224FF49871E4
:10239000564805F0B9F900220121554805F0B4F975
:1023A00000220421534805F0AFF94FF400537B613C
:1023B0004FF40413BB610023FB6107F114031946BA
:1023C000494805F005F840F243337B610123BB61C6
:1023D0000023FB6100233B6207F1140319464248C6
:1023E00004F0F6FF04237B610023BB610023FB6143
:1023F00007F1140319463C4804F0EAFF08237B6107
:102400000123BB610023FB6102233B6207F114033C
:102410001946354804F0DCFF4FF498737B610123C3
:10242000BB610023FB6100233B6207F114031946E3
:102430002E4804F0CDFF01237B610123BB61002303
:10244000FB6101233B6207F114031946284804F09D
:10245000BFFF4FF470437B610023BB610023FB612E
:1024600007F114031946224804F0B2FF80237B6170
:102470004FF40413BB610123FB6107F114031946F8
:10248000194804F0A5FF04237B610123BB610023ED
:10249000FB6100233B6207F114031946154804F061
:1024A00097FF40237B610023BB610123FB6107F1A0
:1024B000140319460E4804F08BFF00220021172058
:1024C00004F03FFB172004F058FB002200212820D5
:1024D00004F037FB282004F050FB00BF2837BD462E
:1024E00080BD00BF003802400008024000000240EA
:1024F00000040240000C024080B584B002AF0346E5
:102500000A46FB801346BB80114B1B78002B09D079
:10251000104B18880F4B5988002300930F230F226C
:1025200003F082FBB988F8884FF6E07300930F231D
:102530000F2203F079FB074AFB881380054ABB880A
:102540005380034B01221A7000BF0837BD4680BD7F
:10255000A7080020B008002080B584B004AF2B4B42
:102560005B781946294B9B781846284BDB781A462E
:10257000274B1B880193009203460A4625492648AB
:102580000BF0E4F8254B002202924FF6E072019224
:102590005A6800921B68204AB921DC2003F0EDFC48
:1025A0001F4B1B881A461F4B9B7819461D4B1B78E7
:1025B00000930B461C4918480BF0C8F8174B002233
:1025C00002924FF6FF7201925A6800921B68124AFB
:1025D000C821DC2003F0D1FC144B5A6A144B9B78C1
:1025E00014490D480BF0B2F80C4B002202924FF642
:1025F000FF7201925A6800921B68074AD721FA209D
:1026000003F0BBFC00BFBD4680BD00BF84080020B6
:1026100088080020A0FD0008B8060020280200203D
:102620008C08002090080020B0FD00080004004045
:10263000AC080020C0FD000880B400AF2D4B1A7814
:102640002C4B5A702C4B1B691B0BDBB2DB43DBB2F0
:1026500003F00F03DAB2274B1A70264B1B78002BBE
:1026600030D0244B5B78002B2CD1224B1B789AB2B4
:10267000224B1B8813449AB2204B1A801D4B1A78A8
:102680001C4B9A701B4B1A781A4BDA70194B9B78BB
:10269000012B02D11A4B01221A70164B9B78082B82
:1026A00006D1184B1B780A2B02D0164B01221A7048
:1026B000104B9B78042B05D1134B9B780133DAB276
:1026C000114B9A70114B1B88102B05D90F4B1B888F
:1026D0004FF6F772934207D90D4B4FF400425A62FE
:1026E0000A4B4FF400421A8000BFBD465DF8047BE0
:1026F000704700BF840800200004024088080020C2
:102700007408002006000020900800208C0800209B
:102710000004004080B500AF214B5B6A9AB2214BA8
:102720001B889A4219D9204B01221A701C4B5B6AF4
:102730009AB21C4B1A801B4B1B881A461B491C481B
:102740000BF004F81A48FDF74BFD03469AB20A2332
:102750001749184809F007F91FE0114B5B6A9AB254
:10276000104B1B889A4218D20F4B01225A700C4B07
:102770005B6A9AB20B4B1A800A4B1B881A460B49AC
:102780000B480AF0E3FF0A48FDF72AFD03469AB218
:102790000A230749074809F0E6F800BF80BD00BFDB
:1027A000000400408C08002090080020C8FD0008AC
:1027B0001C070020D005002080B500AF1E4BB3F9E8
:1027C0000830B3F5167F05DA1C4BB3F90830B3F5C2
:1027D000167F2ADB1A4B5B780133DAB2184B5A703A
:1027E000174B5B78012B24D9164B1B780F2B20D06D
:1027F000144B1B78102B1CD0114B00225A70104B1D
:1028000000221A7000224FF400710F4804F07CFF80
:102810000E4B03221A700D4B4FF47A725A8000F05F
:1028200067F9084B0F221A7003E0054B00225A701B
:1028300000E000BF00BF80BDF807002010080020A6
:1028400094080020060000200008024078080020BC
:1028500080B500AF084B1B78002B0BD0074B1B78C3
:102860000C2B04D14FF40071054804F066FF024BB5
:1028700000221A7000BF80BD7408002006000020EE
:102880000008024090B589B000AFF860B9603B60C5
:102890001346FB71FB68BB83FB681B0C7B83002327
:1028A000FB77002481E023465B00BA6813441B8851
:1028B000132B7ED8BB8B22465200B9680A4412887B
:1028C0001341DBB203F001037B767B8B224652007F
:1028D000B9680A4412881341DBB203F001033B7666
:1028E0007A7E3B7E9A425FD1FB7F0133FB77FB7997
:1028F000012B0FD0022B1BD023465B00BA68134478
:102900001B88DBB21A4607F11003344918460AF057
:102910001DFF1BE023465B00BA6813441B88DBB233
:102920001A4607F110032E4918460AF00FFF0DE072
:1029300023465B00BA6813441B88DBB21A4607F1D2
:102940001003284918460AF001FF00BF07F11003E1
:102950000422194638680AF019FF7B7E012B06D144
:1029600007F11003204918460AF0F0FE08E07B7ECC
:10297000002B05D107F110031C4918460AF0E6FEAA
:1029800007F110030222194638680AF0FFFE07F12A
:102990001003174918460AF0D9FE07F11003012267
:1029A000194638680AF0F2FE01340F2C7FF77BAF2E
:1029B00000E000BFFB7F002B0CD107F110030D4995
:1029C00018460AF0C3FE07F11003072219463868BB
:1029D0000AF0DCFE00BF2437BD4690BDD4FD0008E0
:1029E000DCFD0008E4FD0008ECFD0008F0FD000837
:1029F000F4FD0008F8FD000880B500AF324B00225E
:102A00001A70324BDB795F2B05D12F4B1B780133CA
:102A1000DAB22D4B1A702E4BDB795F2B05D12A4B86
:102A20001B780133DAB2284B1A702A48FDF7D8FB1D
:102A300003460F2B09D8274B1B7A432B05D1224B7A
:102A40001B780133DAB2204B1A70234BDB795F2BF2
:102A500005D11D4B1B780133DAB21B4B1A701F4B8B
:102A6000DB795F2B05D1184B1B780133DAB2164B9B
:102A70001A701B4BDB795F2B05D1134B1B7801338D
:102A8000DAB2114B1A70174BDB795F2B05D10E4B65
:102A90001B780133DAB20C4B1A70134BDB795F2BC6
:102AA00005D1094B1B780133DAB2074B1A700F4B73
:102AB000DB795F2B05D1044B1B780133DAB2024B73
:102AC0001A7000BF80BD00BFA60800205C00002077
:102AD0007C0000209C000020BC000020DC000020C6
:102AE000FC0000201C0100203C0100205C010020B3
:102AF00098B500AF354B1B78012B39D0022B1DD078
:102B0000334B1B78002B15D0324808F0C1FA304BFC
:102B10005B881C4603F00AFF034623442C4A93605B
:102B20002A4B02221A702A4B1B78013BDAB2284B3F
:102B30001A7048E0274808F00DFB44E001224FF4EA
:102B40008071254804F0E0FD03F0F0FE0246204BC2
:102B50009B689A4234D31E4B9B881C4603F0E6FECA
:102B6000034623441A4A9360184B01221A7027E047
:102B700000224FF48071184804F0C6FD03F0D6FE21
:102B80000246134B9B689A421CD3114B1B78002BB7
:102B900012D00F4B5B881C4603F0C8FE034623444B
:102BA0000B4A93600A4B1B78013BDAB2084B1A7050
:102BB000064B02221A7005E0044B00221A7001E055
:102BC00000BF00E000BF00BF98BD00BFB4080020F8
:102BD00078080020440500200008024000000000A2
:102BE00090B587B004AF8E4B1B78162B00F2B980DE
:102BF00001A252F823F000BFFD2D0008552C00085B
:102C0000632D0008E531000881330008692E0008B3
:102C1000632F0008CB2F0008F5390008DF3A0008C1
:102C2000053B00089D420008B34500084D3D0008E3
:102C30005B41000867480008F7490008554A00084A
:102C40006F4B0008994B00084B4C0008C54C00081E
:102C5000BF4D0008734B01225A7000230093F023EC
:102C60004FF4A0720021002002F0DEFF45F6EB23B6
:102C7000009320234FF4A0720021002002F0D4FF23
:102C8000694B002201925A6800921B68674A0A2128
:102C9000192003F0BFF94FF4A073212200214FF651
:102CA000A01002F013FF624B1F2202924FF6FF7238
:102CB00001925A6800921B685E4A2421B92003F0F1
:102CC0005CF94FF6A0130093F0230F22002100209F
:102CD00002F0AAFFF02300220E21002002F04DFF97
:102CE000534B40F2FF7201925A6800921B68524A9D
:102CF0003C213C2003F08EF94D4B40F2FF720192D3
:102D00005A6800921B684D4A5A213C2003F082F910
:102D1000474B40F2FF7201925A6800921B68484A82
:102D200078213C2003F076F9414B40F2FF7201928A
:102D30005A6800921B68434A96213C2003F06AF9C6
:102D40003B4B40F2FF7201925A6800921B683E4A68
:102D5000B4213C2003F05EF9314B02221A7002F0DC
:102D600052B8304B01225A70384B5A6A2D4B9B781F
:102D7000374938480AF0EAFC374B002202924FF6F6
:102D8000FF7201925A6800921B68324ADC21F020DF
:102D900003F0F3F8314B9B78002B02F02180214B9C
:102DA0009B78012B06D12E4B03221A701C4B032259
:102DB0001A701EE01B4B9B78022B03D1184B0B2281
:102DC0001A7016E0174B9B78032B03D1144B032288
:102DD0001A700EE0134B9B78042B03D1104B052285
:102DE0001A7006E00F4B9B78052B02D10C4B112279
:102DF0001A701A4B00229A7001F0F2BF094B0022A0
:102E00005A701848FEF750FC4FF6FF711548FEF750
:102E1000C5FDFEF779FC024B02221A7001F0F3BFE8
:102E200006000020AC0800203802002000FE000848
:102E30003002002018FE000828FE000834FE0008BA
:102E400044FE000854FE000864FE00080004004030
:102E5000C0FD0008B80600202802002090080020CD
:102E6000940800208C050020A34B02225A700023F6
:102E70000093D2234FF4A0721E21002002F0D4FE52
:102E800047F60F0300931E234FF4A0720021002089
:102E900002F0CAFE00224FF40071984804F034FC9E
:102EA000974B4FF6FF7201925A6800921B68954A41
:102EB00005213C2003F0AEF8934B40F2FF720192E3
:102EC0005A6800921B68914A3C21322003F0A2F814
:102ED0008F4A904990480AF039FC904B4FF6FF72A8
:102EE00001925A6800921B688B4A5021412003F0DE
:102EF00091F8854B40F2FF7201925A6800921B686C
:102F0000874A6421322003F085F87F4B40F2FF723C
:102F100001925A6800921B68824A8C21322003F089
:102F200079F87E4B4FF6FF7201925A6800921B6847
:102F30007D4AA021412003F06DF8734B4FF6FF72DC
:102F400001925A6800921B68784ADC211E2003F027
:102F500061F8774B00229A70764B06221A7001F0C6
:102F600052BF734B9B78002B01F03C87624B9B78E0
:102F7000012B02D16F4B08221A705F4B9B78022BFA
:102F800002D16C4B07221A705B4B9B78032B10D13C
:102F9000684B0D221A7001224FF40071574804F05B
:102FA000B3FB03F0C3FC034603F58C531433624AAE
:102FB0005360514B9B78042B02D15E4B01221A7057
:102FC0005B4B00229A7001F00DBF4B4B03225A70ED
:102FD00000230093D2234FF4A0721E21002002F0A0
:102FE00023FE47F60F0300931E234FF4A072002127
:102FF000002002F019FE424B4FF6FF7201925A6810
:1030000000921B683F4A05213C2003F003F84A4B1D
:103010001B78032B12D149493F480AF097FB384BE4
:103020004FF6E07202924FF4784201925A68009291
:103030001B68394A0521FA2002F09FFF324B4FF6F8
:10304000FF7201925A6800921B68384ADC211E20E8
:1030500002F0E0FF2A4B40F2FF7201925A680092A0
:103060001B68374A3221462002F0D4FF4FF400712A
:10307000224804F031FB0346002B03D0142003F058
:1030800061FC09E001224FF400711C4804F03CFB94
:1030900040F6980003F056FC2A48FEF705FB2A4943
:1030A0001D480AF053FB164B40F2FF7201925A681A
:1030B00000921B68184A32214FF4827002F0AAFF76
:1030C0004FF6FF711F48FEF769FC03461A461F4B77
:1030D0001A701E4B1B78792B0BD1094B4FF6E072FF
:1030E00001925A6800921B68194A5021462002F04A
:1030F00091FF00237B6049E0AC08002000080240FB
:103100003802002074FE00083002002084FE00080F
:103110002305311194FE0008B80600202802002083
:10312000A4FE0008B0FE0008BCFE0008E0FE000897
:10313000900800200600002094080020E8FE000807
:10314000F0FE00088C05002000FF00088107002029
:1031500004FF00084FF6FF7300930A230A2264213C
:103160009B2002F061FD4FF4FA7003F0EBFB0023AB
:1031700000930A230A2264219B2002F055FD4FF49C
:10318000FA7003F0DFFB7B6801337B607B68052B03
:10319000E0DDFEF7B9FA9E4B4FF6E07201925A68F5
:1031A00000921B689B4A6E21462002F033FF4FF4C9
:1031B000FA7003F0C7FB00224FF40071964804F048
:1031C000A3FA964B00229A70954B1B78032B04D1DF
:1031D000944B08221A7001F016BE924B05221A7009
:1031E00001F011BE904B00225A7000230093D223AD
:1031F0004FF4A0721E21002002F016FD4FF6A0131E
:1032000000931E234FF4A0720021002002F00CFD59
:10321000834B1B78032B0ED17D4B4FF6E07202924D
:103220004FF4784201925A6800921B687F4A052148
:10323000FA2002F0A2FE01224FF40071764804F059
:1032400063FA734B4FF6FF7201925A6800921B6843
:10325000774A0521502002F0DDFE764B4FF6FF72D3
:1032600001925A6800921B68734A32210F2002F0C3
:10327000D1FE704B4FF6FF7201925A6800921B68A4
:103280006E4A4B210F2002F0C5FE6A4B4FF6FF72CB
:1032900001925A6800921B68684A5F210F2002F071
:1032A000B9FE674B4FF6FF7201925A6800921B6895
:1032B000644A6A210F2002F0ADFE5E4B4FF6FF72AA
:1032C00001925A6800921B685F4A7D210F2002F02C
:1032D000A1FE584B4FF6FF7201925A6800921B688C
:1032E0005A4A96210F2002F095FE554B4FF6FF7279
:1032F00001925A6800921B68554A3621A52002F0B7
:1033000089FE4F4B4FF6FF7201925A6800921B687C
:103310004F4A4F21A52002F07DFE494B4FF6FF7228
:1033200001925A6800921B68494A6821A52002F060
:1033300071FE434B4FF6FF7201925A6800921B6870
:10334000444A8121A52002F065FE3D4B4FF6FF72F5
:1033500001925A6800921B683E4A9A21A52002F009
:1033600059FE03F0E3FA034603F6AC532C4A5360CC
:103370002A4B00229A702B4B04221A7001F043BD95
:10338000294B00225A70344BD3ED057A9FED337AE6
:1033900067EE877AFCEEE77A17EE903A9BB21A4610
:1033A0002F4930480AF0D2F92B4B5B691846FDF7DC
:1033B000D3F815A3D3E90023FDF7A2FB0346002BA6
:1033C00056D0134B002202924FF4784201925A6871
:1033D00000921B68234A3221642002F0CEFD0C4B80
:1033E000002202924FF4784201925A6800921B68C0
:1033F0001D4A3221DC2002F0C0FD1C4B00221A7055
:1034000055E000BFAFF30080333333333333114023
:103410003802002010FF0008000802409008002039
:103420009408002006000020AC080020E8FE0008F8
:1034300020FF00083002002030FF000834FF0008A1
:10344000280200203CFF000844FF00084CFF000851
:1034500054FF000858FF00082808002000007A44A4
:103460005CFF0008B806002060FF0008A0080020EC
:103470008D4B002202924FF6FF7201925A68009221
:103480001B688A4A3221642002F077FD864B0022B5
:1034900002924FF4FC6201925A6800921B68844ABF
:1034A0003221DC2002F069FD824B01221A70824B2E
:1034B0001B8A1A4681497D480AF048F97E4B1B8ACF
:1034C00040F6543293421FD8774B002202924FF4B9
:1034D000784201925A6800921B68744A4B2164201A
:1034E00002F04BFD704B002202924FF478420192A1
:1034F0005A6800921B68724A4B21DC2002F03DFDA5
:103500006C4B00225A701EE0674B002202924FF66D
:10351000FF7201925A6800921B68644A4B21642032
:1035200002F02BFD604B002202924FF4FC620192EC
:103530005A6800921B685E4A4B21DC2002F01DFD98
:103540005C4B01225A705F4BD3ED047A9FED5E7A9B
:1035500067EE877AFCEEE77A17EE903A9BB21A464E
:10356000564952480AF0F2F8564B1B691846FCF7C8
:10357000F3FF4BA3D3E90023FDF7C2FA0346002B68
:103580001FD0494B002202924FF4784201925A68B0
:1035900000921B68454A6421642002F0EEFC424B15
:1035A000002202924FF4784201925A6800921B68FE
:1035B000434A6421DC2002F0E0FC3E4B00229A707A
:1035C0001EE0394B002202924FF6FF7201925A68B8
:1035D00000921B68354A6421642002F0CEFC324B15
:1035E000002202924FF4FC6201925A6800921B681A
:1035F0002F4A6421DC2002F0C0FC2E4B01229A707D
:10360000324BB3F908301A462C4928480AF09EF884
:103610002E4BB3F90830F92B1FDD234B0022029209
:103620004FF4784201925A6800921B681F4A7D212C
:10363000642002F0A2FC1C4B002202924FF478425C
:1036400001925A6800921B681D4A7D21DC2002F01D
:1036500094FC184B0022DA705BE01C4BB3F9083085
:10366000012B37DC104B002202924FF6FF720192C1
:103670005A6800921B680D4A7D21642002F07DFC8F
:10368000094B002202924FF6A01201925A68009252
:103690001B680F4A7D21DC2002F06FFC39E000BF7F
:1036A000333333333333074038020020B806002069
:1036B00068FF0008A0080020F80700205CFF000851
:1036C00060FF00082808002000007A44100800204D
:1036D00070FF0008814B002202924FF6FF720192A8
:1036E0005A6800921B687E4A7D21642002F045FCE6
:1036F0007A4B002202924FF4FC6201925A680092C7
:103700001B68784A7D21DC2002F037FC764B0122D1
:10371000DA70764BB3F908301A46754970480AF0EA
:1037200015F8724BB3F90830F92B1FDD6B4B0022F3
:1037300002924FF4784201925A6800921B68684ADC
:103740009621642002F019FC644B002202924FF48F
:10375000784201925A6800921B68664A9621DC20E2
:1037600002F00BFC604B00221A716AE05F4BB3F968
:103770000830032B3DDC594B002202924FF6FF72BA
:1037800001925A6800921B68554A9621642002F003
:10379000F4FB524B002202924FF6A01201925A689B
:1037A00000921B68544A9621DC2002F0E6FB534B42
:1037B000002202924AF6E57201925A6800921B6852
:1037C0004F4A912140F2131002F0D7FB4B4B0022DD
:1037D00002924AF6E57201925A6800921B68494AC1
:1037E0009D2140F2131002F0C8FB3F4B00221A71DA
:1037F00027E03A4B002202924FF6FF7201925A687C
:1038000000921B68364A9621642002F0B6FB334BC7
:10381000002202924FF4FC6201925A6800921B68E7
:10382000304A9621DC2002F0A8FB002300931E23DF
:103830002D228C2140F2131002F0F6F92A4B0122BE
:103840001A71314B4FF6FF7201925A6800921B6851
:103850002E4ADC211E2002F0DDFB03F067F8024651
:103860002B4B5B689A42C0F0AA801F4B5B781A46CC
:103870001D4B9B7813441C4AD27813441A4A127980
:103880001344194A12781344042B47DD164B5B7915
:103890000133DAB2144B5A71134B5B79012B40F2AE
:1038A0008E80114B00225A71174B4FF4FC6202922A
:1038B0001F2201925A6800921B68164AAA21DC2036
:1038C00002F05BFB4FF4FA7003F03CF8104B1B78EE
:1038D000032B74D1104B07221A7070E038020020BD
:1038E000B806002068FF0008A0080020F8070020A4
:1038F0005CFF000860FF000870FF0008280200203D
:1039000074FF00087CFF000830020020E0FE000881
:103910009408002084FF000806000020AC4B002221
:103920005A71AC4BB3F908301A46AB4BB3F90830B7
:10393000D31A952B12DDA74BB3F90830F92B0DDD07
:10394000A64B002202924FF6E07201925A68009252
:103950001B68A34AB4216E2002F00FFB9E4BB3F903
:103960000830F92B0DDD9D4B002202924FF6E072DC
:1039700001925A6800921B689A4AB421142002F0FE
:10398000FCFA994B002202924FF6E07201925A68BB
:1039900000921B68954ACD21142002F0EEFA944B58
:1039A0009B78002B0BD0924B00229A7000224FF490
:1039B0000071904803F0A8FE8F4B01221A708C4BC7
:1039C0009B78002B01F010828C4B9B78012B41F0EF
:1039D0000B82894B01221A70854B00229A70884B0A
:1039E00000221A7000224FF40071824803F08CFE0E
:1039F00001F0FAB9814B03225A704FF6E07300933D
:103A00001E234FF4A0720021002002F00DF90023C4
:103A10000093D2234FF4A0721E21002002F004F97B
:103A2000784B002201925A6800921B68764A052161
:103A30003C2002F0EFFA724B1B78032B12D1734932
:103A4000734809F083FE6F4B4FF6E07202924FF419
:103A5000784201925A6800921B686D4A0521FA204B
:103A600002F08BFA5D4B4FF6FF7201925A6800929A
:103A70001B68684A3C21142002F0CCFA664A674968
:103A8000634809F063FE554B47F6EF3201925A68DE
:103A900000921B685E4A5021282002F0BBFA594B65
:103AA0004FF6FF7201925A6800921B685C4A6E21C1
:103AB000282002F0AFFA534B4FF6A01201925A6839
:103AC00000921B68574A8721282002F0A3FA484B2E
:103AD00000229A70484B0A221A7001F094B9012210
:103AE0004FF40071434803F00FFE02F01FFF02463F
:103AF000434B5B689A42C1F079813F4B0A221A70AE
:103B000001F074B93D4B00225A704FF400713948EE
:103B100003F0E2FD0346002B03D0962002F012FFD3
:103B200009E001224FF40071324803F0EDFD40F648
:103B3000AC5002F007FF3C4B1B881B0A9BB2DBB268
:103B4000394A1288D2B292B2002A14BF012200224E
:103B5000D2B21344DAB2354B1A703548FDF7A4FDE2
:103B6000002486E004F500231B0219462302314A93
:103B70001344FF222E48FDF7E5FD03461A462E4B5F
:103B80001A702D4B1B78792B0ED1144B0022029208
:103B90004FF6E07201925A6800921B68274AB421DE
:103BA000282002F0EAF95BE0234B1B781F2B49D158
:103BB0000A4B002202924FF6E07201925A6800927C
:103BC0001B681F4AB421282002F0D7F948E000BF43
:103BD000A008002010080020F80700203002002074
:103BE00090FF00089CFF000828020020A4FF0008A6
:103BF000900800200008024006000020AC080020C9
:103C00009408002038020020C8FF0008E8FE0008E1
:103C1000B8060020D8FF000823053111F4FF000882
:103C2000080001081C000108040000208007002093
:103C30008C0500208C00030881070020300001085B
:103C400034000108354B0022029245F6EB22019226
:103C50005A6800921B68324AB421282002F08DF97C
:103C6000002300931E230F22B421282001F0DCFF43
:103C700001342C4B1B78013B9C42FFF673AF294B60
:103C80001B7803F5FF2303F2FF731B021846264B34
:103C90001B88DAB2234B1B78013B1B0223490B44E0
:103CA00001462348FDF74EFDFDF72EFD214B4FF455
:103CB000FC6201925A6800921B681F4AA0218C2066
:103CC00002F0A8F94FF47A7002F03CFE194B4FF461
:103CD000FC6201925A6800921B68184ABE218C202F
:103CE00002F098F94FF47A7002F02CFE144B002287
:103CF0009A70144B1B78032B0BD1134B0D221A70A7
:103D000002F014FE034603F6AC530E4A536001F072
:103D10007AB80D4B05221A7001F075B830020020F8
:103D20003800010880070020040000208C000308F0
:103D30008C050020400200203C00010844000108DE
:103D4000900800209408002006000020AC4B0022C0
:103D50005A700222A121AB48FDF76AFC40F2EF3312
:103D600000931E234FF4A0720021002001F05CFF9D
:103D700000230093D2234FF4A0721E21002001F0F3
:103D800053FFA14B4FF6FF7201925A6800921B68D5
:103D90009E4A05213C2002F03DF99D4B1B78032BE8
:103DA00012D19C499C4809F0D1FC974B4FF6E07228
:103DB00002924FF4784201925A6800921B68964A28
:103DC0000521FA2002F0D9F8944B4FF6FF720192C8
:103DD0005A6800921B68924AAF21FA2002F01AF941
:103DE0008E4B4FF6FF7201925A6800921B688D4A03
:103DF000D221FA2002F00EF98B4B4AF6E5720192BD
:103E00005A6800921B68894ADC211E2002F002F9E0
:103E1000874B93F84D30002B00F068810422A121DC
:103E20007848FDF705FC642002F08CFD804B93F888
:103E30004C30042B40F03F8101F074F87C4B586803
:103E40007C4B00227C49FEF71DFD794B98687B4B2B
:103E500000227949FEF716FD754BD868784B002291
:103E60007549FEF70FFD724B1869764B01227649B2
:103E7000FEF708FD6E4B5869744B01227249FEF73C
:103E800001FD6B4B9869724B01226F49FEF7FAFCFA
:103E9000674BD8696F4B02226F49FEF7F3FC644B06
:103EA000186A6E4B02226C49FEF7ECFC604B586AB4
:103EB0006B4B02226849FEF7E5FC052002F042FD4B
:103EC000FEF79AFD674B1B78082B1FD966495248AD
:103ED00009F03CFC4C4B4FF4FC6201925A68009292
:103EE0001B684D4A5021CD2002F094F85F494A48A2
:103EF00009F02CFC444B4FF4FC6201925A6800928A
:103F00001B68454A6E21C82002F084F8494942489E
:103F100009F01CFC444B4FF6FF7201925A68009264
:103F20001B683D4A23210A2002F074F843493A48AD
:103F300009F00CFC3C4B4FF6FF7201925A6800925C
:103F40001B68354A37210A2002F064F83C493248A0
:103F500009F0FCFB344B4FF6FF7201925A68009255
:103F60001B682D4A4B210A2002F054F835492A4893
:103F700009F0ECFB2C4B4FF6FF7201925A6800924D
:103F80001B68254A5F210A2002F044F82F49224885
:103F900009F0DCFB244B4FF6FF7201925A68009245
:103FA0001B681D4A73210A2002F034F828491A4878
:103FB00009F0CCFB1C4B4FF6FF7201925A6800923D
:103FC0001B68154A87210A2002F024F8214912486B
:103FD00009F0BCFB144B4FF6FF7201925A68009235
:103FE0001B680D4A9B210A2002F014F81B490A485D
:103FF00009F0ACFB0C4B4FF6FF72019238E000BFAA
:10400000AC08002014060020380200204C000108F3
:1040100094080020E8FE0008B806002028020020CE
:104020005C000108680001083002002070000108EF
:10403000840700205C00002008000020BC00002055
:104040001C0100207C0000201C000020DC0000205F
:104050003C0100209C0000203C000020FC000020CF
:104060005C010020A60800207C00010868FF000811
:104070005A6800921B68774AAF210A2001F0CAFFF4
:104080007549744809F062FB744B4FF6FF72019258
:104090005A6800921B686F4AC3210A2001F0BAFFD8
:1040A0006F4B002283F84C206D4B002283F84D208B
:1040B0006C4B0E221A706C4B03221A706A4B4FF431
:1040C00096725A80FEF714FD01224021674803F0E2
:1040D0001BFB4FF4967002F035FC00224021634830
:1040E00003F012FB5F4B0E221A7031E002F01EFC4F
:1040F00002465F4B5B689A422AD35E49554809F0F5
:1041000025FB5D4B4FF6FF7201925A6800921B68C7
:10411000504A3221502001F07DFF58494D4809F0A6
:1041200015FB554B4FF6FF7201925A6800921B68BF
:10413000484A4B215F2001F06DFF494B002283F874
:104140004C20474B002283F84D20464B0E221A701C
:104150004B4B00229A7000F056BE4A4B00225A7018
:10416000494BD3ED007AF5EEC07AF1EE10FA04D5A2
:104170004FF000024FF0000306E0434B1B68184667
:10418000FCF7EAF902460B464049324809F0DEFAEC
:104190003D4BD3ED007A9FED3E7AF4EEC77AF1EE17
:1041A00010FA0ED52D4B002202924CF218620192A9
:1041B0005A6800921B68274ABE21FA2001F0DDFEF2
:1041C0000DE0264B002202924FF4784201925A6889
:1041D00000921B681F4ABE21FA2001F0CEFE204B40
:1041E0009B6C1A462B491B4809F0B0FA2A4B4FF634
:1041F000FF7201925A6800921B68164AE121FA2068
:1042000001F008FF1E4B9B78002B00F0F185184B46
:104210001B78032B03D0134B05221A7002E0114BBD
:1042200001221A70164B00229A700D4B00229A64DC
:104230000B4B0022A3F8442000F074FE0C4B00222C
:104240001A7000224FF40071084803F05DFA00F084
:10425000CFBD00BFB80600205C0100203002002066
:104260008407002006000020780800200008024093
:104270009408002080000108380200208C0001080A
:1042800090080020AC080020F407002094000108EA
:10429000000070429C00010828020020964B00227A
:1042A0005A7000230093D2234FF4A0721E210020E5
:1042B00001F0BAFC1F2300931E234FF4A0720021CB
:1042C000002001F0B1FC01224FF400718B4803F093
:1042D0001BFA8B498B4809F039FA8B4B4FF6FF726A
:1042E00001925A6800921B68864A0521502001F00D
:1042F00091FE8649834809F029FA854B4FF6FF72F3
:1043000001925A6800921B687E4ADC211E2001F04F
:1043100081FE80497B4809F019FA7D4B4FF6FF7208
:1043200001925A6800921B68764A32210F2001F0F0
:1043300071FE7949734809F009FA754B4FF6FF721F
:1043400001925A6800921B686E4A4B210F2001F0BF
:1043500061FE72496B4809F0F9F96D4B4FF6FF7237
:1043600001925A6800921B68664A64210F2001F08E
:1043700051FE6B49634809F0E9F9654B4FF6FF724E
:1043800001925A6800921B685E4A7D210F2001F05D
:1043900041FE64495B4809F0D9F95D4B4FF6FF7265
:1043A00001925A6800921B68564A96210F2001F02C
:1043B00031FE5D49534809F0C9F95C4B4FF6FF7275
:1043C00001925A6800921B684E4A96213C2001F0E7
:1043D00021FE57494B4809F0B9F9544B4FF6FF728B
:1043E00001925A6800921B68464AAA213C2001F0BB
:1043F00011FE5049434809F0A9F9454B4FF6FF72A9
:1044000001925A6800921B683E4A2821DC2001F084
:1044100001FE49493B4809F099F9444B4FF6FF72B8
:1044200001925A6800921B68364A3821DC2001F05C
:10443000F1FD4249334809F089F93C4B4FF6FF72D0
:1044400001925A6800921B682E4A3621962001F08C
:10445000E1FD3A492B4809F079F9344B4FF6FF72E8
:1044600001925A6800921B68264A4F21962001F05B
:10447000D1FD3349234809F069F92C4B4FF6FF72FF
:1044800001925A6800921B681E4A6821962001F02A
:10449000C1FD2B491B4809F059F9244B4FF6FF7217
:1044A00001925A6800921B68164A8121962001F0F9
:1044B000B1FD2449134809F049F91C4B4FF6FF722E
:1044C00001925A6800921B680E4A9A21AA2001F0B4
:1044D000A1FD1C490B4809F039F9144B4FF6FF7246
:1044E00001925A6800921B68064AAE21AA2001F088
:1044F00091FD002441E000BFAC080020000802400C
:10450000A4000108B806002038020020E0FE0008E0
:1045100030020020B000010834FF00084CFF000802
:1045200044FF0008B8000108BC0001082802002070
:10453000C0000108C4000108CC00010854FF0008B5
:1045400058FF0008D80001082246A149A14809F0F7
:10455000FDF8A3B21A46520013449B009BB24B33A2
:1045600099B29D4B4FF6E07201925A6800921B6817
:10457000984ADC2001F04EFD0134072CE4DD974918
:10458000944809F0E3F8944B002202924FF6FF7230
:1045900001925A6800921B688E4ABE21142001F0D5
:1045A000ECFC8F4B00229A708E4B0C221A7000F09C
:1045B0002ABC8D4B00225A70FDF7CEFF8B4B1B8A15
:1045C0001A468B49834809F0C1F8884B1B8AB3F51A
:1045D000FA6F0ED2874B002202924FF4784201927A
:1045E0005A6800921B687B4A32215A2001F0C5FCB0
:1045F0000DE0804B002202924FF4FC6201925A6857
:1046000000921B68734A32215A2001F0B6FC7A4BA3
:104610001B8A1A4676496F4809F098F8764B1B8A30
:10462000B3F5FA6F0ED2734B002202924FF4784228
:1046300001925A6800921B68664A4B215A2001F089
:104640009CFC0DE06B4B002202924FF4FC62019245
:104650005A6800921B685F4A4B215A2001F08DFC7A
:10466000654BB3F908301A4661495A4809F06EF8AB
:10467000604B0022029240F2FF7201925A6800924F
:104680001B68544A64215A2001F077FC574BB3F958
:1046900008301A4656494F4809F058F8554B002241
:1046A000029240F2FF7201925A6800921B68494AD6
:1046B0007D215A2001F061FC4F4BDB681846FBF767
:1046C0004BFF02460B464D49424809F03FF8494B23
:1046D000002202924FF6A01201925A6800921B68C3
:1046E0003C4A96215F2001F048FC404BDB681846AD
:1046F000FBF732FF02460B464049364809F026F8E0
:104700003C4B002202924FF6A01201925A6800928E
:104710001B68304AAA215F2001F02FFC002423E00F
:10472000374A231D9B0013441B681846FBF714FFF0
:1047300002460B463349274809F008F8A3B21A4647
:10474000520013449B009BB24B3399B2224B002280
:1047500002924FF6FF7201925A6800921B681D4A3E
:10476000FA2001F00AFC0134072CD9DD264BD3EDE9
:10477000007AF5EEC07AF1EE10FA04D54FF000029F
:104780004FF0000306E0204B1B681846FBF7E4FEE1
:1047900002460B461D490F4808F0D8FF1A4BD3EDCF
:1047A000007A9FED1B7AF4EEC77AF1EE10FA31D55C
:1047B000104B002202924CF2186201925A68009249
:1047C0001B68044ABE21642001F0D7FB30E000BF23
:1047D000DC000108B806002028020020E4000108DF
:1047E0009008002006000020AC08002010080020DF
:1047F0005CFF000830020020F8070020F0000108EC
:1048000028080020F8000108F4070020940001089F
:10481000000070427E4B002202924FF478420192D7
:104820005A6800921B687B4ABE21642001F0A5FBF8
:10483000794B9B78002B00F0DD82784B9B78012B25
:1048400040F0D882764B01221A70764B0022A3F8F2
:10485000442000224FF40071734802F055FF6E4B64
:1048600000229A70C6E26D4B00225A70002300931A
:10487000D2234FF4A0721E21002001F0D5F94FF48D
:10488000784300931E234FF4A0720021002001F012
:10489000CBF9664B4FF6FF7201925A6800921B6883
:1048A000634A0521692001F0B5FB594B4FF6FF72B1
:1048B00001925A6800921B685E4ADC211E2001F0BA
:1048C000A9FB5A4B4FF6FF7201925A6800921B687F
:1048D000594A4621282001F09DFB4D4B00220292AF
:1048E0004FF6FF7201925A6800921B68534A642186
:1048F000142001F042FB464B002202924FF6FF7259
:1049000001925A6800921B684D4A8221142001F0DE
:1049100034FB4C4BB3F908301A464B493D4808F07C
:1049200015FF484BB3F90830B3F5167F1ADB3F4B40
:10493000002202924FF4784201925A6800921B685A
:10494000344A6421782001F018FB384B4FF4784248
:1049500001925A6800921B683C4A6421DC2001F0F5
:1049600059FB0DE0314B002202924FF6FF7201928B
:104970005A6800921B68274A6421782001F0FDFAEA
:10498000334BB3F908301A462F49224808F0DEFEAF
:104990002F4BB3F90830B3F5167F1ADB234B0022F7
:1049A00002924FF4784201925A6800921B68194AA9
:1049B0008221782001F0E1FA1C4B4FF478420192F9
:1049C0005A6800921B68214A8221DC2001F022FBF8
:1049D0000DE0164B002202924FF6FF7201925A68C8
:1049E00000921B680B4A8221782001F0C6FA0C4B1A
:1049F00010221A7007E2084B9B78002B00F0FC8114
:104A0000074B01221A70044B00229A70F4E100BF98
:104A100030020020B806002090080020AC080020DA
:104A20000600002084070020000802403802002011
:104A3000000101080C0101081C0101084CFF0008DD
:104A400044FF0008F80700205CFF000860FF000832
:104A500010080020834B03225A7000230093D223B6
:104A60004FF4A0721E21002001F0DEF84FF478739D
:104A700000931E234FF4A0720021002001F0D4F80F
:104A8000794B002201925A6800921B68774A0521EF
:104A9000502001F0BFFA764B4FF6FF7201925A6830
:104AA00000921B68734ADC211E2001F0B3FA7249A0
:104AB000724808F04BFE6E4B4FF6FF7201925A6837
:104AC00000921B686D4A2321142001F0A3FA684B61
:104AD0004FF6FF7201925A6800921B68684A64217F
:104AE000142001F097FA624B40F2FF7201925A686B
:104AF00000921B68634A7D21142001F08BFA5C4B05
:104B000040F2FF7201925A6800921B685E4A8C2143
:104B1000142001F07FFA564B40F2FF7201925A685E
:104B200000921B68594AA521142001F073FA504BDA
:104B300040F2FF7201925A6800921B68544AB421F5
:104B4000142001F067FA534A53494C4808F0FEFD1F
:104B5000524B0F2201925A6800921B68474AD72194
:104B6000872001F057FA4E4B12221A704BE13D4B51
:104B700000225A704B4B9B78002B00F03F81484B32
:104B800013221A7000224FF40071474802F0BCFD56
:104B9000444B00229A7031E1324B00225A700023BC
:104BA0000093D2234FF4A0721E21002001F03CF8A4
:104BB0004FF4787300931E234FF4A072002100205D
:104BC00001F032F8284B002201925A6800921B68CB
:104BD000364A0521642001F01DFA254B4FF6FF727D
:104BE00001925A6800921B68314A2321192001F072
:104BF00011FA1F4B4FF6FF7201925A6800921B6820
:104C00002C4A3721192001F005FA244B4FF6FF7288
:104C100001925A6800921B68274ADC21282001F083
:104C2000F9F9264B0093802380225A21142001F0A9
:104C30005EF8234B0093802380225A21AA2001F0A2
:104C400056F8174B14221A70DDE0164B9B78002B98
:104C500000F0D680124B15221A70124B00229A7067
:104C6000CEE000BFAC0800203802002064FE00083F
:104C7000300200203001010838010108B806002088
:104C800080010108900101089C010108B801010898
:104C9000CC01010823052610E801010828020020A4
:104CA00006000020900800200008024000020108D1
:104CB000080201081C020108340201088C80020865
:104CC0008C000208524B03225A7000230093D22317
:104CD0004FF4A0721E21002000F0A6FF4FF478735D
:104CE00000931E234FF4A0720021002000F09CFFCF
:104CF000484B002201925A6800921B68464A0521DF
:104D0000642001F087F9454B40F2FF7201925A6826
:104D100000921B68424A23210A2001F07BF93F4B95
:104D200040F2FF7201925A6800921B683C4A34219B
:104D30000A2001F06FF9394B4FF6FF7201925A6861
:104D400000921B68374A23214B2001F063F9334B53
:104D50004FF6FF7201925A6800921B68324A342162
:104D60004B2001F057F92D4B4FF6FF7201925A6814
:104D700000921B682D4ADC21282001F04BF92C4BB6
:104D80004AF6E57201925A6800921B68294A462148
:104D90001E2001F03FF9284B0093802380225A21E6
:104DA000142000F0A4FF254B00937F237E225A217C
:104DB000AA2000F09CFF224B16221A7023E0214B00
:104DC0009B78002B1ED01E4B01221A7000224FF43C
:104DD00000711D4802F098FC1A4B00229A7011E0F5
:104DE00000BF10E000BF0EE000BF0CE000BF0AE013
:104DF00000BF08E000BF06E000BF04E000BF02E023
:104E000000BF00E000BF00BF0C37BD4690BD00BF33
:104E1000AC080020380200204C02010828020020C3
:104E2000580201086402010880020108A00201087A
:104E300030020020BC0201088803010888830108B1
:104E4000060000209008002000080240000000003A
:104E500080B582B000AF0346FB80FB881846FBF7A5
:104E600069FB4FF00002104BFBF7F8FC02460B46C3
:104E7000104619460AA3D3E90023FBF7C5FB0246F7
:104E80000B4610461946FBF7B7FE034607EE903A6D
:104E9000B0EE670A0837BD4680BD00BFAFF30080A3
:104EA0006666666666660A400000B0400000000064
:104EB00080B582B000AF87ED010A7868FBF74CFB44
:104EC00014A3D3E90023FBF7E7F902460B4610468B
:104ED000194612A3D3E90023FBF7C0FC02460B4698
:104EE000104619464FF00002094BFBF7D7F902466E
:104EF0000B4610461946FBF77FFE034607EE903A35
:104F0000B0EE670A0837BD4680BD00BFAFF3008032
:104F10000000394052B81E85EB51E83F7B14AE4784
:104F2000E17A643F80B500AF1249134808F00EFCE7
:104F30001249134808F00AFC1249134808F006FC0D
:104F40001249134808F002FC1249134808F0FEFB0E
:104F50001249134808F0FAFB1249134808F0F6FB0F
:104F60001249134808F0F2FB1249134808F0EEFB0F
:104F700000BF80BDD40201085C000020DC020108F3
:104F80007C000020E40201089C000020EC020108E3
:104F9000BC000020F4020108DC000020FC02010833
:104FA000FC000020040301081C0100200C03010880
:104FB0003C010020140301085C01002080B582B090
:104FC00000AF0346FB80FB88B3F5005F0FD10E4BAB
:104FD00008221A700C4BFA225A800B4B64229A80DA
:104FE000FDF786FD0222A1210848FCF721FBFB8882
:104FF000802B05D1064B9B780133DAB2044B9A70B3
:1050000000BF0837BD4680BD780800201406002088
:105010009008002080B582B000AF78607B68074AB6
:10502000934206D1064B1B680133054A1360FDF716
:105030005FFD00BF0837BD4680BD00BF44050020AE
:105040007008002080B582B000AF7860054906483E
:10505000FCF77EF903490548FCF770FA00BF0837F2
:10506000BD4680BD84070020E8070020140600200C
:1050700080B400AF72B600BFFEE7000080B582B01A
:1050800000AF00237B60104B5B6C0F4A43F48043FE
:1050900053640D4B5B6C03F480437B607B6800239F
:1050A0003B60094B1B6C084A43F080531364064B6A
:1050B0001B6C03F080533B603B68072001F036FD1A
:1050C00000BF0837BD4680BD0038024080B58AB0B9
:1050D00000AF786007F1140300221A605A609A60EA
:1050E000DA601A617B681B68214A93423CD1002335
:1050F0003B61204B1B6B1F4A43F0020313631D4BA4
:105100001B6B03F002033B613B694FF440737B610F
:105110001223BB610023FB6103233B6204237B62F8
:1051200007F114031946144802F052F90023FB60FA
:10513000104B1B6C0F4A43F4001313640D4B1B6C94
:1051400003F40013FB60FB68002200211F2001F024
:10515000F8FC1F2001F011FD00220021202001F0A9
:10516000F0FC202001F009FD00BF2837BD4680BDBE
:1051700000540040003802400004024080B58AB06C
:1051800000AF786007F1140300221A605A609A6039
:10519000DA601A617B681B68194A93422CD100239C
:1051A0003B61184B1B6C174A43F400431364154BC7
:1051B0001B6C03F400433B613B690023FB60114B14
:1051C0001B6B104A43F0040313630E4B1B6B03F07D
:1051D0000403FB60FB684FF4E0537B610223BB6177
:1051E0000023FB6103233B6206237B6207F1140368
:1051F0001946054802F0ECF800BF2837BD4680BDCF
:10520000003C0040003802400008024080B58AB0EF
:1052100000AF786007F1140300221A605A609A60A8
:10522000DA601A617B681B68194A93422BD100230C
:105230003B61184B1B6C174A43F002031364154B78
:105240001B6C03F002033B613B690023FB60114BC5
:105250001B6B104A43F0010313630E4B1B6B03F0EF
:105260000103FB60FB68C0237B610223BB61002359
:10527000FB6100233B6202237B6207F114031946A2
:10528000054802F0A5F800BF2837BD4680BD00BF25
:1052900000040040003802400000024080B584B0A5
:1052A00000AF78607B681B680E4A934215D10023DB
:1052B000FB600D4B5B6C0C4A43F4003353640A4BA8
:1052C0005B6C03F40033FB60FB68002200211920B3
:1052D00001F037FC192001F050FC00BF1037BD462B
:1052E00080BD00BF004401400038024080B58EB050
:1052F00000AF786007F1240300221A605A609A60B8
:10530000DA601A617B681B68744A934235D10023C6
:105310003B62734B5B6C724A43F010035364704BF7
:105320005B6C03F010033B623B6A0023FB616C4B38
:105330001B6B6B4A43F001031363694B1B6B03F058
:105340000103FB61FB694FF4C0637B620223BB6214
:105350000023FB6203233B6307237B6307F12403E2
:105360001946604802F034F800220021252001F09F
:10537000E8FB252001F001FCABE07B681B685A4A82
:1053800093422CD10023BB61554B1B6C544A43F410
:1053900000331364524B1B6C03F40033BB61BB69D5
:1053A00000237B614E4B1B6B4D4A43F0010313639B
:1053B0004B4B1B6B03F001037B617B690C237B620E
:1053C0000223BB620023FB6203233B6307237B634F
:1053D00007F124031946434801F0FAFF79E07B689E
:1053E0001B68424A934274D100233B613C4B5B6C87
:1053F0003B4A43F020035364394B5B6C03F02003BA
:105400003B613B690023FB60354B1B6B344A43F027
:1054100001031363324B1B6B03F00103FB60FB685A
:105420004FF400637B620223BB620023FB62032311
:105430003B6308237B6307F124031946294801F0E5
:10544000C7FF4FF480537B620223BB620123FB62E0
:1054500003233B6308237B6307F124031946214898
:1054600001F0B6FF224B234A1A60214B4FF0206215
:105470005A601F4B00229A601D4B0022DA601C4BC1
:105480004FF480621A611A4B00225A61184B0022B5
:105490009A61174B4FF48072DA61154B00221A6241
:1054A000134B00225A62124801F082FB0346002B84
:1054B00001D0FFF7DDFD7B680D4A9A630C4A7B68DB
:1054C000936300220021472001F03BFB472001F0BD
:1054D00054FB00BF3837BD4680BD00BF00100140FF
:1054E0000038024000000240004400400014014027
:1054F000580600202864024080B400AFFEE780B464
:1055000000AFFEE780B400AFFEE780B400AFFEE777
:1055100080B400AFFEE780B400AF00BFBD465DF8C9
:10552000047B704780B400AF00BFBD465DF8047BCC
:10553000704780B400AF00BFBD465DF8047B704784
:1055400080B500AF01F0DEF900BF80BD80B500AFCF
:10555000802002F00DF900BF80BD000080B500AFD3
:10556000024805F05AFF00BF80BD00BF440500207F
:1055700080B500AF024802F077FD00BF80BD00BFDC
:105580005004002080B500AF024802F0DEFE00BFEC
:1055900080BD00BF5004002080B500AF024806F077
:1055A00047FB00BF80BD00BF8C05002080B500AF69
:1055B0004FF4005002F0DCF800BF80BD80B500AFB2
:1055C000024801F08DFC00BF80BD00BF58060020DE
:1055D00080B500AF024806F02BFB00BF80BD00BFC6
:1055E0001406002080B400AF01231846BD465DF8C4
:1055F000047B704780B582B000AF7860396007F0F7
:1056000009FC034616221A604FF0FF33184608378C
:10561000BD4680BD80B582B000AF78604FF0FF31ED
:105620007868FFF7E7FFFEE780B586B000AFF86067
:10563000B9607A6000237B610AE0AFF30080014625
:10564000BB685A1CBA60CAB21A707B6901337B61AD
:105650007A697B689A42F0DB7B6818461837BD464A
:1056600080BD80B586B000AFF860B9607A60002375
:105670007B6109E0BB685A1CBA601B781846AFF31F
:1056800000807B6901337B617A697B689A42F1DB38
:105690007B6818461837BD4680BD80B483B000AF24
:1056A00078604FF0FF3318460C37BD465DF8047B39
:1056B000704780B483B000AF786039603B684FF4C6
:1056C00000525A60002318460C37BD465DF8047B33
:1056D000704780B483B000AF7860012318460C3760
:1056E000BD465DF8047B704780B485B000AFF860BC
:1056F000B9607A60002318461437BD465DF8047B14
:105700007047000080B586B000AF7860144A154B32
:10571000D31A7B617B693B61134B1B68002B02D161
:10572000114B124A1A60104B1A687B6813443A698D
:105730009A4207D207F06EFB03460C221A604FF024
:10574000FF3309E0084B1B68FB60074B1A687B6856
:105750001344054A1360FB6818461837BD4680BDE0
:105760000000022000040000B8080020D808002033
:1057700080B400AF064BD3F88830054A43F4700379
:10578000C2F8883000BFBD465DF8047B704700BF9B
:1057900000ED00E080B500AF012000F0FEFE11201A
:1057A00000F082FF00BF80BD80B400AF4FF4A07353
:1057B0001846BD465DF8047B704780B400AFF02307
:1057C0001846BD465DF8047B7047000080B582B086
:1057D00002AF524B1B7803F00103002B15D14F4B46
:1057E0001B7843F00103DAB24C4B1A704B4B1B7819
:1057F00003F00203002B01D100F0DAFE474B1B78C7
:1058000043F00203DAB2454B1A700A2000F0BAFEE8
:10581000012000F049FF0A2000F0B4FE03224049B5
:10582000EF2000F0AFFF03223E49CF2000F0AAFF97
:1058300004223D49ED2000F0A5FF03223B49E8206A
:1058400000F0A0FF05223A49CB2000F09BFF012287
:105850003849F72000F096FF02223749EA2000F08D
:1058600091FF01223549C02000F08CFF012234490C
:10587000C12000F087FF02223249C52000F082FFDC
:1058800001223149C72000F07DFF01222F49372036
:1058900000F078FF01222E493A2000F073FF022227
:1058A0002C49B12000F06EFF03222B49B62000F0F6
:1058B00069FF01222549F22000F064FF01222749F7
:1058C000262000F05FFF0F222549E02000F05AFF5C
:1058D0000F222449E12000F055FF362000F0E4FEBD
:1058E000282000F0FFFE112000F0DEFE0A2000F06C
:1058F00049FE00230093F0234FF4A0720021002002
:1059000000F092F90A2000F03DFE292000F0CCFEC4
:105910000A2000F037FE00BFBD4680BDBC08002055
:105920001C03010820030108240301082C030108BB
:1059300030030108380301083C0301084003010853
:1059400044030108480301084C03010850030108FF
:1059500054030108580301085C03010860030108AF
:10596000640301087403010880B582B000AF0346E8
:10597000FB800B46BB8013467B802A2000F094FE00
:10598000FB881B0A9BB2DBB2184600F0ABFEFB881B
:10599000DBB2184600F0A6FEFB881B0A9BB2DBB206
:1059A000184600F09FFEFB88DBB2184600F09AFE16
:1059B0002B2000F079FEBB881B0A9BB2DBB2184695
:1059C00000F090FEBB88DBB2184600F08BFEBB886F
:1059D0001B0A9BB2DBB2184600F084FEBB88DBB228
:1059E000184600F07FFE2C2000F05EFE7B881846F3
:1059F00000F08EFE00BF0837BD4680BD90B583B075
:105A000000AF0446084611461A462346FB8003466B
:105A1000BB800B467B8013463B802A4ABB881380A1
:105A2000BA883B8813449BB2013B9AB2264B1A803A
:105A30002A2000F039FEFB881B0A9BB2DBB2184615
:105A400000F050FEFB88DBB2184600F04BFEFA88EF
:105A50007B881344013B1B12DBB2184600F042FE68
:105A6000FB88DAB27B88DBB21344DBB2013BDBB2EA
:105A7000184600F037FE2B2000F016FEBB881B0AEC
:105A80009BB2DBB2184600F02DFEBB88DBB2184695
:105A900000F028FEBA883B881344013B1B12DBB29E
:105AA000184600F01FFEBB88DAB23B88DBB2134415
:105AB000DBB2013BDBB2184600F014FE00BF0C372E
:105AC000BD4690BDBE080020C008002090B583B040
:105AD00000AF0446084611461A462346FB8003469B
