:020000040800F2
:100000000000022039690008255600082B56000818
:1000100031560008375600083D5600080000000021
:10002000000000000000000000000000435600082F
:1000300051560008000000005F5600086D56000889
:1000400089690008896900088969000889690008C8
:1000500089690008896900088969000889690008B8
:1000600089690008896900088969000889690008A8
:100070008969000889690008896900088969000898
:100080008969000889690008896900080000000082
:100090000000000000000000000000007956000889
:1000A000896900088956000889690008896900087B
:1000B0008969000889690008896900089D56000857
:1000C000B156000889690008896900088969000833
:1000D00089690008C5560008896900080000000009
:1000E000D9560008896900088969000800000000E5
:1000F0000000000000000000000000008969000806
:100100000000000089690008896900088969000801
:1001100000000000000000000000000000000000DF
:1001200089690008E956000889690008896900089A
:1001300089690008000000000000000000000000C5
:1001400000000000000000000000000089690008B5
:10015000896900088969000889690008FD56000856
:10016000896900088969000800000000000000009B
:10017000000000000000000000000000000000007F
:100180000000000089690008000000000000000075
:08019000896900088969000873
:1001A00010B5054C237833B9044B13B10448AFF3B1
:1001B00000800123237010BD2004002000000000F7
:1001C00078FE000808B5034B1BB103490348AFF3A1
:1001D000008008BD000000002404002078FE000814
:1001E000034613F8012B002AFBD1181A0138704777
:1001F00001F0FF01102A2BDB10F0070F08D010F8D8
:10020000013B013A8B422DD010F0070F42B3F6D1DB
:10021000F0B441EA012141EA014122F007047FF0F4
:1002200000070023F0E80256083C85EA010586EA4B
:10023000010685FA47F5A3FA87F586FA47F6A5FA87
:1002400087F68EB9EED1F0BC01F0FF0102F0070293
:1002500032B110F8013B013A83EA010313B1F8D13E
:100260000020704701387047002D06BF354603381F
:10027000073815F0010F07D1013015F4807F02BF58
:10028000013015F4C03F0130F0BC0138704700BFA9
:1002900081F0004102E000BF83F0004330B54FEA37
:1002A00041044FEA430594EA050F08BF90EA020FA4
:1002B0001FBF54EA000C55EA020C7FEA645C7FEA37
:1002C000655C00F0E2804FEA5454D4EB5555B8BF5A
:1002D0006D420CDD2C4480EA020281EA030382EACB
:1002E000000083EA010180EA020281EA0303362D5D
:1002F00088BF30BD11F0004F4FEA01314FF4801C30
:100300004CEA113102D0404261EB410113F0004F41
:100310004FEA03334CEA133302D0524263EB4303F8
:1003200094EA050F00F0A780A4F10104D5F1200E96
:100330000DDB02FA0EFC22FA05F2801841F10001F1
:1003400003FA0EF2801843FA05F359410EE0A5F1C5
:1003500020050EF1200E012A03FA0EFC28BF4CF0F6
:10036000020C43FA05F3C01851EBE37101F00045AC
:1003700007D54FF0000EDCF1000C7EEB00006EEBB9
:100380000101B1F5801F1BD3B1F5001F0CD3490843
:100390005FEA30004FEA3C0C04F101044FEA44529A
:1003A00012F5800F80F09A80BCF1004F08BF5FEA21
:1003B000500C50F1000041EB045141EA050130BD01
:1003C0005FEA4C0C404141EB0101013C28BFB1F513
:1003D000801FE9D291F0000F04BF01460020B1FA5E
:1003E00081F308BF2033A3F10B03B3F120020CDA31
:1003F0000C3208DD02F1140CC2F10C0201FA0CF00F
:1004000021FA02F10CE002F11402D8BFC2F1200C73
:1004100001FA02F120FA0CFCDCBF41EA0C01904029
:10042000E41AA2BF01EB0451294330BD6FEA040472
:100430001F3C1CDA0C340EDC04F11404C4F120025D
:1004400020FA04F001FA02F340EA030021FA04F36F
:1004500045EA030130BDC4F10C04C4F1200220FAC6
:1004600002F001FA04F340EA0300294630BD21FA04
:1004700004F0294630BD94F0000F83F4801306BFCA
:1004800081F480110134013D4EE77FEA645C18BFBE
:100490007FEA655C29D094EA050F08BF90EA020F55
:1004A00005D054EA000C04BF1946104630BD91EA4D
:1004B000030F1EBF0021002030BD5FEA545C05D150
:1004C0004000494128BF41F0004130BD14F580048F
:1004D0003CBF01F5801130BD01F0004545F0FE4103
:1004E00041F470014FF0000030BD7FEA645C1ABF38
:1004F000194610467FEA655C1CBF0B46024650EA6F
:10050000013406BF52EA033591EA030F41F400219A
:1005100030BD00BF90F0000F04BF0021704730B520
:100520004FF4806404F132044FF000054FF00001F5
:1005300050E700BF90F0000F04BF0021704730B5B6
:100540004FF4806404F1320410F0004548BF40428B
:100550004FF000013EE700BF42004FEAE2014FEAE0
:1005600031014FEA02701FBF12F07F4393F07F4FBB
:1005700081F06051704732F07F4208BF704793F0BE
:100580007F4F04BF41F40021704730B54FF46074D1
:1005900001F0004521F000411CE700BF50EA0102D4
:1005A00008BF704730B54FF000050AE050EA01027D
:1005B00008BF704730B511F0004502D5404261EBED
:1005C00041014FF4806404F132045FEA915C3FF42E
:1005D000D8AE4FF003025FEADC0C18BF03325FEACB
:1005E000DC0C18BF033202EBDC02C2F1200300FA7C
:1005F00003FC20FA02F001FA03FE40EA0E0021FAA1
:1006000002F11444BDE600BF70B54FF0FF0C4CF48E
:10061000E06C1CEA11541DBF1CEA135594EA0C0F40
:1006200095EA0C0F00F0DEF82C4481EA030621EA7B
:100630004C5123EA4C5350EA013518BF52EA0335B6
:1006400041F4801143F4801338D0A0FB02CE4FF068
:100650000005E1FB02E506F00042E0FB03E54FF098
:100660000006E1FB03569CF0000F18BF4EF0010E90
:10067000A4F1FF04B6F5007F64F5407404D25FEA8C
:100680004E0E6D4146EB060642EAC62141EA55513F
:100690004FEAC52040EA5E504FEACE2EB4F1FD0C81
:1006A00088BFBCF5E06F1ED8BEF1004F08BF5FEAFF
:1006B000500E50F1000041EB045170BD06F00046B1
:1006C00046EA010140EA020081EA0301B4EB5C045E
:1006D000C2BFD4EB0C0541EA045170BD41F4801156
:1006E0004FF0000E013C00F3AB8014F1360FDEBF7B
:1006F000002001F0004170BDC4F10004203C35DA57
:100700000C341BDC04F11404C4F1200500FA05F3D9
:1007100020FA04F001FA05F240EA020001F000427A
:1007200021F0004110EBD37021FA04F642EB0601F0
:100730005EEA430E08BF20EAD37070BDC4F10C041A
:10074000C4F1200500FA04F320FA05F001FA04F2DE
:1007500040EA020001F0004110EBD37041F10001CA
:100760005EEA430E08BF20EAD37070BDC4F12005D5
:1007700000FA05F24EEA020E20FA04F301FA05F23D
:1007800043EA020321FA04F001F0004121FA04F2E5
:1007900020EA020000EBD3705EEA430E08BF20EAB5
:1007A000D37070BD94F0000F0FD101F000464000EF
:1007B00041EB010111F4801F08BF013CF7D041EA71
:1007C000060195F0000F18BF704703F00046520075
:1007D00043EB030313F4801F08BF013DF7D043EA46
:1007E0000603704794EA0C0F0CEA135518BF95EAFC
:1007F0000C0F0CD050EA410618BF52EA4306D1D183
:1008000081EA030101F000414FF0000070BD50EAA1
:10081000410606BF1046194652EA430619D094EA2B
:100820000C0F02D150EA013613D195EA0C0F05D115
:1008300052EA03361CBF104619460AD181EA030169
:1008400001F0004141F0FE4141F470014FF0000021
:1008500070BD41F0FE4141F4780170BD70B54FF0BC
:10086000FF0C4CF4E06C1CEA11541DBF1CEA13553C
:1008700094EA0C0F95EA0C0F00F0A7F8A4EB05041E
:1008800081EA030E52EA03354FEA013100F0888015
:100890004FEA03334FF0805545EA131343EA1263DE
:1008A0004FEA022245EA111545EA10654FEA002693
:1008B0000EF000419D4208BF964244F1FD0404F54C
:1008C000407402D25B084FEA3202B61A65EB0305A8
:1008D0005B084FEA32024FF480104FF4002CB6EB65
:1008E000020E75EB030E22BFB61A754640EA0C00E5
:1008F0005B084FEA3202B6EB020E75EB030E22BF25
:10090000B61A754640EA5C005B084FEA3202B6EB65
:10091000020E75EB030E22BFB61A754640EA9C0024
:100920005B084FEA3202B6EB020E75EB030E22BFF4
:10093000B61A754640EADC0055EA060E18D04FEAB2
:10094000051545EA16754FEA06164FEAC30343EA52
:1009500052734FEAC2025FEA1C1CC0D111F4801F1F
:100960000BD141EA00014FF000004FF0004CB6E718
:1009700011F4801F04BF01430020B4F1FD0C88BFB7
:10098000BCF5E06F3FF6AFAEB5EB030C04BFB6EBC2
:10099000020C5FEA500C50F1000041EB045170BDB5
:1009A0000EF0004E4EEA113114EB5C04C2BFD4EBE2
:1009B0000C0541EA045170BD41F480114FF0000E66
:1009C000013C90E645EA060E8DE60CEA135594EAE2
:1009D0000C0F08BF95EA0C0F3FF43BAF94EA0C0FE5
:1009E0000AD150EA01347FF434AF95EA0C0F7FF45A
:1009F00025AF104619462CE795EA0C0F06D152EAAE
:100A000003353FF4FDAE1046194622E750EA410691
:100A100018BF52EA43067FF4C5AE50EA41047FF4A2
:100A20000DAF52EA43057FF4EBAE12E74FF0FF3C07
:100A300006E000BF4FF0010C02E000BF4FF0010CD8
:100A40004DF804CD4FEA410C7FEA6C5C4FEA430C51
:100A500018BF7FEA6C5C1BD001B050EA410C0CBFA0
:100A600052EA430C91EA030F02BF90EA020F002002
:100A7000704710F1000F91EA030F58BF994208BF69
:100A800090422CBFD8176FEAE37040F00100704726
:100A90004FEA410C7FEA6C5C02D150EA013C07D17D
:100AA0004FEA430C7FEA6C5CD6D152EA033CD3D0C8
:100AB0005DF8040B704700BF8446104662468C46C2
:100AC0001946634600E000BF01B5FFF7B7FF0028F5
:100AD00048BF10F1000F01BD4DF808EDFFF7F4FF1E
:100AE0000CBF012000205DF808FB00BF4DF808EDA9
:100AF000FFF7EAFF34BF012000205DF808FB00BFCC
:100B00004DF808EDFFF7E0FF94BF012000205DF8ED
:100B100008FB00BF4DF808EDFFF7CEFF94BF0120A2
:100B200000205DF808FB00BF4DF808EDFFF7C4FF9B
:100B300034BF012000205DF808FB00BF4FEA410CE4
:100B40007FEA6C5C02D150EA013C0AD14FEA430CC7
:100B50007FEA6C5C02D152EA033C02D14FF0000004
:100B600070474FF0010070474FEA410212F5001242
:100B700015D211D56FF47873B3EB625212D94FEAE4
:100B8000C12343F0004343EA505311F0004F23FACE
:100B900002F018BF404270474FF00000704750EA23
:100BA000013005D111F0004008BF6FF000407047E0
:100BB0004FF00000704700BF4A0011D212F500123A
:100BC00011D20DD56FF47873B3EB62520ED44FEAA5
:100BD000C12343F0004343EA505323FA02F0704725
:100BE0004FF00000704750EA013002D14FF0FF3063
:100BF00070474FF0000070474FEA4102B2F1E04306
:100C000024BFB3F5001CDCF1FE5C0DD901F0004CF3
:100C10004FEAC0024CEA5070B2F1004F40EB830043
:100C200008BF20F00100704711F0804F21D113F16F
:100C30003872BCBF01F00040704741F480114FEAA8
:100C40005252C2F11802C2F1200C10FA0CF320FA31
:100C500002F018BF40F001004FEAC1234FEAD3234E
:100C600003FA0CFC40EA0C0023FA02F34FEA4303B8
:100C7000CCE77FEA625307D150EA01331EBF4FF041
:100C8000FE4040F44000704701F0004040F0FE405C
:100C900040F40000704700BF53B94AB9002908BFAB
:100CA00000281CBF4FF0FF314FF0FF3000F074B947
:100CB000ADF1080C6DE904CE00F006F8DDF804E0B3
:100CC000DDE9022304B070472DE9F047089D044692
:100CD0008E46002B4DD18A42944669D9B2FA82F2EF
:100CE00052B101FA02F3C2F1200120FA01F10CFA2B
:100CF00002FC41EA030E94404FEA1C48210CBEFB63
:100D0000F8F61FFA8CF708FB16E341EA034306FBEB
:100D100007F199420AD91CEB030306F1FF3080F07A
:100D20001F81994240F21C81023E63445B1AA4B2C7
:100D3000B3FBF8F008FB103344EA034400FB07F769
:100D4000A7420AD91CEB040400F1FF3380F00A81AA
:100D5000A74240F207816444023840EA0640E41B9F
:100D600000261DB1D4400023C5E900433146BDE84B
:100D7000F0878B4209D9002D00F0EF800026C5E9ED
:100D8000000130463146BDE8F087B3FA83F6002E05
:100D90004AD18B4202D3824200F2F980841A61EB7D
:100DA000030301209E46002DE0D0C5E9004EDDE79B
:100DB00002B9FFDEB2FA82F2002A40F09280A1EB83
:100DC0000C014FEA1C471FFA8CFE0126200CB1FBD8
:100DD000F7F307FB131140EA01410EFB03F08842D1
:100DE00008D91CEB010103F1FF3802D2884200F25E
:100DF000CB804346091AA4B2B1FBF7F007FB1011F0
:100E000044EA01440EFB00FEA64508D91CEB04048D
:100E100000F1FF3102D2A64500F2BB800846A4EBE8
:100E20000E0440EA03409CE7C6F12007B34022FAD3
:100E300007FC4CEA030C20FA07F401FA06F31C4302
:100E4000F9404FEA1C4900FA06F3B1FBF9F8200C0F
:100E50001FFA8CFE09FB181140EA014108FB0EF055
:100E6000884202FA06F20BD91CEB010108F1FF3AA5
:100E700080F08880884240F28580A8F102086144B1
:100E8000091AA4B2B1FBF9F009FB101144EA0141BF
:100E900000FB0EFE8E4508D91CEB010100F1FF346A
:100EA0006CD28E456AD90238614440EA0840A0FB02
:100EB0000294A1EB0E01A142C846A64656D353D0D8
:100EC0005DB1B3EB080261EB0E0101FA07F722FAFC
:100ED00006F3F1401F43C5E9007100263146BDE825
:100EE000F087C2F12003D8400CFA02FC21FA03F388
:100EF000914001434FEA1C471FFA8CFEB3FBF7F009
:100F000007FB10360B0C43EA064300FB0EF69E422D
:100F100004FA02F408D91CEB030300F1FF382FD2C6
:100F20009E422DD9023863449B1B89B2B3FBF7F66E
:100F300007FB163341EA034106FB0EF38B4208D947
:100F40001CEB010106F1FF3816D28B4214D9023E88
:100F50006144C91A46EA004638E72E46284605E7A6
:100F60000646E3E61846F8E64B45A9D2B9EB020877
:100F700064EB0C0E0138A3E74646EAE7204694E707
:100F80004046D1E7D0467BE7023B614432E730463A
:100F900009E76444023842E7704700BF00000000E0
:100FA00080B58AB004AF78600B46FB70524A537824
:100FB0006FF3C7135370504A537843F020035370B4
:100FC0004D4A5378022161F3C40353704A4A13888F
:100FD000032161F3CA131380474A1378032161F395
:100FE000C6031370444A137843F007031370424B4F
:100FF0005B783B75404B1B787B75FB7899B20A2375
:1010000002930223019307F11403009301230022AA
:10101000786806F09FFD394B1B681846FFF79CFA6D
:101020002DA3D3E90023FFF7EFFA02460B462CA1CC
:10103000D1E90001FFF712FC02460B4643EC172BE7
:10104000B0EE470AF0EE670A0EF0A2FE53EC102B4A
:1010500010461946FFF7B0FD03469BB23B823B8A20
:101060001846FFF767FA20A3D3E90023FFF7CCFA6D
:1010700002460B46104619461DA3D3E90023FFF78D
:10108000EDFB02460B4643EC172BB0EE470AF0EEA1
:10109000670A0EF07DFE53EC102B10461946FFF741
:1010A0008BFD03469BB23B827B7C3B733B7C7B731B
:1010B000FB7899B20A2302930223019307F10C03F0
:1010C000009301230522786806F044FD00BF18371D
:1010D000BD4680BDAFF300809A9999999999B93F1F
:1010E000F168E388B5F8A43F9A9999999999E93FED
:1010F0009A99999999990540400400200000002090
:1011000080B586B004AF78600B46FB700E4B0022B2
:101110001A60FB7899B20A230293022301930B4BC6
:10112000009301230222786806F00EFE064B5A88CF
:10113000054B1B8813439BB2DB089BB29B009BB201
:1011400018460837BD4680BD3C0400203D04002001
:1011500080B586B004AF78600B46FB700C4B002264
:101160001A60FB7899B20A23029302230193094B78
:10117000009301230422786806F0E6FD044B5A88A8
:10118000034B1B8813439BB218460837BD4680BDEE
:101190003C0400203D04002080B588B004AF786096
:1011A0000B46FB70174B00221A60FB7899B20A239A
:1011B000029302230193144B0093012301227868C8
:1011C00006F0C2FD0F4B5A880E4B1B8813439BB28F
:1011D000FB81B7F90E301846FFF7ACF94FF000026B
:1011E0000A4BFFF73BFB02460B4610461946FFF73A
:1011F00003FD034607EE903AB0EE670A1037BD468E
:1012000080BD00BF3C0400203D0400200000594088
:10121000B0B586B004AF78600B46FB701E4B002261
:101220001A60FB7899B20A230293022301931B4BA5
:10123000009301230322786806F086FD164B5A8836
:10124000154B1B8813439BB21846FFF773F90446EE
:101250000D46134B1B681846FFF77EF90CA3D3E924
:101260000023FFF7D1F902460B4620462946FFF737
:10127000CBF902460B4610461946FFF7BDFC034664
:1012800007EE903AB0EE670A0837BD46B0BD00BF22
:10129000000000000088D3403C0400203D040020F2
:1012A0000000002080B586B002AF78600B46FB706E
:1012B000FB789B08DBB23B73FB789B01DBB27B7353
:1012C00000220421104806F0B5FA07F1080207F1E0
:1012D0000C01642300930323786809F0B2FC012217
:1012E0000421094806F0A6FA7B7A9BB21B029AB247
:1012F000BB7A9BB213449BB2C3F30B039BB2184659
:101300001037BD4680BD00BF000C02400000000049
:1013100080B582B000AF0346FB80FB881846FFF71C
:1013200009F909A3D3E90023FFF76EF902460B463A
:1013300010461946FFF760FC034607EE903AB0EE00
:10134000670A0837BD4680BD05C078060DFD533FCE
:1013500090B484B000AF786039600023BB81744BD7
:101360001B781A467B6813441B78562B40F0C580C7
:101370006F4B1B7801337A6813441B78522B40F073
:10138000BC806B4B1B7802337A6813441B78542B58
:1013900040F0B380002409E0654B1B7823440333FD
:1013A0007A6813441A78634B1A550134062CF3DD1E
:1013B000002406E03A7B5F4B1B5D1344DBB23B73BA
:1013C0000134042CF6DD3B7BDB43DBB27B737A7BA1
:1013D000584B5B799A4240F08E80554B1B781A46E9
:1013E0007B681344FF221A70514B1B780933DAB221
:1013F0004F4B1A704E4B1A784F4BA3FB02135908F0
:101400000B46DB000B44D31ADAB2494B1A70494B36
:101410005B783B72474B9B787B72464BDB78BB72A9
:10142000444B1B79FB72434B1B78202B08D8414B54
:101430001B781946BA683B6843F82120912372E073
:101440003C4B1B788F2B6CD93A4B1B78913B132B61
:101450002AD801A252F823F0AD140008B1140008F4
:10146000B5140008B9140008A9140008A91400084C
:10147000A9140008A9140008A9140008A914000858
:10148000A9140008A9140008A9140008A914000848
:10149000A9140008BD140008C7140008D3140008DC
:1014A000DF140008EB14000890233CE091233AE09D
:1014B000922338E0932336E0942334E0BA683B6803
:1014C0001A6091232FE03A7A3B6883F84C209123ED
:1014D00029E03B68FF2283F84D20A22323E03A7ADB
:1014E0003B6883F84E20A3231DE03A7A3B6883F8DB
:1014F0004F20A42317E0932315E00D4B1B780933ED
:10150000DAB20B4B1A700A4B1A780B4BA3FB02137F
:1015100059080B46DB000B44D31ADAB2044B1A709D
:1015200000E000BF902318461037BD4690BC7047BE
:101530004204002044040020398EE33880B584B092
:1015400000AF786039603B685B88002B11D03B6846
:101550001B88FB73FA7B3B6853F82220FB7B194600
:10156000786800F00BF83B6800221A803B68002284
:101570005A80912318461037BD4680BD90B58BB078
:1015800000AFF8600B467A60FB7207F1140300228B
:101590001A605A609A60DA6056233B7552237B7555
:1015A0005423BB75FB7AFB75042387F8273000238F
:1015B00087F826307B683B6104240FE0231F283323
:1015C0003B4413F8182C04F128033B4403F8142C73
:1015D00097F82730013387F827300134072CEDDDE9
:1015E00003240AE004F128033B4413F8142C97F871
:1015F0002630134487F826300134072CF2DD97F8A3
:10160000273097F82620D243D2B228333B4403F840
:10161000142C97F827309BB201339AB207F11401CA
:101620003223F8680AF035FA00BF2C37BD4690BD6A
:1016300090B589B000AF78600B46FB701346BB7065
:1016400007F10C0300221A605A609A60DA60562390
:101650003B7352237B735423BB73FB78FB73BB78C0
:101660003B74FF23BB74AA23FB740023FB77032482
:1016700008E004F120033B4413F8142CFB7F1344CF
:10168000FB770134072CF4DDFB7FDB43DBB23B75DA
:1016900007F10C011E23092278680AF0FAF900BF4D
:1016A0002437BD4690BD000080B584B000AF78609F
:1016B0007F23FB7301224FF48071114806F0BAF8C2
:1016C000012240210F4806F0B5F8142005F0D0F9AA
:1016D000002240210B4806F0ADF8552005F0C8F96E
:1016E00007F10F010A23012278680AF0D2F91421C8
:1016F000786800F099F900BF1037BD4680BD00BF83
:10170000000002400008024080B500AF642005F0F0
:10171000AFF900224FF48071084806F08BF80122DF
:101720004021074806F086F8142005F0A1F90022B0
:101730004021034806F07EF800BF80BD0000024053
:101740000008024090B5CBB000AF07F59474A4F543
:101750008E74206007F59470A0F5907001601146BA
:1017600007F59472A2F59472136007F59473A3F2CF
:1017700021130A461A704CF63163A7F8243100236E
:1017800087F827310023A7F820310023C7F8183144
:10179000002387F81C3107F59473A3F58A730022A0
:1017A0001A6004334FF48072002118460BF0F2FBEC
:1017B00007F59473A3F590731B68774A934209D990
:1017C00007F59473A3F590731B68B3F1005F01D222
:1017D000BC23DCE007F59473A3F58C7307F59472D2
:1017E000A2F5907212681A6007F59473A3F58C73D2
:1017F000DB7887F8183107F59473A3F58C739B7821
:1018000087F8193107F59473A3F58C735B7887F823
:101810001A3107F59473A3F58C731B7887F81B3185
:1018200097F8182197F819315340DAB297F81A311E
:101830005340DAB297F81B315340DBB287F81C31C2
:1018400007F59473A3F221131B7887F8203107F56D
:101850009473A3F58A7307F59472A2F22112127899
:101860001A7007F59473A3F221131B7887F82131BE
:1018700000241CE097F82121214607F59473A3F575
:1018800094731B680B441B785340DBB287F82131FB
:10189000224607F59473A3F594731B681A44631CDE
:1018A000117807F59472A2F58A72D154013407F5C4
:1018B0009473A3F221131B789C42DBDD07F594732C
:1018C000A3F221131B78023397F8211107F59472C4
:1018D000A2F58A72D15407F5927107F59473A3F5B6
:1018E0008E700A23022200680AF0D3F807F5947379
:1018F000A3F58E730A21186800F096F8034687F85E
:10190000273197F82731792B40D107F58C7107F5EE
:101910009473A3F58E700F23052200680AF0B9F8BE
:1019200007F59473A3F58E730A21186800F07CF80C
:10193000034687F8273197F82731792B24D107F50B
:101940009473A3F221131B789BB203339AB207F16D
:10195000140107F59473A3F58E70642300680AF0F0
:1019600098F807F59473A3F58E730A21186800F0B0
:101970005BF8034687F8273197F82731792B01D197
:10198000792304E01F2302E01F2300E01F231846F1
:1019900007F59677BD4690BDFFFFFE1F80B586B068
:1019A00000AF78600B467B804BF64433BB8200234C
:1019B000FB751C4B1B883B820023BB747B88BB815F
:1019C0007B7B3B743B7B7B743A7B7B7B5340DBB202
:1019D000BB7407F114010A23022278680AF059F84F
:1019E0000A21786800F020F80346FB75FB7D792B0F
:1019F00013D107F110010F23032278680AF049F888
:101A00001421786800F010F80346FB75FB7D792BF4
:101A100001D1792302E01F2300E01F231846183765
:101A2000BD4680BD90FE000880B586B000AF7860EE
:101A30000B467B800123FB750023FB7305F00CF83C
:101A400002467B8813443B6118E007F10F01022333
:101A5000012278680AF0AFF8FB7B792B01D179235A
:101A600010E0FB7B1F2B01D11F230BE004F0F4FFE0
:101A700002463B69934201D8AB2303E0FB7D002B78
:101A8000E3D11F2318461837BD4680BD2DE9B04F5E
:101A9000A0B000AF04F07AFF00F0D2FA00F0B4FC7E
:101AA00000F092FC00F03CFC00F032FB00F062FC25
:101AB00000F05CFB00F0E4FB00F006FC00F08CFBA7
:101AC000964809F07BFB0421954809F0AEFC954A45
:101AD0004FF400435362934B5B6A9BB2924A13806C
:101AE000924A4FF416731380904A9623D3808F4AFC
:101AF0004FF48C7393808D4A012353808B4A3C238F
:101B000013818A4A8A4B1361884A8A4BD360874A79
:101B100040F654339382884A01231370864AFA238D
:101B20005380854A64239380834A00239360834AC9
:101B300000231370814A01235370804A002393705D
:101B40007F4A002353707E4A002313707D4A00238E
:101B500093707C4A002353707A4A002313707A49A9
:101B60004FF000024FF00003C1E9042376494FF023
:101B700000024FF00003C1E9002373494FF0000257
:101B80004FF00003C1E906236F494FF000024FF008
:101B90000003C1E90223002240216C4805F04AFEFF
:101BA00003F0AAFE03F08CFE80216948FFF7F8F9E4
:101BB00088216748FFF7F4F9664B07F144051C4696
:101BC0000FCC0FC50FCC0FC50FCC0FC594E8070085
:101BD00085E8070007F144031846FEF701FB0346BA
:101BE0009AB207F144010A235B4809F052FF092227
:101BF0005A495B480AF081F800F0B4FD04F02CFF6C
:101C000003460022984691464F4BD3E90423904562
:101C100079EB0303C0F0AA8004F01EFF03461433DF
:101C20000022BB63FA63484BD7E90E12C3E90412E2
:101C300000F00EFE4B4B1B78012B45D0414B1B781F
:101C4000002B0BD03D4B9B780133DBB23B4A9370AA
:101C50003C4A00231370434A01231370394B5B78CD
:101C6000002B1DD0354B9B78002B0DD1334B5B786F
:101C700019463D4A2A2301FB03F313441B78013B19
:101C8000DBB22E4A937005E02C4B9B78013BDBB214
:101C90002A4A93702B4A00235370324A012313704F
:101CA000264B9878254B5B7819462F4A2A2301FB4F
:101CB00003F313441A78B0FBF2F302FB03F3C31AE5
:101CC000DBB21E4A937052E01C4B5B7818461B4BEC
:101CD0009B781C462449024652000244D3009B1ABA
:101CE00023445B000B445D88144B5B781946134B0F
:101CF0009B781C461C480A4652000A44D3009B1A93
:101D0000234408335B000344DB881946284600F06F
:101D100089FC144A0023137029E000BF4405002009
:101D2000FC04002000040040B40800202808002023
:101D30009A99894033333340A0080020D40800200A
:101D4000BC080020B80800207008002000080240ED
:101D50005004002094FE0008D0050020E807002071
:101D600014060020D00800207C01002000BF04F0F1
:101D700073FE034600229A469346A64BD3E90023FE
:101D800092457BEB030313D3A24BD3E9002312F557
:101D9000FA71396343F100037B639E4BD7E90C1260
:101DA000C3E9001220219C4805F05DFD00F0BAFF58
:101DB0009A4B1B78042B08D0984B1B780C2B04D023
:101DC000964B1B780E2B40F0C08004F045FE034676
:101DD0000022BB62FA628F4BD3E90223D7E90A459E
:101DE00021469142294671EB0303C0F0AE8004F016
:101DF00033FE0346963300223B627A62854BD7E975
:101E00000812C3E9021280218548FFF779F90346D9
:101E1000844A138280218248FFF79AF903461BB255
:101E2000804A138180217E48FFF7F2F9F0EE407A74
:101E30007C4BC3ED037A80217948FFF7ADF9F0EED2
:101E4000407A784BC3ED017A88217548FFF758F93D
:101E50000346754A138288217148FFF779F90346D2
:101E60001BB2714A138188216D48FFF7D1F9F0EE5A
:101E7000407A6D4BC3ED037A88216948FFF78CF9EE
:101E8000F0EE407A684BC3ED017A18216748FFF7FE
:101E900009FA0346664A138019216448FFF702FADB
:101EA0000346634A53801A216048FFF7FBF9034653
:101EB0005F4A93801B215D48FFF7F4F903465C4AB3
:101EC000D3801C215948FFF7EDF90346584A138186
:101ED0001D215648FFF7E6F90346554A53811E2156
:101EE0005248FFF7DFF90346514A93811F214F48BB
:101EF000FFF7D8F903464E4AD38100240EE04C4B3D
:101F000033F814301846FFF703FAF0EE407A484AE7
:101F1000231D9B001344C3ED007A0134072CEEDD32
:101F2000444BB3F84430184603F00EF8F0EE407A14
:101F3000B0EE670A03F038F8F0EE407A3E4BC3ED9E
:101F4000007A00F0D7FC00F027FD344B1B78042BFF
:101F500003D0324B1B780C2B2ED104F07DFD0346B1
:101F60000022BB61FA612B4BD3E90623D7E9064572
:101F700021469142294671EB03031DD304F06CFD09
:101F80000346323300223B617A61224BD7E90412C7
:101F9000C3E9061280212248FFF7DAF803461BB294
:101FA000204A138188211E48FFF7D2F803461BB24E
:101FB0001D4A138100F09EFC184B1B780E2B04D099
:101FC000164B1B780C2B7FF417AE04F045FD03462F
:101FD0000022BB60FA600F4BD3E90823D7E9024522
:101FE00021469142294671EB0303FFF405AE04F04C
:101FF00033FD0346963300223B607A60054BD7E9F8
:102000000012C3E908121122A0210C48FFF710FBAF
:10201000F2E500BF7008002000000240060000202A
:1020200050040020F807002010080020A40400201D
:102030004008002084070020F40700201406002038
:1020400080B594B000AF07F120033022002118467C
:102050000AF0A0FF07F10C0300221A605A609A6090
:10206000DA601A610023BB60274B1B6C264A43F0E1
:1020700080531364244B1B6C03F08053BB60BB681C
:1020800000237B60214B1B68204A43F440431360CC
:102090001E4B1B6803F440437B607B6802233B625A
:1020A0000123FB6210233B630223BB630023FB631A
:1020B00008233B6464237B640223BB640423FB6426
:1020C00007F12003184608F09BF80346002B01D0C7
:1020D00003F064F80F23FB6002233B6100237B6164
:1020E0004FF48053BB610023FB6107F10C03032114
:1020F000184608F0FDFA0346002B01D003F04EF815
:1021000000BF5037BD4680BD00380240007000401F
:1021100080B500AF124B134A1A60114B124A5A6035
:102120000F4B00229A600E4B0022DA600C4B4FF4EA
:1021300080421A610A4B00225A61094B00229A61BF
:10214000074B0022DA61064B00221A62044805F0B0
:10215000BDFB0346002B01D003F020F800BF80BD7B
:102160005004002000540040801A060080B500AFE3
:10217000174B184A1A60164B4FF482725A60144B70
:1021800000229A60124B0022DA60114B00221A6181
:102190000F4B00225A610E4B4FF400729A610C4BA8
:1021A0002022DA610A4B00221A62094B00225A628D
:1021B000074B00229A62064B0A22DA62044808F0B2
:1021C000B7FC0346002B01D002F0E8FF00BF80BD42
:1021D000A4040020003C004080B58CB000AF07F1A3
:1021E0000C032422002118460AF0D4FE3B1D0022D5
:1021F0001A605A60204B214A1A601F4B03225A6012
:102200001D4B10229A601C4B4FF6FF72DA601A4B7E
:1022100000221A61184B80229A610323FB6002237B
:102220003B6101237B610423BB610823FB61022323
:102230003B6201237B620423BB620823FB6207F13C
:102240000C0319460C4809F04AF80346002B01D04C
:1022500002F0A4FF00237B600023BB603B1D1946F6
:10226000054809F047FB0346002B01D002F096FF1A
:1022700000BF3037BD4680BDFC0400200004004094
:1022800080B500AF0E4B0F4A1A600D4B40F2E7329B
:102290005A600B4B00229A60094B41F28732DA6098
:1022A000074B00221A61064B80229A61044808F00D
:1022B00035FF0346002B01D002F070FF00BF80BD48
:1022C000440500200044014080B500AF124B134A82
:1022D0001A60114B4FF4E1325A600F4B4FF48052A9
:1022E0009A600D4B0022DA600B4B4FF480621A614A
:1022F000094B0C225A61084B00229A61064B0022BE
:10230000DA61054809F078FB0346002B01D002F0A2
:1023100045FF00BF80BD00BF8C05002000100140BC
:1023200080B500AF114B124A1A60104B4FF4E132E6
:102330005A600E4B00229A600C4B0022DA600B4B65
:1023400000221A61094B0C225A61084B00229A6143
:10235000064B0022DA61054809F04EFB0346002BCC
:1023600001D002F01BFF00BF80BD00BFD0050020E0
:102370000044004080B500AF114B124A1A60104B68
:102380004FF4E1325A600E4B00229A600C4B00224F
:10239000DA600B4B00221A61094B0C225A61084B80
:1023A00000229A61064B0022DA61054809F024FBFD
:1023B0000346002B01D002F0F1FE00BF80BD00BF3C
:1023C000140600200014014080B582B000AF002345
:1023D0007B600C4B1B6B0B4A43F480031363094B6C
:1023E0001B6B03F480037B607B6800220021392093
:1023F00004F03DFC392004F056FC00BF0837BD4610
:1024000080BD00BF0038024080B58AB000AF07F140
:10241000140300221A605A609A60DA601A6100237D
:102420003B617B4B1B6B7A4A43F004031363784B8D
:102430001B6B03F004033B613B690023FB60744B9F
:102440001B6B734A43F080031363714B1B6B03F0E8
:102450008003FB60FB680023BB606D4B1B6B6C4A09
:1024600043F0010313636A4B1B6B03F00103BB6072
:10247000BB6800237B60664B1B6B654A43F002031D
:102480001363634B1B6B03F002037B607B680023C9
:102490003B605F4B1B6B5E4A43F0080313635C4B6E
:1024A0001B6B03F008033B603B68002240F24B319A
:1024B000584805F0BFF900224FF49871564805F0CE
:1024C000B9F900220121554805F0B4F90022042190
:1024D000534805F0AFF94FF400537B614FF40413F8
:1024E000BB610023FB6107F114031946494805F05D
:1024F00005F840F243337B610123BB610023FB619C
:1025000000233B6207F114031946424804F0F6FF2A
:1025100004237B610023BB610023FB6107F11403EB
:1025200019463C4804F0EAFF08237B610123BB61A4
:102530000023FB6102233B6207F11403194635486F
:1025400004F0DCFF4FF498737B610123BB6100232F
:10255000FB6100233B6207F1140319462E4804F087
:10256000CDFF01237B610123BB610023FB610123BC
:102570003B6207F114031946284804F0BFFF4FF4EB
:1025800070437B610023BB610023FB6107F11403EF
:102590001946224804F0B2FF80237B614FF40413F4
:1025A000BB610123FB6107F114031946194804F0CC
:1025B000A5FF04237B610123BB610023FB61002392
:1025C0003B6207F114031946154804F097FF4023B6
:1025D0007B610023BB610123FB6107F114031946F2
:1025E0000E4804F08BFF00220021172004F03FFB6F
:1025F000172004F058FB00220021282004F037FBAC
:10260000282004F050FB00BF2837BD4680BD00BF26
:10261000003802400008024000000240000402406E
:10262000000C024080B584B002AF03460A46FB802E
:102630001346BB80114B1B78002B09D0104B188818
:102640000F4B5988002300930F230F2203F082FBC6
:10265000B988F8884FF6E07300930F230F2203F038
:1026600079FB074AFB881380054ABB885380034BDC
:1026700001221A7000BF0837BD4680BDCF08002078
:10268000D808002080B584B004AF2B4B5B78194686
:10269000294B9B781846284BDB781A46274B1B881A
:1026A0000193009203460A46254926480BF0E4F8B8
:1026B000254B002202924FF6E07201925A68009276
:1026C0001B68204AB921DC2003F0EDFC1F4B1B885E
:1026D0001A461F4B9B7819461D4B1B7800930B46DF
:1026E0001C4918480BF0C8F8174B002202924FF60D
:1026F000FF7201925A6800921B68124AC821DC20BE
:1027000003F0D1FC144B5A6A144B9B7814490D48C2
:102710000BF0B2F80C4B002202924FF6FF720192BE
:102720005A6800921B68074AD721FA2003F0BBFCC5
:1027300000BFBD4680BD00BFAC080020B00800202F
:10274000D0FE0008B806002028020020B4080020AF
:10275000B8080020E0FE000800040040D408002073
:10276000F0FE000880B500AF304B1A782F4B5A703E
:102770002F4B1B691B0BDBB2DB43DBB203F00F03F8
:10278000DAB22A4B1A70294B1B78002B39D0274B11
:102790005B78002B35D1254B1B789AB2254B1B88D3
:1027A00013449AB2234B1A80204B1A781F4B9A700D
:1027B0001E4B1A781D4BDA701C4B9B78012B02D1F3
:1027C0001D4B01221A70194B9B78082B06D11B4B0D
:1027D0001B780A2B02D0194B01221A70134B9B78DD
:1027E000042B05D1164B9B780133DAB2144B9A7047
:1027F0000E4B9B78022B04D1124B01221A7000F071
:102800001BFA114B1B88102B05D90F4B1B884FF659
:10281000F772934207D90D4B4FF400425A620A4BAC
:102820004FF400421A8000BF80BD00BFAC080020FA
:1028300000040240B00800209C0800200600002090
:10284000B8080020A0080020B408002000040040C0
:1028500080B500AF214B5B6A9AB2214B1B889A422C
:1028600019D9204B01221A701C4B5B6A9AB21C4B7F
:102870001A801B4B1B881A461B491C480AF0FCFF98
:102880001A48FDF7ADFC03469AB20A2317491848C7
:1028900009F0FFF81FE0114B5B6A9AB2104B1B88DE
:1028A0009A4218D20F4B01225A700C4B5B6A9AB2B3
:1028B0000B4B1A800A4B1B881A460B490B480AF02F
:1028C000DBFF0A48FDF78CFC03469AB20A2307494E
:1028D000074809F0DEF800BF80BD00BF00040040DB
:1028E000B4080020B8080020F8FE00081C070020EB
:1028F000D005002080B500AF204BB3F908301A4650
:102900001F4B1B889A4207DA1E4BB3F908301A4650
:102910001B4B1B889A422ADB1B4B5B780133DAB2D4
:10292000194B5A70184B5B78012B24D9174B1B7825
:102930000F2B20D0154B1B78102B1CD0124B0022D4
:102940005A70114B00221A7000224FF40071104887
:1029500004F070FF0F4B03221A700E4B4FF47A7283
:102960005A8000F069F9094B0F221A7003E0064BF8
:1029700000225A7000E000BF00BF80BDF8070020B1
:102980002808002010080020BC08002006000020B5
:1029900000080240A008002080B500AF084B1B785B
:1029A000002B0BD0074B1B780C2B04D14FF400717C
:1029B000054804F058FF024B00221A7000BF80BD8A
:1029C0009C080020060000200008024090B589B055
:1029D00000AFF860B9603B601346FB71FB68BB83D6
:1029E000FB681B0C7B830023FB77002481E02346DC
:1029F0005B00BA6813441B88132B7ED8BB8B22461E
:102A00005200B9680A4412881341DBB203F0010393
:102A10007B767B8B22465200B9680A4412881341A8
:102A2000DBB203F001033B767A7E3B7E9A425FD1B4
:102A3000FB7F0133FB77FB79012B0FD0022B1BD0DF
:102A400023465B00BA6813441B88DBB21A4607F1C1
:102A50001003344918460AF00FFF1BE023465B00C1
:102A6000BA6813441B88DBB21A4607F110032E49DB
:102A700018460AF001FF0DE023465B00BA681344D4
:102A80001B88DBB21A4607F11003284918460AF0E2
:102A9000F3FE00BF07F110030422194638680AF05C
:102AA0000BFF7B7E012B06D107F11003204918464E
:102AB0000AF0E2FE08E07B7E002B05D107F110034F
:102AC0001C4918460AF0D8FE07F1100302221946E5
:102AD00038680AF0F1FE07F11003174918460AF0AA
:102AE000CBFE07F110030122194638680AF0E4FE14
:102AF00001340F2C7FF77BAF00E000BFFB7F002B82
:102B00000CD107F110030D4918460AF0B5FE07F184
:102B100010030722194638680AF0CEFE00BF24379A
:102B2000BD4690BD04FF00080CFF000814FF00081C
:102B30001CFF000820FF000824FF000828FF0008F1
:102B400080B500AF324B00221A70324BDB795F2B1D
:102B500005D12F4B1B780133DAB22D4B1A702E4B57
:102B6000DB795F2B05D12A4B1B780133DAB2284B76
:102B70001A702A48FDF734FB03460F2B09D8274B60
:102B80001B7A432B05D1224B1B780133DAB2204B41
:102B90001A70234BDB795F2B05D11D4B1B7801335A
:102BA000DAB21B4B1A701F4BDB795F2B05D1184B28
:102BB0001B780133DAB2164B1A701B4BDB795F2B93
:102BC00005D1134B1B780133DAB2114B1A70174B36
:102BD000DB795F2B05D10E4B1B780133DAB20C4B3E
:102BE0001A70134BDB795F2B05D1094B1B7801332E
:102BF000DAB2074B1A700F4BDB795F2B05D1044B10
:102C00001B780133DAB2024B1A7000BF80BD00BFDF
:102C1000CE0800205C0000207C0000209C000020EA
:102C2000BC000020DC000020FC0000201C01002073
:102C30003C0100205C01002098B500AF354B1B78AB
:102C4000012B39D0022B1DD0334B1B78002B15D014
:102C5000324808F0B3FA304B5B881C4603F0FCFEA8
:102C6000034623442C4A93602A4B02221A702A4BB3
:102C70001B78013BDAB2284B1A7048E0274808F06D
:102C8000FFFA44E001224FF48071254804F0D2FDA0
:102C900003F0E2FE0246204B9B689A4234D31E4B5F
:102CA0009B881C4603F0D8FE034623441A4A9360CF
:102CB000184B01221A7027E000224FF48071184847
:102CC00004F0B8FD03F0C8FE0246134B9B689A421D
:102CD0001CD3114B1B78002B12D00F4B5B881C466A
:102CE00003F0BAFE034623440B4A93600A4B1B7859
:102CF000013BDAB2084B1A70064B02221A7005E04B
:102D0000044B00221A7001E000BF00E000BF00BFCA
:102D100098BD00BFDC080020A0080020440500206A
:102D20000008024090B587B004AF8E4B1B78162B7D
:102D300000F2B98001A252F823F000BF412F000831
:102D4000992D0008A72E000829330008C534000873
:102D5000AD2F0008A73000080F3100084D3B0008D8
:102D6000373C00085D3C0008F94300083546000880
:102D7000AD3E0008B94200085D490008F54A000868
:102D80004D4B0008674C0008914C0008434D00086B
:102D9000BD4D0008B74E0008734B01225A70002346
:102DA0000093F0234FF4A0720021002002F0D2FF24
:102DB00045F6EB23009320234FF4A072002100205E
:102DC00002F0C8FF694B002201925A6800921B680A
:102DD000674A0A21192003F0B3F94FF4A0732122A6
:102DE00000214FF6A01002F007FF624B1F22029253
:102DF0004FF6FF7201925A6800921B685E4A2421C6
:102E0000B92003F050F94FF6A0130093F0230F22DE
:102E10000021002002F09EFFF02300220E2100205E
:102E200002F041FF534B40F2FF7201925A68009248
:102E30001B68524A3C213C2003F082F94D4B40F282
:102E4000FF7201925A6800921B684D4A5A213C2039
:102E500003F076F9474B40F2FF7201925A680092F4
:102E60001B68484A78213C2003F06AF9414B40F244
:102E7000FF7201925A6800921B68434A96213C20D7
:102E800003F05EF93B4B40F2FF7201925A680092E8
:102E90001B683E4AB4213C2003F052F9314B022218
:102EA0001A7002F02CB8304B01225A70384B5A6A13
:102EB0002D4B9B78374938480AF0DEFC374B00220F
:102EC00002924FF6FF7201925A6800921B68324AD2
:102ED000DC21F02003F0E7F8314B9B78002B01F068
:102EE000FB87214B9B78012B06D12E4B03221A70B6
:102EF0001C4B03221A701EE01B4B9B78022B03D144
:102F0000184B0B221A7016E0174B9B78032B03D13A
:102F1000144B03221A700EE0134B9B78042B03D141
:102F2000104B05221A7006E00F4B9B78052B02D13F
:102F30000C4B11221A701A4B00229A7001F0CCBF70
:102F4000094B00225A701848FEF7AEFB4FF6FF718E
:102F50001548FEF723FDFEF7D7FB024B02221A703D
:102F600001F0CDBF06000020D40800203802002068
:102F700030FF00083002002048FF000858FF00081A
:102F800064FF000874FF000884FF000894FF000835
:102F900000040040F0FE0008B806002028020020CF
:102FA000B8080020BC0800208C050020A34B02229A
:102FB0005A7000230093D2234FF4A0721E210020E8
:102FC00002F0C8FE47F60F0300931E234FF4A072D1
:102FD0000021002002F0BEFE00224FF4007198484C
:102FE00004F028FC974B4FF6FF7201925A6800924A
:102FF0001B68954A05213C2003F0A2F8934B40F250
:10300000FF7201925A6800921B68914A3C2132205B
:1030100003F096F88F4A904990480AF02DFC904BA7
:103020004FF6FF7201925A6800921B688B4A50213A
:10303000412003F085F8854B40F2FF7201925A68F7
:1030400000921B68874A6421322003F079F87F4B95
:1030500040F2FF7201925A6800921B68824A8C21EA
:10306000322003F06DF87E4B4FF6FF7201925A68E2
:1030700000921B687D4AA021412003F061F8734B48
:103080004FF6FF7201925A6800921B68784ADC2161
:103090001E2003F055F8774B00229A70764B0622DB
:1030A0001A7001F02CBF734B9B78002B01F0168730
:1030B000624B9B78012B02D16F4B08221A705F4B39
:1030C0009B78022B02D16C4B07221A705B4B9B78CA
:1030D000032B10D1684B0D221A7001224FF400719E
:1030E000574804F0A7FB03F0B7FC034603F5CB53A6
:1030F0000433624A5360514B9B78042B02D15E4BE0
:1031000001221A705B4B00229A7001F0E7BE4B4B14
:1031100003225A7000230093D2234FF4A0721E2181
:10312000002002F017FE47F60F0300931E234FF412
:10313000A0720021002002F00DFE424B4FF6FF72FC
:1031400001925A6800921B683F4A05213C2002F018
:10315000F7FF4A4B1B78032B12D149493F480AF02D
:103160008BFB384B4FF6E07202924FF4784201929B
:103170005A6800921B68394A0521FA2002F093FF31
:10318000324B4FF6FF7201925A6800921B68384A20
:10319000DC211E2002F0D4FF2A4B40F2FF72019284
:1031A0005A6800921B68374A3221462002F0C8FF55
:1031B0004FF40071224804F025FB0346002B03D096
:1031C000142003F055FC09E001224FF400711C4863
:1031D00004F030FB40F6980003F04AFC2A48FEF762
:1031E00063FA2A491D480AF047FB164B40F2FF726A
:1031F00001925A6800921B68184A32214FF482707B
:1032000002F09EFF4FF6FF711F48FEF7C7FB034613
:103210001A461F4B1A701E4B1B78792B0BD1094B8A
:103220004FF6E07201925A6800921B68194A5021C9
:10323000462002F085FF00237B6049E0D40800208F
:103240000008024038020020A4FF000830020020DD
:10325000B4FF000823072813C4FF0008B8060020A5
:1032600028020020D4FF0008E0FF0008ECFF00085F
:1032700010000108B808002006000020BC0800204B
:1032800018000108200001088C050020300001080A
:1032900081070020340001084FF6FF7300930A23D2
:1032A0000A2264219B2002F055FD4FF4FA7003F0CE
:1032B000DFFB002300930A230A2264219B2002F0F3
:1032C00049FD4FF4FA7003F0D3FB7B6801337B6058
:1032D0007B68052BE0DDFEF717FA9A4B4FF6E0729C
:1032E00001925A6800921B68974A6E21462002F0AC
:1032F00027FF4FF4FA7003F0BBFB00224FF400717C
:10330000924804F097FA924B00229A70914B1B78E6
:10331000032B04D1904B08221A7001F0F0BD8E4BA4
:1033200005221A7001F0EBBD8C4B00225A7000236D
:103330000093D2234FF4A0721E21002002F00AFD58
:103340004FF6A01300931E234FF4A072002100201B
:1033500002F000FD7F4B1B78032B0ED1794B4FF60B
:10336000E07202924FF4784201925A6800921B6810
:103370007B4A0521FA2002F096FE01224FF40071EB
:10338000724804F057FA6F4B4FF6FF7201925A6879
:1033900000921B68734A0521502002F0D1FE724B47
:1033A0004FF6FF7201925A6800921B686F4A3221F1
:1033B0000F2002F0C5FE6C4B4FF6FF7201925A6867
:1033C00000921B686A4A4B210F2002F0B9FE664B3F
:1033D0004FF6FF7201925A6800921B68644A5F219F
:1033E0000F2002F0ADFE634B4FF6FF7201925A6858
:1033F00000921B68604A6A210F2002F0A1FE5A4B1E
:103400004FF6FF7201925A6800921B685B4A7D2159
:103410000F2002F095FE544B4FF6FF7201925A684E
:1034200000921B68564A96210F2002F089FE514BEC
:103430004FF6FF7201925A6800921B68514A36217A
:10344000A52002F07DFE4B4B4FF6FF7201925A68A9
:1034500000921B684B4A4F21A52002F071FE454B9C
:103460004FF6FF7201925A6800921B68454A682124
:10347000A52002F065FE3F4B4FF6FF7201925A689D
:1034800000921B68404A8121A52002F059FE394B69
:103490004FF6FF7201925A6800921B683A4A9A21CD
:1034A000A52002F04DFE03F0D7FA034603F6AC5315
:1034B000284A5360264B00229A70274B04221A7028
:1034C00001F01DBD254B00225A70304BD3ED057A1B
:1034D0009FED2F7A67EE877AFCEEE77A17EE903A47
:1034E0009BB21A462B492C480AF0C6F9274B93ED9C
:1034F000057A2A4BD3ED047AB4EEE77AF1EE10FAAE
:1035000052D8104B002202924FF4784201925A682E
:1035100000921B68204A3221642002F0C4FD094B4E
:10352000002202924FF4784201925A6800921B687E
:103530001B4A3221DC2002F0B6FD1A4B00221A7021
:1035400051E000BF3802002040000108000802409E
:10355000B8080020BC08002006000020D408002085
:103560001800010850000108300200206000010826
:1035700064000108280200206C00010874000108A2
:103580007C00010884000108880001084008002030
:1035900000007A448C000108B806002028080020AA
:1035A00090000108C80800208D4B002202924FF6BF
:1035B000FF7201925A6800921B688A4A3221642085
:1035C00002F071FD864B002202924FF4FC620192E0
:1035D0005A6800921B68844A3221DC2002F063FDA5
:1035E000824B01221A70824B1B8A1A4681497D4800
:1035F0000AF042F97E4B1A8A7F4B9B8A9A421FD867
:10360000774B002202924FF4784201925A6800925E
:103610001B68744A4B21642002F045FD704B002268
:1036200002924FF4784201925A6800921B68734AE2
:103630004B21DC2002F037FD6C4B00225A701EE05B
:10364000674B002202924FF6FF7201925A68009275
:103650001B68644A4B21642002F025FD604B002268
:1036600002924FF4FC6201925A6800921B685E4A13
:103670004B21DC2002F017FD5C4B01225A70604B9D
:10368000D3ED047A9FED5F7A67EE877AFCEEE77AF6
:1036900017EE903A9BB21A46564952480AF0ECF897
:1036A000574B93ED047A544BD3ED037AB4EEE77A9B
:1036B000F1EE10FA1FD84A4B002202924FF47842E2
:1036C00001925A6800921B68464A6421642002F005
:1036D000EAFC434B002202924FF4784201925A686E
:1036E00000921B68454A6421DC2002F0DCFC3F4B61
:1036F00000229A701EE03A4B002202924FF6FF72AF
:1037000001925A6800921B68364A6421642002F0D4
:10371000CAFC334B002202924FF4FC6201925A68B9
:1037200000921B68304A6421DC2002F0BCFC2F4B65
:1037300001229A70344BB3F908301A462D492948B2
:103740000AF09AF8304BB3F908301A462A4B9B8896
:103750009A421FDB224B002202924FF478420192E0
:103760005A6800921B681F4A7D21642002F09BFC6E
:103770001B4B002202924FF4784201925A68009249
:103780001B681E4A7D21DC2002F08DFC174B0022B5
:10379000DA705CE01C4BB3F908301A46164B5B88B4
:1037A0009A4235DC0E4B002202924FF6FF720192D4
:1037B0005A6800921B680B4A7D21642002F073FC5A
:1037C000074B002202924FF6A01201925A68009213
:1037D0001B680E4A7D21DC2002F065FC37E000BF4B
:1037E00038020020B806002098000108C808002010
:1037F000F80700208C00010828080020900001082C
:103800004008002000007A4410080020A0000108B1
:10381000844B002202924FF6FF7201925A68009286
:103820001B68814A7D21642002F03DFC7D4B002213
:1038300002924FF4FC6201925A6800921B687B4A24
:103840007D21DC2002F02FFC794B0122DA70794BCC
:10385000B3F908301A46784973480AF00DF8754BE9
:10386000B3F908301A46754BDB889A421FDB6D4B63
:10387000002202924FF4784201925A6800921B682B
:10388000694A9621642002F00EFC664B00220292E7
:103890004FF4784201925A6800921B68684A962158
:1038A000DC2002F000FC624B00221A716DE0614BDB
:1038B000B3F908301A46614B5B889A423DDC594B9C
:1038C000002202924FF6FF7201925A6800921B6822
:1038D000554A9621642002F0E6FB524B00220292E8
:1038E0004FF6A01201925A6800921B68554A962121
:1038F000DC2002F0D8FB544B002202924AF6E5721B
:1039000001925A6800921B68504A912140F21310AC
:1039100002F0C9FB4C4B002202924AF6E57201927A
:103920005A6800921B684A4A9D2140F2131002F027
:10393000BAFB3F4B00221A7127E03A4B0022029259
:103940004FF6FF7201925A6800921B68364A962120
:10395000642002F0A8FB334B002202924FF4FC6279
:1039600001925A6800921B68304A9621DC2002F0CE
:103970009AFB002300931E232D228C2140F213106A
:1039800002F0E8F92A4B01221A71324B4FF6FF720E
:1039900001925A6800921B682F4ADC211E2002F017
:1039A000CFFB03F059F802462C4B5B689A42C0F0FB
:1039B000B2801F4B5B781A461D4B9B7813441C4A00
:1039C000D27813441A4A12791344194A12781344CC
:1039D000042B49DD164B5B790133DAB2144B5A7173
:1039E000134B5B79012B40F29680114B00225A71E8
:1039F000184B4FF4FC6202921F2201925A68009207
:103A00001B68174AAA21DC2002F04DFB4FF4FA7024
:103A100003F02EF8114B1B78032B7CD1114B07229E
:103A20001A7078E038020020B806002098000108DB
:103A3000C8080020F80700208C0001082808002092
:103A400090000108A000010828020020A40001083D
:103A5000AC0001083002002010000108BC08002062
:103A6000B400010806000020A54B00225A71A54BA6
:103A7000B3F908301A46A44BB3F90830D31A952B82
:103A800015DDA04BB3F908301A46A04B9B889A422B
:103A90000DDB9F4B002202924FF6E07201925A68B2
:103AA00000921B689B4AB4216E2002F0FCFA964BF0
:103AB000B3F908301A46954BDB889A420DDB944BDC
:103AC000002202924FF6E07201925A6800921B683F
:103AD000914AB421142002F0E6FA904B002202929F
:103AE0004FF6E07201925A6800921B688C4ACD2111
:103AF000142002F0D8FA8B4B9B78002B0BD0894B0B
:103B000000229A7000224FF40071874803F092FE61
:103B1000864B01221A70834B9B78002B01F0E081C9
:103B2000834B9B78012B41F0DB81804B01221A7083
:103B30007C4B00229A707F4B00221A7000224FF4B7
:103B40000071794803F076FE01F0CAB9784B032280
:103B50005A704FF6E07300931E234FF4A0720021B9
:103B6000002002F0F7F800230093D2234FF4A07254
:103B70001E21002002F0EEF86F4B002201925A68DD
:103B800000921B686D4A05213C2002F0D9FA694B6E
:103B90001B78032B12D16A496A4809F06DFE664B07
:103BA0004FF6E07202924FF4784201925A68009206
:103BB0001B68644A0521FA2002F075FA544B4FF64F
:103BC000FF7201925A6800921B685F4A3C211420E0
:103BD00002F0B6FA5D4A5E495A4809F04DFE4C4B78
:103BE00047F6EF3201925A6800921B68554A5021FD
:103BF000282002F0A5FA504B4FF6FF7201925A6846
:103C000000921B68534A6E21282002F099FA4A4B11
:103C10004FF6A01201925A6800921B684E4A872103
:103C2000282002F08DFA3F4B00229A703F4B0A2267
:103C30001A7001F064B901224FF400713A4803F0A0
:103C4000F9FD02F009FF02463A4B5B689A42C1F067
:103C50004981364B0A221A7001F044B9344B0022D4
:103C60005A704FF40071304803F0CCFD0346002B2E
:103C700003D0962002F0FCFE09E001224FF400710F
:103C8000294803F0D7FD40F6AC5002F0F1FE334B6B
:103C90001B881B0A9BB2DBB2304A1288D2B292B2A6
:103CA000002A14BF01220022D2B21344DAB22C4BF4
:103CB0001A702C48FDF7F8FC002485E004F5002379
:103CC0001B0219462302284A1344FF222548FDF708
:103CD00039FD03461A46254B1A70244B1B78792B65
:103CE00048D10B4B002202924FF6E07201925A68C3
:103CF00000921B681E4AB421282002F0D4F95AE031
:103D0000C808002010080020F8070020280800201C
:103D100030020020C0000108CC0001082802002069
:103D2000D4000108B8080020000802400600002066
:103D3000D4080020BC08002038020020F800010848
:103D400018000108B80600200801010823072813FD
:103D500024010108380101084C0101080400002079
:103D6000800700208C050020BC010308810700208B
:103D7000600101083F4B1B781F2B0ED13E4B0022E8
:103D800002924FF6E07201925A6800921B683B4A19
:103D9000B421282002F087F90DE0374B002202926F
:103DA00045F6EB2201925A6800921B68344AB4210E
:103DB000282002F078F9002300931E231E22B4214C
:103DC000282001F0C7FF01342E4B1B78013B9C4299
:103DD000FFF674AF2B4B1B7803F5FF2303F2FF7341
:103DE0001B021846284B1B88DAB2264B1B78013B76
:103DF0001B0226490B4401462548FDF7A3FCFDF7AD
:103E000083FC244B4FF4FC6201925A6800921B68B9
:103E1000214AA0218C2002F093F94FF47A7002F02D
:103E200027FE1C4B4FF4FC6201925A6800921B68FB
:103E30001A4ABE218C2002F083F94FF47A7002F006
:103E400017FE174B00229A70164B1B78032B0BD1D1
:103E5000154B0D221A7002F0FFFD034603F6AC531A
:103E6000104A536001F04BB80F4B05221A7001F055
:103E700046B800BF8107002030020020640101081D
:103E8000680101088007002004000020BC0103082D
:103E90008C050020400200206C010108740101081B
:103EA000B8080020BC08002006000020AC4B00220F
:103EB0005A700222A121AB48FDF7BAFB40F2EF3362
:103EC00000931E234FF4A0720021002001F042FF56
:103ED00000230093D2234FF4A0721E21002001F092
:103EE00039FFA14B4FF6FF7201925A6800921B688E
:103EF0009E4A05213C2002F023F99D4B1B78032BA1
:103F000012D19C499C4809F0B7FC974B4FF6E072E0
:103F100002924FF4784201925A6800921B68964AC6
:103F20000521FA2002F0BFF8944B4FF6FF72019280
:103F30005A6800921B68924AAF21FA2002F000F9F9
:103F40008E4B4FF6FF7201925A6800921B688D4AA1
:103F5000D221FA2002F0F4F88B4B4AF6E572019276
:103F60005A6800921B68894ADC211E2002F0E8F89A
:103F7000874B93F84D30002B00F067810422A1217C
:103F80007848FDF755FB962002F072FD804B93F8C0
:103F90004C30042B40F03E8101F040F87C4B5868D7
:103FA0007C4B00227C49FEF711FD794B98687B4BD6
:103FB00000227949FEF70AFD754BD868784B00223C
:103FC0007549FEF703FD724B1869764B012276495D
:103FD000FEF7FCFC6E4B5869744B01227249FEF7E8
:103FE000F5FC6B4B9869724B01226F49FEF7EEFCB2
:103FF000674BD8696F4B02226F49FEF7E7FC644BB1
:10400000186A6E4B02226C49FEF7E0FC604B586A5E
:104010006B4B02226849FEF7D9FC052002F028FD0F
:10402000FEF78EFD674B1B78082B1FD96649524857
:1040300009F022FC4C4B4FF4FC6201925A6800924A
:104040001B684D4A5021CD2002F07AF85F494A485A
:1040500009F012FC444B4FF4FC6201925A68009242
:104060001B68454A6E21C82002F06AF84949424857
:1040700009F002FC444B4FF6FF7201925A6800921D
:104080001B683D4A23210A2002F05AF843493A4866
:1040900009F0F2FB3C4B4FF6FF7201925A68009216
:1040A0001B68354A37210A2002F04AF83C49324859
:1040B00009F0E2FB344B4FF6FF7201925A6800920E
:1040C0001B682D4A4B210A2002F03AF835492A484C
:1040D00009F0D2FB2C4B4FF6FF7201925A68009206
:1040E0001B68254A5F210A2002F02AF82F4922483E
:1040F00009F0C2FB244B4FF6FF7201925A680092FE
:104100001B681D4A73210A2002F01AF828491A4830
:1041100009F0B2FB1C4B4FF6FF7201925A680092F5
:104120001B68154A87210A2002F00AF82149124823
:1041300009F0A2FB144B4FF6FF7201925A680092ED
:104140001B680D4A9B210A2001F0FAFF1B490A480F
:1041500009F092FB0C4B4FF6FF7201925A6837E060
:10416000D408002014060020380200207C01010839
:10417000BC08002018000108B80600202802002012
:104180008C0101089801010830020020A0010108FB
:10419000840700205C00002008000020BC000020F4
:1041A0001C0100207C0000201C000020DC000020FE
:1041B0003C0100209C0000203C000020FC0000206E
:1041C0005C010020CE080020AC0101089800010825
:1041D00000921B68764AAF210A2001F0B1FF7549B1
:1041E000734809F049FB744B4FF6FF7201925A680D
:1041F00000921B686E4AC3210A2001F0A1FF6F4B99
:10420000002283F84C206D4B002283F84D206C4B2C
:104210000E221A706B4B03221A706A4B4FF496727F
:104220005A80FEF709FD01224021674803F002FB96
:104230004FF4967002F01CFC00224021624803F00B
:10424000F9FA5F4B0E221A7031E002F005FC0246CB
:104250005E4B5B689A422AD35D49554809F00CFBD6
:104260005C4B4FF6FF7201925A6800921B68504AED
:104270003221502001F064FF57494D4809F0FCFA03
:10428000544B4FF6FF7201925A6800921B68484ADD
:104290004B215F2001F054FF484B002283F84C2053
:1042A000464B002283F84D20454B0E221A704B4B93
:1042B00000229A7000F023BE494B00225A70494BED
:1042C000D3ED007AF5EEC07AF1EE10FA04D54FF096
:1042D00000024FF0000306E0424B1B681846FCF753
:1042E0003BF902460B464049314809F0C5FA3F4BBD
:1042F0001B8907EE903AB8EEE77A3A4BD3ED007A95
:10430000B4EEE77AF1EE10FA0EDD2B4B00220292AA
:104310004CF2186201925A6800921B68244ABE212E
:10432000FA2001F0C0FE0DE0234B002202924FF470
:10433000784201925A6800921B681D4ABE21FA20F9
:1043400001F0B1FE1D4B9B6C1A462949184809F033
:1043500093FA284B4FF6FF7201925A6800921B683D
:10436000134AE121FA2001F0EBFE1C4B9B78002B55
:1043700000F0BA85154B1B78032B03D0104B052298
:104380001A7002E00E4B01221A70144B00229A7030
:1043900000F044FE00F08EFE0C4B00221A7000224A
:1043A0004FF40071084803F045FA00F09DBD00BFCE
:1043B000B80600205C0100203002002084070020A5
:1043C00006000020A008002000080240BC080020D1
:1043D000B001010838020020BC010108B808002023
:1043E000D4080020F4070020C40101082808002098
:1043F000CC010108280200209E4B00225A700023A5
:104400000093D2234FF4A0721E21002001F0A2FCE1
:104410001F2300931E234FF4A0720021002001F0FF
:1044200099FC01224FF40071934803F003FA934B77
:104430004FF6FF7201925A6800921B68904A05215C
:10444000502001F07DFE8F4B4FF6FF7201925A68AB
:1044500000921B688C4ADC211E2001F071FE894B02
:104460004FF6FF7201925A6800921B68874A322108
:104470000F2001F065FE834B4FF6FF7201925A68E0
:1044800000921B68824A4B210F2001F059FE7D4BA0
:104490004FF6FF7201925A6800921B687D4A6421B0
:1044A0000F2001F04DFE774B4FF6FF7201925A68D4
:1044B00000921B68784A7D210F2001F041FE714B6C
:1044C0004FF6FF7201925A6800921B68734A962158
:1044D0000F2001F035FE724B4FF6FF7201925A68C1
:1044E00000921B686F4A96213C2001F029FE6C4B1C
:1044F0004FF6FF7201925A6800921B686A4AAA211D
:104500003C2001F01DFE5F4B4FF6FF7201925A688E
:1045100000921B68654A2821DC2001F011FE604BE7
:104520004FF6FF7201925A6800921B68604A382168
:10453000DC2001F005FE5A4B4FF6FF7201925A68DB
:1045400000921B685B4A3621962001F0F9FD544B1E
:104550004FF6FF7201925A6800921B68554A4F212C
:10456000962001F0EDFD4E4B4FF6FF7201925A6816
:1045700000921B68504A6821962001F0E1FD484BEB
:104580004FF6FF7201925A6800921B684A4A8121D5
:10459000962001F0D5FD424B4FF6FF7201925A680A
:1045A00000921B68454A9A21AA2001F0C9FD3C4BA4
:1045B0004FF6FF7201925A6800921B683F4AAE2183
:1045C000AA2001F0BDFD002418E022463C493D48E8
:1045D00009F052F9A3B21A46520013449B009BB251
:1045E0004B3399B22E4B4FF6E07201925A6800920B
:1045F0001B68344ADC2001F0A3FD0134072CE4DD04
:104600003149304809F038F9254B002202924FF623
:10461000FF7201925A6800921B682A4ABE21142038
:1046200001F041FD294B00229A70294B0C221A708F
:1046300000F065BC0F4B00225A70FEF723F8254BA3
:104640001B8A1A4624491F4809F016F9214B1B8A78
:10465000B3F5FA6F42D20B4B002202924FF478422C
:1046600001925A6800921B68164A32215A2001F0C2
:104670001AFD41E0D4080020000802403802002062
:10468000D40101083002002010000108E0010108F7
:10469000640001087C00010874000108E8010108B9
:1046A00028020020EC010108F0010108F4010108D2
:1046B000FC010108840001088800010808020108C3
:1046C0000C020108B806002014020108B8080020F6
:1046D00006000020100800208C0001088E4B0022EC
:1046E00002924FF4FC6201925A6800921B688B4A56
:1046F00032215A2001F0D7FC894B1B8A1A4689497E
:10470000864809F0B9F8864B1B8AB3F5FA6F0ED2CA
:10471000814B002202924FF4784201925A68009233
:104720001B687E4A4B215A2001F0BDFC0DE07A4BFC
:10473000002202924FF4FC6201925A6800921B68B8
:10474000764A4B215A2001F0AEFC754BB3F9083084
:104750001A467449714809F08FF86F4B0022029293
:1047600040F2FF7201925A6800921B686B4A642102
:104770005A2001F098FC6C4BB3F908301A4669498D
:10478000664809F079F8644B0022029240F2FF7209
:1047900001925A6800921B68604A7D215A2001F0FC
:1047A00082FC5F4BDB681846FBF7D6FE02460B46E1
:1047B0005E495A4809F060F8574B002202924FF6C2
:1047C000A01201925A6800921B68544A96215F20F9
:1047D00001F069FC544BDB681846FBF7BDFE02464E
:1047E0000B4652494D4809F047F84B4B00220292C4
:1047F0004FF6A01201925A6800921B68474AAA21FC
:104800005F2001F050FC002423E0494A231D9B0057
:1048100013441B681846FBF79FFE02460B464549AA
:104820003E4809F029F8A3B21A46520013449B00EF
:104830009BB24B3399B2404B002202924FF6FF726B
:1048400001925A6800921B68344AFA2001F02BFC4E
:104850000134072CD9DD394BD3ED007AF5EEC07A5F
:10486000F1EE10FA04D54FF000024FF0000306E01D
:10487000324B1B681846FBF76FFE02460B46304969
:10488000264808F0F9FF2F4B1B8907EE903AB8EE47
:10489000E77A2A4BD3ED007AB4EEE77AF1EE10FA1C
:1048A0000EDD1D4B002202924CF2186201925A68F2
:1048B00000921B68194ABE21642001F0F4FB0DE050
:1048C000154B002202924FF4784201925A680092EE
:1048D0001B68124ABE21642001F0E5FB1A4B9B784D
:1048E000002B00F00383194B9B78012B40F0FE82D4
:1048F000174B01221A70174B0022A3F84420002204
:104900004FF40071144802F095FF0F4B00229A708B
:1049100000F0D0FBEAE200BF30020020B806002021
:10492000F80700208C000108100800202002010870
:10493000400800202802010828020020F407002077
:10494000C401010828080020B8080020D40800206D
:104950000600002084070020000802406B4B002264
:104960005A7000230093D2234FF4A0721E2100201E
:1049700001F0F0F94FF4784300931E234FF4A07236
:104980000021002001F0E6F9614B4FF6FF72019221
:104990005A6800921B685F4A0521692001F0D0FB2C
:1049A0005D4B4FF6FF7201925A6800921B685B4A9A
:1049B000DC211E2001F0C4FB554B4FF6FF72019223
:1049C0005A6800921B68564A4621282001F0B8FB1D
:1049D000514B002202924FF6FF7201925A680092E8
:1049E0001B68504A6421142001F05DFB4A4B0022F1
:1049F00002924FF6FF7201925A6800921B684A4A6F
:104A00008221142001F04FFB484BB3F908301A46BD
:104A10004749484808F030FF444BB3F908301A467C
:104A2000454BDB889A421ADB394B002202924FF445
:104A3000784201925A6800921B683E4A64217820AD
:104A400001F031FB324B4FF4784201925A680092E8
:104A50001B683A4A6421DC2001F072FB0DE02C4B0C
:104A6000002202924FF6FF7201925A6800921B6870
:104A7000304A6421782001F016FB314BB3F908303D
:104A80001A462B492B4808F0F7FE2D4BB3F9083096
:104A90001A46294B9B889A421ADB1D4B0022029230
:104AA0004FF4784201925A6800921B68214A822191
:104AB000782001F0F8FA164B4FF4784201925A68C8
:104AC00000921B681D4A8221DC2001F039FB0DE0B9
:104AD0000F4B002202924FF6FF7201925A68009229
:104AE0001B68144A8221782001F0DDFA154B102250
:104AF0001A7004E2144B9B78002B00F0F981114BE3
:104B000001221A70104B00229A70F1E1D4080020A3
:104B10003802002030020108300200203C02010867
:104B20004C0201087C00010874000108F80700200D
:104B30008C000108B8060020280800209000010819
:104B40001008002006000020B8080020834B032234
:104B50005A7000230093D2234FF4A0721E2100202C
:104B600001F0F8F84FF4787300931E234FF4A0720D
:104B70000021002001F0EEF8794B002201925A68E2
:104B800000921B68774A0521502001F0D9FA764B34
:104B90004FF6FF7201925A6800921B68734ADC213B
:104BA0001E2001F0CDFA7249724808F065FE6E4B86
:104BB0004FF6FF7201925A6800921B686D4A2321DA
:104BC000142001F0BDFA684B4FF6FF7201925A684B
:104BD00000921B68684A6421142001F0B1FA624B0C
:104BE00040F2FF7201925A6800921B68634A7D216D
:104BF000142001F0A5FA5C4B40F2FF7201925A6852
:104C000000921B685E4A8C21142001F099FA564BE1
:104C100040F2FF7201925A6800921B68594AA5211E
:104C2000142001F08DFA504B40F2FF7201925A6845
:104C300000921B68544AB421142001F081FA534AAF
:104C400053494C4808F018FE524B0F2201925A6803
:104C500000921B68474AD721872001F071FA4E4B1A
:104C600012221A704BE13D4B00225A704B4B9B783D
:104C7000002B00F03F81484B13221A7000224FF4A2
:104C80000071474802F0D6FD444B00229A7031E192
:104C9000324B00225A7000230093D2234FF4A072AB
:104CA0001E21002001F056F84FF4787300931E2364
:104CB0004FF4A0720021002001F04CF8284B002294
:104CC00001925A6800921B68364A0521642001F05F
:104CD00037FA254B4FF6FF7201925A6800921B6813
:104CE000314A2321192001F02BFA1F4B4FF6FF7296
:104CF00001925A6800921B682C4A3721192001F052
:104D00001FFA244B4FF6FF7201925A6800921B68FB
:104D1000274ADC21282001F013FA264B0093802338
:104D200080225A21142001F078F8234B009380232D
:104D300080225A21AA2001F070F8174B14221A7011
:104D4000DDE0164B9B78002B00F0D680124B15222D
:104D50001A70124B00229A70CEE000BFD4080020D7
:104D60003802002094FF0008300200206002010891
:104D700068020108B8060020B0020108C00201085C
:104D8000CC020108E8020108FC02010824022912F1
:104D9000180301082802002006000020B80800209F
:104DA0000008024030030108380301084C030108E1
:104DB00064030108BC810208BC010208524B0322B3
:104DC0005A7000230093D2234FF4A0721E210020BA
:104DD00000F0C0FF4FF4787300931E234FF4A072CD
:104DE0000021002000F0B6FF484B002201925A68D3
:104DF00000921B68464A0521642001F0A1F9454B49
:104E000040F2FF7201925A6800921B68424A2321C5
:104E10000A2001F095F93F4B40F2FF7201925A6867
:104E200000921B683C4A34210A2001F089F9394B71
:104E30004FF6FF7201925A6800921B68374A23218D
:104E40004B2001F07DF9334B4FF6FF7201925A6807
:104E500000921B68324A34214B2001F071F92D4B2E
:104E60004FF6FF7201925A6800921B682D4ADC21AE
:104E7000282001F065F92C4B4AF6E57201925A6838
:104E800000921B68294A46211E2001F059F9284B3F
:104E90000093802380225A21142000F0BEFF254B6E
:104EA00000937F237E225A21AA2000F0B6FF224BD6
:104EB00016221A7023E0214B9B78002B1ED01E4B2C
:104EC00001221A7000224FF400711D4802F0B2FC5A
:104ED0001A4B00229A7011E000BF10E000BF0EE0F4
:104EE00000BF0CE000BF0AE000BF08E000BF06E022
:104EF00000BF04E000BF02E000BF00E000BF00BF51
:104F00000C37BD4690BD00BFD408002038020020F9
:104F10007C0301082802002088030108940301088B
:104F2000B0030108D003010830020020EC0301089F
:104F3000B8040108B884010806000020B808002061
:104F4000000802400000000080B582B000AF0346B8
:104F5000FB80FB881846FBF7EDFA4FF00002104B80
:104F6000FBF77CFC02460B46104619460AA3D3E920
:104F70000023FBF749FB02460B4610461946FBF798
:104F80003BFE034607EE903AB0EE670A0837BD468F
:104F900080BD00BFAFF300806666666666660A4045
:104FA0000000B0400000000080B582B000AF87ED87
:104FB000010A7868FBF7D0FA14A3D3E90023FBF7C2
:104FC0006BF902460B461046194612A3D3E900239B
:104FD000FBF744FC02460B46104619464FF0000210
:104FE000094BFBF75BF902460B4610461946FBF7E7
:104FF00003FE034607EE903AB0EE670A0837BD4657
:1050000080BD00BFAFF300800000394052B81E855C
:10501000EB51E83F7B14AE47E17A643F80B500AFC7
:105020001249134808F028FC1249134808F024FCE0
:105030001249134808F020FC1249134808F01CFCE0
:105040001249134808F018FC1249134808F014FCE0
:105050001249134808F010FC1249134808F00CFCE0
:105060001249134808F008FC00BF80BD0404010881
:105070005C0000200C0401087C00002014040108DE
:105080009C0000201C040108BC000020240401082E
:10509000DC0000202C040108FC000020340401087E
:1050A0001C0100203C0401083C01002044040108CC
:1050B0005C01002090B400AF0A4B00229A64094BB7
:1050C0000022A3F84420002404E0064B002243F809
:1050D00024200134092CF8DD00BF00BFBD4690BC80
:1050E000704700BF8407002080B582B000AF034640
:1050F000FB80FB88B3F5005F0FD10E4B08221A70BE
:105100000C4BFA225A800B4B64229A80FDF794FDD7
:105110000222A1210848FCF78BFAFB88802B05D1DD
:10512000064B9B780133DAB2044B9A7000BF083704
:10513000BD4680BDA008002014060020B80800204D
:1051400080B582B000AF78607B68074A934206D191
:10515000064B1B680133054A1360FDF76DFD00BF68
:105160000837BD4680BD00BF4405002098080020D8
:1051700080B582B000AF786005490648FCF7E8F8D2
:1051800003490548FCF7DAF900BF0837BD4680BD82
:1051900084070020E80700201406002080B400AF38
:1051A00072B600BFFEE7000080B582B000AF0023FA
:1051B0007B60104B5B6C0F4A43F4804353640D4B90
:1051C0005B6C03F480437B607B6800233B60094B8E
:1051D0001B6C084A43F080531364064B1B6C03F0AE
:1051E00080533B603B68072001F036FD00BF083765
:1051F000BD4680BD0038024080B58AB000AF7860FF
:1052000007F1140300221A605A609A60DA601A618A
:105210007B681B68214A93423CD100233B61204BB1
:105220001B6B1F4A43F0020313631D4B1B6B03F000
:1052300002033B613B694FF440737B611223BB6106
:105240000023FB6103233B6204237B6207F1140309
:105250001946144802F052F90023FB60104B1B6CF6
:105260000F4A43F4001313640D4B1B6C03F400133B
:10527000FB60FB68002200211F2001F0F8FC1F20CA
:1052800001F011FD00220021202001F0F0FC20207F
:1052900001F009FD00BF2837BD4680BD0054004025
:1052A000003802400004024080B58AB000AF786048
:1052B00007F1140300221A605A609A60DA601A61DA
:1052C0007B681B68194A93422CD100233B61184B21
:1052D0001B6C174A43F400431364154B1B6C03F417
:1052E00000433B613B690023FB60114B1B6B104A81
:1052F00043F0040313630E4B1B6B03F00403FB60CA
:10530000FB684FF4E0537B610223BB610023FB6128
:1053100003233B6206237B6207F114031946054809
:1053200002F0ECF800BF2837BD4680BD003C0040CD
:10533000003802400008024080B58AB000AF7860B3
:1053400007F1140300221A605A609A60DA601A6149
:105350007B681B68194A93422BD100233B61184B91
:105360001B6C174A43F002031364154B1B6C03F0CC
:1053700002033B613B690023FB60114B1B6B104A2E
:1053800043F0010313630E4B1B6B03F00103FB603F
:10539000FB68C0237B610223BB610023FB61002308
:1053A0003B6202237B6207F114031946054802F0B1
:1053B000A5F800BF2837BD4680BD00BF00040040EF
:1053C000003802400000024080B584B000AF786031
:1053D0007B681B680E4A934215D10023FB600D4B7E
:1053E0005B6C0C4A43F4003353640A4B5B6C03F46C
:1053F0000033FB60FB6800220021192001F037FC1C
:10540000192001F050FC00BF1037BD4680BD00BF21
:10541000004401400038024080B58EB000AF786093
:1054200007F1240300221A605A609A60DA601A6158
:105430007B681B68744A934235D100233B62734BEF
:105440005B6C724A43F010035364704B5B6C03F067
:1054500010033B623B6A0023FB616C4B1B6B6B4A86
:1054600043F001031363694B1B6B03F00103FB6102
:10547000FB694FF4C0637B620223BB620023FB62C3
:1054800003233B6307237B6307F12403194660482A
:1054900002F034F800220021252001F0E8FB25204D
:1054A00001F001FCABE07B681B685A4A93422CD1A7
:1054B0000023BB61554B1B6C544A43F40033136407
:1054C000524B1B6C03F40033BB61BB6900237B614F
:1054D0004E4B1B6B4D4A43F0010313634B4B1B6B4D
:1054E00003F001037B617B690C237B620223BB62B7
:1054F0000023FB6203233B6307237B6307F1240341
:105500001946434801F0FAFF79E07B681B68424A7C
:10551000934274D100233B613C4B5B6C3B4A43F0AC
:1055200020035364394B5B6C03F020033B613B6900
:105530000023FB60354B1B6B344A43F001031363BC
:10554000324B1B6B03F00103FB60FB684FF40063FD
:105550007B620223BB620023FB6203233B630823BD
:105560007B6307F124031946294801F0C7FF4FF474
:1055700080537B620223BB620123FB6203233B63F4
:1055800008237B6307F124031946214801F0B6FF85
:10559000224B234A1A60214B4FF020625A601F4B66
:1055A00000229A601D4B0022DA601C4B4FF480628F
:1055B0001A611A4B00225A61184B00229A61174B4C
:1055C0004FF48072DA61154B00221A62134B0022ED
:1055D0005A62124801F082FB0346002B01D0FFF70C
:1055E000DDFD7B680D4A9A630C4A7B689363002259
:1055F0000021472001F03BFB472001F054FB00BF96
:105600003837BD4680BD00BF001001400038024061
:1056100000000240004400400014014058060020F1
:105620002864024080B400AFFEE780B400AFFEE71C
:1056300080B400AFFEE780B400AFFEE780B400AFF7
:10564000FEE780B400AF00BFBD465DF8047B704745
:1056500080B400AF00BFBD465DF8047B704780B4E6
:1056600000AF00BFBD465DF8047B704780B500AF5A
:1056700001F0DEF900BF80BD80B500AF802002F0F0
:105680000DF900BF80BD000080B500AF024805F0F5
:105690005AFF00BF80BD00BF4405002080B500AFA9
:1056A000024802F077FD00BF80BD00BF500400201B
:1056B00080B500AF024802F0DEFE00BF80BD00BF33
:1056C0005004002080B500AF024806F047FB00BF41
:1056D00080BD00BF8C05002080B500AF4FF40050A6
:1056E00002F0DCF800BF80BD80B500AF024801F0D9
:1056F0008DFC00BF80BD00BF5806002080B500AF04
:10570000024806F02BFB00BF80BD00BF140600203E
:1057100080B400AF01231846BD465DF8047B704796
:1057200080B582B000AF7860396007F009FC0346AD
:1057300016221A604FF0FF3318460837BD4680BD69
:1057400080B582B000AF78604FF0FF317868FFF726
:10575000E7FFFEE780B586B000AFF860B9607A6019
:1057600000237B610AE0AFF300800146BB685A1C4E
:10577000BA60CAB21A707B6901337B617A697B684F
:105780009A42F0DB7B6818461837BD4680BD80B56D
:1057900086B000AFF860B9607A6000237B6109E0F1
:1057A000BB685A1CBA601B781846AFF300807B694F
:1057B00001337B617A697B689A42F1DB7B6818462A
:1057C0001837BD4680BD80B483B000AF78604FF01D
:1057D000FF3318460C37BD465DF8047B704780B434
:1057E00083B000AF786039603B684FF400525A6074
:1057F000002318460C37BD465DF8047B704780B423
:1058000083B000AF7860012318460C37BD465DF8C1
:10581000047B704780B485B000AFF860B9607A60EF
:10582000002318461437BD465DF8047B704700001E
:1058300080B586B000AF7860144A154BD31A7B61EF
:105840007B693B61134B1B68002B02D1114B124A41
:105850001A60104B1A687B6813443A699A4207D25F
:1058600007F06EFB03460C221A604FF0FF3309E08D
:10587000084B1B68FB60074B1A687B681344054A9A
:105880001360FB6818461837BD4680BD0000022033
:1058900000040000E00800200009002080B400AFF0
:1058A000064BD3F88830054A43F47003C2F88830B9
:1058B00000BFBD465DF8047B704700BF00ED00E00F
:1058C00080B500AF012000F0FEFE112000F082FF45
:1058D00000BF80BD80B400AF4FF4A0731846BD4632
:1058E0005DF8047B704780B400AFF0231846BD46D6
:1058F0005DF8047B7047000080B582B002AF524B68
:105900001B7803F00103002B15D14F4B1B7843F09C
:105910000103DAB24C4B1A704B4B1B7803F00203B5
:10592000002B01D100F0DAFE474B1B7843F0020355
:10593000DAB2454B1A700A2000F0BAFE012000F0DE
:1059400049FF0A2000F0B4FE03224049EF2000F096
:10595000AFFF03223E49CF2000F0AAFF04223D49B9
:10596000ED2000F0A5FF03223B49E82000F0A0FF56
:1059700005223A49CB2000F09BFF01223849F7204D
:1059800000F096FF02223749EA2000F091FF012241
:105990003549C02000F08CFF01223449C12000F0BD
:1059A00087FF02223249C52000F082FF01223149DF
:1059B000C72000F07DFF01222F49372000F078FF3B
:1059C00001222E493A2000F073FF02222C49B12017
:1059D00000F06EFF03222B49B62000F069FF012280
:1059E0002549F22000F064FF01222749262000F01B
:1059F0005FFF0F222549E02000F05AFF0F222449C3
:105A0000E12000F055FF362000F0E4FE282000F0F1
:105A1000FFFE112000F0DEFE0A2000F049FE002308
:105A20000093F0234FF4A0720021002000F092F9BF
:105A30000A2000F03DFE292000F0CCFE0A2000F0F4
:105A400037FE00BFBD4680BDE40800204C040108BD
:105A500050040108540401085C04010860040108B2
:105A6000680401086C04010870040108740401084A
:105A7000780401087C0401088004010884040108FA
:105A8000880401088C0401089004010894040108AA
:105A9000A404010880B582B000AF0346FB800B462A
:105AA000BB8013467B802A2000F094FEFB881B0AF3
:105AB0009BB2DBB2184600F0ABFEFB88DBB21846A7
:105AC00000F0A6FEFB881B0A9BB2DBB2184600F072
:105AD0009FFEFB88DBB2184600F09AFE2B2000F0F8
