:020000040800F2
:1000000000000220FD230008C1210008C7210008CC
:10001000CD210008D3210008D921000800000000EC
:10002000000000000000000000000000DF210008C8
:10003000ED21000800000000FB2100080922000853
:100040004D2400084D2400084D2400084D240008CC
:100050004D2400084D2400084D2400084D240008BC
:100060004D2400084D2400084D24000815220008E6
:100070004D2400084D2400084D2400084D2400089C
:100080004D2400084D240008292200084D240008B2
:100090004D2400084D2400084D2400084D2400087C
:1000A0004D2400084D2400084D2400084D2400086C
:1000B0004D2400084D2400084D2400084D2400085C
:1000C0004D2400084D2400084D2400084D2400084C
:1000D0004D2400084D2400084D2400084D2400083C
:1000E0003D2200084D2400084D2400084D2400083E
:1000F0004D2400084D2400084D2400084D2400081C
:100100004D2400084D2400084D2400084D2400080B
:100110004D2400084D2400084D2400084D240008FB
:100120004D2400084D2400084D2400084D240008EB
:100130004D2400084D2400084D2400084D240008DB
:100140004D2400084D2400084D2400084D240008CB
:100150004D2400084D2400084D2400084D240008BB
:100160004D2400084D2400084D2400084D240008AB
:100170004D2400084D2400084D2400084D2400089B
:100180004D2400084D2400084D2400084D2400088B
:100190004D240008000000004D2400084D240008F4
:1001A0004D2400084D2400084D2400084D2400086B
:1001B0004D2400084D2400084D2400084D2400085B
:1001C0004D2400084D2400084D2400084D2400084B
:0801D0004D2400084D24000835
:1001E00010B5054C237833B9044B13B10448AFF371
:1001F00000800123237010BD9C030020000000003C
:10020000D096000808B5034B1BB103490348AFF370
:10021000008008BD00000000A0030020D096000868
:1002200001F0FF01102A2BDB10F0070F08D010F8A7
:10023000013B013A8B422DD010F0070F42B3F6D1AB
:10024000F0B441EA012141EA014122F007047FF0C4
:1002500000070023F0E80256083C85EA010586EA1B
:10026000010685FA47F5A3FA87F586FA47F6A5FA57
:1002700087F68EB9EED1F0BC01F0FF0102F0070263
:1002800032B110F8013B013A83EA010313B1F8D10E
:100290000020704701387047002D06BF35460338EF
:1002A000073815F0010F07D1013015F4807F02BF28
:1002B000013015F4C03F0130F0BC0138704700BF79
:1002C000034613F8012B002AFBD1181A0138704796
:1002D00081F0004102E000BF83F0004330B54FEAF7
:1002E00041044FEA430594EA050F08BF90EA020F64
:1002F0001FBF54EA000C55EA020C7FEA645C7FEAF7
:10030000655C00F0E2804FEA5454D4EB5555B8BF19
:100310006D420CDD2C4480EA020281EA030382EA8A
:10032000000083EA010180EA020281EA0303362D1C
:1003300088BF30BD11F0004F4FEA01314FF4801CEF
:100340004CEA113102D0404261EB410113F0004F01
:100350004FEA03334CEA133302D0524263EB4303B8
:1003600094EA050F00F0A780A4F10104D5F1200E56
:100370000DDB02FA0EFC22FA05F2801841F10001B1
:1003800003FA0EF2801843FA05F359410EE0A5F185
:1003900020050EF1200E012A03FA0EFC28BF4CF0B6
:1003A000020C43FA05F3C01851EBE37101F000456C
:1003B00007D54FF0000EDCF1000C7EEB00006EEB79
:1003C0000101B1F5801F1BD3B1F5001F0CD3490803
:1003D0005FEA30004FEA3C0C04F101044FEA44525A
:1003E00012F5800F80F09A80BCF1004F08BF5FEAE1
:1003F000500C50F1000041EB045141EA050130BDC1
:100400005FEA4C0C404141EB0101013C28BFB1F5D2
:10041000801FE9D291F0000F04BF01460020B1FA1D
:1004200081F308BF2033A3F10B03B3F120020CDAF0
:100430000C3208DD02F1140CC2F10C0201FA0CF0CE
:1004400021FA02F10CE002F11402D8BFC2F1200C33
:1004500001FA02F120FA0CFCDCBF41EA0C019040E9
:10046000E41AA2BF01EB0451294330BD6FEA040432
:100470001F3C1CDA0C340EDC04F11404C4F120021D
:1004800020FA04F001FA02F340EA030021FA04F32F
:1004900045EA030130BDC4F10C04C4F1200220FA86
:1004A00002F001FA04F340EA0300294630BD21FAC4
:1004B00004F0294630BD94F0000F83F4801306BF8A
:1004C00081F480110134013D4EE77FEA645C18BF7E
:1004D0007FEA655C29D094EA050F08BF90EA020F15
:1004E00005D054EA000C04BF1946104630BD91EA0D
:1004F000030F1EBF0021002030BD5FEA545C05D110
:100500004000494128BF41F0004130BD14F580044E
:100510003CBF01F5801130BD01F0004545F0FE41C2
:1005200041F470014FF0000030BD7FEA645C1ABFF7
:10053000194610467FEA655C1CBF0B46024650EA2E
:10054000013406BF52EA033591EA030F41F400215A
:1005500030BD00BF90F0000F04BF0021704730B5E0
:100560004FF4806404F132044FF000054FF00001B5
:1005700050E700BF90F0000F04BF0021704730B576
:100580004FF4806404F1320410F0004548BF40424B
:100590004FF000013EE700BF42004FEAE2014FEAA0
:1005A00031014FEA02701FBF12F07F4393F07F4F7B
:1005B00081F06051704732F07F4208BF704793F07E
:1005C0007F4F04BF41F40021704730B54FF4607491
:1005D00001F0004521F000411CE700BF50EA010294
:1005E00008BF704730B54FF000050AE050EA01023D
:1005F00008BF704730B511F0004502D5404261EBAD
:1006000041014FF4806404F132045FEA915C3FF4ED
:10061000D8AE4FF003025FEADC0C18BF03325FEA8A
:10062000DC0C18BF033202EBDC02C2F1200300FA3B
:1006300003FC20FA02F001FA03FE40EA0E0021FA60
:1006400002F11444BDE600BF70B54FF0FF0C4CF44E
:10065000E06C1CEA11541DBF1CEA135594EA0C0F00
:1006600095EA0C0F00F0DEF82C4481EA030621EA3B
:100670004C5123EA4C5350EA013518BF52EA033576
:1006800041F4801143F4801338D0A0FB02CE4FF028
:100690000005E1FB02E506F00042E0FB03E54FF058
:1006A0000006E1FB03569CF0000F18BF4EF0010E50
:1006B000A4F1FF04B6F5007F64F5407404D25FEA4C
:1006C0004E0E6D4146EB060642EAC62141EA5551FF
:1006D0004FEAC52040EA5E504FEACE2EB4F1FD0C41
:1006E00088BFBCF5E06F1ED8BEF1004F08BF5FEABF
:1006F000500E50F1000041EB045170BD06F0004671
:1007000046EA010140EA020081EA0301B4EB5C041D
:10071000C2BFD4EB0C0541EA045170BD41F4801115
:100720004FF0000E013C00F3AB8014F1360FDEBF3A
:10073000002001F0004170BDC4F10004203C35DA16
:100740000C341BDC04F11404C4F1200500FA05F399
:1007500020FA04F001FA05F240EA020001F000423A
:1007600021F0004110EBD37021FA04F642EB0601B0
:100770005EEA430E08BF20EAD37070BDC4F10C04DA
:10078000C4F1200500FA04F320FA05F001FA04F29E
:1007900040EA020001F0004110EBD37041F100018A
:1007A0005EEA430E08BF20EAD37070BDC4F1200595
:1007B00000FA05F24EEA020E20FA04F301FA05F2FD
:1007C00043EA020321FA04F001F0004121FA04F2A5
:1007D00020EA020000EBD3705EEA430E08BF20EA75
:1007E000D37070BD94F0000F0FD101F000464000AF
:1007F00041EB010111F4801F08BF013CF7D041EA31
:10080000060195F0000F18BF704703F00046520034
:1008100043EB030313F4801F08BF013DF7D043EA05
:100820000603704794EA0C0F0CEA135518BF95EABB
:100830000C0F0CD050EA410618BF52EA4306D1D142
:1008400081EA030101F000414FF0000070BD50EA61
:10085000410606BF1046194652EA430619D094EAEB
:100860000C0F02D150EA013613D195EA0C0F05D1D5
:1008700052EA03361CBF104619460AD181EA030129
:1008800001F0004141F0FE4141F470014FF00000E1
:1008900070BD41F0FE4141F4780170BD70B54FF07C
:1008A000FF0C4CF4E06C1CEA11541DBF1CEA1355FC
:1008B00094EA0C0F95EA0C0F00F0A7F8A4EB0504DE
:1008C00081EA030E52EA03354FEA013100F08880D5
:1008D0004FEA03334FF0805545EA131343EA12639E
:1008E0004FEA022245EA111545EA10654FEA002653
:1008F0000EF000419D4208BF964244F1FD0404F50C
:10090000407402D25B084FEA3202B61A65EB030567
:100910005B084FEA32024FF480104FF4002CB6EB24
:10092000020E75EB030E22BFB61A754640EA0C00A4
:100930005B084FEA3202B6EB020E75EB030E22BFE4
:10094000B61A754640EA5C005B084FEA3202B6EB25
:10095000020E75EB030E22BFB61A754640EA9C00E4
:100960005B084FEA3202B6EB020E75EB030E22BFB4
:10097000B61A754640EADC0055EA060E18D04FEA72
:10098000051545EA16754FEA06164FEAC30343EA12
:1009900052734FEAC2025FEA1C1CC0D111F4801FDF
:1009A0000BD141EA00014FF000004FF0004CB6E7D8
:1009B00011F4801F04BF01430020B4F1FD0C88BF77
:1009C000BCF5E06F3FF6AFAEB5EB030C04BFB6EB82
:1009D000020C5FEA500C50F1000041EB045170BD75
:1009E0000EF0004E4EEA113114EB5C04C2BFD4EBA2
:1009F0000C0541EA045170BD41F480114FF0000E26
:100A0000013C90E645EA060E8DE60CEA135594EAA1
:100A10000C0F08BF95EA0C0F3FF43BAF94EA0C0FA4
:100A20000AD150EA01347FF434AF95EA0C0F7FF419
:100A300025AF104619462CE795EA0C0F06D152EA6D
:100A400003353FF4FDAE1046194622E750EA410651
:100A500018BF52EA43067FF4C5AE50EA41047FF462
:100A60000DAF52EA43057FF4EBAE12E74FF0FF3CC7
:100A700006E000BF4FF0010C02E000BF4FF0010C98
:100A80004DF804CD4FEA410C7FEA6C5C4FEA430C11
:100A900018BF7FEA6C5C1BD001B050EA410C0CBF60
:100AA00052EA430C91EA030F02BF90EA020F0020C2
:100AB000704710F1000F91EA030F58BF994208BF29
:100AC00090422CBFD8176FEAE37040F001007047E6
:100AD0004FEA410C7FEA6C5C02D150EA013C07D13D
:100AE0004FEA430C7FEA6C5CD6D152EA033CD3D088
:100AF0005DF8040B704700BF8446104662468C4682
:100B00001946634600E000BF01B5FFF7B7FF0028B4
:100B100048BF10F1000F01BD4DF808EDFFF7F4FFDD
:100B20000CBF012000205DF808FB00BF4DF808ED68
:100B3000FFF7EAFF34BF012000205DF808FB00BF8B
:100B40004DF808EDFFF7E0FF94BF012000205DF8AD
:100B500008FB00BF4DF808EDFFF7CEFF94BF012062
:100B600000205DF808FB00BF4DF808EDFFF7C4FF5B
:100B700034BF012000205DF808FB00BF4FEA410CA4
:100B80007FEA6C5C02D150EA013C0AD14FEA430C87
:100B90007FEA6C5C02D152EA033C02D14FF00000C4
:100BA00070474FF0010070474FEA410212F5001202
:100BB00015D211D56FF47873B3EB625212D94FEAA4
:100BC000C12343F0004343EA505311F0004F23FA8E
:100BD00002F018BF404270474FF00000704750EAE3
:100BE000013005D111F0004008BF6FF000407047A0
:100BF0004FF00000704700BF4FEA4102B2F1E043FE
:100C000024BFB3F5001CDCF1FE5C0DD901F0004CF3
:100C10004FEAC0024CEA5070B2F1004F40EB830043
:100C200008BF20F00100704711F0804F21D113F16F
:100C30003872BCBF01F00040704741F480114FEAA8
:100C40005252C2F11802C2F1200C10FA0CF320FA31
:100C500002F018BF40F001004FEAC1234FEAD3234E
:100C600003FA0CFC40EA0C0023FA02F34FEA4303B8
:100C7000CCE77FEA625307D150EA01331EBF4FF041
:100C8000FE4040F44000704701F0004040F0FE405C
:100C900040F40000704700BF53B94AB9002908BFAB
:100CA00000281CBF4FF0FF314FF0FF3000F070B94B
:100CB000ADF1080C6DE904CE00F006F8DDF804E0B3
:100CC000DDE9022304B070472DE9F047089E0D4688
:100CD00004460F46002B4AD18A42944665D9B2FA9F
:100CE00082F343B102FA03FCC3F120029F4020FAD1
:100CF00002F217439C404FEA1C4E1FFA8CF5B7FBDB
:100D0000FEF1220C0EFB117742EA074201FB05F0CF
:100D100090420AD91CEB020201F1FF3780F01C81DE
:100D2000904240F2198102396244121AA4B2B2FB15
:100D3000FEF00EFB102244EA024400FB05F5A5423A
:100D40000AD91CEB040400F1FF3280F00781A542B0
:100D500040F204816444023840EA0140641B0021EF
:100D60001EB1DC400023C6E90043BDE8F0878B429A
:100D700008D9002E00F0ED800021C6E900050846E4
:100D8000BDE8F087B3FA83F1002949D1AB4202D321
:100D9000824200F2F880841A65EB030201201746B4
:100DA000002EE2D0C6E90047DFE702B9FFDEB2FA63
:100DB00082F3002B40F090808A1A4FEA1C471FFAFA
:100DC0008CFE0121B2FBF7F507FB1520220C42EA4D
:100DD00000420EFB05F0904208D91CEB020205F11F
:100DE000FF3802D2904200F2CB804546121AA4B2DC
:100DF000B2FBF7F007FB102244EA02440EFB00FEB0
:100E0000A64508D91CEB040400F1FF3202D2A64526
:100E100000F2BB801046A4EB0E0440EA05409FE7B9
:100E2000C1F120078B4022FA07FC4CEA030C05FABB
:100E300001F420FA07F3FD404FEA1C492343B5FBB8
:100E4000F9F81FFA8CFE09FB18551C0C44EA0544FE
:100E500008FB0EF5A54202FA01F200FA01F00BD9E7
:100E60001CEB040408F1FF3A80F08880A54240F2B0
:100E70008580A8F102086444641B9DB2B4FBF9F3B9
:100E800009FB134445EA044403FB0EFEA64508D9BA
:100E90001CEB040403F1FF356CD2A6456AD9023B72
:100EA000644443EA0843A3FB0295A4EB0E04AC425E
:100EB000C846AE4656D353D056B1B0EB080264EBE9
:100EC0000E0404FA07F7CA40CC401743C6E9007481
:100ED00018460021BDE8F087C3F1200102FA03FCA7
:100EE00020FA01F225FA01F19D402A434FEA1C47FE
:100EF0001FFA8CFEB1FBF7F007FB1015110C41EA4D
:100F0000054100FB0EF58D4204FA03F408D91CEBF1
:100F1000010100F1FF382FD28D422DD902386144F2
:100F2000491B92B2B1FBF7F507FB151142EA0142EA
:100F300005FB0EF1914208D91CEB020205F1FF38C6
:100F400016D2914214D9023D6244521A45EA004138
:100F500038E73146304608E73946E6E61046FBE614
:100F60004845A9D2B9EB020865EB0C0E013BA3E79B
:100F70004546EAE72B4694E74046D1E7D0467BE773
:100F8000023D624432E708460AE76444023842E719
:100F9000704700BF90B587B000AF7860396000231C
:100FA000BB607B681B687B617B68DB683B610023FF
:100FB000FB8100240AE023465B003A6813441B8847
:100FC000142B06D0FB890133FB810134112CF2DD97
:100FD00000E000BF00240EE023465B003A681344A3
:100FE0001B885B00032202FA03F3DB431A467B698A
:100FF00013407B610134FB899C42EDDB7B687A699D
:101000001A6000241AE023465B003A6813441B88E8
:101010005B00032202FA03F3DB431A463B691340E9
:101020003B6123465B003A6813441B885B00012246
:1010300002FA03F33A6913433B610134FB899C4292
:10104000E1DB7B683A69DA60012001F071FA7B68C4
:101050001B691B04BA681343BB6000241AE02346D3
:101060005B003A6813441B885B00032202FA03F317
:10107000DB431A463B6913403B6123465B003A68F9
:1010800013441B885B00022202FA03F33A691343FC
:101090003B610134FB899C42E1DB7B683A69DA60A1
:1010A000052001F045FA7B681B69BA681343BB60F1
:1010B000BB6818461C37BD4690BD90B587B000AFE1
:1010C000786039607B681B687B6100233B6100238B
:1010D000BB600023FB8100240AE023465B003A68E2
:1010E00013441B88142B06D0FB890133FB81013488
:1010F000112CF2DD00E000BF00241AE023465B0063
:101100003A6813441B885B00032202FA03F3DB43B3
:101110001A467B6913407B6123465B003A6813449F
:101120001B885B00012202FA03F37A6913437B6197
:101130000134FB899C42E1DB7B687A691A600024F8
:1011400019E023465B003A6813441B881A460123C2
:101150009340DB431A463B6913403B6123465B00E7
:101160003A6813441B881A46012393401A463B6988
:1011700013433B610134FB899C42E2DB7B683A69A3
:101180009A61012001F0D4F97B681B691B04BA68DD
:101190001343BB60012001F0CBF93B691A047B6863
:1011A0009A61012001F0C4F97B681B69BA68134396
:1011B000BB60BB6818461C37BD4690BD90B589B072
:1011C00000AF786039607B681B68FB610023BB61FE
:1011D00000237B610023FB6000237B8200240AE064
:1011E00023465B003A6813441B88142B06D07B8A85
:1011F00001337B820134112CF2DD00E000BF0024BA
:101200001AE023465B003A6813441B885B00032204
:1012100002FA03F3DB431A46FB691340FB612346E2
:101220005B003A6813441B885B00112202FA03F347
:10123000FA691343FB6101347B8A9C42E1DB7B68E2
:10124000FA691A6000241AE023465B003A681344E6
:101250001B885B00032202FA03F3DB431A467B6917
:1012600013407B6123465B003A6813441B885B0094
:10127000012202FA03F37A6913437B6101347B8A0A
:101280009C42E1DB7B687A69DA60002419E023463E
:101290005B003A6813441B881A4601239340DB43E2
:1012A0001A46BB691340BB6123465B003A6813448E
:1012B0001B881A46012393401A46BB691343BB613E
:1012C00001347B8A9C42E2DB7B68BA699A61012027
:1012D00001F02EF97B681B691B04FA681343FB605D
:1012E000012001F025F9BB691A047B689A6101208D
:1012F00001F01EF97B681B69FA681343FB60FB6809
:1013000018462437BD4690BDB0B594B004AF01F087
:101310009EF800F05DFA00F0A5FB00F079FB00F00C
:101320002DFB00F0A1FA574B3C461D460FCD0FC4D4
:101330000FCD0FC40FCD0FC495E80F0007C4238055
:101340003B461846FEF7BCFF03469AB239460A23CD
:101350004D4804F0DBFC4D4A4D494E4806F048F834
:101360004C48FEF7ADFF03469AB20A234949464866
:1013700004F0CCFC06224849484801F001FD484BE6
:10138000424A9A6401F0C8F80246464B1B689A42EA
:10139000C0F02681434B1B6803F57A73414A136002
:1013A00020214FF0904003F0F9FB3F49394806F007
:1013B0001FF83848FEF784FF03469AB20A233549DE
:1013C000314804F0A3FC344B5B881C46324B5B88ED
:1013D0009FED360A184600F0B3FB10EE103A18469F
:1013E000FFF7DAF802460B46CDE9002322463049E2
:1013F000284805F0FDFF2748FEF762FF03469AB232
:101400000A232449204804F081FC234B1B881C46F6
:10141000214B1B881BB29FED270A184600F0BEFB2C
:1014200010EE103A1846FFF7B7F802460B460621B1
:101430000291CDE9002322461F49164805F0D8FF46
:101440001448FEF73DFF03469AB20A2311490E489D
:1014500004F05CFC194B1B78002B00F0C180184B8A
:101460001B78082B30D917490A4805F0C1FF0948F5
:10147000FEF726FF03469AB20A230649024804F003
:1014800045FC2FE0C497000884040020231226BBEB
:10149000E8960008BC05002014050020B8030020D1
:1014A000580500203405002000970008E17A5440D8
:1014B00044970008333353406097000831050020FB
:1014C000320500208C970008AA49AB4805F090FF30
:1014D000A948FEF7F5FE03469AB20A23A649A74893
:1014E00004F014FCA649A44805F082FFA248FEF7C8
:1014F000E7FE03469AB20A239F49A04804F006FC7F
:10150000A0499D4805F074FF9B48FEF7D9FE0346AD
:101510009AB20A239849994804F0F8FB9A499648E8
:1015200005F066FF9448FEF7CBFE03469AB20A2305
:101530009149924804F0EAFB94498F4805F058FF1E
:101540008D48FEF7BDFE03469AB20A238A498B48AE
:1015500004F0DCFB8E49884805F04AFF8648FEF718
:10156000AFFE03469AB20A238349844804F0CEFBB7
:101570008849814805F03CFF7F48FEF7A1FE0346FD
:101580009AB20A237C497D4804F0C0FB82497A481C
:1015900005F02EFF7848FEF793FE03469AB20A2321
:1015A0007549764804F0B2FB7C49734805F020FF8A
:1015B0007148FEF785FE03469AB20A236E496F48CA
:1015C00004F0A4FB76496C4805F012FF6A48FEF768
:1015D00077FE03469AB20A236749684804F096FBEF
:1015E000704B1B78002B0DD000F096FF02466E4B1F
:1015F0001B689A4206D36D4B022283F84C20694B3C
:1016000000221A70694B93F84C30022B7FF4BAAE6B
:10161000674B1B780133DAB2654B1A704FF0904379
:101620001B68644A13604FF09043DB68624A1360A2
:1016300062494FF09040FFF7ADFC03465B4A5360B0
:101640005F496048FFF7A6FC0346584A13615E49AC
:101650005E48FFF79FFC0346544AD361052000F023
:1016600067FF56494FF09040FFF727FD03464F4A6A
:10167000936053495348FFF720FD03464B4A53619B
:1016800051495248FFF719FD0346484A13620520A5
:1016900000F04EFF49494FF09040FFF78FFD0346A1
:1016A000424AD36046494748FFF788FD03463F4A10
:1016B000936145494548FFF781FD03463B4A536224
:1016C0004FF090423B4B1B6813604FF090423A4BF7
:1016D0001B68D36000F096FB344B5868284B0022FF
:1016E000364900F0D5FA314B9868264B0022334931
:1016F00000F0CEFA2D4BD868234B00222F4900F082
:10170000C7FA2A4B1869214B01222D4900F0C0FA73
:10171000264B58691E4B0122294900F0B9FA234B88
:1017200098691C4B0122264900F0B2FA1F4BD86978
:10173000194B0222244900F0ABFA1C4B186A174BD4
:101740000222214900F0A4FA184B586A144B0222D5
:101750001D4900F09DFA0A2000F0EAFE00F09EFB11
:10176000124B042283F84C20104B002283F84C20AB
:1017700008E600BFA8970008BC05002084040020EC
:101780005C000020D40000204C01002084000020D8
:10179000FC00002074010020AC0000202401002087
:1017A0009C0100203C050020380500205805002041
:1017B00031050020400500204C05002000000020DD
:1017C0001C000020000400483C00002000080048E5
:1017D00080B594B000AF07F11803382200211846F5
:1017E00005F069FE3B1D00221A605A609A60DA60BB
:1017F0001A61002003F004FA0223BB614FF48073E6
:101800007B624023BB6202237B630223BB6304230E
:10181000FB6355233B6402237B640223BB640223E6
:10182000FB6407F11803184603F09EFA0346002BE9
:1018300001D000F0D9FB0F237B600323BB600023A2
:10184000FB6000233B6100237B613B1D04211846A4
:1018500003F0A2FD0346002B01D000F0C5FB00BF42
:101860005037BD4680BD000080B58CB000AF07F199
:10187000240300221A605A609A603B1D2022002136
:10188000184605F018FE3A4B4FF0A0421A60384B4C
:101890004FF4C0125A60364B00229A60344B00223B
:1018A000DA60334B00221A61314B01225A61304B0E
:1018B00004229A612E4B00221A772D4B01225A776F
:1018C0002B4B02221A622A4B002283F82420284B39
:1018D0000022DA62264B00221A63254B012283F88C
:1018E0003820234B0022DA63214B002283F840206A
:1018F0001F4801F083F80346002B01D000F074FB71
:1019000000237B6207F124031946194802F022FBE9
:101910000346002B01D000F067FB164B7B600623CB
:10192000BB600623FB607F233B6104237B610023B4
:10193000BB613B1D19460E4801F07EFD0346002B9E
:1019400001D000F051FB0C4B7B600C23BB600423E7
:10195000FB603B1D1946064801F06EFD0346002B57
:1019600001D000F041FB00BF3037BD4680BD00BF55
:10197000B8030020000021C3000084CB80B500AF75
:10198000214B224A1A60204B4FF4E1325A601E4B21
:1019900000229A601C4B0022DA601B4B00221A6165
:1019A000194B0C225A61184B00229A61164B0022E7
:1019B0001A62154B00225A62134B00229A62124897
:1019C00004F054F90346002B01D000F00DFB002178
:1019D0000D4804F01BFF0346002B01D000F004FB70
:1019E0000021094804F050FF0346002B01D000F00D
:1019F000FBFA054804F0D1FE0346002B01D000F0AD
:101A0000F3FA00BF80BD00BF8404002000800040C6
:101A100080B582B000AF124B9B6C114A43F00403B7
:101A200093640F4B9B6C03F004037B607B680C4B4F
:101A30009B6C0B4A43F001039364094B9B6C03F0CE
:101A400001033B603B68002200210B2002F065FC93
:101A50000B2002F07CFC00BF0837BD4680BD00BFF4
:101A60000010024080B58AB000AF07F114030022D5
:101A70001A605A609A60DA601A612F4BDB6C2E4A4A
:101A800043F00403D3642C4BDB6C03F004033B6191
:101A90003B69294BDB6C284A43F02003D364264B77
:101AA000DB6C03F02003FB60FB68234BDB6C224AFA
:101AB00043F00103D364204BDB6C03F00103BB60F4
:101AC000BB681D4BDB6C1C4A43F00203D3641A4B0A
:101AD000DB6C03F002037B607B68002220214FF067
:101AE000904003F043F84FF400537B614FF48813A8
:101AF000BB610023FB6107F1140319460F4802F094
:101B0000B3FE20237B610123BB610023FB61002323
:101B10003B6207F1140319464FF0904002F0A4FE17
:101B200000220021282002F0F8FB282002F00FFC00
:101B300000BF2837BD4680BD0010024000080048A5
:101B4000B0B582B000AF034687ED000AFB80FB888A
:101B50001846FEF70FFD4FF000020F4BFEF79EFEFA
:101B600002460B4614461D463868FEF715FD024630
:101B70000B4620462946FEF767FD02460B461046F7
:101B80001946FFF739F8034607EE903AB0EE670AB8
:101B90000837BD46B0BD00BF0000B040B0B586B04C
:101BA00000AF034687ED000AFB80344B1B88FB82A5
:101BB000334B1B88BB82334BB3F900301A46324B90
:101BC000B3F90030D31A1846FEF7D4FC04460D468C
:101BD000B7F91420B7F91630D31A1846FEF7CAFC25
:101BE00002460B4620462946FEF758FE02460B46A3
:101BF00010461946FFF700F803463B61B7F9063077
:101C00001846FEF7B7FC04460D463868FEF7C4FCDC
:101C10004FF000021D4BFEF741FE02460B462046E8
:101C20002946FEF711FD02460B4614461D46B7F93C
:101C300016301846FEF79EFC02460B462046294603
:101C4000FEF74AFB02460B4610461946FEF7D4FF44
:101C50000346FB6097ED047AD7ED037A67EE277AA7
:101C6000B3EE0E7A77EE877AB1EE087A77EE877A5E
:101C7000B0EE670A1837BD46B0BD00BFA875FF1F9C
:101C8000CA75FF1FC4010020C601002000000840E3
:101C900090B589B000AFF860B9603B601346FB7146
:101CA000FB68BB83FB681B0C7B830023FB77002452
:101CB00081E023465B00BA6813441B88132B7ED84F
:101CC000BB8B22465200B9680A4412881341DBB22A
:101CD00003F001037B767B8B22465200B9680A44ED
:101CE00012881341DBB203F001033B767A7E3B7E20
:101CF0009A425FD1FB7F0133FB77FB79012B0FD039
:101D0000022B1BD023465B00BA6813441B88DBB24E
:101D10001A4607F110033449184605F069FB1BE029
:101D200023465B00BA6813441B88DBB21A4607F1EE
:101D300010032E49184605F05BFB0DE023465B00BF
:101D4000BA6813441B88DBB21A4607F1100328490E
:101D5000184605F04DFB00BF07F110030422194699
:101D6000386805F0B0FB7B7E012B06D107F110032C
:101D70002049184605F03CFB08E07B7E002B05D18E
:101D800007F110031C49184605F032FB07F1100358
:101D900002221946386805F096FB07F1100317492F
:101DA000184605F025FB07F1100301221946386893
:101DB00005F089FB01340F2C7FF77BAF00E000BFFB
:101DC000FB7F002B0CD107F110030D49184605F0DD
:101DD0000FFB07F1100307221946386805F073FB63
:101DE00000BF2437BD4690BD049800080C98000839
:101DF000149800081C9800082098000824980008EF
:101E00002898000880B500AF1249134805F0F0FA91
:101E10001249134805F0ECFA1249134805F0E8FAA4
:101E20001249134805F0E4FA1249134805F0E0FAA4
:101E30001249134805F0DCFA1249134805F0D8FAA4
:101E40001249134805F0D4FA1249134805F0D0FAA4
:101E500000BF80BD309800085C0000203C9800085E
:101E60008400002048980008AC0000205498000826
:101E7000D400002060980008FC0000206C98000846
:101E800024010020789800084C0100208498000864
:101E900074010020909800089C01002080B500AFDC
:101EA000324B00221A70324B5B7A5F2B05D12F4BDD
:101EB0001B780133DAB22D4B1A702E4B5B7A5F2BF5
:101EC00005D12A4B1B780133DAB2284B1A702A4805
:101ED000FEF7F6F90346102B09D8274B9B7A432BC4
:101EE00005D1224B1B780133DAB2204B1A70234BF9
:101EF0005B7A5F2B05D11D4B1B780133DAB21B4B8C
:101F00001A701F4B5B7A5F2B05D1184B1B7801337E
:101F1000DAB2164B1A701B4B5B7A5F2B05D1134B51
:101F20001B780133DAB2114B1A70174B5B7A5F2BB7
:101F300005D10E4B1B780133DAB20C4B1A70134BE0
:101F40005B7A5F2B05D1094B1B780133DAB2074B63
:101F50001A700F4B5B7A5F2B05D1044B1B78013352
:101F6000DAB2024B1A7000BF80BD00BF32050020FC
:101F70005C00002084000020AC000020D400002081
:101F8000FC000020240100204C01002074010020EE
:101F90009C01002080B582B000AF0346FB80FB8827
:101FA000B3F5005F16D10D4B1B780133DAB20B4B42
:101FB0001A700A4B1B7803F00303DAB2074B1A704E
:101FC000074B01221A7000F0A7FA034603F51673B7
:101FD000044A136000BF0837BD4680BD30050020AD
:101FE0003C0500203805002080B400AF72B600BF69
:101FF000FEE7000080B582B000AF0F4B1B6E0E4AAB
:1020000043F0010313660C4B1B6E03F001037B606E
:102010007B68094B9B6D084A43F080539365064BE0
:102020009B6D03F080533B603B6802F08DFE00BF68
:102030000837BD4680BD00BF0010024080B598B093
:1020400000AF786007F10C0354220021184605F018
:1020500032FA7B681B68B3F1A04F4FD14FF40043B5
:10206000FB604FF000533B6507F10C03184603F08B
:10207000AFFB0346002B01D0FFF7B6FF214BDB6C13
:10208000204A43F40053D3641E4BDB6C03F400532B
:10209000BB60BB681C4B1D4A1A601B4B05225A6073
:1020A000194B00229A60184B0022DA60164B8022EE
:1020B0001A61154B4FF480725A61134B4FF48062D2
:1020C0009A61114B2022DA610F4B4FF480521A6251
:1020D0000D4802F057F90346002B01D0FFF784FFAB
:1020E0007B68094A5A65084A7B689362002200218E
:1020F000122002F012F9122002F029F900BF603715
:10210000BD4680BD001002402404002008000240AB
:1021100080B59EB000AF786007F1640300221A60BA
:102120005A609A60DA601A6107F1100354220021A4
:10213000184605F0C0F97B681B681F4A934236D1E8
:1021400020233B610023BB6207F11003184603F014
:102150003FFB0346002B01D0FFF746FF174BDB6D1B
:10216000164A43F00103D365144BDB6D03F0010302
:10217000FB60FB68114BDB6C104A43F00103D36436
:102180000E4BDB6C03F00103BB60BB680C237B666A
:102190000223BB660023FB6600233B670C237B679F
:1021A00007F1640319464FF0904002F05DFB00BF59
:1021B0007837BD4680BD00BF00800040001002405F
:1021C00080B400AFFEE780B400AFFEE780B400AF9C
:1021D000FEE780B400AFFEE780B400AFFEE780B456
:1021E00000AF00BFBD465DF8047B704780B400AF10
:1021F00000BFBD465DF8047B704780B400AF00BFF0
:10220000BD465DF8047B704780B500AF00F072F901
:1022100000BF80BD80B500AF024802F0D6F900BF14
:1022200080BD00BF2404002080B500AF024800F04C
:102230007BFE00BF80BD00BFB803002080B500AFAB
:102240004FF4005002F0C4FC00BF80BD80B400AF6A
:1022500001231846BD465DF8047B704780B582B007
:1022600000AF7860396005F08BF9034616221A60DA
:102270004FF0FF3318460837BD4680BD80B582B0A9
:1022800000AF78604FF0FF317868FFF7E7FFFEE7B7
:1022900080B586B000AFF860B9607A6000237B61DA
:1022A0000AE0AFF300800146BB685A1CBA60CAB2AC
:1022B0001A707B6901337B617A697B689A42F0DB33
:1022C0007B6818461837BD4680BD80B586B000AF24
:1022D000F860B9607A6000237B6109E0BB685A1C32
:1022E000BA601B781846AFF300807B6901337B61CD
:1022F0007A697B689A42F1DB7B6818461837BD46DD
:1023000080BD80B483B000AF78604FF0FF331846D3
:102310000C37BD465DF8047B704780B483B000AFD6
:10232000786039603B684FF400525A6000231846C9
:102330000C37BD465DF8047B704780B483B000AFB6
:102340007860012318460C37BD465DF8047B704762
:1023500080B485B000AFF860B9607A600023184699
:102360001437BD465DF8047B7047000080B586B029
:1023700000AF7860144A154BD31A7B617B693B61CF
:10238000134B1B68002B02D1114B124A1A60104BE1
:102390001A687B6813443A699A4207D205F0F0F84C
:1023A00003460C221A604FF0FF3309E0084B1B680C
:1023B000FB60074B1A687B681344054A1360FB688F
:1023C00018461837BD4680BD0000022000040000FA
:1023D000200600207807002080B400AF064BD3F819
:1023E0008830054A43F47003C2F8883000BFBD4608
:1023F0005DF8047B704700BF00ED00E00D488546A6
:102400000D480E490E4A002302E0D458C45004334C
:10241000C4188C42F9D30B4A0B4C002301E0136023
:102420000432A242FBD3FFF7D7FF05F0AFF8FEF767
:102430006BFFFEE700000220000000209C0300204C
:102440005C9C00089C03002074070020FEE780B518
:1024500082B000AF0023FB71032001F053FF002086
:1024600000F00EF80346002B02D00123FB7101E0BF
:10247000FFF7C0FDFB7918460837BD4680BD000058
:1024800080B584B000AF78600023FB73164B1B68E7
:10249000002B22D0154B1A68134B1B684FF47A712E
:1024A000B1FBF3F3B2FBF3F3184601F05EFF034612
:1024B000002B0FD17B680F2B09D8002279684FF0D1
:1024C000FF3001F02AFF0A4A7B68136007E001230E
:1024D000FB7304E00123FB7301E00123FB73FB7B2F
:1024E00018461037BD4680BDD0010020C80100202D
:1024F000CC01002080B400AF054B1A68054B1B6867
:102500001344034A136000BFBD465DF8047B704767
:1025100024060020D001002080B400AF034B1B68CC
:102520001846BD465DF8047B704700BF24060020B6
:1025300080B584B000AF7860FFF7EEFFB8607B68CD
:10254000FB60FB68B3F1FF3F04D0094B1B68FA68DE
:102550001344FB6000BFFFF7DFFF0246BB68D31ADE
:10256000FA689A42F7D800BF00BF1037BD4680BD59
:10257000D001002080B483B000AF786039607B6800
:102580009B6823F47C123B681A437B689A6000BF07
:102590000C37BD465DF8047B704780B483B000AF54
:1025A000786039607B689B6823F0E0723B681A436F
:1025B0007B689A6000BF0C37BD465DF8047B7047AE
:1025C00080B483B000AF78607B689B6803F0E073F1
:1025D00018460C37BD465DF8047B704780B487B061
:1025E00000AFF860B9607A603B60FB6860331A4600
:1025F000BB689B0013447B617B691A68084B1340DE
:102600007A6802F0F8413A680A43134343F0004203
:102610007B691A6000BF1C37BD465DF8047B7047BC
:1026200000F0FF0380B485B000AF786039607B684C
:1026300060331A463B689B001344FB60FB681B68D1
:1026400003F0F84318461437BD465DF8047B704725
:1026500080B487B000AFF860B9607A60FB6860331F
:102660001A46BB689B0013447B617B691B6823F09F
:1026700000427B681A437B691A6000BF1C37BD4665
:102680005DF8047B704780B487B000AFF860B96034
:102690007A60FB6860331A46BB689B0013447B6119
:1026A0007B691B6823F080727B681A437B691A6020
:1026B00000BF1C37BD465DF8047B704780B487B00F
:1026C00000AFF860B9607A60FB6860331A46BB6897
:1026D0009B0013447B617B691B6823F000727B685D
:1026E0001A437B691A6000BF1C37BD465DF8047B46
:1026F000704780B483B000AF786039607B685B69F5
:1027000023F000423B681A437B685A6100BF0C37D4
:10271000BD465DF8047B704780B483B000AF78603D
:102720007B68DB6803F44063002B01D1012300E0E8
:10273000002318460C37BD465DF8047B704780B413
:1027400087B000AFF860B9607A60FB6830331A4632
:10275000BB681B0A9B0003F00C0313447B617B697D
:102760001A68BB6803F01F031F2101FA03F3DB4360
:102770001A407B689B0E03F01F01BB6803F01F0328
:1027800001FA03F31A437B691A6000BF1C37BD4688
:102790005DF8047B704780B483B000AF78607B68DD
:1027A000DB6C03F4C073002B01D1012300E0002394
:1027B00018460C37BD465DF8047B704780B487B07F
:1027C00000AFF860B9607A60FB6814331A46BB68E2
:1027D0005B0E9B0003F0040313447B617B691A6862
:1027E000BB681B0D03F01F03072101FA03F3DB4352
:1027F0001A40BB681B0D03F01F03796801FA03F34D
:102800001A437B691A6000BF1C37BD465DF8047B24
:102810007047000080B485B000AFF860B9607A609E
:102820007B680F4A93420AD1FB68D3F8B020BB689B
:10283000C3F312031A43FB68C3F8B0200AE0FB6835
:10284000D3F8B020BB68C3F31203DB431A40FB6824
:10285000C3F8B02000BF1437BD465DF8047B704755
:1028600000007F4080B483B000AF78607B689B68D5
:1028700003F01F0318460C37BD465DF8047B704714
:1028800080B483B000AF78607B689B6803F46043DA
:1028900018460C37BD465DF8047B704780B483B0A2
:1028A00000AF78607B689B6823F0204323F03F03F0
:1028B0007A68936000BF0C37BD465DF8047B7047B3
:1028C00080B483B000AF78607B689B6803F00053EE
:1028D000B3F1005F01D1012300E0002318460C375B
:1028E000BD465DF8047B704780B483B000AF78606C
:1028F0007B689B6823F0104323F03F0343F0805232
:102900007B689A6000BF0C37BD465DF8047B70475A
:1029100080B483B000AF78607B689B6803F080531D
:10292000B3F1805F01D1012300E0002318460C378A
:10293000BD465DF8047B704780B483B000AF78601B
:102940007B689B6823F0004323F03F0343F00102C0
:102950007B689A6000BF0C37BD465DF8047B70470A
:1029600080B483B000AF78607B689B6803F001039C
:10297000012B01D1012300E0002318460C37BD468E
:102980005DF8047B704780B483B000AF78607B68EB
:102990009B6823F0004323F03F0343F004027B686D
:1029A0009A6000BF0C37BD465DF8047B704780B469
:1029B00083B000AF78607B689B6803F00403042B4E
:1029C00001D1012300E0002318460C37BD465DF815
:1029D000047B704780B483B000AF78607B689B68ED
:1029E00003F00803082B01D1012300E0002318465F
:1029F0000C37BD465DF8047B7047000090B589B088
:102A000000AF78600023FB770023BB607B68002B5E
:102A100001D10123AFE17B685B69002B7B68DB6D33
:102A2000002B09D17868FFF709FB7B6800221A6642
:102A30007B68002283F858207B681B681846FFF7E4
:102A40003FFF0346002B04D07B681B681846FFF746
:102A500025FF7B681B681846FFF75AFF0346002BCB
:102A600015D17B681B681846FFF73EFF9F4B1B681C
:102A70009B099F4AA2FB03239B0901335B00BB60B8
:102A800002E0BB68013BBB60BB68002BF9D17B68EF
:102A90001B681846FFF73CFF0346002B0DD17B68EF
:102AA000DB6D43F010027B68DA657B681B6E43F0D8
:102AB00001027B681A660123FB777B681B68184656
:102AC000FFF775FF78617B68DB6D03F01003002B67
:102AD00040F048817B69002B40F044817B68DB6DCE
:102AE00023F4817343F002027B68DA657B681B681C
:102AF0001846FFF735FF0346002B41D17B681B6862
:102B0000B3F1A04F04D07B681B687A4A93420FD17F
:102B10004FF0A040FFF724FF04467648FFF720FF60
:102B200003462343002B0CBF01230023DBB212E03A
:102B30007148FFF715FF04467048FFF711FF034681
:102B40001C436F48FFF70CFF03462343002B0CBFC9
:102B500001230023DBB2002B12D07B681B68B3F18A
:102B6000A04F04D07B681B68624A934201D1654A3A
:102B700000E0654A7B685B6819461046FFF7FAFC7F
:102B80007B685B7F5A037B68DB6B1A437B68DB687F
:102B90001A437B689B681A437B6893F824301B04B4
:102BA0001343BB617B6893F82430012B06D17B680B
:102BB0009B6A013B5B04BA691343BB617B68DB6AB8
:102BC000002B09D07B68DB6A03F478727B681B6B8F
:102BD0001343BA691343BB617B681B68DA684B4BCC
:102BE00013407A681268B9690B43D3607B681B682D
:102BF0001B6923F040617B685A6B7B681B680A4342
:102C00001A617B681B681846FFF7D1FE38617B6844
:102C10001B681846FFF7DEFEF8603B69002B7FD18A
:102C2000FB68002B7CD17B681B7F9A037B6893F841
:102C300038305B001343BB617B681B68DB6823F49F
:102C4000804323F002037A681268B9690B43D360AA
:102C50007B681B69002B17D07B681B681A697B682F
:102C60001B6842F480321A617B681B68D3F8C0305D
:102C700023F47F5323F03F037A6811697A6812685E
:102C80000B43C2F8C03013E07B681B681A697B688D
:102C90001B6822F480321A617B681B68D3F8C0304D
:102CA0007A68126823F47F5323F03F03C2F8C030E0
:102CB0007B6893F84030012B2AD17B681B681B6925
:102CC00023F4FF6323F004037A68516C7A68926CF2
:102CD00011437A68D26C11437A68126D0A431A4321
:102CE0007B681B6842F001021A6119E0C8010020EC
:102CF000632D3E0500010050000400500005005007
:102D00000006005000030050000700500740F0FF8D
:102D10007B681B681A697B681B6822F001021A61D4
:102D20007B685B69012B0CD17B681B681B6B23F0F4
:102D30000F017B681B6A5A1E7B681B680A431A6373
:102D400007E07B681B681A6B7B681B6822F00F0228
:102D50001A637B68DB6D23F0030343F001027B6899
:102D6000DA6507E07B68DB6D43F010027B68DA65AB
:102D70000123FB77FB7F18462437BD4690BD00BF7B
:102D800080B586B000AFF860B9607A60FB681B68F8
:102D9000B3F1A04F04D0FB681B685A4A934201D19B
:102DA000594B00E0594B1846FFF75CFD3861FB6852
:102DB0001B681846FFF7FBFD0346002B40F09B8085
:102DC000FB6893F85830012B01D1022396E0FB6891
:102DD000012283F85820FB681B684D4A934208D0B3
:102DE0003B69002B05D03B69052B02D03B69092BC1
:102DF0007AD1F86800F060FF0346FB75FB7D002B7D
:102E00006DD1FB68DB6D23F4706323F0010343F4A1
:102E10008072FB68DA65FB681B683A4A934209D006
:102E2000FB681B683B4A934202D0FB681B6803E0C7
:102E3000394B01E04FF0A043FA681268934202D088
:102E40003B69002B05D1FB68DB6D23F48012FB6826
:102E5000DA65FB68DB6D03F48053002B06D0FB685A
:102E60001B6E23F00602FB681A6602E0FB68002274
:102E70001A66FB685B6D294ADA62FB685B6D284A5B
:102E80001A63FB685B6D274A5A63FB681B681C2248
:102E90001A60FB68002283F85820FB681B685A6898
:102EA000FB681B6842F010025A60FB681B68DA6816
:102EB000FB681B6842F00102DA60FB68586DFB6832
:102EC0001B6840331946BA687B6801F003FB034670
:102ED000FB75FB681B681846FFF755FD0DE0FB68A6
:102EE000002283F8582008E00123FB75FB680022CC
:102EF00083F8582001E00223FB75FB7D1846183744
:102F0000BD4680BD00010050000300500007005086
:102F10000006005000050050000400507D3D0008F0
:102F2000553E0008713E000880B58AB000AF786059
:102F300000237B627B681B681B68FB617B681B68E6
:102F40005B68BB617B681B68B3F1A04F04D07B68F2
:102F50001B688E4A934201D18D4B00E08D4B184681
:102F6000FFF780FC7861FB6903F00203002B17D0A8
:102F7000BB6903F00203002B12D07B68DB6D03F00A
:102F80001003002B05D17B68DB6D43F400627B6886
:102F9000DA65786800F0D4FF7B681B6802221A604B
:102FA000FB6903F00403002B04D0BB6903F00403A6
:102FB000002B0BD1FB6903F00803002B00F0948079
:102FC000BB6903F00803002B00F08E807B68DB6D8B
:102FD00003F01003002B05D17B68DB6D43F4007216
:102FE0007B68DA657B681B681846FFF795FB03462C
:102FF000002B72D07B681B68644A934209D07B68BF
:103000001B68654A934202D07B681B6803E0634BF0
:1030100001E04FF0A0437A681268934208D07B69C0
:10302000002B05D07B69052B02D07B69092B04D1CD
:103030007B681B68DB683B6214E07B681B68534A53
:10304000934209D07B681B68534A934202D07B6845
:103050001B6803E0514B01E04FF0A0433B613B692B
:10306000DB683B623B6A03F40053002B35D17B687D
:103070001B681B6803F00803082B2ED17B681B68B4
:103080001846FFF794FC0346002B1AD17B681B6897
:103090005A687B681B6822F00C025A607B68DB6D03
:1030A00023F480727B68DA657B68DB6D03F4805300
:1030B000002B12D17B68DB6D43F001027B68DA657F
:1030C0000BE07B68DB6D43F010027B68DA657B68A0
:1030D0001B6E43F001027B681A66786800F084F981
:1030E0007B681B680C221A60FB6903F02003002B2D
:1030F00004D0BB6903F02003002B0BD1FB6903F064
:103100004003002B00F0B380BB6903F04003002BA9
:1031100000F0AD807B68DB6D03F01003002B05D160
:103120007B68DB6D43F400527B68DA657B681B6863
:103130001846FFF730FBF8607B681B681846FFF7FE
:10314000EBFAB8607B681B68104A934209D07B6831
:103150001B68114A934202D07B681B6803E00F4B47
:1031600001E04FF0A0437A681268934208D07B696F
:10317000002B05D07B69062B02D07B69072B0FD172
:103180007B681B68DB683B621FE000BF00010050EA
:1031900000030050000700500005005000040050DC
:1031A0007B681B688B4A934209D07B681B688A4AFC
:1031B000934202D07B681B6803E0884B01E04FF02C
:1031C000A0433B613B69DB683B62FB68002B47D057
:1031D0003B6A03F00073002B07D0BB68002B3FD085
:1031E0003B6A03F40053002B3AD17B681B681B68D1
:1031F00003F04003402B33D13B6A03F40013002B50
:103200002ED17B681B681846FFF7E4FB0346002BB2
:103210001AD17B681B685A687B681B6822F06002C1
:103220005A607B68DB6D23F480527B68DA657B68CB
:10323000DB6D03F48073002B12D17B68DB6D43F0F0
:1032400001027B68DA650BE07B68DB6D43F01002FE
:103250007B68DA657B681B6E43F001027B681A6647
:10326000786800F045FE7B681B6860221A60FB6985
:1032700003F08003002B11D0BB6903F08003002B07
:103280000CD07B68DB6D43F480327B68DA6578684C
:1032900000F0BEF87B681B6880221A60FB6903F4AB
:1032A0008073002B12D0BB6903F48073002B0DD008
:1032B0007B68DB6D43F400327B68DA65786800F088
:1032C0002BFE7B681B684FF480721A60FB6903F465
:1032D0000073002B12D0BB6903F40073002B0DD0D8
:1032E0007B68DB6D43F480227B68DA65786800F0E8
:1032F0001DFE7B681B684FF400721A60FB6903F0C7
:103300001003002B43D0BB6903F01003002B3ED009
:103310007B68DB6B002B02D101237B6221E07B69A0
:10332000002B15D07B681B68B3F1A04F04D07B68DD
:103330001B68284A934201D1294B00E0294B1846CB
:10334000FFF79EFA0346002B0BD001237B6208E0B7
:103350007B681B68DB6803F00103002B01D00123AD
:103360007B627B6A012B0ED17B68DB6D43F480624C
:103370007B68DA657B681B6E43F002027B681A6625
:10338000786800F04FF87B681B6810221A60FB69B0
:1033900003F48063002B18D0BB6903F48063002B17
:1033A00013D07B68DB6D43F480427B68DA657B6811
:1033B0001B6E43F008027B681A667B681B684FF43B
:1033C00080621A60786800F09DFD00BF2837BD4616
:1033D00080BD00BF000100500005005000040050F7
:1033E000000300500007005080B483B000AF786045
:1033F00000BF0C37BD465DF8047B704780B483B0D6
:1034000000AF786000BF0C37BD465DF8047B7047A5
:1034100080B483B000AF786000BF0C37BD465DF864
:10342000047B704780B483B000AF786000BF0C3776
:10343000BD465DF8047B704780B5B6B000AF7860DC
:103440003960002387F8D7300023FB607B6893F84E
:103450005830012B02D1022300F013BC7B680122FB
:1034600083F858207B681B681846FFF7A0FA0346CC
:10347000002B40F0F3837B6818683B6859683B6811
:103480001B681A46FFF75BF97B681B681846FFF755
:103490008EFAC7F8D0007B681B681846FFF79AFAC7
:1034A000C7F8CC00D7F8D030002B40F0D981D7F83E
:1034B000CC30002B40F0D4813B689B68B3F1004FC7
:1034C0000FD17B6818683B681B6800221946FFF71C
:1034D00075F97B681B684FF000411846FFF709F942
:1034E0000EE07B6818683B6819683B689B681A4661
:1034F000FFF764F97B681B6800211846FFF7F9F8AD
:103500003B685A697B681B68DB68DB0803F00303D0
:103510005B0002FA03F3C7F8C8303B681B69042B51
:1035200022D07B6818683B6819693B681A68D7F82D
:10353000C830FFF753F87B6818683B6819693B6827
:103540009B691A46FFF79FF87B6818683B68196902
:103550003B681B7F012B02D14FF0007300E000237A
:103560001A46FFF7ABF87BE17B681B680021184621
:10357000FFF758F80346C3F31203002B0AD17B6808
:103580001B6800211846FFF74DF803469B0E03F019
:103590001F021EE07B681B6800211846FFF742F8F7
:1035A0000346C7F8BC30D7F8BC3093FAA3F3C7F88A
:1035B000B830D7F8B830C7F8C030D7F8C030002BD3
:1035C00001D1202304E0D7F8C030B3FA83F3DBB293
:1035D0001A463B681B68C3F31203002B05D13B68F6
:1035E0001B689B0E03F01F0318E03B681B68C7F8BD
:1035F000B030D7F8B03093FAA3F3C7F8AC30D7F8AF
:10360000AC30C7F8B430D7F8B430002B01D1202348
:1036100004E0D7F8B430B3FA83F3DBB29A4206D1B0
:103620007B681B68002200211846FFF711F87B68B1
:103630001B6801211846FEF7F5FF0346C3F312038A
:10364000002B0AD17B681B6801211846FEF7EAFFB0
:1036500003469B0E03F01F021EE07B681B680121DE
:103660001846FEF7DFFF0346C7F8A430D7F8A430AA
:1036700093FAA3F3C7F8A030D7F8A030C7F8A83062
:10368000D7F8A830002B01D1202304E0D7F8A830C8
:10369000B3FA83F3DBB21A463B681B68C3F3120329
:1036A000002B05D13B681B689B0E03F01F0318E03D
:1036B0003B681B68C7F89830D7F8983093FAA3F3A3
:1036C000C7F89430D7F89430C7F89C30D7F89C30BE
:1036D000002B01D1202304E0D7F89C30B3FA83F308
:1036E000DBB29A4206D17B681B6800220121184692
:1036F000FEF7AEFF7B681B6802211846FEF792FFBB
:103700000346C3F31203002B0AD17B681B68022116
:103710001846FEF787FF03469B0E03F01F021EE0CC
:103720007B681B6802211846FEF77CFF0346C7F83A
:103730008C30D7F88C3093FAA3F3C7F88830D7F8D9
:103740008830C7F89030D7F89030002B01D1202373
:1037500004E0D7F89030B3FA83F3DBB21A463B6843
:103760001B68C3F31203002B05D13B681B689B0E3B
:1037700003F01F0316E03B681B68C7F88030D7F8DA
:10378000803093FAA3F3FB67FB6FC7F88430D7F858
:103790008430002B01D1202304E0D7F88430B3FA21
:1037A00083F3DBB29A4206D17B681B6800220221B8
:1037B0001846FEF74DFF7B681B6803211846FEF78D
:1037C00031FF0346C3F31203002B0AD17B681B6849
:1037D00003211846FEF726FF03469B0E03F01F0247
:1037E00017E07B681B6803211846FEF71BFF0346A2
:1037F0007B677B6F93FAA3F33B673B6FBB67BB6F42
:10380000002B01D1202303E0BB6FB3FA83F3DBB2BB
:103810001A463B681B68C3F31203002B05D13B68B3
:103820001B689B0E03F01F0311E03B681B68BB661F
:10383000BB6E93FAA3F37B667B6EFB66FB6E002B7D
:1038400001D1202303E0FB6EB3FA83F3DBB29A428B
:1038500006D17B681B68002203211846FEF7F8FE9C
:103860007B681B681846FFF77BF80346002B40F087
:103870003D817B6818683B6819683B68DB681A46BD
:10388000FEF7C8FF3B68DB68A24A934240F02E81F6
:103890007B6818683B681B68C3F31203002B0BD1CD
:1038A0003B681B689B0E013303F01F03092B94BF79
:1038B00001230023DBB219E03B681B68FB65FB6D4D
:1038C00093FAA3F3BB65BB6D3B663B6E002B01D146
:1038D000202303E03B6EB3FA83F3DBB2013303F042
:1038E0001F03092B94BF01230023DBB2002B79D0E7
:1038F0003B681B68C3F31203002B07D13B681B68AE
:103900009B0E01339B0603F0F84215E03B681B68F1
:103910003B653B6D93FAA3F3FB64FB6C7B657B6DAE
:10392000002B01D1202303E07B6DB3FA83F3DBB2DC
:1039300001339B0603F0F8423B681B68C3F3120394
:10394000002B09D13B681B689B0E013303F01F035A
:10395000012101FA03F317E03B681B687B647B6C71
:1039600093FAA3F33B643B6CBB64BB6C002B01D1AB
:10397000202303E0BB6CB3FA83F3DBB2013303F023
:103980001F03012101FA03F342EA03013B681B68AC
:10399000C3F31203002B0AD13B681B689B0E013353
:1039A00003F01F0213465B0013441B0518E03B683D
:1039B0001B68BB63BB6B93FAA3F37B637B6BFB63FB
:1039C000FB6B002B01D1202303E0FB6BB3FA83F3E5
:1039D000DBB2013303F01F0213465B0013441B05E7
:1039E0000B437EE03B681B68C3F31203002B07D137
:1039F0003B681B689B0E01339B0603F0F84215E001
:103A00003B681B68FB62FB6A93FAA3F3BB62BB6A69
:103A10003B633B6B002B01D1202303E03B6BB3FAEC
:103A200083F3DBB201339B0603F0F8423B681B686B
:103A3000C3F31203002B09D13B681B689B0E0133B3
:103A400003F01F03012101FA03F317E03B681B6831
:103A50003B623B6A93FAA3F3FB61FB697B627B6A7F
:103A6000002B01D1202303E07B6AB3FA83F3DBB29E
:103A7000013303F01F03012101FA03F342EA0301BA
:103A80003B681B68C3F31203002B0DD13B681B6816
:103A90009B0E013303F01F0213465B0013441E3BD1
:103AA0001B0543F000731BE03B681B687B617B696F
:103AB00093FAA3F33B613B69BB61BB69002B01D166
:103AC000202303E0BB69B3FA83F3DBB2013303F0D5
:103AD0001F0213465B0013441E3B1B0543F000739B
:103AE0000B433A6892681946FEF768FE3B681A680D
:103AF000094B1340002B00F0BE807B681B68B3F1BC
:103B0000A04F04D07B681B68044A93420AD1044B3F
:103B100009E000BF00007F40000008800001005065
:103B200000030050594B1846FEF74AFDC7F8C40081
:103B30003B681B68564A934204D03B681B68554A51
:103B400093423AD1D7F8C43003F40003002B34D1A8
:103B50007B681B68B3F1A04F05D07B681B684E4A99
:103B6000934240F085807B681B68B3F1A04F04D07E
:103B70007B681B68494A934201D1494A00E0434AA5
:103B8000D7F8C43043F4000319461046FEF705FD8C
:103B9000444B1B689B09444AA2FB03239B095A1C04
:103BA00013465B0013449B00FB6002E0FB68013B93
:103BB000FB60FB68002BF9D15AE03B681B683B4A6D
:103BC000934225D1D7F8C43003F08073002B1FD166
:103BD0007B681B68314A934204D17B681B68344A76
:103BE000934247D07B681B68B3F1A04F04D07B6839
:103BF0001B682A4A934201D1294A00E0234AD7F898
:103C0000C43043F0807319461046FEF7C6FC31E01D
:103C10003B681B68274A93422DD1D7F8C43003F480
:103C20008003002B27D17B681B681C4A934222D05B
:103C30007B681B68B3F1A04F04D07B681B68174AF0
:103C4000934201D1164A00E0104AD7F8C43043F439
:103C5000800319461046FEF7A0FC0CE07B68DB6D84
:103C600043F020027B68DA65012387F8D73002E051
:103C700000BF00E000BF7B68002283F8582097F85F
:103C8000D7301846D837BD4680BD00BF000700506A
:103C9000000021C31000C090000600500001005039
:103CA00000030050C8010020632D3E05000052C7EC
:103CB00000050050000084CB80B584B000AF786070
:103CC0007B681B681846FEF74BFE0346002B4DD160
:103CD0007B681B689A68284B1340002B0DD07B68CB
:103CE000DB6D43F010027B68DA657B681B6E43F086
:103CF00001027B681A66012339E07B681B6818465D
:103D0000FEF71AFEFEF708FCF86028E07B681B68E7
:103D10001846FEF725FE0346002B04D17B681B687E
:103D20001846FEF709FEFEF7F7FB0246FB68D31ABA
:103D3000022B14D97B681B681B6803F00103012B5D
:103D40000DD07B68DB6D43F010027B68DA657B6821
:103D50001B6E43F001027B681A66012307E07B6853
:103D60001B681B6803F00103012BCFD10023184609
:103D70001037BD4680BD00BF3F00008080B584B0D5
:103D800000AF78607B689B6AFB60FB68DB6D03F0CB
:103D90005003002B4BD1FB68DB6D43F40072FB68D2
:103DA000DA65FB681B681B6803F00803002B21D051
:103DB000FB681B681846FEF7AFFC0346002B32D0A9
:103DC000FB681B68DB6803F40053002B2BD1FB68F6
:103DD000DB6D23F48072FB68DA65FB68DB6D03F44E
:103DE0008053002B1FD1FB68DB6D43F00102FB68A1
:103DF000DA6518E0FB681B68DB6803F00203002B40
:103E000011D1FB68DB6D23F48072FB68DA65FB6817
:103E1000DB6D03F48053002B05D1FB68DB6D43F0B1
:103E20000102FB68DA65F868FFF7DEFA0EE0FB686E
:103E3000DB6D03F01003002B03D0F868FFF7F2FAF4
:103E400004E0FB685B6D5B6B7868984700BF1037D8
:103E5000BD4680BD80B584B000AF78607B689B6A4A
:103E6000FB60F868FFF7CAFA00BF1037BD4680BD97
:103E700080B584B000AF78607B689B6AFB60FB68AC
:103E8000DB6D43F04002FB68DA65FB681B6E43F0B4
:103E90000402FB681A66F868FFF7C4FA00BF10371F
:103EA000BD4680BD80B483B000AF78607B689B68FE
:103EB00003F00103012B01D1012300E00023184688
:103EC0000C37BD465DF8047B704780B483B000AF0B
:103ED00078607B689B6803F00403042B01D1012305
:103EE00000E0002318460C37BD465DF8047B7047A0
:103EF00080B483B000AF786000BF0C37BD465DF87A
:103F0000047B704780B483B000AF786000BF0C378B
:103F1000BD465DF8047B704780B483B000AF786025
:103F200000BF0C37BD465DF8047B704780B483B09A
:103F300000AF786000BF0C37BD465DF8047B70476A
:103F400080B483B000AF786000BF0C37BD465DF829
:103F5000047B704790B5A1B000AF78603960002352
:103F600087F87F307B6893F85830012B01D102230A
:103F7000E7E07B68012283F8582000237B6600235A
:103F8000BB667B681B68B3F1A04F02D16F4BBB606F
:103F900009E07B681B686E4A934202D16D4BBB609F
:103FA00001E00023BB60BB68002B0BD17B68DB6D9D
:103FB00043F020027B68DA657B68002283F8582092
:103FC0000123BEE0BB681846FFF77FFFB8677B6838
:103FD0001B681846FFF779FF0346002B40F0A080CE
:103FE000BB6F002B40F09C807B681B68B3F1A04F37
:103FF00004D07B681B68554A934201D1564B00E0C0
:10400000564B7B673B681B68002B4BD07B6F9B68D4
:1040100023F460423B6859687B6893F838305B034F
:104020000B431A437B6F9A607B681B68B3F1A04F08
:1040300004D07B681B68454A93420FD14FF0A040E3
:10404000FFF730FF04464148FFF72CFF03462343A8
:10405000002B0CBF01230023DBB212E03C48FFF72A
:1040600021FF04463B48FFF71DFF03461C433C4825
:10407000FFF718FF03462343002B0CBF0123002347
:10408000DBB2002B56D07B6F9B6823F4716323F067
:104090000F033A6811683A6892680A431A437B6FC3
:1040A0009A6047E07B6F9B6823F460427B6F9A6065
:1040B0007B681B68B3F1A04F04D07B681B68234A60
:1040C00093420FD14FF0A040FFF7ECFE04461F488B
:1040D000FFF7E8FE03462343002B0CBF0123002318
:1040E000DBB212E01A48FFF7DDFE04461948FFF77D
:1040F000D9FE03461C431A48FFF7D4FE0346234368
:10410000002B0CBF01230023DBB2002B12D07B6FEE
:104110009B6823F4716323F00F037A6F936009E0C7
:104120007B68DB6D43F020027B68DA65012387F84A
:104130007F3000E000BF7B68002283F8582097F8AA
:104140007F3018468437BD4690BD00BF0001005047
:10415000000400500005005000030050000700500C
:104160000006005080B485B000AF78607B6803F033
:104170000703FB600C4BDB68BB60BA684FF6FF03BC
:104180001340BB60FB681A02BB68134343F0BF6374
:1041900043F40033BB60044ABB68D36000BF1437EC
:1041A000BD465DF8047B704700ED00E080B400AFD1
:1041B000044BDB681B0A03F007031846BD465DF895
:1041C000047B704700ED00E080B483B000AF03468D
:1041D000FB7197F90730002B0BDBFB7903F01F0213
:1041E000074997F907305B09012000FA02F241F80C
:1041F000232000BF0C37BD465DF8047B704700BF2D
:1042000000E100E080B483B000AF03463960FB7189
:1042100097F90730002B0ADB3B68DAB20C4997F9B3
:1042200007301201D2B20B4483F800230AE03B6846
:10423000DAB20849FB7903F00F03043B1201D2B252
:104240000B441A7600BF0C37BD465DF8047B7047FF
:1042500000E100E000ED00E080B489B000AFF8605C
:10426000B9607A60FB6803F00703FB61FB69C3F187
:104270000703042B28BF0423BB61FB690433062B0F
:1042800002D9FB69033B00E000237B614FF0FF3262
:10429000BB6902FA03F3DA43BB681A407B699A40B0
:1042A0004FF0FF317B6901FA03F3D9437B680B4080
:1042B000134318462437BD465DF8047B7047000061
:1042C00080B582B000AF78607B68013BB3F1807F3E
:1042D00001D301230FE00A4A7B68013B53600F21A1
:1042E0004FF0FF30FFF78EFF054B00229A60044B22
:1042F00007221A60002318460837BD4680BD00BF5C
:1043000010E000E080B582B000AF78607868FFF719
:1043100029FF00BF0837BD4680BD80B586B000AF1D
:104320000346B9607A60FB73FFF740FF78617A68F3
:10433000B9687869FFF790FF024697F90F30114688
:104340001846FFF75FFF00BF1837BD4680BD80B538
:1043500082B000AF0346FB7197F907301846FFF7AC
:1043600033FF00BF0837BD4680BD80B582B000AFC7
:1043700078607868FFF7A4FF034618460837BD4603
:1043800080BD000080B584B000AF78607B68002BF2
:1043900001D101238DE07B681B681A46474B9A4286
:1043A0000FD87B681B681A46454B1344454AA2FB4D
:1043B00003231B099A007B685A647B68424A1A648B
:1043C0000EE07B681B681A46404B13443D4AA2FB33
:1043D00003231B099A007B685A647B683C4A1A6471
:1043E0007B68022283F825207B681B681B68FB60C2
:1043F000FB6823F4FF4323F07003FB607B689A683B
:104400007B68DB681A437B681B691A437B685B69BE
:104410001A437B689B691A437B68DB691A437B6894
:104420001B6A1343FA681343FB607B681B68FA68D6
:104430001A60786800F0B6F97B689B68B3F5804F26
:1044400002D17B6800225A607B685A687B689B6C4B
:10445000D2B21A607B68DB6C7A68126D5A607B6836
:104460005B68002B10D07B685B68042B0CD87868E5
:1044700000F0D6F97B685B6D00221A607B689B6D4B
:104480007A68D26D5A6008E07B6800225A657B68C2
:1044900000229A657B680022DA657B680022DA6375
:1044A0007B68012283F825207B68002283F8242082
:1044B000002318461037BD4680BD00BF07040240E8
:1044C000F8FFFDBFCDCCCCCC00000240F8FBFDBF17
:1044D0000004024080B586B000AFF860B9607A6031
:1044E0003B600023FB75FB6893F82430012B01D15E
:1044F000022366E0FB68012283F82420FB6893F81E
:104500002530DBB2012B55D1FB68022283F8252030
:10451000FB680022DA63FB681B681A68FB681B688B
:1045200022F001021A603B687A68B968F86800F006
:10453000FBF8FB681B6B002B08D0FB681B681A6834
:10454000FB681B6842F00E021A600FE0FB681B68F4
:104550001A68FB681B6822F004021A60FB681B687B
:104560001A68FB681B6842F00A021A60FB689B6CC1
:104570001B6803F48033002B07D0FB689B6C1A6820
:10458000FB689B6C42F480721A60FB685B6D002BC9
:1045900007D0FB685B6D1A68FB685B6D42F4807244
:1045A0001A60FB681B681A68FB681B6842F001020E
:1045B0001A6005E0FB68002283F824200223FB75C3
:1045C000FB7D18461837BD4680BD80B584B000AF6E
:1045D00078607B681B6C1B68FB607B681B681B68D2
:1045E000BB607B685B6C03F01F0304229A40FB688E
:1045F0001340002B26D0BB6803F00403002B21D00E
:104600007B681B681B6803F02003002B07D17B68C5
:104610001B681A687B681B6822F004021A607B68BA
:104620005B6C03F01F027B681B6C042101FA02F231
:104630005A607B681B6B002B71D07B681B6B7868A2
:1046400098476CE07B685B6C03F01F0302229A4082
:10465000FB681340002B2ED0BB6803F00203002B35
:1046600029D07B681B681B6803F02003002B0BD14B
:104670007B681B681A687B681B6822F00A021A6054
:104680007B68012283F825207B685B6C03F01F02A6
:104690007B681B6C022101FA02F25A607B680022DF
:1046A00083F824207B68DB6A002B38D07B68DB6AC8
:1046B0007868984733E07B685B6C03F01F0308223F
:1046C0009A40FB681340002B2AD0BB6803F0080314
:1046D000002B25D07B681B681A687B681B6822F05A
:1046E0000E021A607B685B6C03F01F027B681B6C18
:1046F000012101FA02F25A607B680122DA637B68C9
:10470000012283F825207B68002283F824207B681F
:104710005B6B002B04D07B685B6B7868984700BFAD
:1047200000BF1037BD4680BD80B485B000AFF860D3
:10473000B9607A603B60FB68DB6CFA68126D5A60A6
:10474000FB685B6D002B04D0FB689B6DFA68D26D33
:104750005A60FB685B6C03F01F02FB681B6C012155
:1047600001FA02F25A60FB681B683A685A60FB68FB
:104770009B68102B08D1FB681B687A689A60FB68FD
:104780001B68BA68DA6007E0FB681B68BA689A6061
:10479000FB681B687A68DA6000BF1437BD465DF8B5
:1047A000047B704780B487B000AF78607B681B687B
:1047B0001A46164B9A4202D8154B7B6101E0154B05
:1047C0007B617B693B617B681B68DBB2083B124AFB
:1047D000A2FB03231B09FB607B685B6C9B089A00B0
:1047E0003B6913441A467B689A647B680B4ADA6417
:1047F000FB6803F01F0301229A407B681A6500BF23
:104800001C37BD465DF8047B704700BF07040240BB
:104810000008024020080240CDCCCCCC80080240E9
:1048200080B485B000AF78607B685B68DBB2FB600A
:10483000FA680B4B13449B001A467B685A657B68E9
:10484000084A9A65FB68013B03F01F0301229A4066
:104850007B68DA6500BF1437BD465DF8047B70479E
:104860003F8200104009024080B487B000AF7860FA
:10487000396000237B615AE13B681A6801217B693A
:1048800001FA03F31340FB60FB68002B00F04C813E
:104890003B685B6803F00303012B05D03B685B6852
:1048A00003F00303022B30D17B689B683B617B697B
:1048B0005B00032202FA03F3DB433A6913403B61D6
:1048C0003B68DA687B695B0002FA03F33A691343D9
:1048D0003B617B683A699A607B685B683B61012257
:1048E0007B6902FA03F3DB433A6913403B613B689F
:1048F0005B681B0903F001027B6902FA03F33A6962
:1049000013433B617B683A695A603B685B6803F01C
:104910000303032B17D07B68DB683B617B695B007B
:10492000032202FA03F3DB433A6913403B613B681D
:104930009A687B695B0002FA03F33A6913433B61AF
:104940007B683A69DA603B685B6803F00303022B1B
:1049500023D17B69DA087B68083253F822303B6147
:104960007B6903F007039B000F2202FA03F3DB438A
:104970003A6913403B613B681A697B6903F007039E
:104980009B0002FA03F33A6913433B617B69DA083F
:104990007B680832396943F822107B681B683B61E9
:1049A0007B695B00032202FA03F3DB433A6913409D
:1049B0003B613B685B6803F003027B695B0002FAC2
:1049C00003F33A6913433B617B683A691A603B68B9
:1049D0005B6803F44033002B00F0A6805B4B1B6E3A
:1049E0005A4A43F001031366584B1B6E03F0010350
:1049F000BB60BB68564A7B699B08023352F8233080
:104A00003B617B6903F003039B000F2202FA03F36F
:104A1000DB433A6913403B617B68B3F1904F1FD091
:104A20007B684C4A934219D07B684B4A934213D01F
:104A30007B684A4A93420DD07B68494A934207D02B
:104A40007B68484A934201D105230AE0062308E027
:104A5000042306E0032304E0022302E0012300E034
:104A600000237A6902F00302920093403A691343EB
:104A70003B6137497B699B0802333A6941F823203F
:104A8000394B9B683B61FB68DB433A6913403B61F0
:104A90003B685B6803F48013002B03D03A69FB6822
:104AA00013433B61304A3B6993602F4BDB683B61AA
:104AB000FB68DB433A6913403B613B685B6803F486
:104AC0000013002B03D03A69FB6813433B61264A6D
:104AD0003B69D360244B5B683B61FB68DB433A690D
:104AE00013403B613B685B6803F40033002B03D049
:104AF0003A69FB6813433B611B4A3B6953601A4B9D
:104B00001B683B61FB68DB433A6913403B613B68D0
:104B10005B6803F48033002B03D03A69FB681343CE
:104B20003B61114A3B6913607B6901337B613B68E0
:104B30001A687B6922FA03F3002B7FF49DAE00BF55
:104B400000BF1C37BD465DF8047B70470010024073
:104B5000000001400004004800080048000C004824
:104B600000100048001400480004014080B483B0E5
:104B700000AF78600B467B8013467B707B78002B00
:104B800003D07A887B689A6102E07A887B689A62AF
:104B900000BF0C37BD465DF8047B704780B485B01C
:104BA00000AF78600B467B807B685B69FB607A882E
:104BB000FB6813401A04FB68D9437B880B401A43F7
:104BC0007B689A6100BF1437BD465DF8047B70476F
:104BD00080B582B000AF0346FB80084B5A69FB8862
:104BE0001340002B06D0054AFB885361FB8818460A
:104BF000FDF7D0F900BF0837BD4680BD0004014075
:104C000080B485B000AF78607B68002B41D14B4BFE
:104C10001B6803F4C063B3F5806F31D1474BD3F801
:104C20008030464A23F48073C2F88030434B1B68BF
:104C300023F4C063414A43F400731360404B1B6884
:104C4000322202FB03F33F4AA2FB03239B0C0133F6
:104C5000FB6002E0FB68013BFB60384B5B6903F4DF
:104C60008063B3F5806F02D1FB68002BF2D1334B28
:104C70005B6903F48063B3F5806F58D1032357E079
:104C80002E4BD3F880302D4A23F48073C2F8803045
:104C90004DE07B68B3F5007F41D1284B1B6803F4DE
:104CA000C063B3F5806F31D1244BD3F88030234AF1
:104CB00043F48073C2F88030204B1B6823F4C06338
:104CC0001E4A43F4007313601D4B1B68322202FB23
:104CD00003F31C4AA2FB03239B0C0133FB6002E09D
:104CE000FB68013BFB60154B5B6903F48063B3F524
:104CF000806F02D1FB68002BF2D1104B5B6903F48B
:104D00008063B3F5806F12D1032311E00B4BD3F80E
:104D100080300A4A43F48073C2F8803007E0074BC2
:104D20001B6823F4C063054A43F4806313600023C7
:104D300018461437BD465DF8047B7047007000408C
:104D4000C801002083DE1B4380B400AF054B9B6885
:104D5000044A43F48043936000BFBD465DF8047B82
:104D6000704700BF0070004080B588B000AF786029
:104D70007B68002B01D1012306E37B681B6803F0ED
:104D80000103002B75D0974B9B6803F00C03BB61AC
:104D9000944BDB6803F003037B61BB690C2B02D1EE
:104DA0007B69032B02D0BB69082B0BD18D4B1B6891
:104DB00003F40033002B5BD07B685B68002B57D17A
:104DC0000123E1E27B685B68B3F5803F06D1854B48
:104DD0001B68844A43F4803313601DE07B685B6882
:104DE000B3F5A02F0CD17F4B1B687E4A43F4802380
:104DF00013607C4B1B687B4A43F4803313600BE0E9
:104E0000784B1B68774A23F480331360754B1B681B
:104E1000744A23F4802313607B685B68002B13D0F3
:104E2000FDF77AFB386108E0FDF776FB02463B6947
:104E3000D31A642B01D90323A6E26A4B1B6803F43F
:104E40000033002BF0D014E0FDF766FB386108E07A
:104E5000FDF762FB02463B69D31A642B01D9032399
:104E600092E2604B1B6803F40033002BF0D100E0AA
:104E700000BF7B681B6803F00203002B75D0594B01
:104E80009B6803F00C03BB61564BDB6803F0030324
:104E90007B61BB690C2B02D17B69022B02D0BB6901
:104EA000042B1FD14F4B1B6803F48063002B05D0EC
:104EB0007B68DB68002B01D1012365E2494B5B680D
:104EC00023F0FE427B681B691B06464913434B6077
:104ED000454B1B681846FDF7D3FA0346002B43D019
:104EE000012351E27B68DB68002B23D03D4B1B681C
:104EF0003C4A43F480731360FDF70EFB386108E011
:104F0000FDF70AFB02463B69D31A022B01D90323A2
:104F10003AE2344B1B6803F48063002BF0D0314B32
:104F20005B6823F0FE427B681B691B062D49134317
:104F30004B601AE02B4B1B682A4A23F480731360E2
:104F4000FDF7EAFA386108E0FDF7E6FA02463B6948
:104F5000D31A022B01D9032316E2224B1B6803F458
:104F60008063002BF0D100E000BF7B681B6803F07A
:104F70000803002B41D07B685B69002B1CD0194BC8
:104F8000D3F89430174A43F00103C2F89430FDF788
:104F9000C3FA386108E0FDF7BFFA02463B69D31A4D
:104FA000022B01D90323EFE10E4BD3F8943003F029
:104FB0000203002BEFD020E00A4BD3F89430094ACB
:104FC00023F00103C2F89430FDF7A6FA38610DE032
:104FD000FDF7A2FA02463B69D31A022B06D9032336
:104FE000D2E100BF00100240CC0100208C4BD3F86E
:104FF000943003F00203002BEAD17B681B6803F0B6
:105000000403002B00F0A6800023FB77844B9B6DEC
:1050100003F08053002B01D1012300E00023002B7B
:105020000DD07F4B9B6D7E4A43F0805393657C4B44
:105030009B6D03F08053FB60FB680123FB77794B8A
:105040001B6803F48073002B18D1764B1B68754ADC
:1050500043F480731360FDF75FFA386108E0FDF7F1
:105060005BFA02463B69D31A022B01D903238BE179
:105070006C4B1B6803F48073002BF0D07B689B683B
:10508000012B08D1664BD3F89030654A43F00103F9
:10509000C2F8903024E07B689B68052B10D1604BF0
:1050A000D3F890305E4A43F00403C2F890305C4B72
:1050B000D3F890305A4A43F00103C2F890300FE021
:1050C000574BD3F89030564A23F00103C2F8903082
:1050D000534BD3F89030524A23F00403C2F8903077
:1050E0007B689B68002B16D0FDF716FA38610AE042
:1050F000FDF712FA02463B69D31A41F28832934215
:1051000001D9032340E1464BD3F8903003F002036A
:10511000002BEDD015E0FDF7FFF938610AE0FDF74F
:10512000FBF902463B69D31A41F28832934201D916
:10513000032329E13A4BD3F8903003F00203002B0C
:10514000EDD1FB7F012B05D1354B9B6D344A23F00C
:10515000805393657B681B6803F02003002B3CD0D1
:105160007B689B69002B1CD02D4BD3F898302C4AC0
:1051700043F00103C2F89830FDF7CEF9386108E03A
:10518000FDF7CAF902463B69D31A022B01D9032362
:10519000FAE0234BD3F8983003F00203002BEFD052
:1051A0001BE01F4BD3F898301D4A23F00103C2F8CF
:1051B0009830FDF7B1F9386108E0FDF7ADF9024626
:1051C0003B69D31A022B01D90323DDE0144BD3F83A
:1051D000983003F00203002BEFD17B68DB69002BD2
:1051E00000F0D1800E4B9B6803F00C030C2B00F0F9
:1051F0008B807B68DB69022B5ED1094B1B68084AF8
:1052000023F080731360FDF787F938610CE0FDF738
:1052100083F902463B69D31A022B05D90323B3E075
:105220000010024000700040594B1B6803F00073EF
:10523000002BECD1564BDA68564B13407A68116A52
:105240007A68526A013A120111437A68926A12022C
:1052500011437A68126B5208013A520511437A6879
:10526000526B5208013A520611437A68D26AD2064A
:105270000A4347491343CB60454B1B68444A43F0FC
:1052800080731360424BDB68414A43F08073D36004
:10529000FDF742F9386108E0FDF73EF902463B6947
:1052A000D31A022B01D903236EE0394B1B6803F09C
:1052B0000073002BF0D066E0354B1B68344A23F0B6
:1052C00080731360324BDB68314A23F00303D360F1
:1052D0002F4BDB682E4A23F0887323F48033D3608E
:1052E000FDF71AF9386108E0FDF716F902463B6947
:1052F000D31A022B01D9032346E0254B1B6803F088
:105300000073002BF0D13EE07B68DB69012B01D1FB
:10531000012339E01E4BDB687B617B6903F00302EC
:105320007B681B6A9A422CD17B6903F0F0027B6890
:105330005B6A013B1B019A4223D17B6903F4FE4265
:105340007B689B6A1B029A421BD17B6903F07842FF
:105350007B68DB6ADB069A4213D17B6903F4C002E7
:105360007B681B6B5B08013B5B059A4209D17B693B
:1053700003F0C0627B685B6B5B08013B5B069A4293
:1053800001D0012300E0002318462037BD4680BD30
:10539000001002400C809F0180B586B000AF78609D
:1053A000396000237B617B68002B01D101231EE162
:1053B000914B1B6803F00F033A689A4210D98E4B49
:1053C0001B6823F00F028C493B6813430B608A4B28
:1053D0001B6803F00F033A689A4201D0012306E1EB
:1053E0007B681B6803F00103002B73D07B685B684C
:1053F000032B29D1814B1B6803F00073002B01D1D3
:105400000123F4E000F09EF938613B697C4A934245
:105410003FD97A4B9B6803F0F003002B09D07B68DF
:105420001B6803F00203002B33D07B689B68002BC2
:105430002FD1724B9B6823F0F003704A43F0800336
:10544000936080237B6124E07B685B68022B07D13B
:105450006A4B1B6803F40033002B09D10123C6E01B
:10546000664B1B6803F48063002B01D10123BEE06F
:1054700000F0CEF838613B69614A934209D95F4B2D
:105480009B6823F0F0035D4A43F080039360802320
:105490007B615A4B9B6823F003027B685B6857492A
:1054A00013438B60FDF738F8F8600AE0FDF734F835
:1054B0000246FB68D31A41F28832934201D9032392
:1054C00095E04E4B9B6803F00C027B685B689B0089
:1054D0009A42EBD17B681B6803F00203002B23D0B8
:1054E0007B681B6803F00403002B05D0434B9B68CB
:1054F000424A43F4E06393607B681B6803F008034F
:10550000002B07D03D4B9B6823F47C533B4A43F46C
:10551000E0639360394B9B6823F0F0027B689B68E3
:10552000364913438B6008E07B69802B05D1334BF0
:105530009B68324A23F0F00393602F4B1B6803F003
:105540000F033A689A421DD22B4B1B6823F00F02BF
:1055500029493B6813430B60FCF7DEFFF8600AE063
:10556000FCF7DAFF0246FB68D31A41F28832934215
:1055700001D903233BE0204B1B6803F00F033A687B
:105580009A42EDD17B681B6803F00403002B08D01E
:105590001A4B9B6823F4E0627B68DB68174913436E
:1055A0008B607B681B6803F00803002B09D0134B4A
:1055B0009B6823F460527B681B69DB000F4913432F
:1055C0008B6000F025F802460C4B9B681B0903F02A
:1055D0000F030C49CB5C03F01F0322FA03F30A4AC2
:1055E00013600A4B1B681846FCF74AFF034618462F
:1055F0001837BD4680BD00BF0020024000100240A9
:1056000000B4C4049C980008C8010020CC0100200C
:1056100080B487B000AF2C4B9B6803F00C03042BC5
:1056200002D12A4B3B6147E0274B9B6803F00C03F8
:10563000082B02D1264B3B613EE0234B9B6803F0D5
:105640000C030C2B36D1204BDB6803F00303FB600B
:105650001D4BDB681B0903F00F030133BB60FB68C4
:10566000032B0CD11A4ABB68B2FBF3F3164AD2687B
:10567000120A02F07F0202FB03F37B610CE0134A83
:10568000BB68B2FBF3F3104AD268120A02F07F0241
:1056900002FB03F37B6100BF0B4BDB685B0E03F087
:1056A000030301335B007B607A697B68B2FBF3F331
:1056B0003B6101E000233B613B6918461C37BD4656
:1056C0005DF8047B704700BF001002400024F40026
:1056D00000366E0180B400AF034B1B681846BD4610
:1056E0005DF8047B704700BFC801002080B500AFA3
:1056F000FFF7F0FF0246064B9B681B0A03F0070307
:105700000449CB5C03F01F0322FA03F3184680BD63
:1057100000100240AC98000880B500AFFFF7DAFF38
:105720000246064B9B68DB0A03F007030449CB5C87
:1057300003F01F0322FA03F3184680BD0010024055
:10574000AC98000880B487B000AF1E4BDB6803F054
:1057500003033B611B4BDB681B0903F00F030133A1
:10576000FB603B69032B0CD1174AFB68B2FBF3F3D8
:10577000144AD268120A02F07F0202FB03F37B6133
:105780000CE0124AFB68B2FBF3F30E4AD268120A2D
:1057900002F07F0202FB03F37B6100BF094BDB6871
:1057A0005B0E03F0030301335B00BB607A69BB68E7
:1057B000B2FBF3F37B607B6818461C37BD465DF88F
:1057C000047B70470010024000366E010024F40094
:1057D00080B586B000AF78600023FB740023BB74F3
:1057E0007B681B6803F40023002B00F098800023E3
:1057F0007B74434B9B6D03F08053002B0DD1404BCA
:105800009B6D3F4A43F0805393653D4B9B6D03F086
:105810008053BB60BB6801237B743A4B1B68394AD9
:1058200043F480731360FCF777FEF86009E0FCF73F
:1058300073FE0246FB68D31A022B02D90323FB74C2
:1058400005E0304B1B6803F48073002BEFD0FB7C2A
:10585000002B59D12A4BD3F8903003F440737B616D
:105860007B69002B1ED07B681B6D7A699A4219D028
:10587000234BD3F8903023F440737B61204BD3F853
:1058800090301F4A43F48033C2F890301C4BD3F859
:1058900090301B4A23F48033C2F89030184A7B6959
:1058A000C2F890307B6903F00103002B16D0FCF79F
:1058B00033FEF8600BE0FCF72FFE0246FB68D31ABC
:1058C00041F28832934202D90323FB7406E00C4B69
:1058D000D3F8903003F00203002BECD0FB7C002BBC
:1058E0000BD1074BD3F8903023F440727B681B6DCB
:1058F00003491343C1F8903008E0FB7CBB7405E01A
:105900000010024000700040FB7CBB747B7C012BCC
:1059100005D1A74B9B6DA64A23F0805393657B6806
:105920001B6803F00103002B0AD0A14BD3F8883089
:1059300023F003027B685B689D491343C1F88830FC
:105940007B681B6803F00203002B0AD0984BD3F846
:10595000883023F00C027B689B6895491343C1F89B
:1059600088307B681B6803F00403002B0AD0904B3F
:10597000D3F8883023F030027B68DB688C4913430E
:10598000C1F888307B681B6803F00803002B0AD03D
:10599000874BD3F8883023F0C0027B681B698449A9
:1059A0001343C1F888307B681B6803F01003002B99
:1059B0000AD07F4BD3F8883023F440727B685B6950
:1059C0007B491343C1F888307B681B6803F02003D0
:1059D000002B0AD0764BD3F8883023F440627B68E2
:1059E0009B6973491343C1F888307B681B6803F0D7
:1059F0004003002B0AD06E4BD3F8883023F440527A
:105A00007B68DB696A491343C1F888307B681B688F
:105A100003F08003002B0AD0654BD3F8883023F4C1
:105A200040427B681B6A62491343C1F888307B6837
:105A30001B6803F48073002B0AD05D4BD3F88830C9
:105A400023F440327B685B6A59491343C1F88830BC
:105A50007B681B6803F40033002B0AD0544BD3F847
:105A60009C3023F003027B689B6A51491343C1F8C1
:105A70009C307B681B6803F40073002B0AD04C4BEE
:105A8000D3F8883023F440227B68DB6A484913430B
:105A9000C1F888307B681B6803F48063002B15D045
:105AA000434BD3F8883023F440127B681B6B40498A
:105AB0001343C1F888307B681B6BB3F5801F05D199
:105AC0003B4BDB683A4A43F48013D3607B681B6826
:105AD00003F40063002B15D0354BD3F8883023F442
