:020000040800F2
:10000000000002204D240008252200082B220008B1
:1000100031220008372200083D22000800000000BD
:100020000000000000000000000000004322000863
:1000300051220008000000005F2200086D22000825
:100040009D2400089D2400089D2400089D2400088C
:100050009D2400089D2400089D2400089D2400087C
:100060009D2400089D2400089D2400089D2400086C
:100070009D2400089D2400089D2400089D2400085C
:100080009D2400089D2400089D2400080000000015
:100090000000000000000000000000009D24000897
:1000A0009D2400089D2400089D2400089D2400082C
:1000B0009D2400089D2400089D2400089D2400081C
:1000C0009D2400089D2400089D2400089D2400080C
:1000D0009D2400089D2400089D24000800000000C5
:1000E000792200089D2400089D24000800000000DB
:1000F0000000000000000000000000009D24000837
:10010000000000009D2400089D2400089D24000894
:1001100000000000000000000000000000000000DF
:100120009D240008892200089D2400089D240008C1
:100130009D240008000000000000000000000000F6
:100140000000000000000000000000009D240008E6
:100150009D2400089D2400089D2400089D2400087B
:100160009D2400089D2400080000000000000000FD
:10017000000000000000000000000000000000007F
:10018000000000009D2400080000000000000000A6
:080190009D2400089D240008D5
:1001A00010B5054C237833B9044B13B10448AFF3B1
:1001B00000800123237010BD3402002000000000E5
:1001C000B888000808B5034B1BB103490348AFF3D7
:1001D000008008BD0000000038020020B888000838
:1001E000034613F8012B002AFBD1181A0138704777
:1001F00001F0FF01102A2BDB10F0070F08D010F8D8
:10020000013B013A8B422DD010F0070F42B3F6D1DB
:10021000F0B441EA012141EA014122F007047FF0F4
:1002200000070023F0E80256083C85EA010586EA4B
:10023000010685FA47F5A3FA87F586FA47F6A5FA87
:1002400087F68EB9EED1F0BC01F0FF0102F0070293
:1002500032B110F8013B013A83EA010313B1F8D13E
:100260000020704701387047002D06BF354603381F
:10027000073815F0010F07D1013015F4807F02BF58
:10028000013015F4C03F0130F0BC0138704700BFA9
:1002900081F0004102E000BF83F0004330B54FEA37
:1002A00041044FEA430594EA050F08BF90EA020FA4
:1002B0001FBF54EA000C55EA020C7FEA645C7FEA37
:1002C000655C00F0E2804FEA5454D4EB5555B8BF5A
:1002D0006D420CDD2C4480EA020281EA030382EACB
:1002E000000083EA010180EA020281EA0303362D5D
:1002F00088BF30BD11F0004F4FEA01314FF4801C30
:100300004CEA113102D0404261EB410113F0004F41
:100310004FEA03334CEA133302D0524263EB4303F8
:1003200094EA050F00F0A780A4F10104D5F1200E96
:100330000DDB02FA0EFC22FA05F2801841F10001F1
:1003400003FA0EF2801843FA05F359410EE0A5F1C5
:1003500020050EF1200E012A03FA0EFC28BF4CF0F6
:10036000020C43FA05F3C01851EBE37101F00045AC
:1003700007D54FF0000EDCF1000C7EEB00006EEBB9
:100380000101B1F5801F1BD3B1F5001F0CD3490843
:100390005FEA30004FEA3C0C04F101044FEA44529A
:1003A00012F5800F80F09A80BCF1004F08BF5FEA21
:1003B000500C50F1000041EB045141EA050130BD01
:1003C0005FEA4C0C404141EB0101013C28BFB1F513
:1003D000801FE9D291F0000F04BF01460020B1FA5E
:1003E00081F308BF2033A3F10B03B3F120020CDA31
:1003F0000C3208DD02F1140CC2F10C0201FA0CF00F
:1004000021FA02F10CE002F11402D8BFC2F1200C73
:1004100001FA02F120FA0CFCDCBF41EA0C01904029
:10042000E41AA2BF01EB0451294330BD6FEA040472
:100430001F3C1CDA0C340EDC04F11404C4F120025D
:1004400020FA04F001FA02F340EA030021FA04F36F
:1004500045EA030130BDC4F10C04C4F1200220FAC6
:1004600002F001FA04F340EA0300294630BD21FA04
:1004700004F0294630BD94F0000F83F4801306BFCA
:1004800081F480110134013D4EE77FEA645C18BFBE
:100490007FEA655C29D094EA050F08BF90EA020F55
:1004A00005D054EA000C04BF1946104630BD91EA4D
:1004B000030F1EBF0021002030BD5FEA545C05D150
:1004C0004000494128BF41F0004130BD14F580048F
:1004D0003CBF01F5801130BD01F0004545F0FE4103
:1004E00041F470014FF0000030BD7FEA645C1ABF38
:1004F000194610467FEA655C1CBF0B46024650EA6F
:10050000013406BF52EA033591EA030F41F400219A
:1005100030BD00BF90F0000F04BF0021704730B520
:100520004FF4806404F132044FF000054FF00001F5
:1005300050E700BF90F0000F04BF0021704730B5B6
:100540004FF4806404F1320410F0004548BF40428B
:100550004FF000013EE700BF42004FEAE2014FEAE0
:1005600031014FEA02701FBF12F07F4393F07F4FBB
:1005700081F06051704732F07F4208BF704793F0BE
:100580007F4F04BF41F40021704730B54FF46074D1
:1005900001F0004521F000411CE700BF50EA0102D4
:1005A00008BF704730B54FF000050AE050EA01027D
:1005B00008BF704730B511F0004502D5404261EBED
:1005C00041014FF4806404F132045FEA915C3FF42E
:1005D000D8AE4FF003025FEADC0C18BF03325FEACB
:1005E000DC0C18BF033202EBDC02C2F1200300FA7C
:1005F00003FC20FA02F001FA03FE40EA0E0021FAA1
:1006000002F11444BDE600BF70B54FF0FF0C4CF48E
:10061000E06C1CEA11541DBF1CEA135594EA0C0F40
:1006200095EA0C0F00F0DEF82C4481EA030621EA7B
:100630004C5123EA4C5350EA013518BF52EA0335B6
:1006400041F4801143F4801338D0A0FB02CE4FF068
:100650000005E1FB02E506F00042E0FB03E54FF098
:100660000006E1FB03569CF0000F18BF4EF0010E90
:10067000A4F1FF04B6F5007F64F5407404D25FEA8C
:100680004E0E6D4146EB060642EAC62141EA55513F
:100690004FEAC52040EA5E504FEACE2EB4F1FD0C81
:1006A00088BFBCF5E06F1ED8BEF1004F08BF5FEAFF
:1006B000500E50F1000041EB045170BD06F00046B1
:1006C00046EA010140EA020081EA0301B4EB5C045E
:1006D000C2BFD4EB0C0541EA045170BD41F4801156
:1006E0004FF0000E013C00F3AB8014F1360FDEBF7B
:1006F000002001F0004170BDC4F10004203C35DA57
:100700000C341BDC04F11404C4F1200500FA05F3D9
:1007100020FA04F001FA05F240EA020001F000427A
:1007200021F0004110EBD37021FA04F642EB0601F0
:100730005EEA430E08BF20EAD37070BDC4F10C041A
:10074000C4F1200500FA04F320FA05F001FA04F2DE
:1007500040EA020001F0004110EBD37041F10001CA
:100760005EEA430E08BF20EAD37070BDC4F12005D5
:1007700000FA05F24EEA020E20FA04F301FA05F23D
:1007800043EA020321FA04F001F0004121FA04F2E5
:1007900020EA020000EBD3705EEA430E08BF20EAB5
:1007A000D37070BD94F0000F0FD101F000464000EF
:1007B00041EB010111F4801F08BF013CF7D041EA71
:1007C000060195F0000F18BF704703F00046520075
:1007D00043EB030313F4801F08BF013DF7D043EA46
:1007E0000603704794EA0C0F0CEA135518BF95EAFC
:1007F0000C0F0CD050EA410618BF52EA4306D1D183
:1008000081EA030101F000414FF0000070BD50EAA1
:10081000410606BF1046194652EA430619D094EA2B
:100820000C0F02D150EA013613D195EA0C0F05D115
:1008300052EA03361CBF104619460AD181EA030169
:1008400001F0004141F0FE4141F470014FF0000021
:1008500070BD41F0FE4141F4780170BD70B54FF0BC
:10086000FF0C4CF4E06C1CEA11541DBF1CEA13553C
:1008700094EA0C0F95EA0C0F00F0A7F8A4EB05041E
:1008800081EA030E52EA03354FEA013100F0888015
:100890004FEA03334FF0805545EA131343EA1263DE
:1008A0004FEA022245EA111545EA10654FEA002693
:1008B0000EF000419D4208BF964244F1FD0404F54C
:1008C000407402D25B084FEA3202B61A65EB0305A8
:1008D0005B084FEA32024FF480104FF4002CB6EB65
:1008E000020E75EB030E22BFB61A754640EA0C00E5
:1008F0005B084FEA3202B6EB020E75EB030E22BF25
:10090000B61A754640EA5C005B084FEA3202B6EB65
:10091000020E75EB030E22BFB61A754640EA9C0024
:100920005B084FEA3202B6EB020E75EB030E22BFF4
:10093000B61A754640EADC0055EA060E18D04FEAB2
:10094000051545EA16754FEA06164FEAC30343EA52
:1009500052734FEAC2025FEA1C1CC0D111F4801F1F
:100960000BD141EA00014FF000004FF0004CB6E718
:1009700011F4801F04BF01430020B4F1FD0C88BFB7
:10098000BCF5E06F3FF6AFAEB5EB030C04BFB6EBC2
:10099000020C5FEA500C50F1000041EB045170BDB5
:1009A0000EF0004E4EEA113114EB5C04C2BFD4EBE2
:1009B0000C0541EA045170BD41F480114FF0000E66
:1009C000013C90E645EA060E8DE60CEA135594EAE2
:1009D0000C0F08BF95EA0C0F3FF43BAF94EA0C0FE5
:1009E0000AD150EA01347FF434AF95EA0C0F7FF45A
:1009F00025AF104619462CE795EA0C0F06D152EAAE
:100A000003353FF4FDAE1046194622E750EA410691
:100A100018BF52EA43067FF4C5AE50EA41047FF4A2
:100A20000DAF52EA43057FF4EBAE12E74FF0FF3C07
:100A300006E000BF4FF0010C02E000BF4FF0010CD8
:100A40004DF804CD4FEA410C7FEA6C5C4FEA430C51
:100A500018BF7FEA6C5C1BD001B050EA410C0CBFA0
:100A600052EA430C91EA030F02BF90EA020F002002
:100A7000704710F1000F91EA030F58BF994208BF69
:100A800090422CBFD8176FEAE37040F00100704726
:100A90004FEA410C7FEA6C5C02D150EA013C07D17D
:100AA0004FEA430C7FEA6C5CD6D152EA033CD3D0C8
:100AB0005DF8040B704700BF8446104662468C46C2
:100AC0001946634600E000BF01B5FFF7B7FF0028F5
:100AD00048BF10F1000F01BD4DF808EDFFF7F4FF1E
:100AE0000CBF012000205DF808FB00BF4DF808EDA9
:100AF000FFF7EAFF34BF012000205DF808FB00BFCC
:100B00004DF808EDFFF7E0FF94BF012000205DF8ED
:100B100008FB00BF4DF808EDFFF7CEFF94BF0120A2
:100B200000205DF808FB00BF4DF808EDFFF7C4FF9B
:100B300034BF012000205DF808FB00BF4FEA410CE4
:100B40007FEA6C5C02D150EA013C0AD14FEA430CC7
:100B50007FEA6C5C02D152EA033C02D14FF0000004
:100B600070474FF0010070474FEA410212F5001242
:100B700015D211D56FF47873B3EB625212D94FEAE4
:100B8000C12343F0004343EA505311F0004F23FACE
:100B900002F018BF404270474FF00000704750EA23
:100BA000013005D111F0004008BF6FF000407047E0
:100BB0004FF00000704700BF4FEA4102B2F1E0433E
:100BC00024BFB3F5001CDCF1FE5C0DD901F0004C34
:100BD0004FEAC0024CEA5070B2F1004F40EB830084
:100BE00008BF20F00100704711F0804F21D113F1B0
:100BF0003872BCBF01F00040704741F480114FEAE9
:100C00005252C2F11802C2F1200C10FA0CF320FA71
:100C100002F018BF40F001004FEAC1234FEAD3238E
:100C200003FA0CFC40EA0C0023FA02F34FEA4303F8
:100C3000CCE77FEA625307D150EA01331EBF4FF081
:100C4000FE4040F44000704701F0004040F0FE409C
:100C500040F40000704700BF53B94AB9002908BFEB
:100C600000281CBF4FF0FF314FF0FF3000F074B987
:100C7000ADF1080C6DE904CE00F006F8DDF804E0F3
:100C8000DDE9022304B070472DE9F047089D0446D2
:100C90008E46002B4DD18A42944669D9B2FA82F22F
:100CA00052B101FA02F3C2F1200120FA01F10CFA6B
:100CB00002FC41EA030E94404FEA1C48210CBEFBA3
:100CC000F8F61FFA8CF708FB16E341EA034306FB2C
:100CD00007F199420AD91CEB030306F1FF3080F0BB
:100CE0001F81994240F21C81023E63445B1AA4B208
:100CF000B3FBF8F008FB103344EA034400FB07F7AA
:100D0000A7420AD91CEB040400F1FF3380F00A81EA
:100D1000A74240F207816444023840EA0640E41BDF
:100D200000261DB1D4400023C5E900433146BDE88B
:100D3000F0878B4209D9002D00F0EF800026C5E92D
:100D4000000130463146BDE8F087B3FA83F6002E45
:100D50004AD18B4202D3824200F2F980841A61EBBD
:100D6000030301209E46002DE0D0C5E9004EDDE7DB
:100D700002B9FFDEB2FA82F2002A40F09280A1EBC3
:100D80000C014FEA1C471FFA8CFE0126200CB1FB18
:100D9000F7F307FB131140EA01410EFB03F0884211
:100DA00008D91CEB010103F1FF3802D2884200F29E
:100DB000CB804346091AA4B2B1FBF7F007FB101130
:100DC00044EA01440EFB00FEA64508D91CEB0404CE
:100DD00000F1FF3102D2A64500F2BB800846A4EB29
:100DE0000E0440EA03409CE7C6F12007B34022FA14
:100DF00007FC4CEA030C20FA07F401FA06F31C4343
:100E0000F9404FEA1C4900FA06F3B1FBF9F8200C4F
:100E10001FFA8CFE09FB181140EA014108FB0EF095
:100E2000884202FA06F20BD91CEB010108F1FF3AE5
:100E300080F08880884240F28580A8F102086144F1
:100E4000091AA4B2B1FBF9F009FB101144EA0141FF
:100E500000FB0EFE8E4508D91CEB010100F1FF34AA
:100E60006CD28E456AD90238614440EA0840A0FB42
:100E70000294A1EB0E01A142C846A64656D353D018
:100E80005DB1B3EB080261EB0E0101FA07F722FA3C
:100E900006F3F1401F43C5E9007100263146BDE865
:100EA000F087C2F12003D8400CFA02FC21FA03F3C8
:100EB000914001434FEA1C471FFA8CFEB3FBF7F049
:100EC00007FB10360B0C43EA064300FB0EF69E426E
:100ED00004FA02F408D91CEB030300F1FF382FD207
:100EE0009E422DD9023863449B1B89B2B3FBF7F6AF
:100EF00007FB163341EA034106FB0EF38B4208D988
:100F00001CEB010106F1FF3816D28B4214D9023EC8
:100F10006144C91A46EA004638E72E46284605E7E6
:100F20000646E3E61846F8E64B45A9D2B9EB0208B7
:100F300064EB0C0E0138A3E74646EAE7204694E747
:100F40004046D1E7D0467BE7023B614432E730467A
:100F500009E76444023842E7704700BF90B484B0A8
:100F600000AF786039600023BB81834B1B78012B75
:100F700023D0022B00F08280804B1B781A467B68BE
:100F800013441B78562B03D17B4B01221A70ECE0E3
:100F90007A4B1B780933DAB2784B1A70774B1A7890
:100FA000774BA3FB0213D9080B46DB000B449B00D5
:100FB000D31ADAB2714B1A70D7E0704B1B781A460D
:100FC0007B6813441B78562B3FD16C4B1B78013345
:100FD0007A6813441B78522B37D1684B1B78023345
:100FE0007A6813441B78542B2FD1002409E0634BFB
:100FF0001B78234403337A6813441A78614B1A55DB
:101000000134062CF3DD002406E03A7B5D4B1B5DCA
:101010001344DBB23B730134042CF6DD3B7BDB4332
:10102000DBB27B737A7B574B5B799A420BD1534B84
:101030001B781A467B681344FF221A704E4B02221B
:101040001A7000BF91E0932390E04B4B00221A707E
:101050004A4B1B780933DAB2484B1A70474B1A785F
:10106000474BA3FB0213D9080B46DB000B449B0044
:10107000D31ADAB2414B1A70942377E03E4B002228
:101080001A703E4B1B780933DAB23C4B1A703B4B5B
:101090001A783B4BA3FB0213D9080B46DB000B4429
:1010A0009B00D31ADAB2354B1A70364B5B783B7221
:1010B000344B9B787B72334BDB78BB72314B1B79A3
:1010C000FB72304B1B78202B08D82E4B1B7819460F
:1010D000BA683B6843F82120912347E0294B1B78ED
:1010E0008F2B41D9274B1B78913B112B26D801A27E
:1010F00052F823F041110008451100084911000879
:101100004D1100083D1100083D1100083D11000877
:101110003D1100083D1100083D1100083D11000877
:101120003D1100083D1100083D1100083D11000867
:10113000511100085B1100085F110008902315E0B1
:10114000912313E0922311E093230FE094230DE009
:10115000BA683B681A60912308E0912306E03B6877
:101160000122DA64912301E000BF90231846103772
:10117000BD4690BC704700BF5002002051020020C5
:10118000398EE3385402002080B584B000AF786017
:1011900039603B685B88002B11D03B681B88FB7370
:1011A000FA7B3B6853F82220FB7B1946786800F0F5
:1011B0006AF83B6800221A803B6800225A8091231B
:1011C00018461037BD4680BD90B58BB000AFF860B3
:1011D0007A601A460B46FB721346BB72042387F8EB
:1011E000273007F1140300221A605A609A60DA600F
:1011F00056233B7552237B755423BB75FB7AFB75D5
:10120000002387F8263004240FE02346043B7A6845
:1012100013441A7804F128033B4403F8142C97F87C
:101220002730013387F827300134BB7A03339C42DF
:10123000EBDD03240AE004F128033B4413F8142CEB
:1012400097F82630134487F826300134BB7A0333ED
:101250009C42F0DD97F8273097F82620D243D2B28F
:1012600028333B4403F8142C97F827309BB2013302
:101270009AB207F114012823F86803F016FE00BFA4
:101280002C37BD4690BD90B58BB000AFF8600B46D3
:101290007A60FB7207F1140300221A605A609A60A8
:1012A000DA6056233B7552237B755423BB75FB7A5A
:1012B000FB75042387F82730002387F826307B68E6
:1012C0003B6104240FE0231F28333B4413F8182C00
:1012D00004F128033B4403F8142C97F8273001331A
:1012E00087F827300134072CEDDD03240AE004F1F0
:1012F00028033B4413F8142C97F82630134487F83E
:1013000026300134072CF2DD97F8273097F8262095
:10131000D243D2B228333B4403F8142C97F8273039
:101320009BB201339AB207F114013223F86803F03B
:10133000BCFD00BF2C37BD4690BD90B589B000AF55
:1013400078600B46FB701346BB7007F10C0300225C
:101350001A605A609A60DA6056233B7352237B739B
:101360005423BB73FB78FB73BB783B74FF23BB74C4
:10137000AA23FB740023FB77032408E004F1200375
:101380003B4413F8142CFB7F1344FB770134072CE8
:10139000F4DDFB7FDB43DBB23B7507F10C011E2361
:1013A0000922786803F081FD00BF2437BD4690BD57
:1013B00090B587B000AF786039600023BB607B6870
:1013C0001B687B617B68DB683B610023FB81002439
:1013D0000AE023465B003A6813441B88142B06D0AE
:1013E000FB890133FB810134112CF2DD00E000BFE9
:1013F00000240EE023465B003A6813441B885B0020
:10140000032202FA03F3DB431A467B6913407B6134
:101410000134FB899C42EDDB7B687A691A60002409
:101420001AE023465B003A6813441B885B000322E2
:1014300002FA03F3DB431A463B6913403B61234640
:101440005B003A6813441B885B00012202FA03F335
:101450003A6913433B610134FB899C42E1DB7B68C1
:101460003A69DA60012001F08DF87B681B691B0482
:10147000BA681343BB6000241AE023465B003A6855
:1014800013441B885B00032202FA03F3DB431A4672
:101490003B6913403B6123465B003A6813441B8859
:1014A0005B00022202FA03F33A6913433B61013401
:1014B000FB899C42E1DB7B683A69DA60052001F038
:1014C00061F87B681B69BA681343BB60BB68184648
:1014D0001C37BD4690BD90B587B000AF78603960CD
:1014E0007B681B687B6100233B610023BB6000239A
:1014F000FB8100240AE023465B003A6813441B8802
:10150000142B06D0FB890133FB810134112CF2DD51
:1015100000E000BF00241AE023465B003A68134451
:101520001B885B00032202FA03F3DB431A467B6944
:1015300013407B6123465B003A6813441B885B00C1
:10154000012202FA03F37A6913437B610134FB89B8
:101550009C42E1DB7B687A691A60002419E023462B
:101560005B003A6813441B881A4601239340DB430F
:101570001A463B6913403B6123465B003A681344BB
:101580001B881A46012393401A463B6913433B616B
:101590000134FB899C42E2DB7B683A699A61012055
:1015A00000F0F0FF7B681B691B04BA681343BB6043
:1015B000012000F0E7FF3B691A047B689A61012073
:1015C00000F0E0FF7B681B69BA681343BB60BB682F
:1015D00018461C37BD4690BD90B589B000AF786005
:1015E00039607B681B68FB610023BB6100237B6162
:1015F0000023FB6000237B8200240AE023465B007B
:101600003A6813441B88142B06D07B8A01337B82F3
:101610000134112CF2DD00E000BF00241AE0234663
:101620005B003A6813441B885B00032202FA03F351
:10163000DB431A46FB691340FB6123465B003A68B3
:1016400013441B885B00112202FA03F3FA69134367
:10165000FB6101347B8A9C42E1DB7B68FA691A609A
:1016600000241AE023465B003A6813441B885B00A1
:10167000032202FA03F3DB431A467B6913407B61C2
:1016800023465B003A6813441B885B00012202FA80
:1016900003F37A6913437B6101347B8A9C42E1DB6B
:1016A0007B687A69DA60002419E023465B003A68B7
:1016B00013441B881A4601239340DB431A46BB6937
:1016C0001340BB6123465B003A6813441B881A46EB
:1016D000012393401A46BB691343BB6101347B8AE3
:1016E0009C42E2DB7B68BA699A61012000F04AFF04
:1016F0007B681B691B04FA681343FB60012000F040
:1017000041FFBB691A047B689A61012000F03AFF2F
:101710007B681B69FA681343FB60FB681846243733
:10172000BD4690BDB0B594B002AF00F0B9FE00F078
:101730002BF900F0D1FA00F0AFFA00F059FA00F0FE
:101740008BF900F0DDF900F07DFA00F04BFB764BF1
:1017500007F108041D460FCD0FC40FCD0FC40FCDE8
:101760000FC495E8070084E8070007F1080318464E
:10177000FEF736FD03469AB207F108010A236B48CB
:1017800003F093FB24226A496A4803F020FC6A4B69
:101790006A4A9A6468496648FFF7E0FB664965480B
:1017A000FFF7F2FC00F0E2FE0246654B1B689A422E
:1017B00041D3634B1B6803F59673614A1360202184
:1017C000604802F014F900F021FB03461A465E4B14
:1017D0001A8000F01BFB03461A46574BA3F844201F
:1017E000594B1B88184600F033FBF0EE407AB0EE00
:1017F000670A00F05DFBF0EE407A544BC3ED007ACF
:10180000514B1B881C46514B1B681846FEF7A4FE23
:1018100002460B46CDE9002322464D494D4804F0CF
:10182000D1FD4C48FEF7DCFC03469AB20A23494935
:101830003E4803F03AFB484B1B78002B2DD0002389
:101840003B7111237B713323BB71444B1B78FB71BC
:10185000434B19783A1D04233648FFF7B5FC3F4B3C
:101860001B780133DAB23D4B1A703D4B1B780133C4
:10187000DAB23B4B1A70314A12212E48FFF703FDB2
:10188000384A92212B48FFF7FEFC122213212948E7
:10189000FFF7F9FC304B00221A70274BDB6C022B50
:1018A0007FF478AF30493148FFF782FD0346224A82
:1018B00053602D492D48FFF77BFD03461E4A1361F7
:1018C0002B492C48FFF774FD03461B4AD3610520C2
:1018D00000F058FE28491B48FFF7FDFD0346274A44
:1018E0001360052000F04EFE1F492048FFF774FEEC
:1018F0000346234A5360234B7B64012409E0E3B28F
:101900007A6C19460B48FFF7BEFC7B6CFF337B6497
:101910000134082CF3DD0022A1210648FFF70DFD5C
:10192000054B0022DA6435E7EC880008F00200205D
:101930007C04002034030020180400202303240228
:10194000F803002000000240EC030020F003002018
:10195000D0880008A00400201404002056000020B5
:1019600057000020AA00FF001800002000040240D9
:10197000380000200008024000000020FC03002086
:10198000080400203333121280B594B000AF07F181
:10199000200330220021184604F0A2F807F10C03BE
:1019A00000221A605A609A60DA601A610023BB60F4
:1019B000274B1B6C264A43F080531364244B1B6C4B
:1019C00003F08053BB60BB6800237B60214B1B6826
:1019D000204A43F4404313601E4B1B6803F440430A
:1019E0007B607B6802233B620123FB6210233B6325
:1019F0000223BB630023FB6308233B6464237B64F3
:101A00000223BB640423FB6407F12003184602F0A1
:101A100021F80346002B01D000F0A8FA0F23FB6049
:101A200002233B6100237B614FF48053BB610023A1
:101A3000FB6107F10C030321184602F083FA034609
:101A4000002B01D000F092FA00BF5037BD4680BD98
:101A5000003802400070004080B584B000AF3B46C3
:101A600000221A605A609A60DA60214B214A1A609B
:101A70001F4B4FF440325A601D4B00229A601C4BA2
:101A800001221A611A4B01221A76194B002283F89F
:101A90002020174B0022DA62154B174A9A62144B2A
:101AA0000022DA60124B0122DA61114B002283F826
:101AB00030200F4B00225A610D4800F087FD03468D
:101AC000002B01D000F052FA0C4B3B6001237B60ED
:101AD0000723BB603B461946054800F03BFF034621
:101AE000002B01D000F042FA00BF1037BD4680BD88
:101AF00060020020002001400100000F12000010D1
:101B000080B58EB000AF07F1280300221A605A603A
:101B10009A60DA6007F1200300221A605A603B1DC8
:101B200000221A605A609A60DA601A615A619A61FA
:101B30002D4B2E4A1A602C4B42F20F725A602A4BE0
:101B400000229A60284B42F20F72DA60264B002284
:101B50001A61254B80229A61234802F013FC034648
:101B6000002B01D000F002FA4FF48053BB6207F162
:101B7000280319461C4802F06FFD0346002B01D0D4
:101B800000F0F4F9184802F04CFC0346002B01D099
:101B900000F0ECF900233B6200237B6207F1200395
:101BA0001946114803F0C6F80346002B01D000F097
:101BB000DDF960237B6041F28833BB600023FB606A
:101BC00000237B613B1D00221946074802F082FC7E
:101BD0000346002B01D000F0C9F9034800F038FAA1
:101BE00000BF3837BD4680BDA80200200004004079
:101BF00080B500AF114B124A1A60104B4FF4E1321E
:101C00005A600E4B00229A600C4B0022DA600B4B9C
:101C100000221A61094B0C225A61084B00229A617A
:101C2000064B0022DA61054803F0F2F80346002B68
:101C300001D000F09BF900BF80BD00BFF002002082
:101C40000044004080B500AF114B124A1A60104B9F
:101C50004FF4E1325A600E4B00229A600C4B002286
:101C6000DA600B4B00221A61094B0C225A61084BB7
:101C700000229A61064B0022DA61054803F0C8F899
:101C80000346002B01D000F071F900BF80BD00BFFA
:101C9000340300200014014080B582B000AF00235F
:101CA0007B600C4B1B6B0B4A43F480031363094BA3
:101CB0001B6B03F480037B607B68002200213920CA
:101CC00001F051F9392001F06AF900BF0837BD462B
:101CD00080BD00BF0038024080B58AB000AF07F178
:101CE000140300221A605A609A60DA601A610023B5
:101CF0003B61384B1B6B374A43F004031363354B8E
:101D00001B6B03F004033B613B690023FB60314B19
:101D10001B6B304A43F0800313632E4B1B6B03F0A5
:101D20008003FB60FB680023BB602A4B1B6B294AC6
:101D300043F001031363274B1B6B03F00103BB60EC
:101D4000BB6800237B60234B1B6B224A43F00203DA
:101D50001363204B1B6B03F002037B607B68002244
:101D600020211D4801F02AFE4FF400537B614FF4FF
:101D70000413BB610023FB6107F1140319461748E4
:101D800001F098FC20237B610123BB610023FB61F0
:101D900000233B6207F1140319460F4801F08AFC47
:101DA0004FF480637B610023BB610223FB6107F179
:101DB000140319460A4801F07DFC00220021282066
:101DC00001F0D1F8282001F0EAF800BF2837BD461D
:101DD00080BD00BF00380240000002400008024001
:101DE0000004024080B400AF064B074A1A60054B5E
:101DF00001225A60034B00229A6000BFBD465DF885
:101E0000047B7047D80300201200001080B582B018
:101E100000AF0D490D4800F09DFD0C4800F01AFC84
:101E20000A210A4800F0FDFC0346002B04D10748B4
:101E300000F082FD0346FB80044800F0BFFCFB88F5
:101E400018460837BD4680BDD80300206002002038
:101E500080B582B000AF0346FB80FB881846FEF7D2
:101E600069FB4FF00002104BFEF7F8FC02460B46F0
:101E7000104619460AA3D3E90023FEF7C5FB024624
:101E80000B4610461946FEF797FE034607EE903ABA
:101E9000B0EE670A0837BD4680BD00BFAFF30080D3
:101EA0006666666666660A400000B0400000000094
:101EB00080B582B000AF87ED010A7868FEF74CFB71
:101EC00014A3D3E90023FEF7E7F902460B461046B8
:101ED000194612A3D3E90023FEF7C0FC02460B46C5
:101EE000104619464FF00002094BFEF7D7F902469B
:101EF0000B4610461946FEF75FFE034607EE903A82
:101F0000B0EE670A0837BD4680BD00BFAFF3008062
:101F10000000394052B81E85EB51E83F7B14AE47B4
:101F2000E17A643F80B483B000AF0346FB80FB8856
:101F3000B3F5005F0FD10B4B1B780133DAB2094BBD
:101F40001A70084B1B7803F00303DAB2054B1A70C2
:101F5000054B01221A7000BF0C37BD465DF8047BAB
:101F6000704700BFF40300201404002080B400AFC9
:101F700072B600BFFEE7000080B582B000AF00235C
:101F80007B60104B5B6C0F4A43F4804353640D4BF2
:101F90005B6C03F480437B607B6800233B60094BF0
:101FA0001B6C084A43F080531364064B1B6C03F010
:101FB00080533B603B68072000F0CAFF00BF083732
:101FC000BD4680BD0038024080B485B000AF786067
:101FD0007B681B680B4A93420DD10023FB600A4BC0
:101FE0005B6C094A43F480735364074B5B6C03F4E6
:101FF0008073FB60FB6800BF1437BD465DF8047B4F
:10200000704700BF002001400038024080B485B016
:1020100000AF78607B681B680B4A93420DD10023A8
:10202000FB600A4B1B6C094A43F002031364074B25
:102030001B6C03F00203FB60FB6800BF1437BD4656
:102040005DF8047B704700BF000400400038024088
:1020500080B588B000AF786007F10C0300221A60E9
:102060005A609A60DA601A617B681B68124A934270
:102070001DD10023BB60114B1B6B104A43F00203C0
:1020800013630E4B1B6B03F00203BB60BB68102392
:10209000FB6002233B6100237B610023BB610223C1
:1020A000FB6107F10C031946054801F003FB00BF73
:1020B0002037BD4680BD00BF00040040003802400C
:1020C0000004024080B58CB000AF786007F11C03BB
:1020D00000221A605A609A60DA601A617B681B6895
:1020E0004A4A93422CD10023BB61494B1B6C484A9E
:1020F00043F400331364464B1B6C03F40033BB61A1
:10210000BB6900237B61424B1B6B414A43F00103D7
:1021100013633F4B1B6B03F001037B617B690C2353
:10212000FB6102233B6200237B620323BB62072324
:10213000FB6207F11C031946364801F0BBFA60E068
:102140007B681B68344A93425BD100233B61304B70
:102150005B6C2F4A43F0200353642D4B5B6C03F000
:1021600020033B613B690023FB60294B1B6B284A22
:1021700043F001031363264B1B6B03F00103FB6069
:10218000FB684FF4C053FB6102233B6200237B6278
:102190000323BB620823FB6207F11C0319461D4899
:1021A00001F088FA1D4B1E4A1A601C4B4FF020624A
:1021B0005A601A4B00229A60184B0022DA60174BC3
:1021C0004FF480621A61154B00225A61134B0022B2
:1021D0009A61124B4FF48072DA61104B00221A623E
:1021E0000E4B00225A620D4800F0F4FE0346002B0D
:1021F00001D0FFF7BBFE7B68084A9A63074A7B68F9
:10220000936300BF3037BD4680BD00BF004400402F
:102210000038024000000240001401407803002012
:102220002864024080B400AFFEE780B400AFFEE750
:1022300080B400AFFEE780B400AFFEE780B400AF2B
:10224000FEE780B400AF00BFBD465DF8047B704779
:1022500080B400AF00BFBD465DF8047B704780B41A
:1022600000AF00BFBD465DF8047B704780B500AF8E
:1022700000F068F900BF80BD80B500AF4FF400509A
:1022800001F0D0FB00BF80BD80B500AF024800F078
:10229000A7FF00BF80BD00BF7803002080B400AF5F
:1022A00001231846BD465DF8047B704780B582B0B7
:1022B00000AF7860396003F0E9FB034616221A602C
:1022C0004FF0FF3318460837BD4680BD80B582B059
:1022D00000AF78604FF0FF317868FFF7E7FFFEE767
:1022E00080B586B000AFF860B9607A6000237B618A
:1022F0000AE0AFF300800146BB685A1CBA60CAB25C
:102300001A707B6901337B617A697B689A42F0DBE2
:102310007B6818461837BD4680BD80B586B000AFD3
:10232000F860B9607A6000237B6109E0BB685A1CE1
:10233000BA601B781846AFF300807B6901337B617C
:102340007A697B689A42F1DB7B6818461837BD468C
:1023500080BD80B483B000AF78604FF0FF33184683
:102360000C37BD465DF8047B704780B483B000AF86
:10237000786039603B684FF400525A600023184679
:102380000C37BD465DF8047B704780B483B000AF66
:102390007860012318460C37BD465DF8047B704712
:1023A00080B485B000AFF860B9607A600023184649
:1023B0001437BD465DF8047B7047000080B586B0D9
:1023C00000AF7860144A154BD31A7B617B693B617F
:1023D000134B1B68002B02D1114B124A1A60104B91
:1023E0001A687B6813443A699A4207D203F04EFB9D
:1023F00003460C221A604FF0FF3309E0084B1B68BC
:10240000FB60074B1A687B681344054A1360FB683E
:1024100018461837BD4680BD0000022000040000A9
:10242000040500202005002080B400AF064BD3F83F
:102430008830054A43F47003C2F8883000BFBD46B7
:102440005DF8047B704700BF00ED00E0DFF834D09A
:102450000D480E490E4A002302E0D458C4500433FC
:10246000C4188C42F9D30B4A0B4C002301E01360D3
:102470000432A242FBD3FFF7D7FF03F00DFBFFF7B7
:1024800051F97047000002200000002034020020B3
:10249000348D0008340200201C050020FEE70000F7
:1024A00080B500AF0E4B1B680D4A43F400731360F8
:1024B0000B4B1B680A4A43F480631360084B1B688C
:1024C000074A43F480731360032000F041FD0020AD
:1024D00000F008F8FFF750FD0023184680BD00BF4C
:1024E000003C024080B582B000AF7860124B1A68A1
:1024F000124B1B7819464FF47A73B3FBF1F3B2FB1E
:10250000F3F3184600F059FD0346002B01D00123D8
:102510000EE07B680F2B0AD8002279684FF0FF305D
:1025200000F021FD064A7B681360002300E00123D0
:1025300018460837BD4680BD5800002060000020C6
:102540005C00002080B400AF064B1B781A46064B97
:102550001B681344044A136000BFBD465DF8047B4A
:10256000704700BF600000200805002080B400AF65
:10257000034B1B681846BD465DF8047B704700BFDF
:102580000805002080B584B000AF7860FFF7EEFF4B
:10259000B8607B68FB60FB68B3F1FF3F05D00A4B76
:1025A0001B781A46FB681344FB6000BFFFF7DEFF91
:1025B0000246BB68D31AFA689A42F7D800BF00BF38
:1025C0001037BD4680BD00BF6000002080B584B0DC
:1025D00000AF78600023FB737B68002B01D10123DF
:1025E00033E07B681B6C002B09D17868FFF7ECFCAB
:1025F0007B6800225A647B68002283F83C207B6859
:102600001B6C03F01003002B18D17B681B6C23F4A8
:10261000885323F0020343F002027B681A6478684F
:1026200000F0CAFA7B6800225A647B681B6C23F0B6
:10263000030343F001027B681A6401E00123FB738A
:102640007B68002283F83C20FB7B18461037BD4690
:1026500080BD000080B485B000AF78600023BB600F
:102660007B6893F83C30012B01D1022397E07B6813
:10267000012283F83C207B681B689B6803F0010300
:10268000012B18D07B681B689A687B681B6842F036
:1026900001029A60454B1B68454AA2FB03239A0C32
:1026A00013465B001344BB6002E0BB68013BBB60A8
:1026B000BB68002BF9D17B681B689B6803F00103A2
:1026C000012B5FD17B681B6C23F4E06323F00103D3
:1026D00043F480727B681A647B681B685B6803F450
:1026E0008063002B07D07B681B6C23F4405343F4BA
:1026F00080527B681A647B681B6C03F48053B3F5CB
:10270000805F06D17B685B6C23F006027B685A64AD
:1027100002E07B6800225A647B68002283F83C2038
:10272000244BFB607B681B686FF022021A60FB6819
:102730005B6803F01F03002B0FD17B681B689B684D
:1027400003F04053002B29D17B681B689A687B6893
:102750001B6842F080429A6020E07B681B68164A42
:1027600093421BD17B681B689B6803F04053002B8E
:1027700014D17B681B689A687B681B6842F08042B2
:102780009A600BE07B681B6C43F010027B681A6454
:102790007B685B6C43F001027B685A640023184637
:1027A0001437BD465DF8047B704700BF5800002019
:1027B00083DE1B43002301400020014080B483B02E
:1027C00000AF78607B6893F83C30012B01D1022385
:1027D00021E07B68012283F83C207B681B689A68B3
:1027E0007B681B6822F001029A607B681B689B680B
:1027F00003F00103002B09D17B681B6C23F4885381
:1028000023F0010343F001027B681A647B68002215
:1028100083F83C20002318460C37BD465DF8047B46
:10282000704780B584B000AF786039600023FB60EA
:102830007B681B689B6803F48063B3F5806F13D1DA
:102840007B681B689B6803F48073B3F5807F0BD1B2
:102850007B681B6C43F020027B681A647B68002253
:1028600083F83C20012363E0FFF780FEF86021E05D
:102870003B68B3F1FF3F1DD03B68002B07D0FFF74B
:1028800075FE0246FB68D31A3A689A4212D27B68F8
:102890001B681B6803F00203022B0BD07B681B6CC8
:1028A00043F004027B681A647B68002283F83C20B2
:1028B00003233DE07B681B681B6803F00203022BC7
:1028C000D6D17B681B686FF012021A607B681B6CA4
:1028D00043F400727B681A647B681B689B6803F092
:1028E0004053002B23D17B681B7E002B1FD17B68BC
:1028F0001B68DB6A03F47003002B06D07B681B683F
:102900009B6803F48063002B11D17B681B6C23F45C
:1029100080727B681A647B681B6C03F48053002B05
:1029200005D17B681B6C43F001027B681A640023AD
:1029300018461037BD4680BD80B483B000AF7860C4
:102940007B681B68DB6C18460C37BD465DF8047B62
:102950007047000080B485B000AF78603960002314
:10296000BB607B6893F83C30012B01D1022313E15B
:102970007B68012283F83C203B681B68092B25D922
:102980007B681B68D9683B681B689BB21A46134674
:102990005B0013441E3B072202FA03F3DA437B6811
:1029A0001B680A40DA607B681B68D9683B689A68D4
:1029B0003B681B689BB2184603465B0003441E3B02
:1029C0009A407B681B680A43DA6022E07B681B68D8
:1029D00019693B681B689BB21A4613465B00134497
:1029E000072202FA03F3DA437B681B680A401A6184
:1029F0007B681B6819693B689A683B681B689BB2D7
:102A0000184603465B0003449A407B681B680A43F0
:102A10001A613B685B68062B24D87B681B68596B7E
:102A20003B685A6813469B001344053B1F2202FA79
:102A300003F3DA437B681B680A405A637B681B68B0
:102A4000596B3B681B689BB218463B685A68134633
:102A50009B001344053B00FA03F27B681B680A43A2
:102A60005A634CE03B685B680C2B24D87B681B687E
:102A7000196B3B685A6813469B001344233B1F2283
:102A800002FA03F3DA437B681B680A401A637B6827
:102A90001B68196B3B681B689BB218463B685A68F9
:102AA00013469B001344233B00FA03F27B681B6828
:102AB0000A431A6323E07B681B68D96A3B685A683B
:102AC00013469B001344413B1F2202FA03F3DA43EF
:102AD0007B681B680A40DA627B681B68D96A3B68BE
:102AE0001B689BB218463B685A6813469B00134408
:102AF000413B00FA03F27B681B680A43DA62294B08
:102B0000FB607B681B68284A93420FD13B681B68B7
:102B1000122B0BD1FB685B6823F40002FB685A6040
:102B2000FB685B6843F48002FB685A607B681B6843
:102B30001D4A93422BD13B681B681C4A934203D029
:102B40003B681B68112B22D1FB685B6823F4800271
:102B5000FB685A60FB685B6843F40002FB685A60DC
:102B60003B681B68114A934211D1114B1B68114AF3
:102B7000A2FB03239A0C13469B0013445B00BB602B
:102B800002E0BB68013BBB60BB68002BF9D17B68EE
:102B9000002283F83C20002318461437BD465DF818
:102BA000047B704700230140002001401200001008
:102BB0005800002083DE1B4380B485B000AF7860EE
:102BC000794BFB60FB685B6823F44032FB685A601A
:102BD000FB685A687B685B681A43FB685A607B68CD
:102BE0001B685A687B681B6822F480725A607B6895
:102BF0001B6859687B681B691A027B681B680A435B
:102C00005A607B681B685A687B681B6822F04072B8
:102C10005A607B681B6859687B689A687B681B6888
:102C20000A435A607B681B689A687B681B6822F4B9
:102C300000629A607B681B6899687B68DA687B68C9
:102C40001B680A439A607B689B6A584A934222D069
:102C50007B681B689A687B681B6822F070629A60C8
:102C60007B681B6899687B689A6A7B681B680A4363
:102C70009A607B681B689A687B681B6822F04052E8
:102C80009A607B681B6899687B68DA6A7B681B6856
:102C90000A439A600FE07B681B689A687B681B6830
:102CA00022F070629A607B681B689A687B681B6878
:102CB00022F040529A607B681B689A687B681B68A8
:102CC00022F002029A607B681B6899687B681B7E11
:102CD0005A007B681B680A439A607B6893F820302F
:102CE000002B1BD07B681B685A687B681B6842F40A
:102CF00000625A607B681B685A687B681B6822F414
:102D000060425A607B681B6859687B685B6A013B5C
:102D10005A037B681B680A435A6007E07B681B689C
:102D20005A687B681B6822F400625A607B681B68E3
:102D3000DA6A7B681B6822F47002DA627B681B68BF
:102D4000D96A7B68DB69013B1A057B681B680A430B
:102D5000DA627B681B689A687B681B6822F40072E1
:102D60009A607B681B6899687B6893F830305A02D8
:102D70007B681B680A439A607B681B689A687B685B
:102D80001B6822F480629A607B681B6899687B6884
:102D90005B699A027B681B680A439A6000BF14371C
:102DA000BD465DF8047B7047002301400100000F21
:102DB00080B485B000AF78607B6803F00703FB60E8
:102DC0000C4BDB68BB60BA684FF6FF031340BB6077
:102DD000FB681A02BB68134343F0BF6343F400333C
:102DE000BB60044ABB68D36000BF1437BD465DF8C2
:102DF000047B704700ED00E080B400AF044BDB685B
:102E00001B0A03F007031846BD465DF8047B7047B4
:102E100000ED00E080B483B000AF0346FB7197F98A
:102E20000730002B0BDBFB7903F01F02074997F9F2
:102E300007305B09012000FA02F241F8232000BFAD
:102E40000C37BD465DF8047B704700BF00E100E031
:102E500080B483B000AF03463960FB7197F9073047
:102E6000002B0ADB3B68DAB20C4997F907301201F4
:102E7000D2B20B4483F800230AE03B68DAB2084977
:102E8000FB7903F00F03043B1201D2B20B441A7614
:102E900000BF0C37BD465DF8047B704700E100E0E1
:102EA00000ED00E080B489B000AFF860B9607A60EE
:102EB000FB6803F00703FB61FB69C3F10703042B05
:102EC00028BF0423BB61FB690433062B02D9FB69CD
:102ED000033B00E000237B614FF0FF32BB6902FA45
:102EE00003F3DA43BB681A407B699A404FF0FF3125
:102EF0007B6901FA03F3D9437B680B4013431846FF
:102F00002437BD465DF8047B7047000080B582B071
:102F100000AF78607B68013BB3F1807F01D3012370
:102F20000FE00A4A7B68013B53600F214FF0FF30EE
:102F3000FFF78EFF054B00229A60044B07221A60B0
:102F4000002318460837BD4680BD00BF10E000E0F2
:102F500080B582B000AF78607868FFF729FF00BFC6
:102F60000837BD4680BD80B586B000AF0346B96066
:102F70007A60FB7300237B61FFF73EFF78617A681C
:102F8000B9687869FFF78EFF024697F90F3011464E
:102F90001846FFF75DFF00BF1837BD4680BD80B5FE
:102FA00082B000AF0346FB7197F907301846FFF770
:102FB00031FF00BF0837BD4680BD80B582B000AF8D
:102FC00078607868FFF7A2FF034618460837BD46C9
:102FD00080BD000080B586B000AF786000237B61C3
:102FE000FFF7C4FA38617B68002B01D1012399E017
:102FF0007B68022283F835207B68002283F8342026
:103000007B681B681A687B681B6822F001021A60E3
:103010000FE0FFF7ABFA02463B69D31A052B08D93C
:103020007B6820225A657B68032283F835200323BE
:1030300078E07B681B681B6803F00103002BE8D174
:103040007B681B681B687B617A69384B13407B6126
:103050007B685A687B689B681A437B68DB681A4305
:103060007B681B691A437B685B691A437B689B69B1
:103070001A437B68DB691A437B681B6A13437A69CE
:1030800013437B617B685B6A042B07D17B68DA6A38
:103090007B681B6B13437A6913437B617B681B68F6
:1030A0007A691A607B681B685B697B617B6923F0C6
:1030B00007037B617B685B6A7A6913437B617B688A
:1030C0005B6A042B17D17B689B6A7A6913437B6127
:1030D0007B68DB6A002B0ED0786800F06FFA03463D
:1030E000002B08D07B6840225A657B68012283F858
:1030F0003520012316E07B681B687A695A6178687D
:1031000000F026FA0346FB607B68DB6D3F229A40A5
:10311000FB689A607B6800225A657B68012283F80D
:103120003520002318461837BD4680BD3F8010F07B
:1031300080B586B000AFF860B9607A603B6000236C
:10314000FB75FB689B6D3B61FB6893F83430012B8A
:1031500001D1022340E0FB68012283F83420FB68A0
:1031600093F83530DBB2012B2FD1FB68022283F8B4
:103170003520FB6800225A653B687A68B968F868B0
:1031800000F0B8F9FB68DB6D3F229A403B699A601A
:10319000FB681B681A68FB681B6842F016021A601D
:1031A000FB681B6C002B07D0FB681B681A68FB6868
:1031B0001B6842F008021A60FB681B681A68FB680B
:1031C0001B6842F001021A6005E0FB68002283F8E8
:1031D00034200223FB75FB7D18461837BD4680BDA1
:1031E00080B586B000AF78600023BB608E4B1B6853
:1031F0008E4AA2FB03239B0A7B617B689B6D3B612C
:103200003B691B68FB607B68DB6D08229A40FB68AA
:103210001340002B1AD07B681B681B6803F0040363
:10322000002B13D07B681B681A687B681B6822F030
:1032300004021A607B68DB6D08229A403B699A6041
:103240007B685B6D43F001027B685A657B68DB6DD0
:1032500001229A40FB681340002B12D07B681B6848
:103260005B6903F08003002B0BD07B68DB6D0122D0
:103270009A403B699A607B685B6D43F002027B6811
:103280005A657B68DB6D04229A40FB681340002B73
:1032900012D07B681B681B6803F00203002B0BD065
:1032A0007B68DB6D04229A403B699A607B685B6DAA
:1032B00043F004027B685A657B68DB6D10229A40FC
:1032C000FB681340002B43D07B681B681B6803F02E
:1032D0000803002B3CD07B68DB6D10229A403B69D1
:1032E0009A607B681B681B6803F48023002B18D04E
:1032F0007B681B681B6803F40023002B08D17B68E4
:103300001B6C002B24D07B681B6C786898471FE0EF
:103310007B689B6C002B1BD07B689B6C7868984704
:1033200016E07B681B681B6803F48073002B07D1D1
:103330007B681B681A687B681B6822F008021A60A9
:103340007B681B6C002B03D07B681B6C78689847EC
:103350007B68DB6D20229A40FB681340002B00F055
:103360008F807B681B681B6803F01003002B00F044
:1033700087807B68DB6D20229A403B699A607B687E
:1033800093F83530DBB2052B36D17B681B681A68A1
:103390007B681B6822F016021A607B681B685A69FA
:1033A0007B681B6822F080025A617B681B6C002BD3
:1033B00003D17B689B6C002B07D07B681B681A6865
:1033C0007B681B6822F008021A607B68DB6D3F2275
:1033D0009A403B699A607B68012283F835207B68BC
:1033E000002283F834207B681B6D002B7ED07B6825
:1033F0001B6D7868984779E07B681B681B6803F44D
:103400008023002B1DD07B681B681B6803F40023FE
:10341000002B0DD17B685B6C002B31D07B685B6C23
:10342000786898472CE000BF58000020B5814E1BFB
:103430007B68DB6B002B23D07B68DB6B786898475D
:103440001EE07B681B681B6803F48073002B0FD1A0
:103450007B681B681A687B681B6822F010021A6080
:103460007B68012283F835207B68002283F83420B2
:103470007B68DB6B002B03D07B68DB6B786898473D
:103480007B685B6D002B32D07B685B6D03F00103C2
:10349000002B22D07B68052283F835207B681B68CF
:1034A0001A687B681B6822F001021A60BB6801334E
:1034B000BB607A699A4207D37B681B681B6803F07C
:1034C0000103002BF2D100E000BF7B68012283F8EA
:1034D00035207B68002283F834207B68DB6C002B6E
:1034E00005D07B68DB6C7868984700E000BF183730
:1034F000BD4680BD80B485B000AFF860B9607A6029
:103500003B60FB681B681A68FB681B6822F480221A
:103510001A60FB681B683A685A60FB689B68402B1E
:1035200008D1FB681B687A689A60FB681B68BA68F8
:10353000DA6007E0FB681B68BA689A60FB681B6882
:103540007A68DA6000BF1437BD465DF8047B7047C7
:1035500080B485B000AF78607B681B68DBB2103B3D
:10356000144AA2FB03231B09FB60134AFB681344A4
:103570001B781A467B68DA65FB68032B09D97B68E0
:103580001B6823F47F7323F003031A1D7B689A657D
:1035900007E07B681B6823F47F7323F003037A68DA
:1035A00093657B689B6D18461437BD465DF8047BB8
:1035B000704700BFABAAAAAA4089000880B485B0B2
:1035C00000AF78600023FB737B689B6ABB607B68FD
:1035D0009B69002B1FD1BB68032B56D801A252F860
:1035E00023F000BFF535000807360008F535000860
:1035F0008B3600087B68DB6A03F08073002B46D0B3
:103600000123FB7343E07B68DB6AB3F1C07F40D1E9
:103610000123FB733DE07B689B69B3F5005F21D11B
:10362000BB68032B37D801A252F823F03D360008BF
:10363000433600083D360008553600080123FB7369
:1036400030E07B68DB6A03F08073002B25D0012318
:10365000FB7322E07B68DB6AB3F1C07F1FD10123DB
:10366000FB731CE0BB68022B03D9BB68032B03D0A0
:1036700018E00123FB7315E07B68DB6A03F08073BD
:10368000002B0ED00123FB730BE000BF0AE000BF4C
:1036900008E000BF06E000BF04E000BF02E000BF9A
:1036A00000E000BFFB7B18461437BD465DF8047B85
:1036B000704700BF80B489B000AF786039600023E4
:1036C0007B6100233B610023BB610023FB6159E167
:1036D0000122FB6902FA03F37B613B681B687A698C
:1036E00013403B613A697B699A4240F048813B68EC
:1036F0005B6803F00303012B05D03B685B6803F0B4
:103700000303022B30D17B689B68BB61FB695B00C4
:10371000032202FA03F3DB43BA691340BB613B683F
:10372000DA68FB695B0002FA03F3BA691343BB6111
:103730007B68BA699A607B685B68BB610122FB6940
:1037400002FA03F3DB43BA691340BB613B685B6871
:103750001B0903F00102FB6902FA03F3BA69134380
:10376000BB617B68BA695A603B685B6803F003031E
:10377000032B17D07B68DB68BB61FB695B0003220E
:1037800002FA03F3DB43BA691340BB613B689A68F2
:10379000FB695B0002FA03F3BA691343BB617B6800
:1037A000BA69DA603B685B6803F00303022B23D13C
:1037B000FB69DA087B68083253F82230BB61FB6989
:1037C00003F007039B000F2202FA03F3DB43BA69FD
:1037D0001340BB613B681A69FB6903F007039B0058
:1037E00002FA03F3BA691343BB61FB69DA087B6829
:1037F0000832B96943F822107B681B68BB61FB691A
:103800005B00032202FA03F3DB43BA691340BB6196
:103810003B685B6803F00302FB695B0002FA03F399
:10382000BA691343BB617B68BA691A603B685B681D
:1038300003F44033002B00F0A2800023FB60574BC1
:103840005B6C564A43F480435364544B5B6C03F403
:103850008043FB60FB68524AFB699B08023352F8C5
:103860002330BB61FB6903F003039B000F2202FAC4
:1038700003F3DB43BA691340BB617B68494A934257
:1038800019D07B68484A934213D07B68474A9342D9
:103890000DD07B68464A934207D07B68454A9342E5
:1038A00001D1042308E0072306E0032304E00223F8
:1038B00002E0012300E00023FA6902F00302920013
:1038C0009340BA691343BB613549FB699B080233D6
:1038D000BA6941F82320384B9B68BB613B69DB43E5
:1038E000BA691340BB613B685B6803F48013002B2B
:1038F00003D0BA693B691343BB612F4ABB6993602C
:103900002D4BDB68BB613B69DB43BA691340BB618C
:103910003B685B6803F40013002B03D0BA693B6972
:103920001343BB61244ABB69D360234B5B68BB6113
:103930003B69DB43BA691340BB613B685B6803F4D6
:103940000033002B03D0BA693B691343BB611A4AA9
:10395000BB695360184B1B68BB613B69DB43BA69A9
:103960001340BB613B685B6803F48033002B03D0DA
:10397000BA693B691343BB610F4ABB691360FB69BA
:103980000133FB61FB690F2B7FF6A2AE00BF00BFC6
:103990002437BD465DF8047B704700BF0038024005
:1039A00000380140000002400004024000080240CC
:1039B000000C024000100240003C014080B483B083
:1039C00000AF78600B467B8013467B707B78002BC2
:1039D00003D07A887B689A6103E07B881A047B684D
:1039E0009A6100BF0C37BD465DF8047B704780B418
:1039F00085B000AF78600B467B807B685B69FB60BD
:103A00007A88FB6813401A04FB68D9437B880B4013
:103A10001A437B689A6100BF1437BD465DF8047B8A
:103A20007047000080B582B000AF0346FB80084BB2
:103A30005A69FB881340002B06D0054AFB88536166
:103A4000FB881846FEF76EFA00BF0837BD4680BDFA
:103A5000003C014080B586B000AF78607B68002BE9
:103A600001D1012367E27B681B6803F00103002B8F
:103A700075D0884B9B6803F00C03042B0CD0854B4E
:103A80009B6803F00C03082B12D1824B5B6803F494
:103A90008003B3F5800F0BD17E4B1B6803F400331A
:103AA000002B5BD07B685B68002B57D1012342E27F
:103AB0007B685B68B3F5803F06D1764B1B68754A1F
:103AC00043F4803313601DE07B685B68B3F5A02F7F
:103AD0000CD1704B1B686F4A43F4802313606D4B0D
:103AE0001B686C4A43F4803313600BE0694B1B681E
:103AF000684A23F480331360664B1B68654A23F4DD
:103B0000802313607B685B68002B13D0FEF72EFDCB
:103B1000386108E0FEF72AFD02463B69D31A642BA0
:103B200001D9032307E25B4B1B6803F40033002B2E
:103B3000F0D014E0FEF71AFD386108E0FEF716FD3C
:103B400002463B69D31A642B01D90323F3E1514B9D
:103B50001B6803F40033002BF0D100E000BF7B684A
:103B60001B6803F00203002B63D04A4B9B6803F0F1
:103B70000C03002B0BD0474B9B6803F00C03082B66
:103B80001CD1444B5B6803F48003002B16D1414BDE
:103B90001B6803F00203002B05D07B68DB68012B58
:103BA00001D00123C7E13B4B1B6823F0F8027B687F
:103BB0001B69DB00374913430B603AE07B68DB6825
:103BC000002B20D0344B01221A60FEF7CFFC386165
:103BD00008E0FEF7CBFC02463B69D31A022B01D961
:103BE0000323A8E12B4B1B6803F00203002BF0D04A
:103BF000284B1B6823F0F8027B681B69DB00254912
:103C000013430B6015E0244B00221A60FEF7AEFC54
:103C1000386108E0FEF7AAFC02463B69D31A022B82
:103C200001D9032387E11B4B1B6803F00203002B20
:103C3000F0D17B681B6803F00803002B36D07B684B
:103C40005B69002B16D0154B01221A60FEF78EFC23
:103C5000386108E0FEF78AFC02463B69D31A022B62
:103C600001D9032367E10B4B5B6F03F00203002BC9
:103C7000F0D01BE0094B00221A60FEF777FC386198
:103C80000EE0FEF773FC02463B69D31A022B07D9FC
:103C9000032350E10038024000004742800E4742B3
:103CA000884B5B6F03F00203002BEAD17B681B6833
:103CB00003F00403002B00F097800023FB75814B79
:103CC0001B6C03F08053002B0FD10023BB607D4B96
:103CD0001B6C7C4A43F0805313647A4B1B6C03F0DB
:103CE0008053BB60BB680123FB75774B1B6803F4F3
:103CF0008073002B18D1744B1B68734A43F4807394
:103D00001360FEF733FC386108E0FEF72FFC024633
:103D10003B69D31A022B01D903230CE16A4B1B68C0
:103D200003F48073002BF0D07B689B68012B06D1D5
:103D3000644B1B6F634A43F0010313671CE07B680D
:103D40009B68052B0CD15F4B1B6F5E4A43F004034D
:103D500013675C4B1B6F5B4A43F0010313670BE077
:103D6000584B1B6F574A23F001031367554B1B6FCA
:103D7000544A23F0040313677B689B68002B15D01B
:103D8000FEF7F4FB38610AE0FEF7F0FB02463B6900
:103D9000D31A41F28832934201D90323CBE0494B35
:103DA0001B6F03F00203002BEED014E0FEF7DEFBE6
:103DB00038610AE0FEF7DAFB02463B69D31A41F2AA
:103DC0008832934201D90323B5E03E4B1B6F03F0C9
:103DD0000203002BEED1FB7D012B05D1394B1B6C6F
:103DE000384A23F0805313647B689B69002B00F0F2
:103DF000A180344B9B6803F00C03082B5CD07B68DC
:103E00009B69022B41D1314B00221A60FEF7AEFBB9
:103E1000386108E0FEF7AAFB02463B69D31A022B81
:103E200001D9032387E0274B1B6803F00073002BA5
:103E3000F0D17B68DA697B681B6A1A437B685B6A2E
:103E40009B011A437B689B6A5B08013B1B041A4376
:103E50007B68DB6A1B061B4913434B601B4B01222B
:103E60001A60FEF783FB386108E0FEF77FFB02462D
:103E70003B69D31A022B01D903235CE0114B1B6869
:103E800003F00073002BF0D054E0104B00221A60B6
:103E9000FEF76CFB386108E0FEF768FB02463B6901
:103EA000D31A022B01D9032345E0064B1B6803F00C
:103EB0000073002BF0D13DE07B689B69012B07D19B
:103EC000012338E0003802400070004060004742A3
:103ED0001B4B5B68FB607B689B69012B28D0FB68F0
:103EE00003F480027B68DB699A4221D1FB6803F00E
:103EF0003F027B681B6A9A421AD1FA6847F6C07380
:103F000013407A68526A9201934211D1FB6803F41C
:103F100040327B689B6A5B08013B1B049A4207D1D5
:103F2000FB6803F070627B68DB6A1B069A4201D073
:103F3000012300E0002318461837BD4680BD00BFAE
:103F40000038024080B584B000AF786039607B688B
:103F5000002B01D10123CCE0684B1B6803F0070361
:103F60003A689A420CD9654B3A68D2B21A70634BE0
:103F70001B6803F007033A689A4201D00123B8E0B6
:103F80007B681B6803F00203002B20D07B681B6852
:103F900003F00403002B05D0594B9B68584A43F4A7
:103FA000E05393607B681B6803F00803002B05D087
:103FB000534B9B68524A43F460439360504B9B6859
:103FC00023F0F0027B689B684D4913438B607B684C
:103FD0001B6803F00103002B44D07B685B68012B56
:103FE00007D1474B1B6803F40033002B19D1012381
:103FF0007FE07B685B68022B03D07B685B68032BE8
:1040000007D13F4B1B6803F00073002B09D101233C
:104010006FE03B4B1B6803F00203002B01D101232F
:1040200067E0374B9B6823F003027B685B68344989
:1040300013438B60FEF79AFAF8600AE0FEF796FAEF
:104040000246FB68D31A41F28832934201D9032316
:104050004FE02B4B9B6803F00C027B685B689B0076
:104060009A42EBD1254B1B6803F007033A689A424A
:104070000CD2224B3A68D2B21A70204B1B6803F064
:1040800007033A689A4201D0012332E07B681B683B
:1040900003F00403002B08D0194B9B6823F4E05273
:1040A0007B68DB68164913438B607B681B6803F0F1
:1040B0000803002B09D0124B9B6823F460427B68F5
:1040C0001B69DB000E4913438B6000F021F80246A8
:1040D0000B4B9B681B0903F00F030A49CB5C22FAC8
:1040E00003F3094A1360094B1B681846FEF7FAF9F7
:1040F000002318461037BD4680BD00BF003C02407B
:104100000038024028890008580000205C00002088
:104110002DE9B04F94B000AF00237B640023FB6413
:1041200000233B640023BB64794B9B6803F00C03C2
:10413000082B0DD0082B00F2E180002B02D0042BBD
:1041400003D0DBE0734BBB64DBE0734BBB64D8E0B4
:104150006F4B5B6803F03F037B646D4B5B6803F45C
:104160008003002B63D06A4B5B689B090022BB6312
:10417000FA63BB6BC3F308033B6300237B63D7E99C
:104180000C4522462B464FF000004FF0000159012C
:1041900041EAD261500102460B462146511A39616B
:1041A000294663EB01037B614FF000024FF00003EF
:1041B000D7E904AB59468B01514643EA9163514616
:1041C0008A015146B2EB0108594663EB01094FF0F1
:1041D00000024FF000034FEAC90343EA58734FEA65
:1041E000C80290469946234618EB0303BB602B4652
:1041F00049EB0303FB604FF000024FF00003D7E9E7
:10420000024529464B02214643EAD15321464A0240
:10421000104619467B6C0022BB62FA62D7E90A237A
:10422000FCF71AFD02460B461346FB6458E0384B78
:104230005B689B09002218461146C0F308033B62E5
:1042400000237B62D7E9088942464B464FF00000C5
:104250004FF00001590141EAD261500102460B467C
:104260004146B2EB010A494663EB010B4FF00002F5
:104270004FF000034FEA8B1343EA9A634FEA8A1226
:10428000B2EB0A0463EB0B054FF000024FF00003A2
:10429000EB0043EA5473E20014461D464346E3181C
:1042A0003B604B4645EB03037B604FF000024FF051
:1042B0000003D7E9004529468B02214643EA915382
:1042C00021468A02104619467B6C0022BB61FA61C6
:1042D000D7E90623FCF7C0FC02460B461346FB64F5
:1042E0000B4B5B681B0C03F0030301335B003B6467
:1042F000FA6C3B6CB2FBF3F3BB6402E0054BBB64AE
:1043000000BFBB6C18465037BD46BDE8B08F00BF3C
:10431000003802400024F40000127A0080B400AF9C
:10432000034B1B681846BD465DF8047B704700BF11
:104330005800002080B500AFFFF7F0FF0246054BA4
:104340009B689B0A03F007030349CB5C22FA03F343
:10435000184680BD003802403889000880B500AF9B
:10436000FFF7DCFF0246054B9B685B0B03F007037E
:104370000349CB5C22FA03F3184680BD00380240A3
:104380003889000880B582B000AF78607B68002B68
:1043900001D1012341E07B6893F83D30DBB2002B73
:1043A00006D17B68002283F83C207868FDF72EFE5A
:1043B0007B68022283F83D207B681A687B6804339F
:1043C0001946104600F010FA7B68012283F8462057
:1043D0007B68012283F83E207B68012283F83F201E
:1043E0007B68012283F840207B68012283F841200A
:1043F0007B68012283F842207B68012283F84320F6
:104400007B68012283F844207B68012283F84520E1
:104410007B68012283F83D20002318460837BD46FB
:1044200080BD80B582B000AF78607B68002B01D181
:10443000012341E07B6893F83D30DBB2002B06D1CD
:104440007B68002283F83C20786800F039F87B68AC
:10445000022283F83D207B681A687B680433194682
:10446000104600F0C1F97B68012283F846207B6882
:10447000012283F83E207B68012283F83F207B687D
:10448000012283F840207B68012283F841207B6869
:10449000012283F842207B68012283F843207B6855
:1044A000012283F844207B68012283F845207B6841
:1044B000012283F83D20002318460837BD4680BD01
:1044C00080B483B000AF786000BF0C37BD465DF8A4
:1044D000047B704780B586B000AFF860B9607A6041
:1044E0000023FB75FB6893F83C30012B01D10223BC
:1044F000AEE0FB68012283F83C207B680C2B00F2C5
:104500009F8001A252F823F03D4500084146000873
:1045100041460008414600087D4500084146000824
:104520004146000841460008BF45000841460008D2
:104530004146000841460008FF450008FB681B682B
:10454000B968184600F0D0F9FB681B689A69FB68E7
:104550001B6842F008029A61FB681B689A69FB6855
:104560001B6822F004029A61FB681B689969BB68AA
:104570001A69FB681B680A439A6164E0FB681B6860
:10458000B968184600F016FAFB681B689A69FB6860
:104590001B6842F400629A61FB681B689A69FB68B9
:1045A0001B6822F480629A61FB681B689969BB688A
:1045B0001B691A02FB681B680A439A6143E0FB68A7
:1045C0001B68B968184600F061FAFB681B68DA6975
:1045D000FB681B6842F00802DA61FB681B68DA6955
:1045E000FB681B6822F00402DA61FB681B68D9696A
:1045F000BB681A69FB681B680A43DA6123E0FB6841
:104600001B68B968184600F0ABFAFB681B68DA69EA
:10461000FB681B6842F40062DA61FB681B68DA69B8
:10462000FB681B6822F48062DA61FB681B68D96949
:10463000BB681B691A02FB681B680A43DA6102E067
:104640000123FB7500BFFB68002283F83C20FB7D43
:1046500018461837BD4680BD80B584B000AF78607D
:1046600039600023FB737B6893F83C30012B01D148
:104670000223B4E07B68012283F83C207B6802229D
:1046800083F83D207B681B689B68BB60BB6823F098
:104690007703BB60BB6823F47F43BB607B681B6808
:1046A000BA689A603B681B68B3F5005F3ED0B3F50B
:1046B000005F00F28780B3F5805F00F08680B3F57D
:1046C000805F7FD8702B1AD0702B7BD8602B50D096
:1046D000602B77D8502B3CD0502B73D8402B58D020
:1046E000402B6FD8302B64D0302B6BD8202B60D070
:1046F000202B67D8002B5CD0102B5AD062E07B684F
:1047000018683B6899683B685A683B68DB6800F04A
:10471000F1FA7B681B689B68BB60BB6843F077035A
:10472000BB607B681B68BA689A604FE07B6818685A
:104730003B6899683B685A683B68DB6800F0DAFAC6
:104740007B681B689A687B681B6842F480429A60A9
:104750003CE07B6818683B6859683B68DB681A4630
:1047600000F04EFA7B681B685021184600F0A7FA4B
:104770002CE07B6818683B6859683B68DB681A4620
:1047800000F06DFA7B681B686021184600F097FA0C
:104790001CE07B6818683B6859683B68DB681A4610
:1047A00000F02EFA7B681B684021184600F087FA5B
:1047B0000CE07B681A683B681B681946104600F0DD
:1047C0007EFA03E00123FB7300E000BF7B68012257
:1047D00083F83D207B68002283F83C20FB7B184651
:1047E0001037BD4680BD000080B485B000AF786052
:1047F00039607B681B68FB607B68344A93420FD04A
:104800007B68B3F1804F0BD07B68314A934207D06D
:104810007B68304A934203D07B682F4A934208D189
:10482000FB6823F07003FB603B685B68FA68134326
:10483000FB607B68254A93421BD07B68B3F1804FB5
:1048400017D07B68224A934213D07B68214A934257
:104850000FD07B68204A93420BD07B681F4A93425B
:1048600007D07B681E4A934203D07B681D4A93425F
:1048700008D1FB6823F44073FB603B68DB68FA688F
:104880001343FB60FB6823F080023B685B691343C2
:10489000FB607B68FA681A603B689A687B68DA623A
:1048A0003B681A687B689A627B68084A934203D126
:1048B0003B681A697B681A637B6801225A6100BFF2
:1048C0001437BD465DF8047B704700BF000001400F
:1048D0000004004000080040000C0040004001407F
:1048E000004401400048014080B487B000AF7860C8
:1048F00039607B681B6A23F001027B681A627B685F
:104900001B6A7B617B685B683B617B689B69FB60C2
:10491000FB6823F07003FB60FB6823F00303FB607C
:104920003B681B68FA681343FB607B6923F0020352
:104930007B613B689B687A6913437B617B681C4A97
:1049400093420CD17B6923F008037B613B68DB68F1
:104950007A6913437B617B6923F004037B617B6885
:10496000134A934211D13B6923F480733B613B6945
:1049700023F400733B613B685B693A6913433B6115
:104980003B689B693A6913433B617B683A695A60AB
:104990007B68FA689A613B685A687B685A637B68EF
:1049A0007A691A6200BF1C37BD465DF8047B704708
:1049B0000000014080B487B000AF786039607B6848
:1049C0001B6A23F010027B681A627B681B6A7B619A
:1049D0007B685B683B617B689B69FB60FB6823F4D9
:1049E000E043FB60FB6823F44073FB603B681B689B
:1049F0001B02FA681343FB607B6923F020037B6191
:104A00003B689B681B017A6913437B617B681E4A84
:104A100093420DD17B6923F080037B613B68DB68A7
:104A20001B017A6913437B617B6923F040037B613F
:104A30007B68154A934213D13B6923F480633B6141
:104A40003B6923F400633B613B685B699B003A6907
:104A500013433B613B689B699B003A6913433B618D
:104A60007B683A695A607B68FA689A613B685A6861
:104A70007B689A637B687A691A6200BF1C37BD46FF
:104A80005DF8047B704700BF0000014080B487B030
:104A900000AF786039607B681B6A23F480727B68A2
:104AA0001A627B681B6A7B617B685B683B617B6821
:104AB000DB69FB60FB6823F07003FB60FB6823F09D
:104AC0000303FB603B681B68FA681343FB607B6968
:104AD00023F400737B613B689B681B027A69134374
:104AE0007B617B681D4A93420DD17B6923F400638F
:104AF0007B613B68DB681B027A6913437B617B69DE
:104B000023F480637B617B68144A934213D13B6931
:104B100023F480533B613B6923F400533B613B68C2
:104B20005B691B013A6913433B613B689B691B014D
:104B30003A6913433B617B683A695A607B68FA685B
:104B4000DA613B685A687B68DA637B687A691A6263
:104B500000BF1C37BD465DF8047B70470000014074
:104B600080B487B000AF786039607B681B6A23F43B
:104B700080527B681A627B681B6A3B617B685B685A
:104B80007B617B68DB69FB60FB6823F4E043FB60CF
:104B9000FB6823F44073FB603B681B681B02FA68E8
:104BA0001343FB603B6923F400533B613B689B6804
:104BB0001B033A6913433B617B68104A934209D156
:104BC0007B6923F480437B613B685B699B017A6965
:104BD00013437B617B687A695A607B68FA68DA61A3
:104BE0003B685A687B681A647B683A691A6200BF3E
:104BF0001C37BD465DF8047B704700BF00000140D4
:104C000080B487B000AFF860B9607A60FB681B6A57
:104C10007B61FB681B6A23F00102FB681A62FB6878
:104C20009B693B613B6923F0F0033B617B681B019F
:104C30003A6913433B617B6923F00A037B617A691C
:104C4000BB6813437B61FB683A699A61FB687A69C8
:104C50001A6200BF1C37BD465DF8047B704780B404
:104C600087B000AFF860B9607A60FB681B6A23F018
:104C70001002FB681A62FB689B697B61FB681B6A18
:104C80003B617B6923F470437B617B681B037A691A
:104C900013437B613B6923F0A0033B61BB681B01AD
:104CA0003A6913433B61FB687A699A61FB683A6928
:104CB0001A6200BF1C37BD465DF8047B704780B4A4
:104CC00085B000AF786039607B689B68FB60FB68EB
:104CD00023F07003FB603A68FB68134343F007035B
:104CE000FB607B68FA689A6000BF1437BD465DF8C8
:104CF000047B704780B487B000AFF860B9607A6019
:104D00003B60FB689B687B617B6923F47F437B612D
:104D10003B681A027B681A43BB6813437A691343E2
:104D20007B61FB687A699A6000BF1C37BD465DF8FD
:104D3000047B704780B485B000AF786039607B68D1
:104D400093F83C30012B01D1022350E07B68012213
:104D500083F83C207B68022283F83D207B681B6837
:104D60005B68FB607B681B689B68BB60FB6823F02B
:104D70007003FB603B681B68FA681343FB607B6849
:104D80001B68FA685A607B681B681C4A934218D0FB
:104D90007B681B68B3F1804F13D07B681B68184A8F
:104DA00093420ED07B681B68164A934209D07B68F9
:104DB0001B68154A934204D07B681B68134A9342D0
:104DC0000CD1BB6823F08003BB603B685B68BA68AA
:104DD0001343BB607B681B68BA689A607B680122DA
:104DE00083F83D207B68002283F83C20002318468E
:104DF0001437BD465DF8047B704700BF00000140DA
:104E00000004004000080040000C00400040014049
:104E100080B582B000AF78607B68002B01D10123A0
:104E20003FE07B6893F83D30DBB2002B06D17B6816
:104E3000002283F83C207868FDF744F97B6824223F
:104E400083F83D207B681B68DA687B681B6822F466
:104E50000052DA60786800F0A5FB7B681B681A696D
:104E60007B681B6822F490421A617B681B685A6950
:104E70007B681B6822F02A025A617B681B68DA682B
:104E80007B681B6842F40052DA607B6800221A6477
:104E90007B68202283F83D207B68202283F83E2017
:104EA000002318460837BD4680BD80B58AB002AFE2
:104EB000F860B9603B601346FB8000237B61FB68B0
:104EC00093F83D30DBB2202B7CD1BB68002B02D0A5
:104ED000FB88002B01D1012375E0FB6893F83C307F
:104EE000012B01D102236EE0FB68012283F83C20F4
:104EF000FB6800221A64FB68212283F83D20FDF73D
:104F000035FB7861FB68FA889A84FB68FA88DA8452
:104F1000FB689B68B3F5805F08D1FB681B69002BB9
:104F200004D10023FB61BB68BB6103E0BB68FB618C
:104F30000023BB61FB68002283F83C202AE03B6829
:104F400000937B6900228021F86800F092F9034603
:104F5000002B01D0032336E0FB69002B0BD1BB698A
:104F60001B881A46FB681B68C2F308025A60BB69BB
:104F70000233BB6107E0FB691A78FB681B685A6063
:104F8000FB690133FB61FB68DB8C9BB2013B9AB28E
:104F9000FB68DA84FB68DB8C9BB2002BCFD13B68CB
:104FA00000937B6900224021F86800F062F9034613
:104FB000002B01D0032306E0FB68202283F83D206C
:104FC000002300E0022318462037BD4680BD80B58F
:104FD00084B000AFF860B9601346FB80FB6893F8BB
:104FE0003E30DBB2202B1DD1BB68002B02D0FB88EA
:104FF000002B01D1012316E0FB6893F83C30012B14
:1050000001D102230FE0FB68012283F83C20FB68FA
:1050100000221A63FB881A46B968F86800F098F90C
:10502000034600E0022318461037BD4680BD80B419
:1050300083B000AF786000BF0C37BD465DF8047BDD
:10504000704780B483B000AF786000BF0C37BD46B6
:105050005DF8047B704780B483B000AF786000BF18
:105060000C37BD465DF8047B704780B483B000AF59
:1050700078600B467B8000BF0C37BD465DF8047B33
:10508000704780B59CB000AF78607B689B6BFB6617
:105090007B681B681B6803F48073002B72D1FB6E66
:1050A0000022DA85FB6E1B680C33FB64FB6C53E853
:1050B000003FBB64BB6C23F48073BB66FB6E1B6854
:1050C0000C33BA6EBA657B65796DBA6D41E8002321
:1050D0003B653B6D002BE5D1FB6E1B681433BB6356
:1050E000BB6B53E8003F7B637B6B23F001037B6664
:1050F000FB6E1B6814337A6E7A643B64396C7A6C8D
:1051000041E80023FB63FB6B002BE5D1FB6E1B68C2
:1051100014337B627B6A53E8003F3B623B6A23F0B7
:1051200040033B66FB6E1B6814333A6E3A63FB62C6
:10513000F96A3A6B41E80023BB62BB6A002BE5D1F8
:10514000FB6E202283F83E20FB6E1B6B012B19D1D6
:10515000FB6E1B680C333B613B6953E8003FFB600F
:10516000FB6823F01003FB65FB6E1B680C33FA6DC4
:10517000FA61BB61B969FA6941E800237B617B6927
:10518000002BE5D1FB6E1B6B012B06D1FB6E9B8DBB
:105190001946F86EFFF769FF02E0F86EFFF747FF68
:1051A00000BF7037BD4680BD80B584B000AF786069
:1051B0007B689B6BFB60FB681B6B012B08D1FB685A
:1051C0009B8D5B089BB21946F868FFF74EFF02E023
:1051D000F868FFF736FF00BF1037BD4680BD80B5C9
:1051E00084B000AF78600023FB607B689B6BBB6082
:1051F000BB681B685B6903F08003802B0CBF012335
:105200000023DBB2FB60BB6893F83D30DBB2212B9F
:1052100008D1FB68002B05D0BB680022DA84B8688F
:1052200000F034F9BB681B685B6903F04003402B56
:105230000CBF01230023DBB2FB60BB6893F83E3058
:10524000DBB2222B08D1FB68002B05D0BB68002203
:10525000DA85B86800F042F9BB681B6C43F01002B5
:10526000BB681A64B868FFF7F6FE00BF1037BD468A
:1052700080BD80B590B000AFF860B9603B60134668
:10528000FB7150E0BB6CB3F1FF3F4CD0BB6C002B0B
:1052900007D0FDF76BF902463B68D31ABA6C9A4205
:1052A00041D2FB681B680C33BB62BB6A53E8003F0A
:1052B0007B627B6A23F4D073FB63FB681B680C334F
:1052C000FA6B7A633B63396B7A6B41E80023FB62CC
:1052D000FB6A002BE5D1FB681B6814337B617B699B
:1052E00053E8003F3B613B6923F00103BB63FB686C
:1052F0001B681433BA6B3A62FB61F9693A6A41E898
:105300000023BB61BB69002BE5D1FB68202283F839
:105310003D20FB68202283F83E20FB68002283F8B2
:105320003C2003230FE0FB681B681A68BB6813402E
:10533000BA689A420CBF01230023DBB21A46FB79FC
:105340009A429FD0002318464037BD4680BD0000DA
:1053500080B598B000AFF860B9601346FB80BA68BA
:10536000FB689A62FB68FA889A85FB6800221A64D7
:10537000FB68222283F83E20FB689B6B404ADA637D
:10538000FB689B6B3F4A1A64FB689B6B3E4ADA647E
:10539000FB689B6B00221A6507F10803FB65FB683D
:1053A000986BFB681B6804331946FB6D1A68FB8811
:1053B000FDF7BEFE00233B61FB681B681B683B6179
:1053C000FB681B685B683B613B69FB68002283F8F4
:1053D0003C20FB681B69002B19D0FB681B680C3351
:1053E0003B643B6C53E8003FFB63FB6B43F480730F
:1053F000BB65FB681B680C33BA6DFA64BB64B96C9F
:10540000FA6C41E800237B647B6C002BE5D1FB68E0
:105410001B681433FB62FB6A53E8003FBB62BB6A44
:1054200043F001037B65FB681B6814337A6DBA6334
:105430007B63796BBA6B41E800233B633B6B002BCA
:10544000E5D1FB681B681433BB61BB6953E8003FBF
:105450007B617B6943F040033B65FB681B68143349
:105460003A6D7A623B62396A7A6A41E80023FB61ED
:10547000FB69002BE5D1002318466037BD4680BD8F
:1054800083500008A9510008DF51000880B489B09A
:1054900000AF78607B681B680C33FB60FB6853E8E7
:1054A000003FBB60BB6823F0C003FB617B681B68E7
:1054B0000C33FA69BA617B617969BA6941E8002302
:1054C0003B613B69002BE5D17B68202283F83D20BE
:1054D00000BF2437BD465DF8047B704780B495B0AB
:1054E00000AF78607B681B680C337B637B6B53E891
:1054F000003F3B633B6B23F49073FB647B681B684A
:105500000C33FA6C3A64FB63F96B3A6C41E80023A4
:10551000BB63BB6B002BE5D17B681B6814333B621C
:105520003B6A53E8003FFB61FB6923F00103BB6466
:105530007B681B681433BA6CFA62BB62B96AFA6A98
:1055400041E800237B627B6A002BE5D17B681B6B03
:10555000012B19D17B681B680C33FB60FB6853E897
:10556000003FBB60BB6823F010037B647B681B6853
:105570000C337A6CBA617B617969BA6941E80023BE
:105580003B613B69002BE5D17B68202283F83E20FC
:105590007B6800221A6300BF5437BD465DF8047B68
:1055A000704700002DE9B04FC0B000AFC7F8F4005D
:1055B000D7F8F4301B681B6923F44050D7F8F43057
:1055C000D968D7F8F4301A6840EA01031361D7F8B4
:1055D000F4309A68D7F8F4301B691A43D7F8F430DE
:1055E0005B691A43D7F8F430DB691343C7F8F83026
:1055F000D7F8F4301B68DB6823F4164121F00C0166
:10560000D7F8F4301A68D7F8F8300B43D360D7F8DE
:10561000F4301B685B6923F44070D7F8F430996963
:10562000D7F8F4301A6840EA01035361D7F8F43030
:105630001A688F4B9A4205D0D7F8F4301A688D4B10
:105640009A4204D1FEF78AFEC7F8FC0003E0FEF799
:1056500071FEC7F8FC00D7F8F430DB69B3F5004FF2
:1056600040F00C81D7F8FC300022C7F8E830C7F8CA
:10567000EC20D7E93A4522462B469118B9655B41A3
:10568000FB65D7E91623214612EB0108294643EBB7
:1056900001094FF000024FF000034FEAC90343EA4B
:1056A00058734FEAC80290469946234618EB030305
:1056B000C7F8E0302B4649EB0303C7F8E430D7F8CE
:1056C000F4305B680022C7F8D830C7F8DC20D7E98F
:1056D00036120B46DB183B65134642EB03037B6532
:1056E000D7E91423D7E93801FBF7B6FA02460B468F
:1056F000614BA3FB02235B091C01D7F8FC3000229D
:10570000C7F8D030C7F8D420D7E9348942464B4691
:105710009118B9645B41FB64D7E91223414612EB4F
:10572000010A494643EB010B4FF000024FF0000322
:105730004FEACB0343EA5A734FEACA0292469B46AA
:1057400043461AEB0303C7F8C8304B464BEB030341
:10575000C7F8CC30D7F8F4305B680022C7F8C03007
:10576000C7F8C420D7E930120B46DB183B64134658
:1057700042EB03037B64D7E91023D7E93201FBF73F
:105780006BFA02460B4611463B4BA3FB01235B0918
:10579000642202FB03F3CB1ADB0003F13202364B27
:1057A000A3FB02235B095B0003F4F8731C44D7F8E6
:1057B000FC300022C7F8B830C7F8BC20D7E92E89E2
:1057C00042464B469118B9635B41FB63D7E90E2310
:1057D00041465118396349464B417B634FF0000203
:1057E0004FF00003D7E90CAB5946CB00514643EAD2
:1057F00051735146CA0010461946034642469B184B
:10580000C7F8B0304B460A4642EB0303C7F8B43042
:10581000D7F8F4305B680022C7F8A830C7F8AC208E
:10582000D7E92A120B46DB18BB62134642EB03038F
:10583000FB62D7E90A23D7E92C01FBF70DFA0246F0
:105840000B460D4BA3FB02135B09642101FB03F321
:10585000D31ADB003233084AA2FB03235B0903F0AF
:105860000702D7F8F4301B6822449A6005E100BFB4
:1058700000100140001401401F85EB51D7F8FC30A7
:105880000022C7F8A030C7F8A420D7E928894246EB
:105890004B46911839625B417B62D7E90823414648
:1058A0005418494643EB01054FF000024FF0000346
:1058B000EB0043EA5473E20014461D464346E318E6
:1058C000C7F898304B4645EB0303C7F89C30D7F830
:1058D000F4305B680022C7F89030C7F894204FF08E
:1058E00000024FF00003D7E9244529468B002146EA
:1058F00043EA917321468A00D7E92601FBF7ACF908
:1059000002460B46604BA3FB02235B091C01D7F840
:10591000FC300022C7F88830C7F88C20D7E92289EC
:1059200042464B469118B9615B41FB61D7E90623BA
:1059300041465118396149464B417B614FF00002A5
:105940004FF00003D7E904AB5946CB00514643EA78
:1059500051735146CA0010461946034642469B18E9
:10596000C7F880304B460A4642EB0303C7F8843041
:10597000D7F8F4305B680022BB67FA674FF000028B
:105980004FF00003D7E91E8949468B00414643EAA0
:10599000917341468A00D7E92001FBF75DF9024681
:1059A0000B46394BA3FB02135B09642101FB03F394
:1059B000D31A1B013233344AA2FB03235B0903F0E1
:1059C000F0031C44D7F8FC3000223B677A67D7E924
:1059D0001C8942464B469118B9605B41FB60D7E990
:1059E000022341465118396049464B417B604FF0D4
:1059F00000024FF00003D7E900AB5946CB005146F7
:105A000043EA51735146CA001046194603464246BE
:105A10009B18BB664B460A4642EB0303FB66D7F86E
:105A2000F4305B6800223B667A664FF000024FF06C
:105A30000003D7E9188949468B00414643EA917330
:105A400041468A00D7E91A01FBF706F902460B46E0
:105A50000D4BA3FB02135B09642101FB03F3D31A73
:105A60001B013233084AA2FB03235B0903F00F0238
:105A7000D7F8F4301B6822449A6000BF07F580779E
:105A8000BD46BDE8B08F00BF1F85EB51014B1868C4
:105A9000704700BF6400002070B50D4D0D4C641BB5
:105AA000A4100026A64209D10B4D0C4C02F004FFB5
:105AB000641BA4100026A64205D170BD55F8043B16
:105AC00098470136EEE755F8043B98470136F2E770
:105AD0002C8D00082C8D00082C8D0008308D0008BE
