:020000040800F2
:10000000000002203D1C0008291A00082F1A0008D1
:10001000351A00083B1A0008411A000800000000C9
:10002000000000000000000000000000471A000867
:10003000551A000800000000631A0008711A000831
:100040008D1C00088D1C00088D1C00088D1C0008EC
:100050008D1C00088D1C00088D1C00088D1C0008DC
:100060008D1C00088D1C00088D1C00088D1C0008CC
:100070008D1C00088D1C00088D1C00088D1C0008BC
:100080008D1C00088D1C00088D1C0008000000005D
:100090000000000000000000000000008D1C0008AF
:1000A0008D1C00088D1C00088D1C00088D1C00088C
:1000B0008D1C00088D1C00088D1C00088D1C00087C
:1000C0008D1C00088D1C00088D1C00088D1C00086C
:1000D0008D1C00088D1C00088D1C0008000000000D
:1000E0007D1A00088D1C00088D1C0008000000000F
:1000F0000000000000000000000000008D1C00084F
:10010000000000008D1C00088D1C00088D1C0008DC
:1001100000000000000000000000000000000000DF
:100120008D1C00088D1C00088D1C00088D1C00080B
:100130008D1C00080000000000000000000000000E
:100140000000000000000000000000008D1C0008FE
:100150008D1C00088D1C00088D1C00088D1C0008DB
:100160008D1C00088D1C000800000000000000002D
:10017000000000000000000000000000000000007F
:10018000000000008D1C00080000000000000000BE
:080190008D1C00088D1C000805
:1001A00010B5054C237833B9044B13B10448AFF3B1
:1001B00000800123237010BDE0010020000000003A
:1001C0008874000808B5034B1BB103490348AFF31B
:1001D000008008BD00000000E401002088740008D1
:1001E000034613F8012B002AFBD1181A0138704777
:1001F00001F0FF01102A2BDB10F0070F08D010F8D8
:10020000013B013A8B422DD010F0070F42B3F6D1DB
:10021000F0B441EA012141EA014122F007047FF0F4
:1002200000070023F0E80256083C85EA010586EA4B
:10023000010685FA47F5A3FA87F586FA47F6A5FA87
:1002400087F68EB9EED1F0BC01F0FF0102F0070293
:1002500032B110F8013B013A83EA010313B1F8D13E
:100260000020704701387047002D06BF354603381F
:10027000073815F0010F07D1013015F4807F02BF58
:10028000013015F4C03F0130F0BC0138704700BFA9
:1002900081F0004102E000BF83F0004330B54FEA37
:1002A00041044FEA430594EA050F08BF90EA020FA4
:1002B0001FBF54EA000C55EA020C7FEA645C7FEA37
:1002C000655C00F0E2804FEA5454D4EB5555B8BF5A
:1002D0006D420CDD2C4480EA020281EA030382EACB
:1002E000000083EA010180EA020281EA0303362D5D
:1002F00088BF30BD11F0004F4FEA01314FF4801C30
:100300004CEA113102D0404261EB410113F0004F41
:100310004FEA03334CEA133302D0524263EB4303F8
:1003200094EA050F00F0A780A4F10104D5F1200E96
:100330000DDB02FA0EFC22FA05F2801841F10001F1
:1003400003FA0EF2801843FA05F359410EE0A5F1C5
:1003500020050EF1200E012A03FA0EFC28BF4CF0F6
:10036000020C43FA05F3C01851EBE37101F00045AC
:1003700007D54FF0000EDCF1000C7EEB00006EEBB9
:100380000101B1F5801F1BD3B1F5001F0CD3490843
:100390005FEA30004FEA3C0C04F101044FEA44529A
:1003A00012F5800F80F09A80BCF1004F08BF5FEA21
:1003B000500C50F1000041EB045141EA050130BD01
:1003C0005FEA4C0C404141EB0101013C28BFB1F513
:1003D000801FE9D291F0000F04BF01460020B1FA5E
:1003E00081F308BF2033A3F10B03B3F120020CDA31
:1003F0000C3208DD02F1140CC2F10C0201FA0CF00F
:1004000021FA02F10CE002F11402D8BFC2F1200C73
:1004100001FA02F120FA0CFCDCBF41EA0C01904029
:10042000E41AA2BF01EB0451294330BD6FEA040472
:100430001F3C1CDA0C340EDC04F11404C4F120025D
:1004400020FA04F001FA02F340EA030021FA04F36F
:1004500045EA030130BDC4F10C04C4F1200220FAC6
:1004600002F001FA04F340EA0300294630BD21FA04
:1004700004F0294630BD94F0000F83F4801306BFCA
:1004800081F480110134013D4EE77FEA645C18BFBE
:100490007FEA655C29D094EA050F08BF90EA020F55
:1004A00005D054EA000C04BF1946104630BD91EA4D
:1004B000030F1EBF0021002030BD5FEA545C05D150
:1004C0004000494128BF41F0004130BD14F580048F
:1004D0003CBF01F5801130BD01F0004545F0FE4103
:1004E00041F470014FF0000030BD7FEA645C1ABF38
:1004F000194610467FEA655C1CBF0B46024650EA6F
:10050000013406BF52EA033591EA030F41F400219A
:1005100030BD00BF90F0000F04BF0021704730B520
:100520004FF4806404F132044FF000054FF00001F5
:1005300050E700BF90F0000F04BF0021704730B5B6
:100540004FF4806404F1320410F0004548BF40428B
:100550004FF000013EE700BF42004FEAE2014FEAE0
:1005600031014FEA02701FBF12F07F4393F07F4FBB
:1005700081F06051704732F07F4208BF704793F0BE
:100580007F4F04BF41F40021704730B54FF46074D1
:1005900001F0004521F000411CE700BF50EA0102D4
:1005A00008BF704730B54FF000050AE050EA01027D
:1005B00008BF704730B511F0004502D5404261EBED
:1005C00041014FF4806404F132045FEA915C3FF42E
:1005D000D8AE4FF003025FEADC0C18BF03325FEACB
:1005E000DC0C18BF033202EBDC02C2F1200300FA7C
:1005F00003FC20FA02F001FA03FE40EA0E0021FAA1
:1006000002F11444BDE600BF70B54FF0FF0C4CF48E
:10061000E06C1CEA11541DBF1CEA135594EA0C0F40
:1006200095EA0C0F00F0DEF82C4481EA030621EA7B
:100630004C5123EA4C5350EA013518BF52EA0335B6
:1006400041F4801143F4801338D0A0FB02CE4FF068
:100650000005E1FB02E506F00042E0FB03E54FF098
:100660000006E1FB03569CF0000F18BF4EF0010E90
:10067000A4F1FF04B6F5007F64F5407404D25FEA8C
:100680004E0E6D4146EB060642EAC62141EA55513F
:100690004FEAC52040EA5E504FEACE2EB4F1FD0C81
:1006A00088BFBCF5E06F1ED8BEF1004F08BF5FEAFF
:1006B000500E50F1000041EB045170BD06F00046B1
:1006C00046EA010140EA020081EA0301B4EB5C045E
:1006D000C2BFD4EB0C0541EA045170BD41F4801156
:1006E0004FF0000E013C00F3AB8014F1360FDEBF7B
:1006F000002001F0004170BDC4F10004203C35DA57
:100700000C341BDC04F11404C4F1200500FA05F3D9
:1007100020FA04F001FA05F240EA020001F000427A
:1007200021F0004110EBD37021FA04F642EB0601F0
:100730005EEA430E08BF20EAD37070BDC4F10C041A
:10074000C4F1200500FA04F320FA05F001FA04F2DE
:1007500040EA020001F0004110EBD37041F10001CA
:100760005EEA430E08BF20EAD37070BDC4F12005D5
:1007700000FA05F24EEA020E20FA04F301FA05F23D
:1007800043EA020321FA04F001F0004121FA04F2E5
:1007900020EA020000EBD3705EEA430E08BF20EAB5
:1007A000D37070BD94F0000F0FD101F000464000EF
:1007B00041EB010111F4801F08BF013CF7D041EA71
:1007C000060195F0000F18BF704703F00046520075
:1007D00043EB030313F4801F08BF013DF7D043EA46
:1007E0000603704794EA0C0F0CEA135518BF95EAFC
:1007F0000C0F0CD050EA410618BF52EA4306D1D183
:1008000081EA030101F000414FF0000070BD50EAA1
:10081000410606BF1046194652EA430619D094EA2B
:100820000C0F02D150EA013613D195EA0C0F05D115
:1008300052EA03361CBF104619460AD181EA030169
:1008400001F0004141F0FE4141F470014FF0000021
:1008500070BD41F0FE4141F4780170BD70B54FF0BC
:10086000FF0C4CF4E06C1CEA11541DBF1CEA13553C
:1008700094EA0C0F95EA0C0F00F0A7F8A4EB05041E
:1008800081EA030E52EA03354FEA013100F0888015
:100890004FEA03334FF0805545EA131343EA1263DE
:1008A0004FEA022245EA111545EA10654FEA002693
:1008B0000EF000419D4208BF964244F1FD0404F54C
:1008C000407402D25B084FEA3202B61A65EB0305A8
:1008D0005B084FEA32024FF480104FF4002CB6EB65
:1008E000020E75EB030E22BFB61A754640EA0C00E5
:1008F0005B084FEA3202B6EB020E75EB030E22BF25
:10090000B61A754640EA5C005B084FEA3202B6EB65
:10091000020E75EB030E22BFB61A754640EA9C0024
:100920005B084FEA3202B6EB020E75EB030E22BFF4
:10093000B61A754640EADC0055EA060E18D04FEAB2
:10094000051545EA16754FEA06164FEAC30343EA52
:1009500052734FEAC2025FEA1C1CC0D111F4801F1F
:100960000BD141EA00014FF000004FF0004CB6E718
:1009700011F4801F04BF01430020B4F1FD0C88BFB7
:10098000BCF5E06F3FF6AFAEB5EB030C04BFB6EBC2
:10099000020C5FEA500C50F1000041EB045170BDB5
:1009A0000EF0004E4EEA113114EB5C04C2BFD4EBE2
:1009B0000C0541EA045170BD41F480114FF0000E66
:1009C000013C90E645EA060E8DE60CEA135594EAE2
:1009D0000C0F08BF95EA0C0F3FF43BAF94EA0C0FE5
:1009E0000AD150EA01347FF434AF95EA0C0F7FF45A
:1009F00025AF104619462CE795EA0C0F06D152EAAE
:100A000003353FF4FDAE1046194622E750EA410691
:100A100018BF52EA43067FF4C5AE50EA41047FF4A2
:100A20000DAF52EA43057FF4EBAE12E74FF0FF3C07
:100A300006E000BF4FF0010C02E000BF4FF0010CD8
:100A40004DF804CD4FEA410C7FEA6C5C4FEA430C51
:100A500018BF7FEA6C5C1BD001B050EA410C0CBFA0
:100A600052EA430C91EA030F02BF90EA020F002002
:100A7000704710F1000F91EA030F58BF994208BF69
:100A800090422CBFD8176FEAE37040F00100704726
:100A90004FEA410C7FEA6C5C02D150EA013C07D17D
:100AA0004FEA430C7FEA6C5CD6D152EA033CD3D0C8
:100AB0005DF8040B704700BF8446104662468C46C2
:100AC0001946634600E000BF01B5FFF7B7FF0028F5
:100AD00048BF10F1000F01BD4DF808EDFFF7F4FF1E
:100AE0000CBF012000205DF808FB00BF4DF808EDA9
:100AF000FFF7EAFF34BF012000205DF808FB00BFCC
:100B00004DF808EDFFF7E0FF94BF012000205DF8ED
:100B100008FB00BF4DF808EDFFF7CEFF94BF0120A2
:100B200000205DF808FB00BF4DF808EDFFF7C4FF9B
:100B300034BF012000205DF808FB00BF4FEA410CE4
:100B40007FEA6C5C02D150EA013C0AD14FEA430CC7
:100B50007FEA6C5C02D152EA033C02D14FF0000004
:100B600070474FF0010070474FEA410212F5001242
:100B700015D211D56FF47873B3EB625212D94FEAE4
:100B8000C12343F0004343EA505311F0004F23FACE
:100B900002F018BF404270474FF00000704750EA23
:100BA000013005D111F0004008BF6FF000407047E0
:100BB0004FF00000704700BF4FEA4102B2F1E0433E
:100BC00024BFB3F5001CDCF1FE5C0DD901F0004C34
:100BD0004FEAC0024CEA5070B2F1004F40EB830084
:100BE00008BF20F00100704711F0804F21D113F1B0
:100BF0003872BCBF01F00040704741F480114FEAE9
:100C00005252C2F11802C2F1200C10FA0CF320FA71
:100C100002F018BF40F001004FEAC1234FEAD3238E
:100C200003FA0CFC40EA0C0023FA02F34FEA4303F8
:100C3000CCE77FEA625307D150EA01331EBF4FF081
:100C4000FE4040F44000704701F0004040F0FE409C
:100C500040F40000704700BF53B94AB9002908BFEB
:100C600000281CBF4FF0FF314FF0FF3000F074B987
:100C7000ADF1080C6DE904CE00F006F8DDF804E0F3
:100C8000DDE9022304B070472DE9F047089D0446D2
:100C90008E46002B4DD18A42944669D9B2FA82F22F
:100CA00052B101FA02F3C2F1200120FA01F10CFA6B
:100CB00002FC41EA030E94404FEA1C48210CBEFBA3
:100CC000F8F61FFA8CF708FB16E341EA034306FB2C
:100CD00007F199420AD91CEB030306F1FF3080F0BB
:100CE0001F81994240F21C81023E63445B1AA4B208
:100CF000B3FBF8F008FB103344EA034400FB07F7AA
:100D0000A7420AD91CEB040400F1FF3380F00A81EA
:100D1000A74240F207816444023840EA0640E41BDF
:100D200000261DB1D4400023C5E900433146BDE88B
:100D3000F0878B4209D9002D00F0EF800026C5E92D
:100D4000000130463146BDE8F087B3FA83F6002E45
:100D50004AD18B4202D3824200F2F980841A61EBBD
:100D6000030301209E46002DE0D0C5E9004EDDE7DB
:100D700002B9FFDEB2FA82F2002A40F09280A1EBC3
:100D80000C014FEA1C471FFA8CFE0126200CB1FB18
:100D9000F7F307FB131140EA01410EFB03F0884211
:100DA00008D91CEB010103F1FF3802D2884200F29E
:100DB000CB804346091AA4B2B1FBF7F007FB101130
:100DC00044EA01440EFB00FEA64508D91CEB0404CE
:100DD00000F1FF3102D2A64500F2BB800846A4EB29
:100DE0000E0440EA03409CE7C6F12007B34022FA14
:100DF00007FC4CEA030C20FA07F401FA06F31C4343
:100E0000F9404FEA1C4900FA06F3B1FBF9F8200C4F
:100E10001FFA8CFE09FB181140EA014108FB0EF095
:100E2000884202FA06F20BD91CEB010108F1FF3AE5
:100E300080F08880884240F28580A8F102086144F1
:100E4000091AA4B2B1FBF9F009FB101144EA0141FF
:100E500000FB0EFE8E4508D91CEB010100F1FF34AA
:100E60006CD28E456AD90238614440EA0840A0FB42
:100E70000294A1EB0E01A142C846A64656D353D018
:100E80005DB1B3EB080261EB0E0101FA07F722FA3C
:100E900006F3F1401F43C5E9007100263146BDE865
:100EA000F087C2F12003D8400CFA02FC21FA03F3C8
:100EB000914001434FEA1C471FFA8CFEB3FBF7F049
:100EC00007FB10360B0C43EA064300FB0EF69E426E
:100ED00004FA02F408D91CEB030300F1FF382FD207
:100EE0009E422DD9023863449B1B89B2B3FBF7F6AF
:100EF00007FB163341EA034106FB0EF38B4208D988
:100F00001CEB010106F1FF3816D28B4214D9023EC8
:100F10006144C91A46EA004638E72E46284605E7E6
:100F20000646E3E61846F8E64B45A9D2B9EB0208B7
:100F300064EB0C0E0138A3E74646EAE7204694E747
:100F40004046D1E7D0467BE7023B614432E730467A
:100F500009E76444023842E7704700BFB0B592B079
:100F600002AF00F095FE00F0A9F800F02FFA00F0B3
:100F7000D9F900F00BF900F05DF900F0FDF900F08F
:100F8000ABFA414B3C1D1D460FCD0FC40FCD0FC416
:100F90000FCD0FC495E8070084E807003B1D1846F5
:100FA000FFF71EF903469AB2391D0A23374802F0AB
:100FB000E0FF00F0D3FE0246354B1B689A423AD35D
:100FC000334B1B6803F59673314A13602021314877
:100FD00001F071FD00F094FA03461A462E4B1A8078
:100FE0002D4B1B88184600F0AFFAF0EE407AB0EEB9
:100FF000670A00F0D9FAF0EE407A284BC3ED007A88
:10100000254B1B881C46254B1B681846FFF7A4FA86
:1010100002460B46CDE9002322462149214803F030
:10102000B9FF2048FFF7DCF803469AB20A231D49AE
:10103000164802F09EFF1C4B1B78012BB9D10023F0
:101040003B7011237B703323BB70184B1B78FB70F4
:10105000174B19783A460423164800F0DFFA134B71
:101060001B780133DAB2114B1A70114B1B78013324
:10107000DAB20F4B1A70104A12210E4800F02DFB05
:10108000094B00221A7094E7BC7400088C020020FF
:101090003403002000000240280300202C0300201D
:1010A000A07400083C03002038030020000000204A
:1010B00001000020D00200202303000180B594B07D
:1010C00000AF07F1200330220021184603F0F0FAA8
:1010D00007F10C0300221A605A609A60DA601A6104
:1010E0000023BB60274B1B6C264A43F080531364DC
:1010F000244B1B6C03F08053BB60BB6800237B60F8
:10110000214B1B68204A43F4404313601E4B1B686D
:1011100003F440437B607B6802233B620123FB6254
:1011200010233B630223BB630023FB6308233B6460
:1011300064237B640223BB640423FB6407F1200364
:10114000184601F0EBFC0346002B01D000F044FBF5
:101150000F23FB6002233B6100237B614FF480532C
:10116000BB610023FB6107F10C030321184601F06A
:101170004DFF0346002B01D000F02EFB00BF50377F
:10118000BD4680BD003802400070004080B584B08C
:1011900000AF3B4600221A605A609A60DA60214B29
:1011A000214A1A601F4B4FF440325A601D4B0022F7
:1011B0009A601C4B01221A611A4B01221A76194BB4
:1011C000002283F82020174B0022DA62154B174AC1
:1011D0009A62144B0022DA60124B0122DA61114B41
:1011E000002283F830200F4B00225A610D4800F096
:1011F000C1FD0346002B01D000F0EEFA0C4B3B6022
:1012000001237B600723BB603B461946054800F07D
:1012100075FF0346002B01D000F0DEFA00BF103747
:10122000BD4680BDFC010020002001400100000FF0
:101230001200001080B58EB000AF07F12803002225
:101240001A605A609A60DA6007F1200300221A607F
:101250005A603B1D00221A605A609A60DA601A6177
:101260005A619A612D4B2E4A1A602C4B42F20F7232
:101270005A602A4B00229A60284B42F20F72DA60C1
:10128000264B00221A61254B80229A61234802F0E6
:10129000DDF80346002B01D000F09EFA4FF4805396
:1012A000BB6207F1280319461C4802F039FA0346CD
:1012B000002B01D000F090FA184802F016F903460E
:1012C000002B01D000F088FA00233B6200237B62F0
:1012D00007F120031946114802F090FD0346002B48
:1012E00001D000F079FA60237B6041F28833BB6063
:1012F0000023FB6000237B613B1D00221946074849
:1013000002F04CF90346002B01D000F065FA0348C7
:1013100000F0D4FA00BF3837BD4680BD440200203B
:101320000004004080B500AF114B124A1A60104B08
:101330004FF4E1325A600E4B00229A600C4B0022AF
:10134000DA600B4B00221A61094B0C225A61084BE0
:1013500000229A61064B0022DA61054802F0BCFDCA
:101360000346002B01D000F037FA00BF80BD00BF5C
:101370008C0200200044004080B500AF114B124A9F
:101380001A60104B4FF4E1325A600E4B00229A6003
:101390000C4B0022DA600B4B00221A61094B0C2225
:1013A0005A61084B00229A61064B0022DA61054817
:1013B00002F092FD0346002B01D000F00DFA00BFB1
:1013C00080BD00BFD00200200014014080B58AB06B
:1013D00000AF07F1140300221A605A609A60DA60C5
:1013E0001A6100233B61384B1B6B374A43F00403FF
:1013F0001363354B1B6B03F004033B613B69002314
:10140000FB60314B1B6B304A43F0800313632E4B60
:101410001B6B03F08003FB60FB680023BB602A4B5F
:101420001B6B294A43F001031363274B1B6B03F02B
:101430000103BB60BB6800237B60234B1B6B224A0C
:1014400043F002031363204B1B6B03F002037B602A
:101450007B68002220211D4801F014FB4FF400534B
:101460007B614FF40413BB610023FB6107F114039C
:101470001946174801F082F920237B610123BB61E3
:101480000023FB6100233B6207F1140319460F4858
:1014900001F074F94FF480637B610023BB61022388
:1014A000FB6107F1140319460A4801F067F90022AD
:1014B0000021282001F02BF9282001F044F900BF79
:1014C0002837BD4680BD00BF003802400000024002
:1014D000000802400004024080B400AF064B074AF7
:1014E0001A60054B01225A60034B00229A6000BF2C
:1014F000BD465DF8047B7047140300201200001005
:1015000080B582B000AF0D490D4800F0F7FD0C48E2
:1015100000F074FC0A210A4800F057FD0346002B36
:1015200004D1074800F0DCFD0346FB80044800F0CE
:1015300019FDFB8818460837BD4680BD14030020FE
:10154000FC0100200000000080B582B000AF03461F
:10155000FB80FB881846FEF7EDFF4FF00002104BB2
:10156000FFF77CF902460B46104619460AA3D3E959
:101570000023FFF749F802460B4610461946FFF7CD
:101580001BFB034607EE903AB0EE670A0837BD46EC
:1015900080BD00BFAFF300806666666666660A407F
:1015A0000000B0400000000080B582B000AF87EDC1
:1015B000010A7868FEF7D0FF14A3D3E90023FEF7F1
:1015C0006BFE02460B461046194612A3D3E90023D0
:1015D000FFF744F902460B46104619464FF0000249
:1015E000094BFEF75BFE02460B4610461946FFF715
:1015F000E3FA034607EE903AB0EE670A0837BD46B5
:1016000080BD00BFAFF300800000394052B81E8596
:10161000EB51E83F7B14AE47E17A643F90B58BB065
:1016200000AFF8607A601A460B46FB721346BB7235
:10163000042387F8273007F1140300221A605A6048
:101640009A60DA6056233B7552237B755423BB7531
:10165000FB7AFB75002387F8263004240FE023462D
:10166000043B7A6813441A7804F128033B4403F8D6
:10167000142C97F82730013387F827300134BB7AD0
:1016800003339C42EBDD03240AE004F128033B44CE
:1016900013F8142C97F82630134487F826300134B9
:1016A000BB7A03339C42F0DD97F8273097F8262069
:1016B000D243D2B228333B4403F8142C97F8273096
:1016C0009BB201339AB207F114012823F86802F0A3
:1016D00050FC00BF2C37BD4690BD90B58BB000AF1D
:1016E000F8600B467A60FB7207F1140300221A605F
:1016F0005A609A60DA6056233B7552237B755423F7
:10170000BB75FB7AFB75042387F82730002387F825
:1017100026307B683B6104240FE0231F28333B44C1
:1017200013F8182C04F128033B4403F8142C97F801
:101730002730013387F827300134072CEDDD0324EF
:101740000AE004F128033B4413F8142C97F82630E0
:10175000134487F826300134072CF2DD97F8273040
:1017600097F82620D243D2B228333B4403F8142CF6
:1017700097F827309BB201339AB207F11401322354
:10178000F86802F0F6FB00BF2C37BD4690BD0000A4
:1017900080B483B000AF0346FB80FB88B3F5005FE5
:1017A0000FD10B4B1B780133DAB2094B1A70084B7F
:1017B0001B7803F00303DAB2054B1A70054B0122C4
:1017C0001A7000BF0C37BD465DF8047B704700BF40
:1017D000300300203803002080B400AF72B600BF91
:1017E000FEE7000080B582B000AF00237B60104BA5
:1017F0005B6C0F4A43F4804353640D4B5B6C03F402
:1018000080437B607B6800233B60094B1B6C084A6C
:1018100043F080531364064B1B6C03F080533B6012
:101820003B68072000F068FF00BF0837BD4680BD59
:101830000038024080B485B000AF78607B681B68D8
:101840000B4A93420DD10023FB600A4B5B6C094AA3
:1018500043F480735364074B5B6C03F48073FB6049
:10186000FB6800BF1437BD465DF8047B704700BFBE
:10187000002001400038024080B485B000AF78609D
:101880007B681B680B4A93420DD10023FB600A4B17
:101890001B6C094A43F002031364074B1B6C03F0F3
:1018A0000203FB60FB6800BF1437BD465DF8047B94
:1018B000704700BF000400400038024080B588B087
:1018C00000AF786007F10C0300221A605A609A603A
:1018D000DA601A617B681B68124A93421DD10023AB
:1018E000BB60114B1B6B104A43F0020313630E4B9A
:1018F0001B6B03F00203BB60BB681023FB60022379
:101900003B6100237B610023BB610223FB6107F184
:101910000C031946054800F031FF00BF2037BD46D3
:1019200080BD00BF000400400038024000040240B7
:1019300080B58CB000AF786007F11C0300221A60FC
:101940005A609A60DA601A617B681B68324A934277
:101950002CD10023BB61314B1B6C304A43F4003364
:1019600013642E4B1B6C03F40033BB61BB69002373
:101970007B612A4B1B6B294A43F001031363274BFE
:101980001B6B03F001037B617B690C23FB6102236A
:101990003B6200237B620323BB620723FB6207F1E8
:1019A0001C0319461E4800F0E9FE31E07B681B6805
:1019B0001C4A93422CD100233B61184B5B6C174AA5
:1019C00043F020035364154B5B6C03F020033B6131
:1019D0003B690023FB60114B1B6B104A43F0010372
:1019E00013630E4B1B6B03F00103FB60FB684FF4AA
:1019F000C053FB6102233B6200237B620323BB6273
:101A00000823FB6207F11C031946054800F0B6FEE7
:101A100000BF3037BD4680BD004400400038024062
:101A2000000002400014014080B400AFFEE780B423
:101A300000AFFEE780B400AFFEE780B400AFFEE782
:101A400080B400AFFEE780B400AF00BFBD465DF8D4
:101A5000047B704780B400AF00BFBD465DF8047BD7
:101A6000704780B400AF00BFBD465DF8047B70478F
:101A700080B500AF00F05EF900BF80BD80B500AF5B
:101A80004FF4005001F032F800BF80BD80B400AFC9
:101A900001231846BD465DF8047B704780B582B0CF
:101AA00000AF7860396002F0D9FD034616221A6053
:101AB0004FF0FF3318460837BD4680BD80B582B071
:101AC00000AF78604FF0FF317868FFF7E7FFFEE77F
:101AD00080B586B000AFF860B9607A6000237B61A2
:101AE0000AE0AFF300800146BB685A1CBA60CAB274
:101AF0001A707B6901337B617A697B689A42F0DBFB
:101B00007B6818461837BD4680BD80B586B000AFEB
:101B1000F860B9607A6000237B6109E0BB685A1CF9
:101B2000BA601B781846AFF300807B6901337B6194
:101B30007A697B689A42F1DB7B6818461837BD46A4
:101B400080BD80B483B000AF78604FF0FF3318469B
:101B50000C37BD465DF8047B704780B483B000AF9E
:101B6000786039603B684FF400525A600023184691
:101B70000C37BD465DF8047B704780B483B000AF7E
:101B80007860012318460C37BD465DF8047B70472A
:101B900080B485B000AFF860B9607A600023184661
:101BA0001437BD465DF8047B7047000080B586B0F1
:101BB00000AF7860144A154BD31A7B617B693B6197
:101BC000134B1B68002B02D1114B124A1A60104BA9
:101BD0001A687B6813443A699A4207D202F03EFDC4
:101BE00003460C221A604FF0FF3309E0084B1B68D4
:101BF000FB60074B1A687B681344054A1360FB6857
:101C000018461837BD4680BD0000022000040000C1
:101C1000A0030020B803002080B400AF064BD3F827
:101C20008830054A43F47003C2F8883000BFBD46CF
:101C30005DF8047B704700BF00ED00E0DFF834D0B2
:101C40000D480E490E4A002302E0D458C450043314
:101C5000C4188C42F9D30B4A0B4C002301E01360EB
:101C60000432A242FBD3FFF7D7FF02F0FDFCFFF7DF
:101C700075F970470000022000000020E0010020FC
:101C8000FC780008E0010020B8030020FEE7000017
:101C900080B500AF0E4B1B680D4A43F40073136010
:101CA0000B4B1B680A4A43F480631360084B1B68A4
:101CB000074A43F480731360032000F01DFD0020E9
:101CC00000F008F8FFF78EFD0023184680BD00BF26
:101CD000003C024080B582B000AF7860124B1A68B9
:101CE000124B1B7819464FF47A73B3FBF1F3B2FB36
:101CF000F3F3184600F035FD0346002B01D0012315
:101D00000EE07B680F2B0AD8002279684FF0FF3075
:101D100000F0FDFC064A7B681360002300E001230D
:101D200018460837BD4680BD040000200C00002086
:101D30000800002080B400AF064B1B781A46064B03
:101D40001B681344044A136000BFBD465DF8047B62
:101D5000704700BF0C000020A403002080B400AF37
:101D6000034B1B681846BD465DF8047B704700BFF7
:101D7000A403002080B584B000AF78600023FB731B
:101D80007B68002B01D1012333E07B681B6C002BA7
:101D900009D17868FFF74EFD7B6800225A647B68A2
:101DA000002283F83C207B681B6C03F01003002B9F
:101DB00018D17B681B6C23F4885323F0020343F093
:101DC00002027B681A64786800F0CAFA7B68002215
:101DD0005A647B681B6C23F0030343F001027B68A9
:101DE0001A6401E00123FB737B68002283F83C2026
:101DF000FB7B18461037BD4680BD000080B485B01F
:101E000000AF78600023BB607B6893F83C30012B07
:101E100001D1022397E07B68012283F83C207B6894
:101E20001B689B6803F00103012B18D07B681B68BB
:101E30009A687B681B6842F001029A60454B1B68F8
:101E4000454AA2FB03239A0C13465B001344BB6074
:101E500002E0BB68013BBB60BB68002BF9D17B682B
:101E60001B689B6803F00103012B5FD17B681B6C2F
:101E700023F4E06323F0010343F480727B681A6467
:101E80007B681B685B6803F48063002B07D07B686A
:101E90001B6C23F4405343F480527B681A647B68C4
:101EA0001B6C03F48053B3F5805F06D17B685B6CD9
:101EB00023F006027B685A6402E07B6800225A64C1
:101EC0007B68002283F83C20244BFB607B681B6806
:101ED0006FF022021A60FB685B6803F01F03002B9F
:101EE0000FD17B681B689B6803F04053002B29D1FE
:101EF0007B681B689A687B681B6842F080429A6026
:101F000020E07B681B68164A93421BD17B681B68E4
:101F10009B6803F04053002B14D17B681B689A68C0
:101F20007B681B6842F080429A600BE07B681B6C08
:101F300043F010027B681A647B685B6C43F001021B
:101F40007B685A64002318461437BD465DF8047B4D
:101F5000704700BF0400002083DE1B4300230140C4
:101F60000020014080B483B000AF78607B6893F8B4
:101F70003C30012B01D1022321E07B68012283F850
:101F80003C207B681B689A687B681B6822F0010212
:101F90009A607B681B689B6803F00103002B09D1E2
:101FA0007B681B6C23F4885323F0010343F0010288
:101FB0007B681A647B68002283F83C200023184663
:101FC0000C37BD465DF8047B704780B584B000AF28
:101FD000786039600023FB607B681B689B6803F4B2
:101FE0008063B3F5806F13D17B681B689B6803F433
:101FF0008073B3F5807F0BD17B681B6C43F02002AC
:102000007B681A647B68002283F83C20012363E02C
:10201000FFF7A4FEF86021E03B68B3F1FF3F1DD05D
:102020003B68002B07D0FFF799FE0246FB68D31AE6
:102030003A689A4212D27B681B681B6803F002035D
:10204000022B0BD07B681B6C43F004027B681A6484
:102050007B68002283F83C2003233DE07B681B68FB
:102060001B6803F00203022BD6D17B681B686FF05C
:1020700012021A607B681B6C43F400727B681A645E
:102080007B681B689B6803F04053002B23D17B685F
:102090001B7E002B1FD17B681B68DB6A03F4700377
:1020A000002B06D07B681B689B6803F48063002BC1
:1020B00011D17B681B6C23F480727B681A647B6887
:1020C0001B6C03F48053002B05D17B681B6C43F021
:1020D00001027B681A64002318461037BD4680BD94
:1020E00080B483B000AF78607B681B68DB6C1846F7
:1020F0000C37BD465DF8047B7047000080B485B0A6
:1021000000AF786039600023BB607B6893F83C3097
:10211000012B01D1022313E17B68012283F83C20CB
:102120003B681B68092B25D97B681B68D9683B680D
:102130001B689BB21A4613465B0013441E3B0722E2
:1021400002FA03F3DA437B681B680A40DA607B68B3
:102150001B68D9683B689A683B681B689BB2184645
:1021600003465B0003441E3B9A407B681B680A439E
:10217000DA6022E07B681B6819693B681B689BB2C8
:102180001A4613465B001344072202FA03F3DA43AC
:102190007B681B680A401A617B681B6819693B6889
:1021A0009A683B681B689BB2184603465B00034471
:1021B0009A407B681B680A431A613B685B68062B80
:1021C00024D87B681B68596B3B685A6813469B0090
:1021D0001344053B1F2202FA03F3DA437B681B68B2
:1021E0000A405A637B681B68596B3B681B689BB24B
:1021F00018463B685A6813469B001344053B00FA97
:1022000003F27B681B680A435A634CE03B685B68D7
:102210000C2B24D87B681B68196B3B685A681346E3
:102220009B001344233B1F2202FA03F3DA437B682B
:102230001B680A401A637B681B68196B3B681B6844
:102240009BB218463B685A6813469B001344233BD5
:1022500000FA03F27B681B680A431A6323E07B6879
:102260001B68D96A3B685A6813469B001344413B7C
:102270001F2202FA03F3DA437B681B680A40DA6222
:102280007B681B68D96A3B681B689BB218463B6831
:102290005A6813469B001344413B00FA03F27B68E3
:1022A0001B680A43DA62294BFB607B681B68284A7B
:1022B00093420FD13B681B68122B0BD1FB685B6804
:1022C00023F40002FB685A60FB685B6843F48002F9
:1022D000FB685A607B681B681D4A93422BD13B68A0
:1022E0001B681C4A934203D03B681B68112B22D108
:1022F000FB685B6823F48002FB685A60FB685B68DC
:1023000043F40002FB685A603B681B68114A934221
:1023100011D1114B1B68114AA2FB03239A0C1346DF
:102320009B0013445B00BB6002E0BB68013BBB60E9
:10233000BB68002BF9D17B68002283F83C20002386
:1023400018461437BD465DF8047B704700230140F2
:1023500000200140120000100400002083DE1B4317
:1023600080B485B000AF7860794BFB60FB685B6838
:1023700023F44032FB685A60FB685A687B685B68EC
:102380001A43FB685A607B681B685A687B681B6845
:1023900022F480725A607B681B6859687B681B69ED
:1023A0001A027B681B680A435A607B681B685A687C
:1023B0007B681B6822F040725A607B681B68596812
:1023C0007B689A687B681B680A435A607B681B6855
:1023D0009A687B681B6822F400629A607B681B68BD
:1023E00099687B68DA687B681B680A439A607B6837
:1023F0009B6A584A934222D07B681B689A687B6824
:102400001B6822F070629A607B681B6899687B6821
:102410009A6A7B681B680A439A607B681B689A68A3
:102420007B681B6822F040529A607B681B68996841
:102430007B68DA6A7B681B680A439A600FE07B68F6
:102440001B689A687B681B6822F070629A607B68E0
:102450001B689A687B681B6822F040529A607B6810
:102460001B689A687B681B6822F002029A607B688E
:102470001B6899687B681B7E5A007B681B680A434F
:102480009A607B6893F82030002B1BD07B681B6818
:102490005A687B681B6842F400625A607B681B685C
:1024A0005A687B681B6822F460425A607B681B682C
:1024B00059687B685B6A013B5A037B681B680A4367
:1024C0005A6007E07B681B685A687B681B6822F4C7
:1024D00000625A607B681B68DA6A7B681B6822F4BA
:1024E0007002DA627B681B68D96A7B68DB69013B32
:1024F0001A057B681B680A43DA627B681B689A6866
:102500007B681B6822F400729A607B681B6899687C
:102510007B6893F830305A027B681B680A439A60E4
:102520007B681B689A687B681B6822F480629A60EB
:102530007B681B6899687B685B699A027B681B688B
:102540000A439A6000BF1437BD465DF8047B7047AC
:10255000002301400100000F80B485B000AF786017
:102560007B6803F00703FB600C4BDB68BB60BA6859
:102570004FF6FF031340BB60FB681A02BB681343AE
:1025800043F0BF6343F40033BB60044ABB68D360CD
:1025900000BF1437BD465DF8047B704700ED00E0D6
:1025A00080B400AF044BDB681B0A03F00703184636
:1025B000BD465DF8047B704700ED00E080B483B059
:1025C00000AF0346FB7197F90730002B0BDBFB795B
:1025D00003F01F02074997F907305B09012000FA51
:1025E00002F241F8232000BF0C37BD465DF8047BA2
:1025F000704700BF00E100E080B483B000AF034645
:102600003960FB7197F90730002B0ADB3B68DAB2BF
:102610000C4997F907301201D2B20B4483F800231A
:102620000AE03B68DAB20849FB7903F00F03043B88
:102630001201D2B20B441A7600BF0C37BD465DF8CA
:10264000047B704700E100E000ED00E080B489B059
:1026500000AFF860B9607A60FB6803F00703FB61C4
:10266000FB69C3F10703042B28BF0423BB61FB698B
:102670000433062B02D9FB69033B00E000237B6196
:102680004FF0FF32BB6902FA03F3DA43BB681A402A
:102690007B699A404FF0FF317B6901FA03F3D9431C
:1026A0007B680B40134318462437BD465DF8047B16
:1026B0007047000080B582B000AF78607B68013B56
:1026C000B3F1807F01D301230FE00A4A7B68013B0D
:1026D00053600F214FF0FF30FFF78EFF054B0022B4
:1026E0009A60044B07221A60002318460837BD463B
:1026F00080BD00BF10E000E080B582B000AF786020
:102700007868FFF729FF00BF0837BD4680BD80B558
:1027100086B000AF0346B9607A60FB7300237B612B
:10272000FFF73EFF78617A68B9687869FFF78EFF36
:10273000024697F90F3011461846FFF75DFF00BFBC
:102740001837BD4680BD80B582B000AF0346FB712F
:1027500097F907301846FFF731FF00BF0837BD462D
:1027600080BD80B582B000AF78607868FFF7A2FFC7
:10277000034618460837BD4680BD000080B489B0C6
:1027800000AF7860396000237B6100233B61002348
:10279000BB610023FB6159E10122FB6902FA03F3EB
:1027A0007B613B681B687A6913403B613A697B69CE
:1027B0009A4240F048813B685B6803F00303012BB9
:1027C00005D03B685B6803F00303022B30D17B68C4
:1027D0009B68BB61FB695B00032202FA03F3DB43E6
:1027E000BA691340BB613B68DA68FB695B0002FAB7
:1027F00003F3BA691343BB617B68BA699A607B686B
:102800005B68BB610122FB6902FA03F3DB43BA692F
:102810001340BB613B685B681B0903F00102FB6965
:1028200002FA03F3BA691343BB617B68BA695A6061
:102830003B685B6803F00303032B17D07B68DB68FE
:10284000BB61FB695B00032202FA03F3DB43BA6955
:102850001340BB613B689A68FB695B0002FA03F3B3
:10286000BA691343BB617B68BA69DA603B685B682D
:1028700003F00303022B23D1FB69DA087B680832DB
:1028800053F82230BB61FB6903F007039B000F2262
:1028900002FA03F3DB43BA691340BB613B681A6970
:1028A000FB6903F007039B0002FA03F3BA691343C1
:1028B000BB61FB69DA087B680832B96943F822100A
:1028C0007B681B68BB61FB695B00032202FA03F3B0
:1028D000DB43BA691340BB613B685B6803F00302EA
:1028E000FB695B0002FA03F3BA691343BB617B68BF
:1028F000BA691A603B685B6803F44033002B00F050
:10290000A2800023FB60574B5B6C564A43F4804324
:102910005364544B5B6C03F48043FB60FB68524A86
:10292000FB699B08023352F82330BB61FB6903F05B
:1029300003039B000F2202FA03F3DB43BA6913403F
:10294000BB617B68494A934219D07B68484A9342ED
:1029500013D07B68474A93420DD07B68464A934226
:1029600007D07B68454A934201D1042308E007233E
:1029700006E0032304E0022302E0012300E0002339
:10298000FA6902F0030292009340BA691343BB61F3
:102990003549FB699B080233BA6941F82320384B5B
:1029A0009B68BB613B69DB43BA691340BB613B6811
:1029B0005B6803F48013002B03D0BA693B691343AF
:1029C000BB612F4ABB6993602D4BDB68BB613B69E0
:1029D000DB43BA691340BB613B685B6803F40013D7
:1029E000002B03D0BA693B691343BB61244ABB691E
:1029F000D360234B5B68BB613B69DB43BA6913401F
:102A0000BB613B685B6803F40033002B03D0BA69F9
:102A10003B691343BB611A4ABB695360184B1B687F
:102A2000BB613B69DB43BA691340BB613B685B68D0
:102A300003F48033002B03D0BA693B691343BB61B5
:102A40000F4ABB691360FB690133FB61FB690F2B04
:102A50007FF6A2AE00BF00BF2437BD465DF8047B01
:102A6000704700BF003802400038014000000240BB
:102A70000004024000080240000C02400010024026
:102A8000003C014080B483B000AF78600B467B808F
:102A900013467B707B78002B03D07A887B689A6121
:102AA00003E07B881A047B689A6100BF0C37BD463F
:102AB0005DF8047B704780B485B000AF78600B464A
:102AC0007B807B685B69FB607A88FB6813401A0433
:102AD000FB68D9437B880B401A437B689A6100BF2F
:102AE0001437BD465DF8047B7047000080B582B0A6
:102AF00000AF0346FB80084B5A69FB881340002B4C
:102B000006D0054AFB885361FB881846FEF740FE55
:102B100000BF0837BD4680BD003C014080B586B08F
:102B200000AF78607B68002B01D1012367E27B68EE
:102B30001B6803F00103002B75D0884B9B6803F0E2
:102B40000C03042B0CD0854B9B6803F00C03082B63
:102B500012D1824B5B6803F48003B3F5800F0BD175
:102B60007E4B1B6803F40033002B5BD07B685B68F3
:102B7000002B57D1012342E27B685B68B3F5803FAD
:102B800006D1764B1B68754A43F4803313601DE011
:102B90007B685B68B3F5A02F0CD1704B1B686F4A44
:102BA00043F4802313606D4B1B686C4A43F48033FD
:102BB00013600BE0694B1B68684A23F48033136091
:102BC000664B1B68654A23F4802313607B685B684F
:102BD000002B13D0FFF7C2F8386108E0FFF7BEF80A
:102BE00002463B69D31A642B01D9032307E25B4BEE
:102BF0001B6803F40033002BF0D014E0FFF7AEF8AD
:102C0000386108E0FFF7AAF802463B69D31A642B43
:102C100001D90323F3E1514B1B6803F40033002B6C
:102C2000F0D100E000BF7B681B6803F00203002BBB
:102C300063D04A4B9B6803F00C03002B0BD0474B2F
:102C40009B6803F00C03082B1CD1444B5B6803F416
:102C50008003002B16D1414B1B6803F00203002BAD
:102C600005D07B68DB68012B01D00123C7E13B4B1A
:102C70001B6823F0F8027B681B69DB0037491343AC
:102C80000B603AE07B68DB68002B20D0344B0122DC
:102C90001A60FFF763F8386108E0FFF75FF8024653
:102CA0003B69D31A022B01D90323A8E12B4B1B68E4
:102CB00003F00203002BF0D0284B1B6823F0F8022E
:102CC0007B681B69DB00254913430B6015E0244B2F
:102CD00000221A60FFF742F8386108E0FFF73EF87B
:102CE00002463B69D31A022B01D9032387E11B4B10
:102CF0001B6803F00203002BF0D17B681B6803F014
:102D00000803002B36D07B685B69002B16D0154B6F
:102D100001221A60FFF722F8386108E0FFF71EF879
:102D200002463B69D31A022B01D9032367E10B4BFF
:102D30005B6F03F00203002BF0D01BE0094B002275
:102D40001A60FFF70BF838610EE0FFF707F802464C
:102D50003B69D31A022B07D9032350E10038024004
:102D600000004742800E4742884B5B6F03F002032E
:102D7000002BEAD17B681B6803F00403002B00F0F2
:102D800097800023FB75814B1B6C03F08053002B55
:102D90000FD10023BB607D4B1B6C7C4A43F08053FA
:102DA00013647A4B1B6C03F08053BB60BB68012338
:102DB000FB75774B1B6803F48073002B18D1744BA1
:102DC0001B68734A43F480731360FEF7C7FF3861D2
:102DD00008E0FEF7C3FF02463B69D31A022B01D974
:102DE00003230CE16A4B1B6803F48073002BF0D0C3
:102DF0007B689B68012B06D1644B1B6F634A43F0D1
:102E0000010313671CE07B689B68052B0CD15F4BAB
:102E10001B6F5E4A43F0040313675C4B1B6F5B4AF6
:102E200043F0010313670BE0584B1B6F574A23F025
:102E300001031367554B1B6F544A23F004031367B8
:102E40007B689B68002B15D0FEF788FF38610AE08D
:102E5000FEF784FF02463B69D31A41F2883293425F
:102E600001D90323CBE0494B1B6F03F00203002B76
:102E7000EED014E0FEF772FF38610AE0FEF76EFF55
:102E800002463B69D31A41F28832934201D90323A7
:102E9000B5E03E4B1B6F03F00203002BEED1FB7D30
:102EA000012B05D1394B1B6C384A23F08053136436
:102EB0007B689B69002B00F0A180344B9B6803F07A
:102EC0000C03082B5CD07B689B69022B41D1314BF2
:102ED00000221A60FEF742FF386108E0FEF73EFF6D
:102EE00002463B69D31A022B01D9032387E0274B03
:102EF0001B6803F00073002BF0D17B68DA697B68F4
:102F00001B6A1A437B685B6A9B011A437B689B6A56
:102F10005B08013B1B041A437B68DB6A1B061B49E9
:102F200013434B601B4B01221A60FEF717FF3861F9
:102F300008E0FEF713FF02463B69D31A022B01D9C2
:102F400003235CE0114B1B6803F00073002BF0D0EF
:102F500054E0104B00221A60FEF700FF386108E0D1
:102F6000FEF7FCFE02463B69D31A022B01D903236C
:102F700045E0064B1B6803F00073002BF0D13DE0E9
:102F80007B689B69012B07D1012338E000380240A0
:102F900000700040600047421B4B5B68FB607B6831
:102FA0009B69012B28D0FB6803F480027B68DB69F6
:102FB0009A4221D1FB6803F03F027B681B6A9A4268
:102FC0001AD1FA6847F6C07313407A68526A9201C0
:102FD000934211D1FB6803F440327B689B6A5B0823
:102FE000013B1B049A4207D1FB6803F070627B68C7
:102FF000DB6A1B069A4201D0012300E00023184639
:103000001837BD4680BD00BF0038024080B584B08F
:1030100000AF786039607B68002B01D10123CCE0E0
:10302000684B1B6803F007033A689A420CD9654B5A
:103030003A68D2B21A70634B1B6803F007033A6810
:103040009A4201D00123B8E07B681B6803F00203B9
:10305000002B20D07B681B6803F00403002B05D0F5
:10306000594B9B68584A43F4E05393607B681B6854
:1030700003F00803002B05D0534B9B68524A43F4DE
:1030800060439360504B9B6823F0F0027B689B6821
:103090004D4913438B607B681B6803F00103002BD1
:1030A00044D07B685B68012B07D1474B1B6803F456
:1030B0000033002B19D101237FE07B685B68022B72
:1030C00003D07B685B68032B07D13F4B1B6803F081
:1030D0000073002B09D101236FE03B4B1B6803F009
:1030E0000203002B01D1012367E0374B9B6823F0DB
:1030F00003027B685B68344913438B60FEF72EFE46
:10310000F8600AE0FEF72AFE0246FB68D31A41F295
:103110008832934201D903234FE02B4B9B6803F085
:103120000C027B685B689B009A42EBD1254B1B68C5
:1031300003F007033A689A420CD2224B3A68D2B2A3
:103140001A70204B1B6803F007033A689A4201D0BB
:10315000012332E07B681B6803F00403002B08D0D6
:10316000194B9B6823F4E0527B68DB6816491343D4
:103170008B607B681B6803F00803002B09D0124B9F
:103180009B6823F460427B681B69DB000E49134394
:103190008B6000F021F802460B4B9B681B0903F083
:1031A0000F030A49CB5C22FA03F3094A1360094B67
:1031B0001B681846FEF78EFD002318461037BD46E3
:1031C00080BD00BF003C024000380240F874000897
:1031D00004000020080000202DE9B04F94B000AF9B
:1031E00000237B640023FB6400233B640023BB6457
:1031F000794B9B6803F00C03082B0DD0082B00F2D1
:10320000E180002B02D0042B03D0DBE0734BBB64C6
:10321000DBE0734BBB64D8E06F4B5B6803F03F03AC
:103220007B646D4B5B6803F48003002B63D06A4BB7
:103230005B689B090022BB63FA63BB6BC3F30803A3
:103240003B6300237B63D7E90C4522462B464FF0B6
:1032500000004FF00001590141EAD26150010246DD
:103260000B462146511A3961294663EB01037B6104
:103270004FF000024FF00003D7E904AB59468B0131
:10328000514643EA916351468A015146B2EB010827
:10329000594663EB01094FF000024FF000034FEA7B
:1032A000C90343EA58734FEAC80290469946234639
:1032B00018EB0303BB602B4649EB0303FB604FF0A5
:1032C00000024FF00003D7E9024529464B02214690
:1032D00043EAD15321464A02104619467B6C00222C
:1032E000BB62FA62D7E90A23FDF7B6FC02460B4639
:1032F0001346FB6458E0384B5B689B090022184674
:103300001146C0F308033B6200237B62D7E90889BA
:1033100042464B464FF000004FF00001590141EA90
:10332000D261500102460B464146B2EB010A4946C2
:1033300063EB010B4FF000024FF000034FEA8B13D9
:1033400043EA9A634FEA8A12B2EB0A0463EB0B0575
:103350004FF000024FF00003EB0043EA5473E20029
:1033600014461D464346E3183B604B4645EB0303BA
:103370007B604FF000024FF00003D7E9004529467B
:103380008B02214643EA915321468A021046194690
:103390007B6C0022BB61FA61D7E90623FDF75CFC78
:1033A00002460B461346FB640B4B5B681B0C03F099
:1033B000030301335B003B64FA6C3B6CB2FBF3F339
:1033C000BB6402E0054BBB6400BFBB6C18465037C2
:1033D000BD46BDE8B08F00BF003802400024F400B5
:1033E00000127A0080B400AF034B1B681846BD463C
:1033F0005DF8047B704700BF0400002080B500AF7B
:10340000FFF7F0FF0246054B9B689B0A03F007039A
:103410000349CB5C22FA03F3184680BD0038024012
:103420000875000880B500AFFFF7DCFF0246054BCA
:103430009B685B0B03F007030349CB5C22FA03F3A1
:10344000184680BD003802400875000880B582B07B
:1034500000AF78607B68002B01D1012341E07B68DD
:1034600093F83D30DBB2002B06D17B68002283F855
:103470003C207868FEF700FA7B68022283F83D2042
:103480007B681A687B6804331946104600F010FA0E
:103490007B68012283F846207B68012283F83E2066
:1034A0007B68012283F83F207B68012283F840205B
:1034B0007B68012283F841207B68012283F8422047
:1034C0007B68012283F843207B68012283F8442033
:1034D0007B68012283F845207B68012283F83D2028
:1034E000002318460837BD4680BD80B582B000AFC6
:1034F00078607B68002B01D1012341E07B6893F861
:103500003D30DBB2002B06D17B68002283F83C20E3
:10351000786800F039F87B68022283F83D207B68E8
:103520001A687B6804331946104600F0C1F97B68BD
:10353000012283F846207B68012283F83E207B68C5
:10354000012283F83F207B68012283F840207B68BA
:10355000012283F841207B68012283F842207B68A6
:10356000012283F843207B68012283F844207B6892
:10357000012283F845207B68012283F83D20002347
:1035800018460837BD4680BD80B483B000AF786070
:1035900000BF0C37BD465DF8047B704780B586B030
:1035A00000AFF860B9607A600023FB75FB6893F8A0
:1035B0003C30012B01D10223AEE0FB68012283F8ED
:1035C0003C207B680C2B00F29F8001A252F823F074
:1035D00005360008093700080937000809370008D0
:1035E0004536000809370008093700080937000880
:1035F000873600080937000809370008093700082E
:10360000C7360008FB681B68B968184600F0D0F997
:10361000FB681B689A69FB681B6842F008029A61A4
:10362000FB681B689A69FB681B6822F004029A61B8
:10363000FB681B689969BB681A69FB681B680A43C9
:103640009A6164E0FB681B68B968184600F016FAD6
:10365000FB681B689A69FB681B6842F400629A6108
:10366000FB681B689A69FB681B6822F480629A6198
:10367000FB681B689969BB681B691A02FB681B68B9
:103680000A439A6143E0FB681B68B968184600F07A
:1036900061FAFB681B68DA69FB681B6842F0080284
:1036A000DA61FB681B68DA69FB681B6822F00402B8
:1036B000DA61FB681B68D969BB681A69FB681B681B
:1036C0000A43DA6123E0FB681B68B968184600F01A
:1036D000ABFAFB681B68DA69FB681B6842F400629E
:1036E000DA61FB681B68DA69FB681B6822F4806298
:1036F000DA61FB681B68D969BB681B691A02FB6841
:103700001B680A43DA6102E00123FB7500BFFB6816
:10371000002283F83C20FB7D18461837BD4680BD4B
:1037200080B584B000AF786039600023FB737B689C
:1037300093F83C30012B01D10223B4E07B680122D5
:1037400083F83C207B68022283F83D207B681B685D
:103750009B68BB60BB6823F07703BB60BB6823F446
:103760007F43BB607B681B68BA689A603B681B68D4
:10377000B3F5005F3ED0B3F5005F00F28780B3F58C
:10378000805F00F08680B3F5805F7FD8702B1AD001
:10379000702B7BD8602B50D0602B77D8502B3CD02F
:1037A000502B73D8402B58D0402B6FD8302B64D07F
:1037B000302B6BD8202B60D0202B67D8002B5CD00F
:1037C000102B5AD062E07B6818683B6899683B68A8
:1037D0005A683B68DB6800F0F1FA7B681B689B68FD
:1037E000BB60BB6843F07703BB607B681B68BA684B
:1037F0009A604FE07B6818683B6899683B685A6834
:103800003B68DB6800F0DAFA7B681B689A687B68C3
:103810001B6842F480429A603CE07B6818683B6811
:1038200059683B68DB681A4600F04EFA7B681B68F3
:103830005021184600F0A7FA2CE07B6818683B6816
:1038400059683B68DB681A4600F06DFA7B681B68B4
:103850006021184600F097FA1CE07B6818683B6806
:1038600059683B68DB681A4600F02EFA7B681B68D3
:103870004021184600F087FA0CE07B681A683B6824
:103880001B681946104600F07EFA03E00123FB7323
:1038900000E000BF7B68012283F83D207B680022A6
:1038A00083F83C20FB7B18461037BD4680BD0000E6
:1038B00080B485B000AF786039607B681B68FB60BE
:1038C0007B68344A93420FD07B68B3F1804F0BD0B2
:1038D0007B68314A934207D07B68304A934203D0D9
:1038E0007B682F4A934208D1FB6823F07003FB608A
:1038F0003B685B68FA681343FB607B68254A934228
:103900001BD07B68B3F1804F17D07B68224A93426B
:1039100013D07B68214A93420FD07B68204A9342A0
:103920000BD07B681F4A934207D07B681E4A9342A4
:1039300003D07B681D4A934208D1FB6823F440738F
:10394000FB603B68DB68FA681343FB60FB6823F0AD
:1039500080023B685B691343FB607B68FA681A600E
:103960003B689A687B68DA623B681A687B689A628F
:103970007B68084A934203D13B681A697B681A63E3
:103980007B6801225A6100BF1437BD465DF8047B95
:10399000704700BF000001400004004000080040E4
:1039A000000C00400040014000440140004801403C
:1039B00080B487B000AF786039607B681B6A23F001
:1039C00001027B681A627B681B6A7B617B685B68AB
:1039D0003B617B689B69FB60FB6823F07003FB60C5
:1039E000FB6823F00303FB603B681B68FA68134322
:1039F000FB607B6923F002037B613B689B687A690B
:103A000013437B617B681C4A93420CD17B6923F092
:103A100008037B613B68DB687A6913437B617B69E0
:103A200023F004037B617B68134A934211D13B6905
:103A300023F480733B613B6923F400733B613B6873
:103A40005B693A6913433B613B689B693A6913437D
:103A50003B617B683A695A607B68FA689A613B68A7
:103A60005A687B685A637B687A691A6200BF1C37A0
:103A7000BD465DF8047B70470000014080B487B00C
:103A800000AF786039607B681B6A23F010027B68A6
:103A90001A627B681B6A7B617B685B683B617B6841
:103AA0009B69FB60FB6823F4E043FB60FB6823F445
:103AB0004073FB603B681B681B02FA681343FB60A2
:103AC0007B6923F020037B613B689B681B017A695B
:103AD00013437B617B681E4A93420DD17B6923F0BF
:103AE00080037B613B68DB681B017A6913437B6160
:103AF0007B6923F040037B617B68154A934213D1B5
:103B00003B6923F480633B613B6923F400633B61C1
:103B10003B685B699B003A6913433B613B689B6967
:103B20009B003A6913433B617B683A695A607B6842
:103B3000FA689A613B685A687B689A637B687A691D
:103B40001A6200BF1C37BD465DF8047B704700BF9A
:103B50000000014080B487B000AF786039607B68B6
:103B60001B6A23F480727B681A627B681B6A7B6124
:103B70007B685B683B617B68DB69FB60FB6823F00B
:103B80007003FB60FB6823F00303FB603B681B686A
:103B9000FA681343FB607B6923F400737B613B6825
:103BA0009B681B027A6913437B617B681D4A9342C1
:103BB0000DD17B6923F400637B613B68DB681B02EA
:103BC0007A6913437B617B6923F480637B617B6843
:103BD000144A934213D13B6923F480533B613B6900
:103BE00023F400533B613B685B691B013A69134353
:103BF0003B613B689B691B013A6913433B617B68EE
:103C00003A695A607B68FA68DA613B685A687B688F
:103C1000DA637B687A691A6200BF1C37BD465DF8BB
:103C2000047B70470000014080B487B000AF78602B
:103C300039607B681B6A23F480527B681A627B6858
:103C40001B6A3B617B685B687B617B68DB69FB604F
:103C5000FB6823F4E043FB60FB6823F44073FB60E4
:103C60003B681B681B02FA681343FB603B6923F443
:103C700000533B613B689B681B033A6913433B61FC
:103C80007B68104A934209D17B6923F480437B61AE
:103C90003B685B699B017A6913437B617B687A6946
:103CA0005A607B68FA68DA613B685A687B681A6414
:103CB0007B683A691A6200BF1C37BD465DF8047B19
:103CC000704700BF0000014080B487B000AFF860CB
:103CD000B9607A60FB681B6A7B61FB681B6A23F032
:103CE0000102FB681A62FB689B693B613B6923F038
:103CF000F0033B617B681B013A6913433B617B69BD
:103D000023F00A037B617A69BB6813437B61FB681C
:103D10003A699A61FB687A691A6200BF1C37BD462E
:103D20005DF8047B704780B487B000AFF860B9607D
:103D30007A60FB681B6A23F01002FB681A62FB685A
:103D40009B697B61FB681B6A3B617B6923F4704361
:103D50007B617B681B037A6913437B613B6923F0BA
:103D6000A0033B61BB681B013A6913433B61FB68DD
:103D70007A699A61FB683A691A6200BF1C37BD46CE
:103D80005DF8047B704780B485B000AF786039601F
:103D90007B689B68FB60FB6823F07003FB603A68FC
:103DA000FB68134343F00703FB607B68FA689A6083
:103DB00000BF1437BD465DF8047B704780B487B000
:103DC00000AFF860B9607A603B60FB689B687B611C
:103DD0007B6923F47F437B613B681A027B681A434B
:103DE000BB6813437A6913437B61FB687A699A6005
:103DF00000BF1C37BD465DF8047B704780B485B0BA
:103E000000AF786039607B6893F83C30012B01D1BA
:103E1000022350E07B68012283F83C207B68022269
:103E200083F83D207B681B685B68FB607B681B68D0
:103E30009B68BB60FB6823F07003FB603B681B68FA
:103E4000FA681343FB607B681B68FA685A607B68FA
:103E50001B681C4A934218D07B681B68B3F1804FE3
:103E600013D07B681B68184A93420ED07B681B688E
:103E7000164A934209D07B681B68154A934204D0C6
:103E80007B681B68134A93420CD1BB6823F0800304
:103E9000BB603B685B68BA681343BB607B681B68A8
:103EA000BA689A607B68012283F83D207B68002213
:103EB00083F83C20002318461437BD465DF8047B88
:103EC000704700BF000001400004004000080040AF
:103ED000000C00400040014080B582B000AF786027
:103EE0007B68002B01D101233FE07B6893F83D30D4
:103EF000DBB2002B06D17B68002283F83C20786877
:103F0000FDF716FD7B68242283F83D207B681B6843
:103F1000DA687B681B6822F40052DA60786800F087
:103F200029F97B681B681A697B681B6822F4904238
:103F30001A617B681B685A697B681B6822F02A0239
:103F40005A617B681B68DA687B681B6842F4005220
:103F5000DA607B6800221A647B68202283F83D20A7
:103F60007B68202283F83E20002318460837BD4690
:103F700080BD80B58AB002AFF860B9603B6013467F
:103F8000FB8000237B61FB6893F83D30DBB2202B84
:103F90007CD1BB68002B02D0FB88002B01D1012310
:103FA00075E0FB6893F83C30012B01D102236EE0F1
:103FB000FB68012283F83C20FB6800221A64FB683E
:103FC000212283F83D20FDF7C9FE7861FB68FA885D
:103FD0009A84FB68FA88DA84FB689B68B3F5805F93
:103FE00008D1FB681B69002B04D10023FB61BB686F
:103FF000BB6103E0BB68FB610023BB61FB6800227F
:1040000083F83C202AE03B6800937B6900228021F2
:10401000F86800F040F80346002B01D0032336E097
:10402000FB69002B0BD1BB691B881A46FB681B6818
:10403000C2F308025A60BB690233BB6107E0FB6947
:104040001A78FB681B685A60FB690133FB61FB68E7
:10405000DB8C9BB2013B9AB2FB68DA84FB68DB8C99
:104060009BB2002BCFD13B6800937B69002240219B
:10407000F86800F010F80346002B01D0032306E097
:10408000FB68202283F83D20002300E0022318462D
:104090002037BD4680BD80B590B000AFF860B960F4
:1040A0003B601346FB7150E0BB6CB3F1FF3F4CD05B
:1040B000BB6C002B07D0FDF751FE02463B68D31ABC
:1040C000BA6C9A4241D2FB681B680C33BB62BB6A74
:1040D00053E8003F7B627B6A23F4D073FB63FB6889
:1040E0001B680C33FA6B7A633B63396B7A6B41E87C
:1040F0000023FB62FB6A002BE5D1FB681B681433CD
:104100007B617B6953E8003F3B613B6923F001031E
:10411000BB63FB681B681433BA6B3A62FB61F969D5
:104120003A6A41E80023BB61BB69002BE5D1FB681B
:10413000202283F83D20FB68202283F83E20FB6884
:10414000002283F83C2003230FE0FB681B681A68F9
:10415000BB681340BA689A420CBF01230023DBB24C
:104160001A46FB799A429FD0002318464037BD4635
:1041700080BD00002DE9B04FC0B000AFC7F8F4001B
:10418000D7F8F4301B681B6923F44050D7F8F4309B
:10419000D968D7F8F4301A6840EA01031361D7F8F8
:1041A000F4309A68D7F8F4301B691A43D7F8F43022
:1041B0005B691A43D7F8F430DB691343C7F8F8306A
:1041C000D7F8F4301B68DB6823F4164121F00C01AA
:1041D000D7F8F4301A68D7F8F8300B43D360D7F823
:1041E000F4301B685B6923F44070D7F8F4309969A8
:1041F000D7F8F4301A6840EA01035361D7F8F43075
:104200001A688F4B9A4205D0D7F8F4301A688D4B54
:104210009A4204D1FFF706F9C7F8FC0003E0FFF764
:10422000EDF8C7F8FC00D7F8F430DB69B3F5004FC0
:1042300040F00C81D7F8FC300022C7F8E830C7F80E
:10424000EC20D7E93A4522462B469118B9655B41E7
:10425000FB65D7E91623214612EB0108294643EBFB
:1042600001094FF000024FF000034FEAC90343EA8F
:1042700058734FEAC80290469946234618EB030349
:10428000C7F8E0302B4649EB0303C7F8E430D7F812
:10429000F4305B680022C7F8D830C7F8DC20D7E9D3
:1042A00036120B46DB183B65134642EB03037B6576
:1042B000D7E91423D7E93801FCF7CEFC02460B46B8
:1042C000614BA3FB02235B091C01D7F8FC300022E1
:1042D000C7F8D030C7F8D420D7E9348942464B46D6
:1042E0009118B9645B41FB64D7E91223414612EB94
:1042F000010A494643EB010B4FF000024FF0000367
:104300004FEACB0343EA5A734FEACA0292469B46EE
:1043100043461AEB0303C7F8C8304B464BEB030385
:10432000C7F8CC30D7F8F4305B680022C7F8C0304B
:10433000C7F8C420D7E930120B46DB183B6413469C
:1043400042EB03037B64D7E91023D7E93201FCF782
:1043500083FC02460B4611463B4BA3FB01235B0942
:10436000642202FB03F3CB1ADB0003F13202364B6B
:10437000A3FB02235B095B0003F4F8731C44D7F82A
:10438000FC300022C7F8B830C7F8BC20D7E92E8926
:1043900042464B469118B9635B41FB63D7E90E2354
:1043A00041465118396349464B417B634FF0000247
:1043B0004FF00003D7E90CAB5946CB00514643EA16
:1043C00051735146CA0010461946034642469B188F
:1043D000C7F8B0304B460A4642EB0303C7F8B43087
:1043E000D7F8F4305B680022C7F8A830C7F8AC20D3
:1043F000D7E92A120B46DB18BB62134642EB0303D4
:10440000FB62D7E90A23D7E92C01FCF725FC024619
:104410000B460D4BA3FB02135B09642101FB03F365
:10442000D31ADB003233084AA2FB03235B0903F0F3
:104430000702D7F8F4301B6822449A6005E100BFF8
:1044400000100140001401401F85EB51D7F8FC30EB
:104450000022C7F8A030C7F8A420D7E9288942462F
:104460004B46911839625B417B62D7E9082341468C
:104470005418494643EB01054FF000024FF000038A
:10448000EB0043EA5473E20014461D464346E3182A
:10449000C7F898304B4645EB0303C7F89C30D7F874
:1044A000F4305B680022C7F89030C7F894204FF0D2
:1044B00000024FF00003D7E9244529468B0021462E
:1044C00043EA917321468A00D7E92601FCF7C4FB31
:1044D00002460B46604BA3FB02235B091C01D7F885
:1044E000FC300022C7F88830C7F88C20D7E9228931
:1044F00042464B469118B9615B41FB61D7E90623FF
:1045000041465118396149464B417B614FF00002E9
:104510004FF00003D7E904AB5946CB00514643EABC
:1045200051735146CA0010461946034642469B182D
:10453000C7F880304B460A4642EB0303C7F8843085
:10454000D7F8F4305B680022BB67FA674FF00002CF
:104550004FF00003D7E91E8949468B00414643EAE4
:10456000917341468A00D7E92001FCF775FB0246AA
:104570000B46394BA3FB02135B09642101FB03F3D8
:10458000D31A1B013233344AA2FB03235B0903F025
:10459000F0031C44D7F8FC3000223B677A67D7E968
:1045A0001C8942464B469118B9605B41FB60D7E9D4
:1045B000022341465118396049464B417B604FF018
:1045C00000024FF00003D7E900AB5946CB0051463B
:1045D00043EA51735146CA00104619460346424603
:1045E0009B18BB664B460A4642EB0303FB66D7F8B3
:1045F000F4305B6800223B667A664FF000024FF0B1
:104600000003D7E9188949468B00414643EA917374
:1046100041468A00D7E91A01FCF71EFB02460B4609
:104620000D4BA3FB02135B09642101FB03F3D31AB7
:104630001B013233084AA2FB03235B0903F00F027C
:10464000D7F8F4301B6822449A6000BF07F58077E2
:10465000BD46BDE8B08F00BF1F85EB51014B186808
:10466000704700BF1000002070B50D4D0D4C641B4D
:10467000A4100026A64209D10B4D0C4C02F004FFF9
:10468000641BA4100026A64205D170BD55F8043B5A
:1046900098470136EEE755F8043B98470136F2E7B4
:1046A000F4780008F4780008F4780008F878000836
:1046B00002440346934200D1704703F8011BF9E717
:1046C0002DE9FF4755EC104B002D0E4619462B46A1
:1046D000BBBF05F100431D4600232D230B700D9B2E
:1046E000DDF830A0914623F02008BCBF22461446D6
:1046F000B8F1460F05D0B8F1450F00D101360221BF
:1047000000E0032103AB019302AB009345EC104B97
:104710005346324600F0ECFCB8F1470F074602D191
:1047200019F0010F22D0B8F1460F07EB060910D19E
:104730003B78302B0AD10022002320462946FCF783
:10474000CBF918B9C6F10106CAF80060DAF80030F2
:1047500099440022002320462946FCF7BDF908B100
:10476000CDF80C903022039B4B4507D3039B0E9A48
:10477000DB1B3846136004B0BDE8F087591C039179
:104780001A70F0E7F7B503460029B8BF494203F8AD
:10479000022BB4BF2D222B22092942702ADD0DF1F4
:1047A0000704A4460A27A6460A4691FBF7F607FB2C
:1047B00016153035632A04F1FF340EF8015C3146DA
:1047C000F1DC3031AEF1020504F8011C441C29462D
:1047D00061450AD30DF10902A2EB0E02654588BFBF
:1047E00000221344181A03B0F0BD11F8012B04F88D
:1047F000012FEDE7302330318370C170031DF1E7E5
:104800002DE9F04F2DED028B8DB00C46DDF8608068
:1048100016461F46054601F059FAD0F800A050464A
:10482000FBF7DEFC00230A9323680593D8F80030D9
:1048300094F818B0073323F0070303F10802C8F80F
:104840000020D3E90023C4E91223D4E9128929F016
:1048500000430793CDF8188008EE100A9F4BDDE95E
:1048600006014FF0FF32FCF769F988BBDDE906016C
:104870009A4B4FF0FF32FCF743F948BB002200236C
:1048800040464946FCF732F910B12D2384F84330F5
:10489000934B9448BBF1470F94BF9846804603233F
:1048A0002361059B23F0040222604FF0000900976A
:1048B00033460BAA2146284600F0D8F9013040F0D3
:1048C00090804FF0FF300DB0BDEC028BBDE8F08F53
:1048D00042464B4640464946FCF730F940B14B460C
:1048E000002BBCBF2D2384F843307F487F4BD1E79A
:1048F00063680BF0DF0206925A1C3FD10623636007
:10490000059B616843F48062002303930AABCDE901
:1049100001B309AB49EC108B009322600DF1230326
:104920002846FFF7CDFE069B0999472B804608D104
:10493000C81C02DB6368994241DDABF1020B5FFAF0
:104940008BFBBBF1650F20D801395A4604F15000AA
:104950000991FFF717FF0A9A1318012A814623616C
:1049600002DC2268D20701D5013323619DF8233090
:10497000002B9CD02D2384F8433098E7069A472AD1
:10498000BED1002BBCD10123B9E7BBF1660F18D112
:10499000002963680BDD216113B92268D00702D5B5
:1049A00001330B442361A1654FF00009DEE713B921
:1049B0002268D20701D50233F4E70123F2E74FF072
:1049C000670B0A9B994205DB23682161D807EAD56A
:1049D0004B1CE7E70029D4BFC1F1020201221344B6
:1049E000E0E723685A0507D4236942463146284642
:1049F000B84701302CD164E7BBF1650F40F2E0808D
:104A0000D4E9120100220023FCF766F8002834D014
:104A1000374A012331462846B84701303FF451AFA9
:104A2000DDE909239A4202DB2368D80710D518EE86
:104A3000103A524631462846B84701303FF441AF5C
:104A40004FF0000804F11A090A9B013B434509DCB9
:104A500023689B0700F10581E0680B9B9842B8BF73
:104A6000184630E701234A4631462846B847013008
:104A70003FF427AF08F10108E6E7099B002B39DC7A
:104A80001B4A012331462846B84701303FF419AF8D
:104A9000DDE90923134302D12368D907D8D518EEDD
:104AA000103A524631462846B84701303FF409AF24
:104AB0004FF0000904F11A0A099B5B424B4501DCE7
:104AC0000A9B92E70123524631462846B8470130F7
:104AD0003FF4F7AE09F10109EEE700BFFFFFEF7FFA
:104AE0001475000818750008207500081C7500086A
:104AF000247500080A9AA36D9A42A8BF1A46002A94
:104B0000914637DC4FF0000B29EAE97904F11A02EB
:104B1000A36D0593A3EB09035B4533DCDDE90923B2
:104B20009A423BDB2368DA0738D40A9B059A099935
:104B30009A1AA3EB01099145A8BF9146B9F1000F5C
:104B400035DC4FF0000829EAE97904F11A0ADDE9B9
:104B500009239B1AA3EB090343457FF779AF012390
:104B6000524631462846B84701303FF4AAAE08F114
:104B70000108ECE71346314642462846B847013063
:104B8000C0D19EE60123314628460592B847013040
:104B90003FF497AE059A0BF1010BB9E718EE103A06
:104BA000524631462846B8470130BED189E6059ABB
:104BB0004B46424431462846B8470130C1D180E6D1
:104BC0000A9A012A01DCDB0738D501234246314627
:104BD0002846B84701303FF474AE18EE103A5246FA
:104BE00031462846B84701303FF46BAED4E9120194
:104BF00000220023FBF770FFD8B90A9B08F10102DD
:104C0000013B31462846B84701300ED159E6012311
:104C1000524631462846B84701303FF452AE08F1BB
:104C200001080A9B013B4345F1DC4B4604F150026D
:104C3000DCE64FF0000804F11A0AF2E701234246CD
:104C4000DFE701234A4631462846B84701303FF4A2
:104C500038AE08F10108E3680B995B1A4345F0DCB4
:104C6000FAE64FF0000804F11909F4E72DE9F047DE
:104C7000164699468A680B69DDF820809342B8BFD2
:104C80001346336091F8432007460C460AB10133BE
:104C900033602368990642BF336802333360256866
:104CA00015F0060506D104F1190AE36832689B1A6B
:104CB000AB4226DC94F84320131E226818BF012360
:104CC00092062BD404F1430249463846C0470130CE
:104CD0001ED02368E568326803F00603042B08BF82
:104CE000AD1AA36822690CBF25EAE5750025934239
:104CF000C4BF9B1AED1800261A34B5421AD1002001
:104D000008E00123524649463846C047013003D1E6
:104D10004FF0FF30BDE8F0870135C6E7E1185A1CB7
:104D2000302081F84300224494F8451082F8431063
:104D30000233C7E70123224649463846C0470130BF
:104D4000E6D00136D9E700002DE9FF470F7E0C9D24
:104D5000782F914680460C469A4601F1430207D8C7
:104D6000622F0AD8002F00F0D880582F00F0A380BF
:104D700004F1420584F842703AE0A7F16303152B71
:104D8000F6D801A151F823F0E14D0008F54D0008D7
:104D9000714D0008714D0008714D0008714D0008FB
:104DA000F54D0008714D0008714D0008714D000867
:104DB000714D0008014F0008254E0008E34E000821
:104DC000714D0008714D0008234F0008714D000817
:104DD000254E0008714D0008714D0008EB4E00088B
:104DE0002B681A1D1B682A6004F1420584F84230C2
:104DF0000123A3E020682968060601F104030AD50F
:104E00000E682B60002E03DA2D23764284F843309F
:104E10005E480A2319E00E682B6010F0400F18BF9F
:104E200036B2EFE72B682068191D2960010601D50D
:104E30001E6802E04606FBD51E8854486F2F0CBF43
:104E400008230A23002184F843106568A560002D1B
:104E5000A2BF216821F0040121600EB9002D4DD0C0
:104E60001546B6FBF3F103FB1167C75D05F8017D3D
:104E70003746BB420E46F4D9082B0BD12368DE0718
:104E800008D5236961689942DEBF302305F8013CEB
:104E900005F1FF35521B2261CDF800A04B4603AA55
:104EA00021464046FFF7E2FE01304CD14FF0FF3083
:104EB00004B0BDE8F087354881F84570296823685B
:104EC00051F8046B29601D0614D5DF0744BF43F079
:104ED000200323601EB9236823F0200323601023DE
:104EE000B0E7236843F0200323607823284884F840
:104EF0004530E3E7590648BFB6B2E6E71546BBE7DB
:104F00002B6826686169181D286035061B6801D565
:104F1000196002E07006FBD5198000232361154655
:104F2000BAE72B681A1D2A601D68626800212846AE
:104F3000FBF75EF908B1401B6060636823610023E2
:104F400084F84330A8E723692A4649464046D047BB
:104F50000130ABD023689B0713D4E068039B9842D1
:104F6000B8BF1846A4E70123324649464046D04719
:104F700001309BD00135E36803995B1AAB42F2DC48
:104F8000EBE7002504F11906F5E700BF26750008D8
:104F9000377500080EB400B59CB01DAB02900690AA
:104FA0006FF00041094807910491094953F8042B17
:104FB00005910068019302A901F078FB029B002291
:104FC0001A701CB05DF804EB03B0704710000020AD
:104FD0000802FFFF2DE9F74F03690C69A34207465A
:104FE000C0F28180013C01F1140800F1140505EBC9
:104FF0008403019358F8243055F8242001339A4251
:105000004FEA840B08EB8409B2FBF3F631D34FF07F
:10501000000E4046AC46F24650F8042B93B206FB15
:1050200003E34FEA134E9BB2AAEB0303DCF800A0A4
:10503000120C13FA8AF306FB02E20093009B4FEA7C
:10504000124E92B2C2EB1A4202EB2342BDF800307C
:10505000814543EA02434CF8043B4FEA224ADBD243
:1050600055F80B302BB9019B043B9D421A462ED3B9
:105070003C61384601F0C6F8002824DB013628469A
:105080004FF0000C58F8042BD0F800E093B2ACEBD2
:105090000303120C13FA8EF3C2EB1E4202EB2342FF
:1050A0009BB243EA0243C14540F8043B4FEA224C1D
:1050B000E8D255F8242005EB840322B9043B9D4235
:1050C0001A460AD33C61304603B0BDE8F08F12683F
:1050D000043B002ACCD1013CC7E71268043B002AFC
:1050E000F0D1013CEBE70020EEE7000000000000FB
:1050F0002DE9F04F2DED048B57EC106B93B0456A02
:10510000DDF88080069110EE10AA044609920C93F7
:10511000BB4675B9102000F0DDFD0246606220B983
:10512000A74BEA21A74801F0D1FBC0E90155056072
:10513000C560636A196851B15A684A600123934097
:105140008B60204600F01CFE636A00221A603B1E42
:10515000AABF002323F0004BC8F800309A4BBCBF15
:105160000122C8F8002033EA0B031BD10C9A42F24B
:105170000F731360CBF31303334300F09285219B2D
:1051800063B9924B22E0924B01930833219A13604A
:10519000019813B0BDEC048BBDE8F08F8B4B0193ED
:1051A0000333F3E70022002350465946FBF794FCF3
:1051B0004BEC19AB804658B10C9A01231360219B2C
:1051C000002B00F06B8583481860431E0193DFE7D6
:1051D0004BEC10AB10AA11A9204601F0B9F8CBF3A3
:1051E0000A5508EE100A002D00F0848019EE903A5E
:1051F000C3F3130343F07F57564647F44017A5F215
:10520000FF35CDF83880744B002230463946FBF725
:1052100043F865A3D3E90023FBF7F6F964A3D3E9C8
:105220000023FBF73BF8064628460F46FBF782F9BA
:1052300061A3D3E90023FBF7E7F902460B463046AA
:105240003946FBF72BF806460F46FBF78DFC00228C
:105250000090002330463946FBF748FC50B10098D7
:10526000FBF768F932463B46FBF736FC10B9009B6A
:10527000013B0093009B162B5AD8009A574B03EB27
:10528000C203D3E9002351EC190BFBF72FFC0028D4
:1052900050D0009B013B009300230B93109B5D1BA0
:1052A0006B1E059345BFC5F1010304930023002342
:1052B0004CBF05930493009B002B3DDB059B009A9C
:1052C0000A921344059300230793069B092B00F2CF
:1052D0008980052BC4BF043B0693069BA3F1020300
:1052E000CCBF00250125032B00F28780DFE803F007
:1052F0002D3A3859DDE910531D4405F23243202B75
:10530000C1BFC3F1400305F212400BFA03F326FAC2
:1053100000F0DABFC3F1200306FA03F01843FBF7ED
:10532000F9F801230646A1F1F877013D0E936AE7EB
:105330000123B2E70B90B1E7049B009A9B1A0493F8
:105340005342079300230A93BFE700230893099B66
:10535000002B55DC0123CDE902331A4609920CE0FB
:105360000123F3E70023099A0893009B1344029357
:105370000133012B0393B8BF0123606A002242600E
:10538000042202F114069E4241683DD9204600F0F5
:10539000B7FC019000283BD1114B02464FF4D57168
:1053A000C0E60123DFE700BF61436F63A787D23FF9
:1053B000B3C8608B288AC63FFB799F501344D33F04
:1053C000557500086C7500080000F07F51750008E5
:1053D00048750008257500080000F83F6076000851
:1053E000C775000801250023069308954FF0FF3389
:1053F000CDE9023300221223B0E701230893F5E739
:10540000099BCDE90233B8E7013141605200B8E7AA
:10541000636A019A1A60039B0E2B00F29D80002D97
:1054200000F09A80009B002B32DDB74A03F00F0397
:1054300002EBC303D3E90089009BD8054FEA231789
:1054400016D5B24B51EC190BD3E90823FBF706FA3A
:1054500007F00F0782468B460325AC4E57B94246EC
:105460004B4650465946FBF7F9F982468B4628E0F1
:105470000225F2E7F90708D540464946D6E9002358
:10548000FBF7C2F80135804689467F100836E5E70C
:1054900000F09B80009B9D4F5E429B4B06F00F02ED
:1054A00003EBC203D3E9002351EC190BFBF7ACF873
:1054B000361182468B4600230225002E7AD1002B1E
:1054C000D3D10B9B002B00F08280914B00225046E1
:1054D0005946FBF70BFB002879D0039B002B76D0B5
:1054E000029B002B36DD009B504659465F1E002272
:1054F000884BFBF789F8029E82468B460135284689
:10550000FBF718F852465B46FBF77EF8824B002209
:10551000FAF7C4FED046D9468246A1F1507B002E50
:1055200058D17E4B002240464946FAF7B5FE524616
:105530005B4680468946FBF7F7FA002840F09582E3
:1055400052460BF1004340464946FBF7CFFA00288C
:1055500040F089825BEC19AB119B002BC0F24881B3
:10556000009A0E2A00F34481674B03EBC203D3E990
:105570000089099B002B80F2D580039B002B00F350
:10558000D18040F06F82654B002240464946FBF7D0
:105590003BF852465B46FBF7BDFA039E37460028B0
:1055A00040F04582019D312305F8013B009B01330A
:1055B000009340E2F20705D5D7E90023FBF724F872
:1055C000013501237610083777E7022579E7009F38
:1055D000039E94E701994C4B31440D91089903EBDC
:1055E000C60353E90223002943D04D490020FBF7AD
:1055F00035F952465B46FAF74FFE019D82468B46CF
:1056000049464046FBF7B0FA0646FAF793FF0246D2
:105610000B4640464946FAF73FFE303605F8016B27
:1056200052465B4680468946FBF760FA002863D104
:1056300042464B4636490020FAF72EFE52465B465C
:10564000FBF754FA002840F0B5800D9B9D4281D0B5
:10565000304B002250465946FAF7D6FF2D4B824672
:105660008B46404649460022FAF7CEFF80468946DF
:10567000C6E750465946FAF7C7FF0D9B019D0F93A9
:1056800082468B4649464046FBF76EFA0646FAF7D5
:1056900051FF303602460B4640464946FAF7FCFDBC
:1056A00005F8016B0D9B9D42804689464FF0000234
:1056B00024D11B4B50465946FAF7F0FD02460B46E3
:1056C00040464946FBF730FA002873D152465B4604
:1056D00013490020FAF7E0FD02460B4640464946D2
:1056E000FBF704FA00283FF435AF0F9D6B1E0F93B4
:1056F00015F8013C302BF8D0009749E0054BFAF73C
:1057000083FF80468946BDE760760008387600084A
:105710000000F03F0000244000001C400000144046
:105720000000E03F019D56465F4642464B463046EC
:105730003946FBF793F8FBF717FA8246FAF7FAFEB9
:1057400042464B46FAF760FF02460B463046394662
:105750000AF13006FAF7A0FD05F8016B019E039FE0
:10576000AE1BB74202460B4635D1FAF797FD4246CB
:105770004B4606460F46FBF7D7F9D0B942464B4693
:1057800030463946FBF7A8F910B11AF0010F10D1D5
:10579000204618EE101A00F0F3FA002300982B7040
:1057A0000C9B01301860219B002B3FF4F1AC1D6075
:1057B000EEE4009F2B461D4613F8012D392A06D131
:1057C000019A9A42F7D10199302201370A701A786A
:1057D00001321A7090E7A64B0022FAF715FF00225B
:1057E000002306460F46FBF777F900289DD0CFE748
:1057F000089A002A00F0D780069A012A00F3BA809E
:105800000E9A002A00F0B28003F23343079E049DF3
:10581000049A1A440492059A01211A4420460592DA
:1058200000F066FB0746002D0CDD059B002B09DD13
:10583000AB42049AA8BF2B46D21A0492059AED1ADD
:10584000D31A0593079B1BB3089B002B00F0AF8076
:10585000002E13DD39463246204600F009FC18EED2
:10586000102A01460746204600F058FB18EE101A91
:105870008046204600F084FA08EE108A079B9A1BA7
:1058800006D018EE101A204600F0F2FB08EE100ABF
:105890000121204600F02CFB0A9B002B064640F31A
:1058A00088801A460146204600F0E2FB069B012B49
:1058B000064640F381804FF00008336906EB83030E
:1058C000186900F0C5FAC0F12000059B184410F0DB
:1058D0001F0000F09280C0F12003042B40F38A8067
:1058E000C0F11C00049B03440493059B034405443E
:1058F0000593049B002B07DD18EE101A1A4620466C
:1059000000F010FC08EE100A059B002B05DD314667
:105910001A46204600F006FC06460B9B002B6ED074
:1059200018EE100A314600F06DFC002867DA009B83
:10593000013B18EE101A00930A220023204600F0C3
:1059400041FA089B08EE100A002B00F0B1810023F9
:1059500039460A22204600F035FA029B002B074602
:1059600000F38E80069B022B51DC89E0109BC3F173
:1059700036034BE7039B5E1E079BB342BFBF079BEB
:105980000796F21A0A9BB6BF9B189E1B0A93039BAD
:10599000B8BF0026002BB7BFDDE90323DDE90335DF
:1059A0009D1A002334E7079E049D089F3BE7079A52
:1059B00067E7069B012B18DCBAF1000F15D1CBF37A
:1059C000130393B92BF000431B0D1B0583B1049BFC
:1059D00001330493059B013305934FF001080A9BA3
:1059E000002B7FF46AAF01206FE74FF00008F6E765
:1059F0009846F4E73FF47DAF18461C3072E7039BEE
:105A0000002B37DC069B022B34DD039B0293029BA9
:105A10006BB931460522204600F0D4F9014606460E
:105A200018EE100A00F0EEFB00283FF7BBAD099B13
:105A3000019DDB4300934FF000083146204600F003
:105A40009FF9002F3FF4A4AEB8F1000F05D0B84580
:105A500003D04146204600F093F93946204600F035
:105A60008FF995E600263746E1E70097374699E536
:105A700000002440089B002B00F0CA80039B029387
:105A8000002D05DD39462A46204600F04BFB07462F
:105A9000B8F1000F5BD07968204600F031F9054677
:105AA00028B9874B024640F2EA21FFF73BBB3A692F
:105AB0000232920007F10C010C3000F013F90122C0
:105AC0002946204600F02EFB019B03F10109DDE988
:105AD0000123134405930AF00103B84604930746D3
